:100000000C94A3000C94CB000C94CB000C94CB006C
:100010000C94CB000C94CB000C94CB000C94CB0034
:100020000C94CB000C94900B0C94CB000C942C08EB
:100030000C94CB000C94CB000C94CB000C94CB0014
:100040000C94D30C0C94CB000C94CD050C94A70508
:100050000C94CB000C94CB000C94CB000C94CB00F4
:100060000C94FF050C94CB0007634236B79BD8A7CE
:100070001A39685618AEBAAB558C1D3CB7CC5763CD
:10008000BD6DEDFD753EF6177231BF000000803F7B
:1000900008000000BE922449123EABAAAA2ABECD97
:1000A000CCCC4C3E00000080BEABAAAAAA3E000009
:1000B0000000BF000000803F000000000008417801
:1000C000D3BB4387D1133D190E3CC3BD4282AD2B38
:1000D0003E68EC8276BED98FE1A93E4C80EFFFBE30
:1000E00001C4FF7F3F00000000000000000023006B
:1000F0002600290000000000240027002A0000003C
:100100000000250028002B00040404040404040457
:1001100002020202020203030303030301020408B2
:100120001020408001020408102001020408102061
:1001300000000008000201000003040700000000A6
:1001400000000000091611241FBECFEFD8E0DEBF6B
:10015000CDBF11E0A0E0B1E0EAEDF5E302C005900B
:100160000D92A83AB107D9F724E0A8EAB1E001C09E
:100170001D92A835B207E1F710E0C3EAD0E004C051
:100180002197FE010E94E01AC23AD107C9F70E94E6
:10019000620D0C94EB1A0C940000FC01538D448DFD
:1001A000252F30E0842F90E0821B930B541710F022
:1001B000CF96089501970895FC01918D828D98172F
:1001C00061F0828DDF01A80FB11D5D968C91928D3B
:1001D0009F5F9F73928F90E008958FEF9FEF089538
:1001E000FC01918D828D981731F0828DE80FF11D01
:1001F000858D90E008958FEF9FEF0895FC01918D1C
:10020000228D892F90E0805C9F4F821B91098F7314
:10021000992708958EE793E00E94FE0021E0892B44
:1002200009F420E0822F0895FC01848DDF01A80FDE
:10023000B11DA35ABF4F2C91848D90E001968F730E
:100240009927848FA689B7892C93A089B1898C912D
:1002500080648C93938D848D981306C00288F389F3
:10026000E02D80818F7D80830895EF92FF920F9320
:100270001F93CF93DF93EC0181E0888F9B8D8C8D52
:10028000981305C0E889F989808185FD24C0F62E80
:100290000B8D10E00F5F1F4F0F731127E02E8C8D19
:1002A000E8120CC00FB607FCFACFE889F989808103
:1002B00085FFF5CFCE010E941401F1CF8B8DFE0199
:1002C000E80FF11DE35AFF4FF0820B8FEA89FB899B
:1002D0008081806207C0EE89FF896083E889F9899F
:1002E00080818064808381E090E0DF91CF911F91D5
:1002F0000F91FF90EF900895CF93DF93EC01888DDD
:100300008823C9F0EA89FB89808185FD05C0A88919
:10031000B9898C9186FD0FC00FB607FCF5CF80819F
:1003200085FFF2CFA889B9898C9185FFEDCFCE01E9
:100330000E941401E7CFDF91CF91089580E090E013
:10034000892B29F00E940A0181110C940000089564
:1003500085ED8093BC008091BC0084FDFCCF1092A1
:100360005903089540910103262F30E0240F311DD9
:1003700021323105DCF4209159032430C9F4FC0109
:1003800080E090E0861758F4309101032191DC0160
:10039000A152BD4FA30FB11D2C930196F3CF8091B5
:1003A0000103680F6093010380E0089581E00895E0
:1003B00082E008950895E091A9018091A801E817CD
:1003C00030F4F0E0E154FD4F808190E008958FEF2C
:1003D0009FEF08959091A9018091A801981750F47A
:1003E000E92FF0E0E154FD4F208130E09F5F9093D2
:1003F000A90102C02FEF3FEFC90108958091A80124
:1004000090E02091A901821B91090895CF92DF927B
:10041000EF92FF920F931F93CF93DF937C01262FD0
:10042000972F8A0180915A03882391F0C62FD72FE6
:100430006E01C40ED51ECC15DD0571F06991D70192
:10044000ED91FC910190F081E02DC7010995F3CF6A
:10045000642F822F0E94B201C801DF91CF911F91BA
:100460000F91FF90EF90DF90CF900895CF93DF939F
:100470001F92CDB7DEB7698320915A032223D1F0B2
:1004800020917D03203240F021E030E0FC013383F5
:10049000228380E090E015C080915B03E82FF0E0BC
:1004A000E45AFC4F998190838F5F80935B03809324
:1004B0007D0305C061E0CE0101960E94B20181E09A
:1004C00090E00F90DF91CF910895089580E090E043
:1004D00008958091AC019091AD01892B29F0E091B4
:1004E000AA01F091AB0109959AB18091010189238C
:1004F0008AB99BB18091010189238BB994B1809114
:100500000001892384B995B180910001892385B9BF
:1005100080919702909198024091FF01892B09F0F8
:10052000E0C08091B0019091B101909398028093C6
:1005300097022091AE013091AF01E0919602F0E078
:10054000EE0FFF1FED54FE4F808191818223932394
:10055000892B89F02091960230E080910201082ECB
:10056000000C990B0197841B910947FD9395821705
:1005700093070CF0B8C28091FF01882309F49DC055
:1005800080E590E0909395028093940220919602EA
:1005900030E080910201082E000C990B019728177A
:1005A000390709F08AC0E09196022BB1F0E0EB51D7
:1005B000FE4F8081082E000C990B822B8BB9E091A5
:1005C00096022AB1F0E0EE50FE4F8081082E000C1A
:1005D000990B822B8AB9E091960225B1F0E0E553A0
:1005E000FE4F8081082E000C990B822B85B9E0917B
:1005F000960224B1F0E0E852FE4F8081082E000CF4
:10060000990B822B84B98091B201882311F023B118
:1006100001C029B18091020290910302822380934C
:10062000930280911B0290911C02892B29F18091E9
:100630009302811105C0109292021092910239C06A
:100640001092900210928F028091910290919202EA
:1006500001969093920280939102809191029091E1
:100660009202499750F110921C0210921B021092B4
:1006700092021092910221C08091930210929202F4
:1006800010929102811115C080918F029091900279
:1006900001969093900280938F0280918F029091A7
:1006A0009002499750F081E090E090931C02809373
:1006B0001B021092900210928F02809196028F5F1F
:1006C000809396022091960230E080910201082EDC
:1006D000000C990B821793070CF0C1C01092960280
:1006E000BEC0442309F4BBC080E590E0909395021E
:1006F00080939402209100023091010280910201C6
:10070000082E000C990B01972817390709F08EC0A5
:10071000E0910002F09101022BB1EB51FE4F80817C
:10072000082E000C990B822B8BB9E0910002F091FE
:1007300001022AB1EE50FE4F8081082E000C990B69
:10074000822B8AB9E0910002F091010225B1E553B4
:10075000FE4F8081082E000C990B822B85B9E09109
:100760000002F091010224B1E852FE4F8081082E70
:10077000000C990B822B84B98091B201882311F06F
:1007800023B101C029B1809102029091030282231A
:100790008093930280911B0290911C02892B29F176
:1007A00080919302811105C01092920210929102E1
:1007B00039C01092900210928F0280919102909114
:1007C00092020196909392028093910280919102FD
:1007D00090919202499750F110921C0210921B02C4
:1007E000109292021092910221C080919302109275
:1007F000920210929102811115C080918F02909106
:10080000900201969093900280938F0280918F02C4
:1008100090919002499750F081E090E090931C02F3
:1008200080931B021092900210928F02809100021E
:100830009091010201969093010280930002209111
:1008400000023091010280910201082E000C990BE8
:100850008217930720F410920102109200028091F7
:100860009702909198020197909398028093970233
:1008700080918D0290918E02019709F529B18091A6
:100880008B0290918C02822380938A02909189023C
:100890008917A9F080938902809185029091860240
:1008A000A0918702B09188020196A11DB11D80938D
:1008B000850290938602A0938702B093880280916C
:1008C0008D0290918E02029709F523B180918B02DF
:1008D00090918C02822380938A02909189028917D9
:1008E000A9F0809389028091850290918602A0915F
:1008F0008702B09188020196A11DB11D80938502E7
:1009000090938602A0938702B0938802809183021D
:1009100090918402019709F529B18091810290910B
:10092000820282238093800290917F028917A9F02E
:1009300080937F0280917B0290917C02A0917D0246
:10094000B0917E020196A11DB11D80937B02909310
:100950007C02A0937D02B0937E02809183029091ED
:100960008402029709F523B180918102909182025D
:1009700082238093800290917F028917A9F080934F
:100980007F0280917B0290917C02A0917D02B091C8
:100990007E020196A11DB11D80937B0290937C0283
:1009A000A0937D02B0937E028091790290917A02A9
:1009B000019709F529B180917702909178028223FD
:1009C00080937602909175028917A9F08093750241
:1009D0008091710290917202A0917302B0917402A1
:1009E0000196A11DB11D8093710290937202A09394
:1009F0007302B09374028091790290917A02029707
:100A000009F523B180917702909178028223809337
:100A10007602909175028917A9F0809375028091F2
:100A2000710290917202A0917302B09174020196CA
:100A3000A11DB11D8093710290937202A093730265
:100A4000B093740280916F0290917002019709F542
:100A500029B180916D0290916E02822380936C0285
:100A600090916B028917A9F080936B0280916702C5
:100A700090916802A0916902B0916A020196A11D4D
:100A8000B11D8093670290936802A0936902B093AE
:100A90006A0280916F0290917002029709F054C02F
:100AA00023B180916D0290916E02822380936C023B
:100AB00090916B02891709F447C080936B02809173
:100AC000670290916802A0916902B0916A02019652
:100AD000A11DB11D8093670290936802A0936902E3
:100AE000B0936A020895E09196022BB1F0E0EB51C9
:100AF000FE4F8081082E000C990B822B8BB9E09160
:100B000096022AB1F0E0EE50FE4F8081082E000CD4
:100B1000990B822B8AB9E091960225B1F0E0E5535A
:100B2000FE4F8081082E000C990B822B85B9E09135
:100B3000960224B1F0E0E852FE4F8081082E000CAE
:100B4000990B822B84B917CD08950E94E61A1F9243
:100B50000F920FB60F9211242F933F934F935F93F1
:100B60006F937F938F939F93AF93BF93EF93FF9375
:100B70008EE793E00E941401FF91EF91BF91AF9136
:100B80009F918F917F916F915F914F913F912F91A5
:100B90000F900FBE0F901F9018951F920F920FB6D7
:100BA0000F9211242F938F939F93EF93FF93E091D4
:100BB0008E03F0918F038081E0919403F09195036F
:100BC00082FD12C09081809197038F5F8F73209177
:100BD0009803821751F0E0919703F0E0E258FC4F40
:100BE000958F8093970301C08081FF91EF919F9132
:100BF0008F912F910F900FBE0F901F9018951F92FD
:100C00000F920FB60F9211242F933F934F935F9340
:100C10006F937F938F939F93AF93BF93EF93FF93C4
:100C20008091B900887F803609F49CC068F58832CD
:100C300009F45BC090F4803109F454C038F488237F
:100C400009F4F6C0883009F44DC0F6C0883109F4C3
:100C50004CC0803209F45DC0EFC0803409F468C034
:100C600048F4803309F455C0883309F0E5C0809317
:100C70005703D8C0803509F44FC0883509F45DC0EA
:100C8000883409F0D9C0D6C0883909F4C7C0A8F49F
:100C9000883709F467C038F4883609F463C08037B0
:100CA00009F460C0C9C0883809F4B8C0803909F4B3
:100CB0005FC0803809F0C0C05BC0803B09F486C0CB
:100CC00038F4803A09F466C0883A09F47FC0B4C0A9
:100CD000803C09F4A7C0883C09F4A4C0883B09F40F
:100CE0008AC0AAC08091340310C0909156038091AD
:100CF0005503981770F5E091560381E08E0F8093AD
:100D00005603F0E0EB5CFC4F80818093BB0085ECE8
:100D100086C0809357038EC0E091560381E08E0F0A
:100D2000809356038091BB00F0E0EB5CFC4F808326
:100D300090915603809155036EC0E091560381E077
:100D40008E0F809356038091BB00F0E0EB5CFC4F6C
:100D500080838091580381116DC081E080933303BB
:100D600084EA61C083E08093590310922503CFCFBA
:100D700080912503803208F051C0E091250381E085
:100D80008E0F809325038091BB00F0E0EB5FFC4F5A
:100D90008083BDCF85EC8093BC0010925903809175
:100DA0002503803230F4E0912503F0E0EB5FFC4F47
:100DB00010826091250370E0E0910303F091040339
:100DC00085E093E009951092250336C084E0809376
:100DD00059031092020310920103E091FF02F09177
:100DE0000003099580910103811105C081E0809382
:100DF00001031092DF02E091020381E08E0F8093E5
:100E00000203F0E0E152FD4F80818093BB0090919E
:100E1000020380910103981708F479CF85E8809345
:100E2000BC000AC085EC8093BC001092590304C03A
:100E3000109257030E94A801FF91EF91BF91AF91CB
:100E40009F918F917F916F915F914F913F912F91E2
:100E50000F900FBE0F901F901895FC0190819C3051
:100E600080F5818128E830E0281B310987FD339522
:100E7000220F331F220F331F621773077CF082810A
:100E800028E532E0281B310987FD3395220F331FF7
:100E9000220F331F621773070CF49B012250310994
:100EA000220F331F4FB7F894892F90E0FC01EE0F0B
:100EB000FF1F8E0F9F1FFC01E556FD4F32832183DC
:100EC0004FBF0895CF92DF92EF92FF92CF93DF93BF
:100ED000EC01603282E078070CF03DC077FD06C07F
:100EE000653B71052CF064EB70E002C060E070E0DF
:100EF000898128E830E06901C81AD10887FDD394B8
:100F0000CC0CDD1CCC0CDD1C0D2C000CEE08FF08FD
:100F10008A8128E532E0281B310987FD3395220FAD
:100F2000331F220F331FC901330FAA0BBB0B9C01C8
:100F3000AD012C193D094E095F09DB010E94BA166B
:100F400024EB30E040E050E00E949016C20ED31E29
:100F5000E41EF51EB601CE01DF91CF91FF90EF9018
:100F6000DF90CF900C942D071F93CF93DF93EC016C
:100F7000162F88818C3008F04EC061E0812F0E94CE
:100F80004F0C8881E82FF0E09F01220F331FE20F02
:100F9000F31FE556FD4F1F739081907C192B108332
:100FA00019821A826CE00E94C01A9CE0899FB001ED
:100FB000112440E050E09A01260F371FF901EE0F8F
:100FC000FF1F2E0F3F1FF901E556FD4F908196FD43
:100FD00016C04F5F5F4F4C30510569F781110FC04C
:100FE0001092800082E08093810010928500109220
:100FF0008400B19A80916F00826080936F00E881D5
:10100000F0E0CF01880F991FE80FF91FE556FD4F5B
:101010008081806480838881DF91CF911F910895C2
:10102000FC0190919A029C30A0F481E0890F80939A
:101030009A029083892F90E0FC01EE0FFF1F8E0F24
:101040009F1FFC01E556FD4F88EB9BE09283818357
:1010500008958FEF808308951F920F920FB60F921D
:1010600011242F933F934F935F936F937F938F93AD
:101070009F93AF93BF93EF93FF938091990287FF64
:1010800005C010928500109284001BC02091990227
:10109000022E000C330B80919A0290E0281739073A
:1010A00084F480919902082E000C990BFC01EE0F3C
:1010B000FF1F8E0F9F1FFC01E556FD4F808186FDAF
:1010C00015C0809199028F5F8093990220919902B7
:1010D000022E000C330B80919A0290E028173907FA
:1010E000C4F4809199028C3064F113C0809199020C
:1010F000082E000C990BFC01EE0FFF1F8E0F9F1F97
:10110000FC01E556FD4F808160E08F730E941F0C4B
:10111000D8CF8091840090918500049680349C49BA
:1011200018F480E49CE905C08091840090918500CA
:10113000049690938900809388008FEF80939902A2
:101140003BC0209184003091850080919902082E47
:10115000000C990BFC01EE0FFF1F8E0F9F1FFC016F
:10116000E556FD4F81819281820F931F90938900F4
:101170008093880080919902082E000C990BFC0145
:10118000EE0FFF1F8E0F9F1FFC01E556FD4F808164
:1011900086FF12C080919902082E000C990BFC0169
:1011A000EE0FFF1F8E0F9F1FFC01E556FD4F808144
:1011B00061E08F730E941F0CFF91EF91BF91AF917F
:1011C0009F918F917F916F915F914F913F912F915F
:1011D0000F900FBE0F901F901895FC01838591E032
:1011E00090935A0380937C0310925B0310927D03CB
:1011F0008BE194E00E94360281E00C94DD0ACF92EC
:10120000DF92EF92FF92CF93DF93EC0160E40E94B4
:10121000ED088B85909159039111FCCF91E090934B
:101220005903909358032FEF2093570310925603BE
:1012300023E0209355039093340390913403880F57
:10124000892B8093340380913303813061F41092B1
:101250003303809134038093BB008091BC0083FDF5
:10126000F8CF85EC01C085EE8093BC0080915903D6
:101270008130E1F380915603843018F48091560355
:1012800001C084E0A5E3B3E02FEB32E0F9019E2F2B
:10129000921B981718F49D919193F9CF1092A90180
:1012A0008093A8018BE194E00E94EA01F82E8BE183
:1012B00094E00E94EA01C12CD12CDF2C8C299D29BD
:1012C0006C01990FEE08FF088BE194E00E94EA019F
:1012D0008BE194E00E94EA018881882341F066272F
:1012E0007727CB016C197D098E099F0902C0C701C0
:1012F000B601DF91CF91FF90EF90DF90CF900895EE
:10130000CF93DF93CDB7DEB7E0970FB6F894DEBF8B
:101310000FBECDBF98E1E4E3F1E0DE015996019004
:101320000D929A95E1F798E1ECE4F1E0DE01119677
:1013300001900D929A95E1F781508C30E0F490E0A5
:101340002091AE013091AF01880F991FE1E0F0E0EC
:10135000EC0FFD1FE80FF91F662329F0808D918D9A
:10136000822B932B04C080819181822393239093BD
:10137000AF018093AE01E0960FB6F894DEBF0FBECA
:10138000CDBFDF91CF9108950C9482160C947A16FC
:101390008823E1F10E94C70C709366026093650296
:1013A00080916502909166022091630230916402FF
:1013B0008217930729F0821B930B883C910578F4E0
:1013C00080911202909113020196909313028093E0
:1013D00012020E94C70C70936202609361028091B6
:1013E0001202909113024A9770F081E080931402E8
:1013F00010926202109261020E94C70C7093160252
:101400006093150208951092140208950E94C70C6B
:101410007093640260936302C3CF68E077E087E46F
:1014200094E00E942D0768E077E08AE494E00E944F
:101430002D0781E00C94C8090F931F9361E082E0AF
:101440000E941F0C83E290E00197F1F760E082E0D8
:101450000E941F0CEFE1F1E06491EBE0F1E0E49118
:10146000F0E0EE0FFF1FE651FF4F8591949100E1F0
:1014700017E220E030E0462F0E941D0D6115710536
:101480008105910539F0DC01CB010196A11DB11D4B
:10149000BF7003C080E090E0DC018093170290935E
:1014A0001802A0931902B0931A021F910F91089588
:1014B00080E10E948B0C90931102809310028FE0C8
:1014C0000E948B0C90930F0280930E028EE00E947C
:1014D0008B0C90930D0280930C0280910A029091E4
:1014E0000B022091040230910502821B930B209184
:1014F0001002309111022817390710F461E001C081
:1015000060E08CE00E9480098091080290910902BD
:101510002091040230910502821B930B20910E0250
:1015200030910F022817390710F461E001C060E024
:1015300089E00E9480098091060290910702209123
:10154000040230910502821B930B20910C02309112
:101550000D022817390710F461E001C060E086E051
:101560000C948009CF92DF92EF92FF920F931F931A
:10157000CF93DF936C017A018B01C0E0D0E0CE15F0
:10158000DF0589F0D8016D918D01D601ED91FC91B7
:101590000190F081E02DC6010995892B11F47E019F
:1015A00002C02196ECCFC701DF91CF911F910F911F
:1015B000FF90EF90DF90CF900895382F20917D031A
:1015C00090917C03213208F049C080915903811128
:1015D000FCCF42E040935903309358033FEF3093E0
:1015E00057031092560320935503ACE5B3E045E34F
:1015F00053E0FA013E2F341B321718F43D9131931A
:10160000F9CF1092340320913403990F922B9093C9
:10161000340390913303913061F41092330390912D
:1016200034039093BB009091BC0093FDF8CF95ECF0
:1016300001C095EE9093BC00909159039230E1F374
:10164000909157039F3F79F080915703803241F08A
:1016500080915703803331F084E005C081E003C0FE
:1016600082E001C083E010925B0310927D03109230
:101670005A030895CF93DF93EC0180915604909123
:101680005704009719F06BE40E94ED08D0935704BB
:10169000C09356048CE599EEAEE5BCE389839A834A
:1016A000AB83BC8385E59AE2AFE0B6E38D839E838E
:1016B000AF83B88788E090E09A87898781E080933C
:1016C0005A0380E380937C0310925B0310927D03A6
:1016D0006DE48BE194E00E9436026B857C85660F99
:1016E000771F8BE194E00E94360281E00E94DD0AC0
:1016F0006AE4CE01DF91CF910C94ED08009769F078
:10170000FC0101900020E9F73197AF01481B590B0C
:10171000BC018EE793E00C94B20A80E090E008955B
:101720001F920F920FB60F9211242F933F934F9356
:101730005F936F937F938F939F93AF93BF93EF9339
:10174000FF9380913103909132038093B200809196
:101750002D0390912E03A0912F03B0913003019699
:10176000A11DB11D80932D0390932E03A0932F03F1
:10177000B093300340912D0350912E0360912F03BD
:10178000709130038091290390912A03A0912B033B
:10179000B0912C03481759076A077B07B0F0809176
:1017A0002803811112C081E08093280310922D0339
:1017B00010922E0310922F0310923003E091260313
:1017C000F0912703099510922803FF91EF91BF91A3
:1017D000AF919F918F917F916F915F914F913F91C9
:1017E0002F910F900FBE0F901F901895833081F0AE
:1017F00028F4813099F08230A1F008958730A9F063
:101800008830B9F08430D1F4809180008F7D03C09E
:10181000809180008F7780938000089584B58F77C2
:1018200002C084B58F7D84BD08958091B0008F770C
:1018300003C08091B0008F7D8093B00008951F9306
:10184000CF93DF93282F30E0F901E05DFE4F8491C4
:10185000F901E45EFE4FD491F901E85FFE4FC491B7
:10186000CC23C9F0162F81110E94F60BEC2FF0E06B
:10187000EE0FFF1FE250FF4FA591B4918FB7F89480
:10188000111105C09C91ED2FE095E92302C0EC9168
:10189000ED2BEC938FBFDF91CF911F910895CF93E4
:1018A000DF9390E0FC01E45EFE4F2491FC01E85FD1
:1018B000FE4F8491882361F190E0880F991FFC010D
:1018C000EC50FF4FC591D491FC01E250FF4FA59120
:1018D000B491611109C09FB7F89488812095822343
:1018E0008883EC912E230BC0623061F49FB7F8948B
:1018F0003881822F809583238883EC912E2B2C9323
:101900009FBF06C08FB7F894E8812E2B28838FBF26
:10191000DF91CF9108958E3008F08E5087708064EB
:1019200080937C0080917A00806480937A0080911B
:101930007A0086FDFCCF809178002091790090E0BC
:10194000922B08953FB7F8948091520490915304DC
:10195000A0915404B091550426B5A89B05C02F3F13
:1019600019F00196A11DB11D3FBFBA2FA92F982FC5
:101970008827820F911DA11DB11DBC01CD0142E040
:10198000660F771F881F991F4A95D1F708952FB7C3
:10199000F89460914E0470914F048091500490919E
:1019A00051042FBF08951F920F920FB60F9211246A
:1019B0002F933F938F939F93AF93BF9380914E0448
:1019C00090914F04A0915004B091510430914D0476
:1019D00023E0230F2D3720F40196A11DB11D05C072
:1019E00026E8230F0296A11DB11D20934D0480937C
:1019F0004E0490934F04A0935004B09351048091EF
:101A0000520490915304A0915404B091550401964E
:101A1000A11DB11D8093520490935304A0935404CC
:101A2000B0935504BF91AF919F918F913F912F91AA
:101A30000F900FBE0F901F901895CF92DF92EF92EC
:101A4000FF920F931F93E82FF92F05C00150110942
:101A50002109310961F1908196239417B9F305C0EA
:101A6000015011092109310911F190819623941334
:101A7000F7CFC12CD12CE12CF12C0AC08FEFC81A62
:101A8000D80AE80AF80A0C151D052E053F0579F05D
:101A900080818623841791F36C2D7D2D8E2D9F2DB3
:101AA0001F910F91FF90EF90DF90CF90089560E02D
:101AB00070E080E090E01F910F91FF90EF90DF9039
:101AC000CF900895CF93DF93CDB7DEB7A1970FB630
:101AD000F894DEBF0FBECDBF789484B5826084BD1C
:101AE00084B5816084BD85B5826085BD85B5816022
:101AF00085BD80916E00816080936E0010928100A0
:101B0000809181008260809381008091810081605A
:101B1000809381008091800081608093800080911B
:101B2000B10084608093B1008091B00081608093A7
:101B3000B00080917A00846080937A0080917A006E
:101B4000826080937A0080917A00816080937A002D
:101B500080917A00806880937A001092C100109280
:101B6000A9011092A80110925B0310927D031092BC
:101B7000590311E0109358031092330361E082E19E
:101B80000E941F0C61E083E10E941F0C8091B9004C
:101B90008E7F8093B9008091B9008D7F8093B900CA
:101BA00088E48093B80085E48093BC00E0918E03C4
:101BB000F0918F0382E08083E0918A03F0918B03A0
:101BC0001082E0918C03F0918D038FEC8083109252
:101BD0009603E0919203F091930386E08083E09175
:101BE0009003F0919103808180618083E091900364
:101BF000F0919103808188608083E0919003F0915F
:101C00009103808180688083E0919003F09191033B
:101C100080818F7D808387E090E0909303028093A2
:101C2000020210920102109200021093FF018DE057
:101C3000809302018FEF809300011092E4011092D3
:101C4000D70181E090E09093B4018093B30182E0EA
:101C500090E09093B6018093B50184E090E090937A
:101C6000B8018093B70188E090E09093BA01809327
:101C7000B90180E190E09093BC018093BB0180E2C8
:101C800090E09093BE018093BD0180E490E090933A
:101C9000C0018093BF0180E890E09093C2018093DF
:101CA000C10180E091E09093C4018093C30180E082
:101CB00092E09093C6018093C50180E094E09093F8
:101CC000C8018093C70180E098E09093CA01809397
:101CD000C9018FE08093010180EF8093FE01809322
:101CE000F1011092D8011092CB011092E2011092F2
:101CF000D50120E22093E50180EA8093F2018093F0
:101D0000FC0180E88093EF011092D9011092CC0180
:101D10001092DA011092CD012093E70190E69093A2
:101D2000F3019093F40190E49093E6015091F50152
:101D30001092CE014091F6011092CF0130E1309324
:101D4000E90150695093F50140694093F601809391
:101D5000E8011092DD011092D0011092DE01109284
:101D6000D1013093EB0140E54093F7014093F80136
:101D70009093EA011092DF011092D2011092E001DB
:101D80001092D3013093ED0130E33093F901309399
:101D9000FA012093EC011092E1011092D40110920B
:101DA000E3011092D6019093F00190EC9093FB0127
:101DB0009093FD018093EE018091020290910302C5
:101DC000089720F51092B20160910202709103020F
:101DD00080E090E00E9422179B01AC0160E070E07F
:101DE00080E090E40E9488170E94D8170E94F316A2
:101DF00070930302609302028091020290910302A9
:101E000020EF822790958093FE0122C01093B201AB
:101E100060910202709103026850710980E090E0C5
:101E20000E9422179B01AC0160E070E080E090E42A
:101E30000E9488170E94D8170E94F316709303021D
:101E40006093020280910202909103028093E40168
:101E500080911D0290911E02892B09F081C081E0C2
:101E600090E090931E0280931D0226E030E03093B4
:101E7000B1012093B0011092AF011092AE01109207
:101E8000AD011092AC014091290350912A03609159
:101E90002B0370912C03452B462B472B89F09093F5
:101EA000AD018093AC01809126039091270390931C
:101EB000AB018093AA01809170008E7F80937000A7
:101EC000809170008E7F809370008091B0008C7F35
:101ED0008093B0008091B100877F8093B1008091A2
:101EE000B6008F7D8093B600809170008D7F8093C7
:101EF00070008091B10084608093B1008091B10046
:101F00008C7F8093B1008AEF90E0909332038093AE
:101F1000310382E090E0A0E0B0E080932903909349
:101F20002A03A0932B03B0932C0389E692E09093AD
:101F300027038093260310922D0310922E031092F4
:101F40002F03109230031092280380913103909157
:101F500032038093B20080917000816080937000A2
:101F600061E083E00E944F0C61E083E00E941F0C5F
:101F700061E082E00E944F0C60E083E00E944F0C21
:101F800061E088E00E944F0C68E070E08AE494E031
:101F90000E94B40761E089E00E944F0C69E070E0A4
:101FA00087E494E00E94B40761E08AE00E944F0C4D
:101FB0006AE070E084E494E00E94B40761E08BE0A2
:101FC0000E944F0C6BE070E081E494E00E94B40743
:101FD00060E08CE00E944F0C87E294E00E943A0B94
:101FE0001092270484E394E00E943A0B81E08093EE
:101FF000340460E08EE00E944F0C60E08FE00E94AD
:102000004F0C60E080E10E944F0C86E990E09093D5
:1020100005028093040280E090E00E94C609182F18
:102020008093200281E090E00E94C60980931F0205
:10203000212F30E0A901582B50930B0240930A0244
:1020400082E090E00E94C609182F8093200281E070
:1020500090E00E94C60980931F02212F30E0F90111
:10206000F82BF0933A02E093390284E090E00E946A
:10207000C609182F8093200281E090E00E94C609D3
:1020800080931F02212F30E0A901582B50930902A1
:102090004093080286E090E00E94C609182F8093C2
:1020A000200281E090E00E94C60980931F02212F48
:1020B00030E0F901F82BF0933802E093370288E022
:1020C00090E00E94C609182F8093200281E090E0E2
:1020D0000E94C60980931F02212F30E0A901582BCE
:1020E00050930702409306028AE090E00E94C609DE
:1020F000182F8093200281E090E00E94C60980930F
:102100001F02212F30E0F901F82BF0933602E09303
:1021100035028CE090E00E94C609182F80932002BF
:102120008DE090E00E94C609282F80931F02812F26
:1021300090E0922BA0E0B0E080934602909347029B
:10214000A0934802B09349028EE090E00E94C60935
:10215000182F809320028FE090E00E94C609282F5C
:1021600080931F02812F90E0922BA0E0B0E080933B
:10217000400290934102A0934202B093430262E076
:10218000262E312C74E0872E912CA12CB12C0E948C
:10219000C70C00915B0210915C0220915D023091AE
:1021A0005E02DC01CB01801B910BA20BB30B0B97E2
:1021B000A105B10518F081E080935A0280911B02BD
:1021C00090911C02892B29F180915902811123C021
:1021D00081E08093590280915702909158020196B4
:1021E0008770992790935802809357020E94C70CDA
:1021F00060935B0270935C0280935D0290935E0239
:1022000010925A02109256021092550210925402E5
:1022100002C010925902ECE3F1E08491E8E2F1E0AF
:102220001491E4E1F1E00491002379F081110E941E
:10223000F60BE02FF0E0EE0FFF1FE651FF4FA591E8
:10224000B4918C91182381E009F480E0817080932F
:10225000040180915702909158028230910509F44F
:10226000FEC130F4009761F0019709F474C072C4A4
:102270008330910509F4C5C2049709F492C36AC476
:102280000E94580A0E941C0A6CED75E087E494E0F5
:102290000E942D076CED75E08AE494E00E942D0702
:1022A00067E370E084E494E00E94620762E370E018
:1022B00081E494E00E9462076AE487E294E00E946D
:1022C000ED086AE484E394E00E94ED081092530262
:1022D0001092520210924E0210924F02109250022F
:1022E0001092510288E891E00E947E0B60911702E3
:1022F000709118028091190290911A022AE330E03D
:1023000040E050E00E94C21619A28E010F5D1F4FDF
:10231000CA01B9012AE030E040E050E00E94C21654
:10232000605DF80162938F0121153105410551056A
:1023300079F7CF010E947E0B85E991E00E947E0B28
:102340000E94C70C60934A0270934B0280934C0228
:1023500090934D02FFC380915A02882309F4FAC377
:102360000E94580A8091460290914702A09148022B
:10237000B0914902885F984FAF4FBF4F8034F6E06D
:102380009F07A105B10558F0853328E09207A10504
:10239000B10538F084E398E0A0E0B0E002C080E44A
:1023A00096E0909345028093440280914002909180
:1023B0004102A0914202B0914302885F984FAF4F13
:1023C000BF4F803436E09307A105B10558F085333F
:1023D00048E09407A105B10538F084E398E0A0E057
:1023E000B0E002C080E496E090933F0280933E020A
:1023F0000E94C70C2091150230911602DC01CB011E
:10240000821B930BA109B109813D9740A105B1053C
:1024100010F0109214020E94C70C70933D0260935A
:102420003C02C0901002D090110200910402109161
:102430000502E0900A02F0900B02E01AF10ACE14B5
:10244000DF04F8F48091080290910902801B910B3F
:1024500020910E0230910F028217930708F0CFC32C
:102460008091060290910702801B910B20910C0233
:1024700030910D022817390708F0C1C30E940D0AD8
:10248000BEC3EC14FD0438F5809108029091090256
:10249000801B910B20910E0230910F0228173907F3
:1024A000D0F48091060290910702801B910B20913D
:1024B0000C0230910D022817390708F0A5C368E017
:1024C00077E087E494E00E942D0768E775E08AE4EE
:1024D00094E00E942D07CE14DF0408F04FC08091D5
:1024E000080290910902801B910B20910E023091FD
:1024F0000F0228173907C8F480910602909107024D
:10250000801B910B20910C0230910D0282179307D2
:1025100060F468E775E087E494E00E942D0768E0C6
:1025200077E08AE494E00E942D0780910802909160
:102530000902801B910B20910E0230910F02281787
:102540003907E0F48091060290910702801B910BFD
:1025500020910C0230910D022817390778F466E4B7
:1025600075E087E494E00E942D0766E475E08AE454
:1025700094E00E942D0780E00E94C809EC14FD043D
:10258000E0F48091080290910902801B910B209148
:102590000E0230910F028217930778F480910602A1
:1025A00090910702801B910B20910C0230910D023B
:1025B0008217930710F40E940D0A0E941C0A809152
:1025C0001402882309F444C064EA76E087E494E0C6
:1025D0000E942D076BE876E08AE494E00E942D07C4
:1025E00088E991E00E947E0B85E991E00E947E0BD4
:1025F0000E94A20C2B013C0148EEC42E43E0D42ED5
:10260000E12CF12C0E94A20CDC01CB01841995096C
:10261000A609B709883E9340A105B10558F081E0AD
:10262000C81AD108E108F10898EE490E93E0591E46
:10263000611C711CC114D104E104F10419F710925A
:10264000140281E080933B02109213021092120256
:1026500021E030E030935302209352027BC28091FC
:102660005A02882309F476C28091560281111EC055
:1026700081E08093560210923A0210923902109231
:1026800038021092370210923602109235020E94E0
:10269000C70C60933102709332028093330290939F
:1026A00034021092300210922F0255C00E94C70CC3
:1026B00000913102109132022091330230913402A4
:1026C000DC01CB01801B910BA20BB30B853691056E
:1026D000A105B10508F43FC00E94C70C6093310208
:1026E0007093320280933302909334020E94580A0E
:1026F0002091390230913A0280911002909111029A
:10270000820F931F90933A028093390220913702EF
:102710003091380280910E0290910F02820F931F28
:10272000909338028093370220913502309136021F
:1027300080910C0290910D02820F931F90933602AC
:102740008093350280912F029091300201969093F0
:10275000300280932F0220912F02309130022431D9
:10276000310509F049C08091390290913A02B901CE
:102770000E94CC1A462F6093390270933A028091DE
:10278000370290913802B9010E94CC1A7093380236
:10279000609337028091350290913602B9010E9410
:1027A000CC1A7093360260933502642F82E090E079
:1027B0000E94C40960913A0283E090E00E94C4093B
:1027C0006091370286E090E00E94C409609138026F
:1027D00087E090E00E94C409609135028AE090E0B1
:1027E0000E94C409609136028BE090E00E94C40907
:1027F00010925802109257023092530220925202C5
:10280000A9C180915A02882309F4A4C1809156027B
:1028100081111EC081E08093560210920B0210922B
:102820000A021092090210920802109207021092F6
:1028300006020E94C70C60933102709332028093AB
:102840003302909334021092300210922F0255C03E
:102850000E94C70C00913102109132022091330284
:1028600030913402DC01CB01801B910BA20BB30B26
:1028700085369105A105B10508F43FC00E94C70C3B
:10288000609331027093320280933302909334024A
:102890000E94580A20910A0230910B028091100286
:1028A00090911102820F931F90930B0280930A0262
:1028B000209108023091090280910E0290910F023E
:1028C000820F931F909309028093080220910602C1
:1028D0003091070280910C0290910D02820F931F9C
:1028E000909307028093060280912F02909130020C
:1028F00001969093300280932F0220912F02309105
:1029000030022431310509F049C080910A029091CA
:102910000B02B9010E94CC1A462F60930A027093F1
:102920000B028091080290910902B9010E94CC1A11
:102930007093090260930802809106029091070249
:10294000B9010E94CC1A7093070260930602642FAB
:1029500080E090E00E94C40960910B0281E090E069
:102960000E94C4096091080284E090E00E94C409BA
:102970006091090285E090E00E94C409609106021E
:1029800088E090E00E94C4096091070289E090E02D
:102990000E94C409109258021092570283E090E0FE
:1029A000D5C080915A02882309F4D4C08091560280
:1029B000811124C081E0809356026AE487E294E0AA
:1029C0000E94ED086AE484E394E00E94ED080E940E
:1029D000C70C60933102709332028093330290935C
:1029E000340268E077E087E494E00E942D0768E015
:1029F00077E08AE494E00E942D07A6C00E94C70CED
:102A00000091310210913202209133023091340250
:102A1000DC01CB01801B910BA20BB30B89389341D6
:102A2000A105B10508F490C06CED75E087E494E071
:102A30000E942D076CED75E08AE494E00E942D075A
:102A400087E294E00E94FF086B017C0160932B02F7
:102A500070932C0280932D0290932E0284E394E0D5
:102A60000E94FF0860932702709328028093290236
:102A700090932A026C157D058E059F05ECF410924B
:102A80004002109241021092420210924302A701AA
:102A90009601261B370B480B590BCA01B901A5013A
:102AA00094010E949016209346023093470240936F
:102AB00048025093490218C06C197D098E099F097C
:102AC000A50194010E949016209340023093410288
:102AD00040934202509343021092460210924702E2
:102AE0001092480210924902609140028EE090E0FC
:102AF0000E94C4098091400290914102A09142023B
:102B0000B0914302692F7A2F8B2F99278FE090E0A5
:102B10000E94C409609146028CE090E00E94C409C2
:102B20008091460290914702A0914802B0914902DB
:102B3000692F7A2F8B2F99278DE090E00E94C4098E
:102B4000109258021092570284E090E09093530242
:102B5000809352020E94C70C00912302109124021C
:102B60002091250230912602DC01CB01801B910BC4
:102B7000A20BB30B853F9140A105B105E8F10E947E
:102B8000C70C6093230270932402809325029093D4
:102B900026021091030181E0182710930301612F91
:102BA0000E948009612F8DE00E941F0C009121027C
:102BB00010912202D801AA0FBB1FA85FBE4FE0915F
:102BC0005202F0915302EE0FFF1FE85DFE4F8D9110
:102BD0009C91208131818223932361E0892B09F02C
:102BE00060E084E00E9480090F5F1F4F0F70112783
:102BF00010932202009321020E949E01C8CAEC1485
:102C0000FD0408F441CC6BCCCE14DF0408F474CC82
:102C1000B5CCEEE7F3E01382128288EE93E0A0E0F9
:102C2000B0E084839583A683B78328E631E03183BF
:102C3000208325EC30E03587248724EC30E037878B
:102C4000268720EC30E0318B208B21EC30E0338B79
:102C5000228B22EC30E0358B248B26EC30E0378B56
:102C6000268B118E128E138E148EEBE1F4E01382FC
:102C7000128284839583A683B7838AE791E0918348
:102C800080838AE494E00E94100887E494E00E9424
:102C9000100884E494E00E94100881E494E00E940B
:102CA000100880910501E4E3F4E0282F30E0348738
:102CB0002387108211821282138214821582168257
:102CC0001782108612861186E7E2F4E021E0280FD1
:102CD00030E0348723878E5F809305011082118254
:102CE000128213821482158216821782108612862F
:102CF00011860895F999FECF92BD81BDF89A992762
:102D000080B50895262FF999FECF1FBA92BD81BDD7
:102D100020BD0FB6F894FA9AF99A0FBE019608955D
:102D2000052E97FB1EF400940E94A71657FD07D0AE
:102D30000E94C21607FC03D04EF40C94A7165095BF
:102D40004095309521953F4F4F4F5F4F0895909597
:102D50008095709561957F4F8F4F9F4F08950E948A
:102D6000E416A59F900DB49F900DA49F800D911D1A
:102D700011240895B7FF0C94AF160E94AF16821B62
:102D8000930B0895A1E21A2EAA1BBB1BFD010DC0D7
:102D9000AA1FBB1FEE1FFF1FA217B307E407F5070B
:102DA00020F0A21BB30BE40BF50B661F771F881FE7
:102DB000991F1A9469F760957095809590959B017D
:102DC000AC01BD01CF010895A29FB001B39FC00126
:102DD000A39F700D811D1124911DB29F700D811D47
:102DE0001124911D08950E94671788F09F5798F04D
:102DF000B92F9927B751B0F0E1F0660F771F881F00
:102E0000991F1AF0BA95C9F714C0B13091F00E9419
:102E10008117B1E008950C948117672F782F8827C8
:102E2000B85F39F0B93FCCF3869577956795B39540
:102E3000D9F73EF490958095709561957F4F8F4FAF
:102E40009F4F0895E89409C097FB3EF490958095B4
:102E5000709561957F4F8F4F9F4F9923A9F0F92F60
:102E600096E9BB279395F695879577956795B795DE
:102E7000F111F8CFFAF4BB0F11F460FF1BC06F5FC4
:102E80007F4F8F4F9F4F16C0882311F096E911C0D6
:102E9000772321F09EE8872F762F05C0662371F0F7
:102EA00096E8862F70E060E02AF09A95660F771F0B
:102EB000881FDAF7880F9695879597F9089557FD3B
:102EC0009058440F551F59F05F3F71F04795880F98
:102ED00097FB991F61F09F3F79F08795089512162F
:102EE00013061406551FF2CF4695F1DF08C01616DB
:102EF00017061806991FF1CF86957105610508948C
:102F00000895E894BB2766277727CB0197F90895A2
:102F1000FA01EE0FFF1F309621053105A1F1611571
:102F2000710561F48038BFE39B0749F168949038DC
:102F3000810561F08038BFEF9B0741F099234AF586
:102F4000FF3FE1053105210519F1E8940894E79563
:102F5000D901AA2329F4AB2FBE2FF85FD0F310C0FC
:102F6000FF5F70F4A695E0F7F73950F019F0FF3ADB
:102F700038F49F779F930DD00F9007FC90580895D9
:102F800046F00C94651860E070E080E89FE30895D7
:102F90004FE79F775F934F933F932F930E94D918EA
:102FA0002F913F914F915F910E9455190C940418F5
:102FB0000E946717E8F09E37E8F09639B8F49E381B
:102FC00048F4672F782F8827985FF9CF86957795F3
:102FD000679593959539D0F3B62FB1706B0F711D2E
:102FE000811D20F487957795679593950C943C18EF
:102FF0000C9457180C94821729F416F00C94361878
:103000000C9481170C9465180E946717A8F39638E2
:10301000A0F707F80F92E8942BE33AEA48EB5FE752
:103020000E946B190F920F920F924DB75EB70F92DD
:103030000E942119E8E6F0E00E9468184F915F9124
:10304000EF91FF91E595EE1FFF1F49F0FE57E068F5
:103050004427EE0F441FFA95E1F74195550B0E9466
:103060009B180F9007FE0C948F18089597F99F678F
:1030700080E870E060E00895882371F4772321F000
:103080009850872B762F07C0662311F499270DC01F
:103090009051862B70E060E02AF09A95660F771FBA
:1030A000881FDAF7880F9695879597F908959F3FBF
:1030B00031F0915020F4879577956795B795880FF3
:1030C000911D9695879597F908959FEF80EC089547
:1030D000DF93CF931F930F93FF92EF92DF927B01C9
:1030E0008C01689406C0DA2EEF010E946819FE0177
:1030F000E894A5912591359145915591A6F3EF015D
:103100000E94DA19FE019701A801DA9469F7DF90AD
:10311000EF90FF900F911F91CF91DF9108959B0148
:10312000AC0160E070E080E89FE30C942F1A0C94EF
:1031300036180C9457180E946717D8F39923C9F3CF
:10314000940F511DA3F39150504094F059F08823EF
:1031500032F0660F771F881F91505040C1F79E3F95
:1031600051052CF7880F911D9695879597F908952D
:103170005F3FACF0983E9CF0BB27869577956795AE
:10318000B79508F4B1609395C1F7BB0F58F711F4E8
:1031900060FFE8CF6F5F7F4F8F4F9F4FE3CF0C945F
:1031A000821716F00C9457180C94651868940C94B8
:1031B00036180E946717A8F39923C1F3AEF3DF9383
:1031C000CF931F930F93FF92C92FDD2788232AF0F7
:1031D0002197660F771F881FDAF720E030E040E87C
:1031E0005FEB9FE3883920F0803E38F021968F779F
:1031F0000E94C319E0E9F0E004C00E94C319EDEB9E
:10320000F0E00E9468188B01BE01EC01FB2E6F57A5
:1032100071097595771F880B990B0E94241728E177
:1032200032E741E35FE30E946819AF2D9801AE01D8
:10323000FF900F911F91CF91DF910E94DA190C94AA
:10324000AF1AFA01DC01AA0FBB1F9B01AC01BF57EB
:1032500028F4222733274427507820C0B75190F410
:10326000AB2F0024469537952795011CA395D2F3E3
:10327000002071F0220F331F441FB395DAF30ED0F4
:103280000C94C21961307105A0E88A07B94630F480
:103290009B01AC016627772788279078309621F02C
:1032A000208331834283538308950E9468190C94CC
:1032B000AF1A0E94A11A38F00E94A81A20F0952394
:1032C00011F00C9436180C94651811240C94821784
:1032D0000E945F1770F3959FC1F3950F50E0551F43
:1032E000629FF001729FBB27F00DB11D639FAA275B
:1032F000F00DB11DAA1F649F6627B00DA11D661FAA
:10330000829F2227B00DA11D621F739FB00DA11DCA
:10331000621F839FA00D611D221F749F3327A00D84
:10332000611D231F849F600D211D822F762F6A2F20
:1033300011249F5750409AF0F1F088234AF0EE0F85
:10334000FF1FBB1F661F771F881F91505040A9F7B2
:103350009E3F510580F00C9436180C9482175F3F05
:10336000E4F3983ED4F3869577956795B795F795EE
:10337000E7959F5FC1F7FE2B880F911D9695879566
:1033800097F908955058BB27AA270E94DA190C9480
:10339000AF1A0E94A11A38F00E94A81A20F039F43E
:1033A0009F3F19F426F40C9465180EF4E095E7FBA2
:1033B0000C943618E92F0E945F1758F3BA1762076A
:1033C00073078407950720F079F4A6F50C9481170C
:1033D0000EF4E0950B2EBA2FA02D0B01B901900130
:1033E0000C01CA01A0011124FF27591B99F0593F74
:1033F00050F4503E68F11A16F040A22F232F342FBC
:103400004427585FF3CF469537952795A795F04009
:103410005395C9F77EF41F16BA0B620B730B840B1E
:10342000BAF09150A1F0FF0FBB1F661F771F881FD6
:10343000C2F70EC0BA0F621F731F841F48F487952E
:1034400077956795B795F7959E3F08F0B0CF939520
:10345000880F08F09927EE0F9795879508950E9499
:10346000431A0C94AF1A0E94A81A58F00E94A11A8D
:1034700040F029F45F3F29F00C94361851110C9458
:1034800082170C9465180E945F1768F39923B1F3B3
:10349000552391F3951B550BBB27AA27621773077A
:1034A000840738F09F5F5F4F220F331F441FAA1F0E
:1034B000A9F335D00E2E3AF0E0E832D091505040CA
:1034C000E695001CCAF72BD0FE2F29D0660F771F78
:1034D000881FBB1F261737074807AB07B0E809F05E
:1034E000BB0B802DBF01FF2793585F4F3AF09E3FE3
:1034F000510578F00C9436180C9482175F3FE4F372
:10350000983ED4F3869577956795B795F7959F5F25
:10351000C9F7880F911D9695879597F90895E1E071
:10352000660F771F881FBB1F621773078407BA07D0
:1035300020F0621B730B840BBA0BEE1F88F7E0952B
:10354000089500240A941616170618060906089509
:1035500000240A9412161306140605060895092E6F
:103560000394000C11F4882352F0BB0F40F4BF2BDE
:1035700011F460FF04C06F5F7F4F8F4F9F4F08951E
:10358000991B79E004C0991F961708F0961B881FB5
:103590007A95C9F780950895AA1BBB1B51E107C016
:1035A000AA1FBB1FA617B70710F0A61BB70B881FD3
:1035B000991F5A95A9F780959095BC01CD01089562
:1035C000EE0FFF1F0590F491E02D099481E090E04B
:0A35D000F8940C94EB1AF894FFCF66
:1035DA00FFFF0D01011008070100020004000800A6
:1035EA0010002000400080000001000200040008D2
:1035FA0000100020004000000000FF000F0F3333CE
:10360A00AAAAFFFF0100020004000800100020001F
:10361A00400080000001000200040008FEFFFDFFD8
:10362A00FBFFF7FFEFFFDFFFBFFF7FFFFFFEFFFD9F
:10363A00FFFBFFF7000000003501B20ACD007C0154
:10364A00FE00DC00F00000000000360206026602FE
:10365A00DA01FE01EA01DB01556C747261736F6E67
:10366A0069633A20000D0A0044656164456E64206E
:08367A0043726F737365640075
:00000001FF
