:100000000C945D000C9485000C9485000C94850084
:100010000C9485000C9485000C9485000C9485004C
:100020000C9485000C9485000C9485000C9485003C
:100030000C9485000C9485000C9485000C9485002C
:100040000C94DF010C9485000C944F020C9429024F
:100050000C9485000C9485000C9485000C9485000C
:100060000C9485000C9485000000000024002700FB
:100070002A0000000000250028002B0004040404CE
:100080000404040402020202020203030303030342
:10009000010204081020408001020408102001021F
:1000A00004081020000000080002010000030407FB
:1000B0000000000000000000E40311241FBECFEF89
:1000C000D8E0DEBFCDBF11E0A0E0B1E0ECEAF8E09F
:1000D00002C005900D92AE31B107D9F721E0AEE133
:1000E000B1E001C01D92A03DB207E1F710E0CDE5FF
:1000F000D0E004C02197FE010E943A04CC35D1071C
:10010000C9F70E9481020C9454040C94000090E002
:10011000FC01EC55FF4F3491FC01E057FF4F249157
:10012000FC01E458FF4FE491EE2309F43BC0332374
:1001300039F1333091F038F43130A9F0323001F533
:1001400084B58F7D12C0373091F03830A1F0343053
:10015000B9F4809180008F7D03C0809180008F77FB
:10016000809380000DC084B58F7784BD09C08091D5
:10017000B0008F7703C08091B0008F7D8093B00076
:10018000F0E0EE0FFF1FEE58FF4FA591B4918FB72F
:10019000F894EC91611103C020952E2301C02E2B01
:1001A0002C938FBF0895CF92DF92EF92FF920F931F
:1001B0001F93CF93DF936C017A018B01C0E0D0E0F5
:1001C000CE15DF0589F0D8016D918D01D601ED9135
:1001D000FC910190F081E02DC6010995892B11F465
:1001E0007E0102C02196ECCFC701DF91CF911F9114
:1001F0000F91FF90EF90DF90CF900895089580E0E9
:1002000090E00895FC01538D448D252F30E0842F1C
:1002100090E0821B930B541710F0CF96089501972E
:100220000895FC01918D828D981761F0828DDF0118
:10023000A80FB11D5D968C91928D9F5F9F73928FD9
:1002400090E008958FEF9FEF0895FC01918D828DCE
:10025000981731F0828DE80FF11D858D90E008959B
:100260008FEF9FEF0895FC01918D228D892F90E0F3
:10027000805C9F4F821B91098F73992708958EE1AF
:1002800091E00E94330121E0892B09F420E0822FC4
:100290000895FC01848DDF01A80FB11DA35ABF4F43
:1002A0002C91848D90E001968F739927848FA68975
:1002B000B7892C93A089B1898C9180648C93938D9C
:1002C000848D981306C00288F389E02D80818F7D8C
:1002D00080830895EF92FF920F931F93CF93DF9344
:1002E000EC0181E0888F9B8D8C8D981305C0E88987
:1002F000F989808185FD24C0F62E0B8D10E00F5FFB
:100300001F4F0F731127E02E8C8DE8120CC00FB613
:1003100007FCFACFE889F989808185FFF5CFCE0106
:100320000E944901F1CF8B8DFE01E80FF11DE35AC8
:10033000FF4FF0820B8FEA89FB898081806207C0C2
:10034000EE89FF896083E889F989808180648083F0
:1003500081E090E0DF91CF911F910F91FF90EF909E
:100360000895CF93DF93EC01888D8823C9F0EA8943
:10037000FB89808185FD05C0A889B9898C9186FD9E
:100380000FC00FB607FCF5CF808185FFF2CFA8899B
:10039000B9898C9185FFEDCFCE010E944901E7CF4D
:1003A000DF91CF91089580E090E0892B29F00E94A1
:1003B0003F0181110C94000008950E944F041F9288
:1003C0000F920FB60F9211242F933F938F939F9309
:1003D000AF93BF938091CC019091CD01A091CE01BC
:1003E000B091CF013091CB0123E0230F2D3720F4C2
:1003F0000196A11DB11D05C026E8230F0296A11D7F
:10040000B11D2093CB018093CC019093CD01A0939B
:10041000CE01B093CF018091C7019091C801A09106
:10042000C901B091CA010196A11DB11D8093C701F8
:100430009093C801A093C901B093CA01BF91AF9135
:100440009F918F913F912F910F900FBE0F901F9012
:1004500018951F920F920FB60F9211242F933F936E
:100460004F935F936F937F938F939F93AF93BF93BC
:10047000EF93FF938EE191E00E944901FF91EF918C
:10048000BF91AF919F918F917F916F915F914F91AC
:100490003F912F910F900FBE0F901F9018951F92B4
:1004A0000F920FB60F9211242F938F939F93EF9378
:1004B000FF93E0912E01F0912F018081E0913401B2
:1004C000F091350182FD12C09081809137018F5FDC
:1004D0008F7320913801821751F0E0913701F0E0DD
:1004E000E25EFE4F958F8093370101C08081FF91BE
:1004F000EF919F918F912F910F900FBE0F901F90B2
:100500001895789484B5826084BD84B5816084BD7B
:1005100085B5826085BD85B5816085BD80916E00A1
:10052000816080936E0010928100809181008260D2
:10053000809381008091810081608093810080910F
:1005400080008160809380008091B10084608093FE
:10055000B1008091B00081608093B00080917A00FA
:10056000846080937A0080917A00826080937A0020
:1005700080917A00816080937A0080917A0080680F
:1005800080937A001092C100E0912E01F0912F012A
:1005900082E08083E0912A01F0912B011082E091AA
:1005A0002C01F0912D0180E1808310923601E091C1
:1005B0003201F091330186E08083E0913001F091C7
:1005C0003101808180618083E0913001F0913101BF
:1005D000808188608083E0913001F09131018081D9
:1005E00080688083E0913001F091310180818F7DBE
:1005F0008083A5E1B1E08D919D919927FC01E057A1
:10060000FF4F2491FC01E458FF4F8491882399F017
:1006100090E0880F991FFC01E859FF4FC591D491D4
:10062000FC01EE58FF4F859194918FB7F894E881C3
:10063000E22BE8838FBF81E0AD31B807E1F650E4EB
:10064000D52E88248A9463E0962EA12CB12C01E04B
:1006500010E072E0E72EF12CD0927C0080917A00BD
:10066000806480937A0080917A0086FDFCCFA0910F
:10067000780080917900B0E0B82BAD010B2E000C12
:10068000660B770B4093C3015093C4016093C5017F
:100690007093C60124E630E00E943304A501940162
:1006A0000E94110430930201209301012FB7F894A6
:1006B0008091CC019091CD01A091CE01B091CF015C
:1006C0002FBF9093C2018093C1012091BF0130914F
:1006D000C001AC01421B530B20910101309102017A
:1006E0004217530708F46DC09093C0018093BF0177
:1006F000C091BD01D091BE01209721F481E080938B
:10070000000105C0C330D10511F4109200018091A1
:10071000BB019091BC01209100012223D9F00097E8
:10072000D9F0C430D10544F48130910529F4CC0FBF
:10073000DD1FC95EDE4F27C08230910581F7FE01C3
:10074000EE0FFF1FEB5EFE4F60E080810E9487008E
:1007500021962FC0009769F4CC0FDD1FCB5EDE4FD2
:1007600061E088810E9487001093BC010093BB0167
:1007700028C01C161D0684F48130910569F4CC0F45
:10078000DD1FCD5EDE4F61E088810E948700F09220
:10079000BC01E092BB0115C082309105D9F6FE0183
:1007A000EE0FFF1FEB5EFE4F60E080810E9487002E
:1007B0002197D093BE01C093BD011092BC0110924D
:1007C000BB010E94D30148CFEEE1F1E01382128217
:1007D00088EE93E0A0E0B0E084839583A683B7839E
:1007E00087E091E09183808385EC90E09587848712
:1007F00084EC90E09787868780EC90E0918B808BEB
:1008000081EC90E0938B828B82EC90E0958B848BD3
:1008100086EC90E0978B868B118E128E138E148E41
:100820000895A1E21A2EAA1BBB1BFD010DC0AA1F31
:10083000BB1FEE1FFF1FA217B307E407F50720F049
:10084000A21BB30BE40BF50B661F771F881F991FC4
:100850001A9469F760957095809590959B01AC010D
:10086000BD01CF0108950E944004B7FF0895821B87
:10087000930B0895EE0FFF1F0590F491E02D09945E
:10088000A29FB001B39FC001A39F700D811D1124D1
:10089000911DB29F700D811D1124911D089581E05D
:0C08A00090E0F8940C945404F894FFCFFE
:1008AC00016400000000006A01D3000201B10133B1
:0E08BC000111012501070006000500040000DF
:00000001FF
