:100000000C94A3000C94CB000C94CB000C94CB006C
:100010000C94CB000C94CB000C94CB000C94CB0034
:100020000C94CB000C94C90B0C94CB000C942C08B2
:100030000C94CB000C94CB000C94CB000C94CB0014
:100040000C94E70C0C94CB000C94CD050C94A705F4
:100050000C94CB000C94CB000C94CB000C94CB00F4
:100060000C94FF050C94CB0007634236B79BD8A7CE
:100070001A39685618AEBAAB558C1D3CB7CC5763CD
:10008000BD6DEDFD753EF6177231BF000000803F7B
:1000900008000000BE922449123EABAAAA2ABECD97
:1000A000CCCC4C3E00000080BEABAAAAAA3E000009
:1000B0000000BF000000803F000000000008417801
:1000C000D3BB4387D1133D190E3CC3BD4282AD2B38
:1000D0003E68EC8276BED98FE1A93E4C80EFFFBE30
:1000E00001C4FF7F3F00000000000000000023006B
:1000F0002600290000000000240027002A0000003C
:100100000000250028002B00040404040404040457
:1001100002020202020203030303030301020408B2
:100120001020408001020408102001020408102061
:1001300000000008000201000003040700000000A6
:1001400000000000BE1511241FBECFEFD8E0DEBFB7
:10015000CDBF11E0A0E0B1E0E4E4F5E302C005901A
:100160000D92A43BB107D9F724E0A4EBB1E001C0A4
:100170001D92AD35B207E1F710E0C3EAD0E004C04C
:100180002197FE010E94951AC23AD107C9F70E9431
:10019000760D0C94A01A0C940000FC01538D448D34
:1001A000252F30E0842F90E0821B930B541710F022
:1001B000CF96089501970895FC01918D828D98172F
:1001C00061F0828DDF01A80FB11D5D968C91928D3B
:1001D0009F5F9F73928F90E008958FEF9FEF089538
:1001E000FC01918D828D981731F0828DE80FF11D01
:1001F000858D90E008958FEF9FEF0895FC01918D1C
:10020000228D892F90E0805C9F4F821B91098F7314
:100210009927089583E893E00E94FE0021E0892B4E
:1002200009F420E0822F0895FC01848DDF01A80FDE
:10023000B11DA35ABF4F2C91848D90E001968F730E
:100240009927848FA689B7892C93A089B1898C912D
:1002500080648C93938D848D981306C00288F389F3
:10026000E02D80818F7D80830895EF92FF920F9320
:100270001F93CF93DF93EC0181E0888F9B8D8C8D52
:10028000981305C0E889F989808185FD24C0F62E80
:100290000B8D10E00F5F1F4F0F731127E02E8C8D19
:1002A000E8120CC00FB607FCFACFE889F989808103
:1002B00085FFF5CFCE010E941401F1CF8B8DFE0199
:1002C000E80FF11DE35AFF4FF0820B8FEA89FB899B
:1002D0008081806207C0EE89FF896083E889F9899F
:1002E00080818064808381E090E0DF91CF911F91D5
:1002F0000F91FF90EF900895CF93DF93EC01888DDD
:100300008823C9F0EA89FB89808185FD05C0A88919
:10031000B9898C9186FD0FC00FB607FCF5CF80819F
:1003200085FFF2CFA889B9898C9185FFEDCFCE01E9
:100330000E941401E7CFDF91CF91089580E090E013
:10034000892B29F00E940A0181110C940000089564
:1003500085ED8093BC008091BC0084FDFCCF1092A1
:100360005E03089540915802262F30E0240F311D7E
:1003700021323105DCF420915E032430C9F4FC0104
:1003800080E090E0861758F4309158022191DC010A
:10039000AA5CBD4FA30FB11D2C930196F3CF8091A2
:1003A0005802680F6093580280E0089581E0089534
:1003B00082E008950895E0917E0280917D02E81721
:1003C00030F4F0E0EA5EFD4F808190E008958FEF19
:1003D0009FEF089590917E0280917D02981750F4CE
:1003E000E92FF0E0EA5EFD4F208130E09F5F9093BF
:1003F0007E0202C02FEF3FEFC901089580917D0278
:1004000090E020917E02821B91090895CF92DF92A5
:10041000EF92FF920F931F93CF93DF937C01262FD0
:10042000972F8A0180915F03882391F0C62FD72FE1
:100430006E01C40ED51ECC15DD0571F06991D70192
:10044000ED91FC910190F081E02DC7010995F3CF6A
:10045000642F822F0E94B201C801DF91CF911F91BA
:100460000F91FF90EF90DF90CF900895CF93DF939F
:100470001F92CDB7DEB7698320915F032223D1F0AD
:1004800020918203203240F021E030E0FC013383F0
:10049000228380E090E015C080916003E82FF0E0B7
:1004A000EF59FC4F998190838F5F80936003809315
:1004B000820305C061E0CE0101960E94B20181E095
:1004C00090E00F90DF91CF910895089580E090E043
:1004D00008958091810290918202892B29F0E09108
:1004E0007F02F091800209959AB1809101018923E0
:1004F0008AB99BB18091010189238BB994B1809114
:100500000001892384B995B180910001892385B9BF
:100510008091EE019091EF014091D402892B09F076
:10052000E0C080918502909186029093EF018093C4
:10053000EE012091830230918402E091ED01F0E020
:10054000EE0FFF1FE857FD4F808191818223932397
:10055000892B89F02091ED0130E080910201082E75
:10056000000C990B0197841B910947FD9395821705
:1005700093070CF0B8C28091D402882309F49DC07F
:1005800080E590E09093EC018093EB012091ED01E8
:1005900030E080910201082E000C990B019728177A
:1005A000390709F08AC0E091ED012BB1F0E0E65483
:1005B000FD4F8081082E000C990B822B8BB9E091A6
:1005C000ED012AB1F0E0E953FD4F8081082E000CC7
:1005D000990B822B8AB9E091ED0125B1F0E0E0564C
:1005E000FD4F8081082E000C990B822B85B9E0917C
:1005F000ED0124B1F0E0E355FD4F8081082E000CA1
:10060000990B822B84B980918702882311F023B142
:1006100001C029B18091D7029091D80282238093A2
:10062000EA018091EA029091EB02892B29F18091F5
:10063000EA01811105C01092E9011092E80139C068
:100640001092E7011092E6018091E8019091E90192
:1006500001969093E9018093E8018091E8019091DF
:10066000E901499750F11092EB021092EA021092C0
:10067000E9011092E80121C08091EA011092E9019C
:100680001092E801811115C08091E6019091E70177
:1006900001969093E7018093E6018091E6019091A5
:1006A000E701499750F081E090E09093EB0280934E
:1006B000EA021092E7011092E6018091ED018F5F4E
:1006C0008093ED012091ED0130E080910201082E30
:1006D000000C990B821793070CF0C1C01092ED012A
:1006E000BEC0442309F4BBC080E590E09093EC01C8
:1006F0008093EB012091D5023091D60280910201C6
:10070000082E000C990B01972817390709F08EC0A5
:10071000E091D502F091D6022BB1E654FD4F8081D5
:10072000082E000C990B822B8BB9E091D502F09129
:10073000D6022AB1E953FD4F8081082E000C990B97
:10074000822B8AB9E091D502F091D60225B1E0560C
:10075000FD4F8081082E000C990B822B85B9E0910A
:10076000D502F091D60224B1E355FD4F8081082EC9
:10077000000C990B822B84B980918702882311F099
:1007800023B101C029B18091D7029091D802822370
:100790008093EA018091EA029091EB02892B29F182
:1007A0008091EA01811105C01092E9011092E801DF
:1007B00039C01092E7011092E6018091E801909112
:1007C000E90101969093E9018093E8018091E801A5
:1007D0009091E901499750F11092EB021092EA02D0
:1007E0001092E9011092E80121C08091EA01109273
:1007F000E9011092E801811115C08091E601909104
:10080000E70101969093E7018093E6018091E6016C
:100810009091E701499750F081E090E09093EB02CE
:100820008093EA021092E7011092E6018091D502CE
:100830009091D60201969093D6028093D502209192
:10084000D5023091D60280910201082E000C990B3E
:100850008217930720F41092D6021092D50280914D
:10086000EE019091EF0101979093EF018093EE01DB
:100870008091E4019091E501019709F529B18091FA
:10088000E2019091E30182238093E1019091E001E4
:100890008917A9F08093E0018091DC019091DD013E
:1008A000A091DE01B091DF010196A11DB11D8093E1
:1008B000DC019093DD01A093DE01B093DF01809114
:1008C000E4019091E501029709F523B18091E201DD
:1008D0009091E30182238093E1019091E0018917D7
:1008E000A9F08093E0018091DC019091DD01A0915D
:1008F000DE01B091DF010196A11DB11D8093DC01E5
:100900009093DD01A093DE01B093DF018091DA01C5
:100910009091DB01019709F529B18091D80190915F
:10092000D90182238093D7019091D6018917A9F02C
:100930008093D6018091D2019091D301A091D401EE
:10094000B091D5010196A11DB11D8093D201909364
:10095000D301A093D401B093D5018091DA01909195
:10096000DB01029709F523B18091D8019091D9015B
:1009700082238093D7019091D6018917A9F08093A3
:10098000D6018091D2019091D301A091D401B09170
:10099000D5010196A11DB11D8093D2019093D30181
:1009A000A093D401B093D5018091D0019091D10151
:1009B000019709F529B18091CE019091CF01822351
:1009C0008093CD019091CC018917A9F08093CC013F
:1009D0008091C8019091C901A091CA01B091CB0149
:1009E0000196A11DB11D8093C8019093C901A093E8
:1009F000CA01B093CB018091D0019091D1010297AF
:100A000009F523B18091CE019091CF01822380938B
:100A1000CD019091CC018917A9F08093CC018091F0
:100A2000C8019091C901A091CA01B091CB01019672
:100A3000A11DB11D8093C8019093C901A093CA0163
:100A4000B093CB018091C6019091C701019709F540
:100A500029B18091C4019091C50182238093C30183
:100A60009091C2018917A9F08093C2018091BE01C3
:100A70009091BF01A091C001B091C1010196A11D4B
:100A8000B11D8093BE019093BF01A093C001B093AC
:100A9000C1018091C6019091C701029709F054C02D
:100AA00023B18091C4019091C50182238093C30139
:100AB0009091C201891709F447C08093C2018091C7
:100AC000BE019091BF01A091C001B091C1010196FA
:100AD000A11DB11D8093BE019093BF01A093C001E1
:100AE000B093C1010895E091ED012BB1F0E0E6541F
:100AF000FD4F8081082E000C990B822B8BB9E09161
:100B0000ED012AB1F0E0E953FD4F8081082E000C81
:100B1000990B822B8AB9E091ED0125B1F0E0E05606
:100B2000FD4F8081082E000C990B822B85B9E09136
:100B3000ED0124B1F0E0E355FD4F8081082E000C5B
:100B4000990B822B84B917CD08950E949B1A1F928E
:100B50000F920FB60F9211242F933F934F935F93F1
:100B60006F937F938F939F93AF93BF93EF93FF9375
:100B700083E893E00E941401FF91EF91BF91AF9140
:100B80009F918F917F916F915F914F913F912F91A5
:100B90000F900FBE0F901F9018951F920F920FB6D7
:100BA0000F9211242F938F939F93EF93FF93E091D4
:100BB0009303F09194038081E0919903F0919A035B
:100BC00082FD12C0908180919C038F5F8F73209172
:100BD0009D03821751F0E0919C03F0E0ED57FC4F2C
:100BE000958F80939C0301C08081FF91EF919F912D
:100BF0008F912F910F900FBE0F901F9018951F92FD
:100C00000F920FB60F9211242F933F934F935F9340
:100C10006F937F938F939F93AF93BF93EF93FF93C4
:100C20008091B900887F803609F49CC068F58832CD
:100C300009F45BC090F4803109F454C038F488237F
:100C400009F4F6C0883009F44DC0F6C0883109F4C3
:100C50004CC0803209F45DC0EFC0803409F468C034
:100C600048F4803309F455C0883309F0E5C0809317
:100C70005C03D8C0803509F44FC0883509F45DC0E5
:100C8000883409F0D9C0D6C0883909F4C7C0A8F49F
:100C9000883709F467C038F4883609F463C08037B0
:100CA00009F460C0C9C0883809F4B8C0803909F4B3
:100CB0005FC0803809F0C0C05BC0803B09F486C0CB
:100CC00038F4803A09F466C0883A09F47FC0B4C0A9
:100CD000803C09F4A7C0883C09F4A4C0883B09F40F
:100CE0008AC0AAC08091390310C090915B038091A3
:100CF0005A03981770F5E0915B0381E08E0F8093A3
:100D00005B03F0E0E65CFC4F80818093BB0085ECE8
:100D100086C080935C038EC0E0915B0381E08E0F00
:100D200080935B038091BB00F0E0E65CFC4F808326
:100D300090915B0380915A036EC0E0915B0381E068
:100D40008E0F80935B038091BB00F0E0E65CFC4F6C
:100D5000808380915D0381116DC081E080933803B1
:100D600084EA61C083E080935E0310927C02CFCF5F
:100D700080917C02803208F051C0E0917C0281E0D9
:100D80008E0F80937C028091BB00F0E0E45AFD4F0F
:100D90008083BDCF85EC8093BC0010925E03809170
:100DA0007C02803230F4E0917C02F0E0E45AFD4FA6
:100DB000108260917C0270E0E0915A02F0915B0237
:100DC0008CE592E0099510927C0236C084E0809315
:100DD0005E031092590210925802E0915602F0916F
:100DE0005702099580915802811105C081E08093D6
:100DF000580210923602E091590281E08E0F8093E2
:100E00005902F0E0EA5CFD4F80818093BB00909135
:100E1000590280915802981708F479CF85E8809399
:100E2000BC000AC085EC8093BC0010925E0304C035
:100E300010925C030E94A801FF91EF91BF91AF91C6
:100E40009F918F917F916F915F914F913F912F91E2
:100E50000F900FBE0F901F901895FC0190819C3051
:100E600080F5818128E830E0281B310987FD339522
:100E7000220F331F220F331F621773077CF082810A
:100E800028E532E0281B310987FD3395220F331FF7
:100E9000220F331F621773070CF49B012250310994
:100EA000220F331F4FB7F894892F90E0FC01EE0F0B
:100EB000FF1F8E0F9F1FFC01EE50FE4F32832183D8
:100EC0004FBF0895CF92DF92EF92FF92CF93DF93BF
:100ED000EC01603282E078070CF03DC077FD06C07F
:100EE000653B71052CF064EB70E002C060E070E0DF
:100EF000898128E830E06901C81AD10887FDD394B8
:100F0000CC0CDD1CCC0CDD1C0D2C000CEE08FF08FD
:100F10008A8128E532E0281B310987FD3395220FAD
:100F2000331F220F331FC901330FAA0BBB0B9C01C8
:100F3000AD012C193D094E095F09DB010E946F16B6
:100F400024EB30E040E050E00E944516C20ED31E74
:100F5000E41EF51EB601CE01DF91CF91FF90EF9018
:100F6000DF90CF900C942D071F93CF93DF93EC016C
:100F7000162F88818C3008F04EC061E0812F0E94CE
:100F8000880C8881E82FF0E09F01220F331FE20FC9
:100F9000F31FEE50FE4F1F739081907C192B10832E
:100FA00019821A826CE00E94751A9CE0899FB00138
:100FB000112440E050E09A01260F371FF901EE0F8F
:100FC000FF1F2E0F3F1FF901EE50FE4F908196FD3F
:100FD00016C04F5F5F4F4C30510569F781110FC04C
:100FE0001092800082E08093810010928500109220
:100FF0008400B19A80916F00826080936F00E881D5
:10100000F0E0CF01880F991FE80FF91FEE50FE4F57
:101010008081806480838881DF91CF911F910895C2
:10102000FC019091F1019C30A0F481E0890F809344
:10103000F1019083892F90E0FC01EE0FFF1F8E0FCE
:101040009F1FFC01EE50FE4F88EB9BE09283818353
:1010500008958FEF808308951F920F920FB60F921D
:1010600011242F933F934F935F936F937F938F93AD
:101070009F93AF93BF93EF93FF938091F00187FF0E
:1010800005C010928500109284001BC02091F001D1
:10109000022E000C330B8091F10190E028173907E4
:1010A00084F48091F001082E000C990BFC01EE0FE6
:1010B000FF1F8E0F9F1FFC01EE50FE4F808186FDAB
:1010C00015C08091F0018F5F8093F0012091F001B5
:1010D000022E000C330B8091F10190E028173907A4
:1010E000C4F48091F0018C3064F113C08091F00160
:1010F000082E000C990BFC01EE0FFF1F8E0F9F1F97
:10110000FC01EE50FE4F808160E08F730E94580C0E
:10111000D8CF8091840090918500049680349C49BA
:1011200018F480E49CE905C08091840090918500CA
:10113000049690938900809388008FEF8093F0014C
:101140003BC020918400309185008091F001082EF1
:10115000000C990BFC01EE0FFF1F8E0F9F1FFC016F
:10116000EE50FE4F81819281820F931F90938900F0
:10117000809388008091F001082E000C990BFC01EF
:10118000EE0FFF1F8E0F9F1FFC01EE50FE4F808160
:1011900086FF12C08091F001082E000C990BFC0113
:1011A000EE0FFF1F8E0F9F1FFC01EE50FE4F808140
:1011B00061E08F730E94580CFF91EF91BF91AF9146
:1011C0009F918F917F916F915F914F913F912F915F
:1011D0000F900FBE0F901F901895FC01838591E032
:1011E00090935F03809381031092600310928203B7
:1011F00080E294E00E94360281E00C94D50ACF92FE
:10120000DF92EF92FF92CF93DF93EC0160E40E94B4
:10121000ED088B8590915E039111FCCF91E0909346
:101220005E0390935D032FEF20935C0310925B03AA
:1012300023E020935A039093390390913903880F48
:10124000892B8093390380913803813061F41092A7
:101250003803809139038093BB008091BC0083FDEB
:10126000F8CF85EC01C085EE8093BC0080915E03D1
:101270008130E1F380915B03843018F480915B034B
:1012800001C084E0AAE3B3E026E132E0F9019E2F39
:10129000921B981718F49D919193F9CF10927E02AA
:1012A00080937D0280E294E00E94EA01F82E80E2C1
:1012B00094E00E94EA01C12CD12CDF2C8C299D29BD
:1012C0006C01990FEE08FF0880E294E00E94EA01A9
:1012D00080E294E00E94EA018881882341F0662739
:1012E0007727CB016C197D098E099F0902C0C701C0
:1012F000B601DF91CF91FF90EF90DF90CF900895EE
:10130000CF93DF93CDB7DEB7E0970FB6F894DEBF8B
:101310000FBECDBF98E1E6E0F1E0DE015996019005
:101320000D929A95E1F798E1EEE1F1E0DE01119678
:1013300001900D929A95E1F781508C30E0F490E0A5
:101340002091830230918402880F991FE1E0F0E040
:10135000EC0FFD1FE80FF91F662329F0808D918D9A
:10136000822B932B04C080819181822393239093BD
:10137000840280938302E0960FB6F894DEBF0FBE1E
:10138000CDBFDF91CF9108950C9437160C942F1692
:10139000CF92DF92EF92FF92CF93DF938823B1F148
:1013A0000E94DB0C7093BD016093BC01C091B80139
:1013B000D091B9012196D093B901C093B8010E9490
:1013C000DB0C6B017C017093B7016093B6016A97E7
:1013D00020F10E94DB0CEE24FF24DC01CB018C19F0
:1013E0009D09AE09BF0989389341A105B105A8F04F
:1013F00081E08093E7021092B7011092B6010E943B
:10140000DB0C7093E9026093E80209C00E94DB0CD8
:101410007093BB016093BA01C9CF1092E702DF91CC
:10142000CF91FF90EF90DF90CF9008956BE876E03A
:101430008CE494E00E942D076BE876E08FE494E062
:101440000E942D0781E00C94C80980E10E94C40C21
:101450009093E6028093E5028FE00E94C40C909383
:10146000E0028093DF028EE00E94C40C9093DC02C5
:101470008093DB028091E3029091E4022091E102EB
:101480003091E202821B930B2091E5023091E6023B
:101490002817390710F461E001C060E08CE00E9479
:1014A00080098091DD029091DE022091E10230916D
:1014B000E202821B930B2091DF023091E002281799
:1014C000390710F461E001C060E089E00E94800902
:1014D0008091D9029091DA022091E1023091E202EA
:1014E000821B930B2091DB023091DC022817390715
:1014F00010F461E001C060E086E00E94800988E8A5
:1015000091E00E94760B6091E5027091E60280E026
:1015100090E04AE00E94880B8AE991E00E94760BF5
:101520006091DF027091E00280E090E04AE00E946A
:10153000880B86EA91E00E94760B6091DB02709145
:10154000DC0280E090E04AE00E94880B81EB91E0B1
:101550000C94760BCF92DF92EF92FF920F931F9332
:10156000CF93DF936C017A018B01C0E0D0E0CE1500
:10157000DF0589F0D8016D918D01D601ED91FC91C7
:101580000190F081E02DC6010995892B11F47E01AF
:1015900002C02196ECCFC701DF91CF911F910F912F
:1015A000FF90EF90DF90CF900895382F2091820325
:1015B00090918103213208F049C080915E0381112E
:1015C000FCCF42E040935E0330935D033FEF3093E6
:1015D0005C0310925B0320935A03A1E6B3E04AE355
:1015E00053E0FA013E2F341B321718F43D9131932A
:1015F000F9CF1092390320913903990F922B9093D0
:10160000390390913803913061F41092380390912E
:1016100039039093BB009091BC0093FDF8CF95ECFB
:1016200001C095EE9093BC0090915E039230E1F37F
:1016300090915C039F3F79F080915C03803241F090
:1016400080915C03803331F084E005C081E003C009
:1016500082E001C083E01092600310928203109236
:101660005F030895CF93DF93EC0180915B04909129
:101670005C04009719F06BE40E94ED08D0935C04C1
:10168000C0935B048CE599EEAEE5BCE389839A8355
:10169000AB83BC8385E59AE2AFE0B6E38D839E839E
:1016A000AF83B88788E090E09A87898781E080934C
:1016B0005F0380E3809381031092600310928203A2
:1016C0006DE480E294E00E9436026B857C85660FB3
:1016D000771F80E294E00E94360281E00E94D50AE2
:1016E0006AE4CE01DF91CF910C94ED08009769F088
:1016F000FC0101900020E9F73197AF01481B590B1D
:10170000BC0183E893E00C94AA0A80E090E008957D
:101710008F929F92AF92BF920F931F93CF93DF93BD
:10172000CDB7DEB7A1970FB6F894DEBF0FBECDBF21
:1017300019A2423008F44AE08E010F5D1F4F842E3B
:10174000912CA12CB12CA50194010E947716E62FB3
:10175000B901CA0101501109EA3014F4E05D01C079
:10176000E95CD801EC93232B242B252B61F7C801CE
:101770000E94760BA1960FB6F894DEBF0FBECDBFC8
:10178000DF91CF911F910F91BF90AF909F908F905D
:1017900008951F920F920FB60F9211242F933F932B
:1017A0004F935F936F937F938F939F93AF93BF9369
:1017B000EF93FF9380913603909137038093B200AB
:1017C0008091320390913303A0913403B09135039B
:1017D0000196A11DB11D8093320390933303A09312
:1017E0003403B09335034091320350913303609139
:1017F00034037091350380912E0390912F03A091B3
:101800003003B0913103481759076A077B07B0F0DE
:1018100080912D03811112C081E080932D031092DD
:101820003203109233031092340310923503E09187
:101830002B03F0912C03099510922D03FF91EF914A
:10184000BF91AF919F918F917F916F915F914F91D8
:101850003F912F910F900FBE0F901F9018958330DE
:1018600081F028F4813099F08230A1F0089587301A
:10187000A9F08830B9F08430D1F4809180008F7D58
:1018800003C0809180008F7780938000089584B595
:101890008F7702C084B58F7D84BD08958091B0009C
:1018A0008F7703C08091B0008F7D8093B000089542
:1018B0001F93CF93DF93282F30E0F901E05DFE4FB7
:1018C0008491F901E45EFE4FD491F901E85FFE4F87
:1018D000C491CC23C9F0162F81110E942F0CEC2F3C
:1018E000F0E0EE0FFF1FE250FF4FA591B4918FB7CC
:1018F000F894111105C09C91ED2FE095E92302C0E9
:10190000EC91ED2BEC938FBFDF91CF911F91089558
:10191000CF93DF9390E0FC01E45EFE4F2491FC0145
:10192000E85FFE4F8491882361F190E0880F991F52
:10193000FC01EC50FF4FC591D491FC01E250FF4FE8
:10194000A591B491611109C09FB7F8948881209541
:1019500082238883EC912E230BC0623061F49FB701
:10196000F8943881822F809583238883EC912E2BE5
:101970002C939FBF06C08FB7F894E8812E2B288345
:101980008FBFDF91CF9108958E3008F08E50877011
:10199000806480937C0080917A00806480937A00D8
:1019A00080917A0086FDFCCF8091780020917900AB
:1019B00090E0922B08952FB7F8946091570470919E
:1019C00058048091590490915A042FBF08951F9292
:1019D0000F920FB60F9211242F933F938F939F93E3
:1019E000AF93BF938091570490915804A0915904EC
:1019F000B0915A043091560423E0230F2D3720F480
:101A00000196A11DB11D05C026E8230F0296A11D58
:101A1000B11D209356048093570490935804A093CB
:101A20005904B0935A048091520490915304A091A8
:101A30005404B09155040196A11DB11D8093520428
:101A400090935304A0935404B0935504BF91AF9165
:101A50009F918F913F912F910F900FBE0F901F90EC
:101A60001895CF92DF92EF92FF920F931F93E82F7A
:101A7000F92F05C0015011092109310961F1908147
:101A800096239417B9F305C00150110921093109B2
:101A900011F1908196239413F7CFC12CD12CE12C16
:101AA000F12C0AC08FEFC81AD80AE80AF80A0C15F8
:101AB0001D052E053F0579F080818623841791F35B
:101AC0006C2D7D2D8E2D9F2D1F910F91FF90EF90EE
:101AD000DF90CF90089560E070E080E090E01F918B
:101AE0000F91FF90EF90DF90CF900895789484B598
:101AF000826084BD84B5816084BD85B5826085BD0A
:101B000085B5816085BD80916E00816080936E0097
:101B10001092810080918100826080938100809189
:101B2000810081608093810080918000816080933A
:101B300080008091B10084608093B1008091B000FA
:101B400081608093B00080917A00846080937A00F5
:101B500080917A00826080937A0080917A0081601F
:101B600080937A0080917A00806880937A00109246
:101B7000C10010927E0210927D02109260031092BA
:101B8000820310925E03C1E0C0935D03109238039C
:101B900061E082E10E94580C61E083E10E94580CF0
:101BA0008091B9008E7F8093B9008091B9008D7FBC
:101BB0008093B90088E48093B80085E48093BC00EA
:101BC000E0919303F091940382E08083E0918F038E
:101BD000F09190031082E0919103F09192038FECC9
:101BE000808310929B03E0919703F091980386E025
:101BF0008083E0919503F0919603808180618083DA
:101C0000E0919503F0919603808188608083E09154
:101C10009503F0919603808180688083E09195031D
:101C2000F091960380818F7D808387E090E0909390
:101C3000D8028093D7021092D6021092D502C09398
:101C4000D4028DE0809302018FEF80930001109207
:101C5000B9021092AC0281E090E0909389028093E7
:101C6000880282E090E090938B0280938A0284E065
:101C700090E090938D0280938C0288E090E09093A6
:101C80008F0280938E0280E190E090939102809386
:101C9000900280E290E0909393028093920280E41D
:101CA00090E0909395028093940280E890E0909366
:101CB00097028093960280E091E09093990280933E
:101CC000980280E092E090939B0280939A0280E0D9
:101CD00094E090939D0280939C0280E098E0909322
:101CE0009F0280939E028FE08093010180EF80939A
:101CF000D3028093C6021092AD021092A0021092FD
:101D0000B7021092AA0220E22093BA0280EA8093DE
:101D1000C7028093D10280E88093C4021092AE0281
:101D20001092A1021092AF021092A2022093BC0264
:101D300090E69093C8029093C90290E49093BB02FE
:101D40005091CA021092A3024091CB021092A402B9
:101D500030E13093BE0250695093CA02406940930B
:101D6000CB028093BD021092B2021092A502109293
:101D7000B3021092A6023093C00240E54093CC0219
:101D80004093CD029093BF021092B4021092A7022A
:101D90001092B5021092A8023093C20230E3309341
:101DA000CE023093CF022093C1021092B60210925D
:101DB000A9021092B8021092AB029093C50290EC67
:101DC0009093D0029093D2028093C3028091D70265
:101DD0009091D802089720F5109287026091D7025F
:101DE0007091D80280E090E00E94D7169B01AC0170
:101DF00060E070E080E090E40E943D170E948D1743
:101E00000E94A8167093D8026093D7028091D702DF
:101E10009091D80220EF822790958093D30222C020
:101E2000C09387026091D7027091D80268507109FF
:101E300080E090E00E94D7169B01AC0160E070E06A
:101E400080E090E40E943D170E948D170E94A81622
:101E50007093D8026093D7028091D7029091D802F4
:101E60008093B9028091EC029091ED02892B09F0E8
:101E700081C081E090E09093ED028093EC0226E037
:101E800030E03093860220938502109284021092F3
:101E90008302109282021092810240912E0350918F
:101EA0002F036091300370913103452B462B472B54
:101EB00089F0909382028093810280912B0390910C
:101EC0002C039093800280937F02809170008E7F1C
:101ED00080937000809170008E7F8093700080915D
:101EE000B0008C7F8093B0008091B100877F809399
:101EF000B1008091B6008F7D8093B6008091700014
:101F00008D7F809370008091B10084608093B100D8
:101F10008091B1008C7F8093B1008AEF90E0909324
:101F200037038093360382E090E0A0E0B0E0809336
:101F30002E0390932F03A0933003B093310389E6CF
:101F400092E090932C0380932B0310923203109213
:101F50003303109234031092350310922D038091B5
:101F60003603909137038093B200809170008160B6
:101F70008093700061E083E00E94880C61E083E060
:101F80000E94580C61E082E00E94880C60E083E0CF
:101F90000E94880C61E088E00E94880C68E070E094
:101FA0008FE494E00E94B40761E089E00E94880C0D
:101FB00069E070E08CE494E00E94B40761E08AE09C
:101FC0000E94880C6AE070E089E494E00E94B40703
:101FD00061E08BE00E94880C6BE070E086E494E0A6
:101FE0000E94B40760E08CE00E94880C8CE294E0D0
:101FF0000E94320B10922C0489E394E00E94320B71
:1020000081E08093390460E08EE00E94880C60E0FB
:102010008FE00E94880C60E080E10E94880C86E9D5
:1020200090E09093E2028093E10280E090E00E94D1
:10203000C609C82F8093EF0281E090E00E94C60994
:102040008093EE022C2F30E0A901582B5093E4022C
:102050004093E30282E090E00E94C609C82F80937B
:10206000EF0281E090E00E94C6098093EE022C2FDF
:1020700030E0F901F82BF0930D03E0930C0384E0BA
:1020800090E00E94C609C82F8093EF0281E090E0A3
:102090000E94C6098093EE022C2F30E0A901582B34
:1020A0005093DE024093DD0286E090E00E94C60974
:1020B000C82F8093EF0281E090E00E94C6098093D0
:1020C000EE022C2F30E0F901F82BF0930B03E09394
:1020D0000A0388E090E00E94C609C82F8093EF02AF
:1020E00081E090E00E94C6098093EE022C2F30E040
:1020F000A901582B5093DA024093D9028AE090E06C
:102100000E94C609C82F8093EF0281E090E00E94F0
:10211000C6098093EE022C2F30E0F901F82BF093E2
:102120000903E09308038CE090E00E94C609C82FE1
:102130008093EF028DE090E00E94C609282F8093E3
:10214000EE028C2F90E0922BA0E0B0E0809316037B
:1021500090931703A0931803B09319038EE090E0B7
:102160000E94C609C82F8093EF028FE090E00E9482
:10217000C609282F8093EE028C2F90E0922BA0E0CE
:10218000B0E08093100390931103A0931203B093D7
:1021900013039924939422242394312C74E0472E22
:1021A000512C612C712CE3E2AE2EB12C0E94DB0C81
:1021B00000912703109128032091290330912A03CD
:1021C000DC01CB01801B910BA20BB30B0B97A1057C
:1021D000B10510F0909226038091EA029091EB02F3
:1021E000892B21F180912503811122C09092250332
:1021F00080912303909124030196877099279093EF
:102200002403809323030E94DB0C609327037093C5
:1022100028038093290390932A0310922603109297
:102220002203109221031092200302C01092250372
:10223000ECE3F1E08491E8E2F1E0C491E4E1F1E063
:10224000D491DD2379F081110E942F0CED2FF0E065
:10225000EE0FFF1FE651FF4FA591B4918C91C8235B
:1022600081E009F480E08170809304018091230370
:10227000909124038230910509F4A8C130F40097AD
:1022800061F0019709F471C01BC48330910509F412
:1022900070C2049709F43CC313C40E94250A61E08C
:1022A00082E00E94580CC5010197F1F760E082E0DE
:1022B0000E94580CEFE1F1E06491EBE0F1E08491D1
:1022C000E82FF0E0EE0FFF1FE651FF4F859194914C
:1022D00000E117E220E030E0462F0E94310D611549
:1022E00071058105910539F0DC01CB010196A11D35
:1022F000B11DBF7003C080E090E0DC018093F0026C
:102300009093F102A093F202B093F3026CED75E0AA
:102310008CE494E00E942D076CED75E08FE494E06E
:102320000E942D0767E370E089E494E00E94620751
:1023300062E370E086E494E00E9462076AE48CE263
:1023400094E00E94ED086AE489E394E00E94ED08BD
:1023500010921F0310921E0310921A0310921B0377
:1023600010921C0310921D03ABC380912603882397
:1023700009F4A6C30E94250A8091160390911703C1
:10238000A0911803B0911903885F984FAF4FBF4FCA
:102390008034F6E09F07A105B10558F0853328E0A9
:1023A0009207A105B10538F084E398E0A0E0B0E021
:1023B00002C080E496E0909315038093140380910B
:1023C000100390911103A0911203B0911303885F41
:1023D000984FAF4FBF4F803436E09307A105B1054A
:1023E00058F0853348E09407A105B10538F084E33F
:1023F00098E0A0E0B0E002C080E496E090930F0384
:1024000080930E030E94DB0C2091E8023091E902D8
:10241000AB01BC01421B530B61097109413D57409F
:102420006105710510F01092E702E090E502F0906E
:10243000E602C091E102D091E2020091E302109124
:10244000E4020C1B1D0BE016F106F8F48091DD028E
:102450009091DE028C1B9D0B2091DF023091E002F7
:102460008217930708F080C38091D9029091DA0215
:102470008C1B9D0B2091DB023091DC022817390761
:1024800008F072C30E94160A6FC30E151F0538F5B7
:102490008091DD029091DE028C1B9D0B2091DF026A
:1024A0003091E00228173907D0F48091D902909139
:1024B000DA028C1B9D0B2091DB023091DC02281785
:1024C000390708F056C36BE876E08CE494E00E948C
:1024D0002D0768E775E08FE494E00E942D07E01671
:1024E000F10608F04FC08091DD029091DE028C1B56
:1024F0009D0B2091DF023091E00228173907C8F4C4
:102500008091D9029091DA028C1B9D0B2091DB0205
:102510003091DC028217930760F468E775E08CE481
:1025200094E00E942D076BE876E08FE494E00E942F
:102530002D078091DD029091DE028C1B9D0B209176
:10254000DF023091E00228173907E0F48091D902C8
:102550009091DA028C1B9D0B2091DB023091DC0202
:102560002817390778F468E775E08CE494E00E9456
:102570002D0768E775E08FE494E00E942D0780E066
:102580000E94C8090E151F05E0F48091DD029091AC
:10259000DE028C1B9D0B2091DF023091E00282173E
:1025A000930778F48091D9029091DA028C1B9D0BED
:1025B0002091DB023091DC028217930710F40E9415
:1025C000160A30921F0320921E037AC280912603BE
:1025D000882309F475C28091220381111DC0909255
:1025E000220310920D0310920C0310920B03109211
:1025F0000A0310920903109208030E94DB0C6093F7
:1026000004037093050380930603909307031092CD
:1026100003031092020355C00E94DB0C00910403D7
:10262000109105032091060330910703DC01CB01D3
:10263000801B910BA20BB30B85369105A105B1054B
:1026400008F43FC00E94DB0C609304037093050301
:1026500080930603909307030E94250A20910C03A0
:1026600030910D038091E5029091E602820F931F55
:1026700090930D0380930C0320910A0330910B0378
:102680008091DF029091E002820F931F90930B03E1
:1026900080930A0320910803309109038091DB02A3
:1026A0009091DC02820F931F90930903809308039B
:1026B000809102039091030301969093030380930A
:1026C000020320910203309103032431310509F004
:1026D00049C080910C0390910D03B9010E94811AA9
:1026E000462F60930C0370930D0380910A03909121
:1026F0000B03B9010E94811A70930B0360930A03C4
:102700008091080390910903B9010E94811A709386
:10271000090360930803642F82E090E00E94C409DB
:1027200060910D0383E090E00E94C40960910A0368
:1027300086E090E00E94C40960910B0387E090E07E
:102740000E94C409609108038AE090E00E94C409D5
:10275000609109038BE090E00E94C4091092240369
:1027600010922303E2E0F0E0F0931F03E0931E03D6
:10277000A7C180912603882309F4A2C18091220376
:1027800081111DC0909222031092E4021092E30284
:102790001092DE021092DD021092DA021092D9023B
:1027A0000E94DB0C6093040370930503809306037F
:1027B00090930703109203031092020355C00E94E6
:1027C000DB0C009104031091050320910603309166
:1027D0000703DC01CB01801B910BA20BB30B8536E9
:1027E0009105A105B10508F43FC00E94DB0C609380
:1027F00004037093050380930603909307030E94DC
:10280000250A2091E3023091E4028091E502909143
:10281000E602820F931F9093E4028093E3022091DB
:10282000DD023091DE028091DF029091E002820FA2
:10283000931F9093DE028093DD022091D9023091A4
:10284000DA028091DB029091DC02820F931F909359
:10285000DA028093D90280910203909103030196DA
:1028600090930303809302032091020330910303AA
:102870002431310509F049C08091E3029091E402CE
:10288000B9010E94811A462F6093E3027093E4021B
:102890008091DD029091DE02B9010E94811A70934D
:1028A000DE026093DD028091D9029091DA02B901D3
:1028B0000E94811A7093DA026093D902642F80E03B
:1028C00090E00E94C4096091E40281E090E00E94DF
:1028D000C4096091DD0284E090E00E94C409609127
:1028E000DE0285E090E00E94C4096091D90288E090
:1028F00090E00E94C4096091DA0289E090E00E94B1
:10290000C409109224031092230383E090E0D4C002
:1029100080912603882309F4D3C08091220381117A
:1029200023C0909222036AE48CE294E00E94ED08B6
:102930006AE489E394E00E94ED080E94DB0C609356
:10294000040370930503809306039093070368E0E4
:1029500077E08CE494E00E942D0768E077E08FE454
:1029600094E00E942D07A6C00E94DB0C0091040396
:10297000109105032091060330910703DC01CB0180
:10298000801B910BA20BB30B89389341A105B105B4
:1029900008F490C06CED75E08CE494E00E942D0783
:1029A0006CED75E08FE494E00E942D078CE294E0DA
:1029B0000E94FF086B017C016093FE027093FF028E
:1029C000809300039093010389E394E00E94FF0841
:1029D0006093FA027093FB028093FC029093FD02D5
:1029E0006C157D058E059F05ECF410921003109276
:1029F00011031092120310921303A7019601261BD4
:102A0000370B480B590BCA01B901A30192010E946F
:102A100045162093160330931703409318035093E1
:102A2000190318C06C197D098E099F09A301920131
:102A30000E94451620931003309311034093120314
:102A40005093130310921603109217031092180359
:102A500010921903609110038EE090E00E94C40967
:102A60008091100390911103A0911203B091130370
:102A7000692F7A2F8B2F99278FE090E00E94C4094D
:102A8000609116038CE090E00E94C40980911603C7
:102A900090911703A0911803B0911903692F7A2F11
:102AA0008B2F99278DE090E00E94C4091092240397
:102AB0001092230384E090E090931F0380931E0301
:102AC0000E94DB0C0091F6021091F7022091F802AF
:102AD0003091F902DC01CB01801B910BA20BB30BEF
:102AE000853F9140A105B105E0F10E94DB0C6093A8
:102AF000F6027093F7028093F8029093F902C09166
:102B00000301C925C09303016C2F81E00E94800955
:102B10006C2F8DE00E94580CC091F402D091F50208
:102B2000DE01AA0FBB1FA85CBE4FE0911E03F0910F
:102B30001F03EE0FFF1FE85AFE4F8D919C912081DD
:102B400031818223932361E0892B09F060E084E0E6
:102B50000E9480092196CF70DD27D093F502C093A3
:102B6000F4020E949E0122CB0E151F0508F490CCA2
:102B7000BACCE016F10608F4C3CC04CDE3E8F3E0E8
:102B80001382128288EE93E0A0E0B0E08483958304
:102B9000A683B78328E631E03183208325EC30E03B
:102BA0003587248724EC30E03787268720EC30E017
:102BB000318B208B21EC30E0338B228B22EC30E008
:102BC000358B248B26EC30E0378B268B118E128EC2
:102BD000138E148EE0E2F4E01382128284839583D4
:102BE000A683B7838AE791E0918380838FE494E0A2
:102BF0000E9410088CE494E00E94100889E494E09C
:102C00000E94100886E494E00E941008809105015B
:102C1000E9E3F4E0282F30E0348723871082118223
:102C200012821382148215821682178210861286EF
:102C30001186ECE2F4E021E0280F30E034872387AE
:102C40008E5F80930501108211821282138214829A
:102C50001582168217821086128611860895F999B8
:102C6000FECF92BD81BDF89A992780B50895262F91
:102C7000F999FECF1FBA92BD81BD20BD0FB6F89461
:102C8000FA9AF99A0FBE01960895052E97FB1EF445
:102C900000940E945C1657FD07D00E94771607FC2F
:102CA00003D04EF40C945C165095409530952195C8
:102CB0003F4F4F4F5F4F0895909580957095619568
:102CC0007F4F8F4F9F4F08950E949916A59F900D9B
:102CD000B49F900DA49F800D911D11240895B7FFFE
:102CE0000C9464160E946416821B930B0895A1E253
:102CF0001A2EAA1BBB1BFD010DC0AA1FBB1FEE1F76
:102D0000FF1FA217B307E407F50720F0A21BB30BC0
:102D1000E40BF50B661F771F881F991F1A9469F73C
:102D200060957095809590959B01AC01BD01CF0198
:102D30000895A29FB001B39FC001A39F700D811D94
:102D40001124911DB29F700D811D1124911D0895B4
:102D50000E941C1788F09F5798F0B92F9927B751F8
:102D6000B0F0E1F0660F771F881F991F1AF0BA952F
:102D7000C9F714C0B13091F00E943617B1E0089540
:102D80000C943617672F782F8827B85F39F0B93F32
:102D9000CCF3869577956795B395D9F73EF49095E2
:102DA0008095709561957F4F8F4F9F4F0895E89460
:102DB00009C097FB3EF490958095709561957F4F83
:102DC0008F4F9F4F9923A9F0F92F96E9BB27939531
:102DD000F695879577956795B795F111F8CFFAF441
:102DE000BB0F11F460FF1BC06F5F7F4F8F4F9F4F72
:102DF00016C0882311F096E911C0772321F09EE8D0
:102E0000872F762F05C0662371F096E8862F70E035
:102E100060E02AF09A95660F771F881FDAF7880F0F
:102E20009695879597F9089557FD9058440F551F2B
:102E300059F05F3F71F04795880F97FB991F61F03C
:102E40009F3F79F087950895121613061406551FB3
:102E5000F2CF4695F1DF08C0161617061806991F1F
:102E6000F1CF86957105610508940895E894BB2714
:102E700066277727CB0197F90895FA01EE0FFF1F18
:102E8000309621053105A1F16115710561F4803895
:102E9000BFE39B0749F168949038810561F0803861
:102EA000BFEF9B0741F099234AF5FF3FE10531054C
:102EB000210519F1E8940894E795D901AA2329F48A
:102EC000AB2FBE2FF85FD0F310C0FF5F70F4A69554
:102ED000E0F7F73950F019F0FF3A38F49F779F93F5
:102EE0000DD00F9007FC9058089546F00C941A18D6
:102EF00060E070E080E89FE308954FE79F775F937D
:102F00004F933F932F930E948E182F913F914F9193
:102F10005F910E940A190C94B9170E941C17E8F0DF
:102F20009E37E8F09639B8F49E3848F4672F782F2A
:102F30008827985FF9CF869577956795939595390A
:102F4000D0F3B62FB1706B0F711D811D20F48795E2
:102F50007795679593950C94F1170C940C180C9435
:102F6000371729F416F00C94EB170C9436170C94C1
:102F70001A180E941C17A8F39638A0F707F80F92AA
:102F8000E8942BE33AEA48EB5FE70E9420190F929E
:102F90000F920F924DB75EB70F920E94D618E8E6D7
:102FA000F0E00E941D184F915F91EF91FF91E59520
:102FB000EE1FFF1F49F0FE57E0684427EE0F441F45
:102FC000FA95E1F74195550B0E9450180F9007FEB6
:102FD0000C944418089597F99F6780E870E060E0CA
:102FE0000895882371F4772321F09850872B762F4A
:102FF00007C0662311F499270DC09051862B70E00D
:1030000060E02AF09A95660F771F881FDAF7880F1D
:103010009695879597F908959F3F31F0915020F448
:10302000879577956795B795880F911D96958795A4
:1030300097F908959FEF80EC0895DF93CF931F9346
:103040000F93FF92EF92DF927B018C01689406C090
:10305000DA2EEF010E941D19FE01E894A591259139
:10306000359145915591A6F3EF010E948F19FE010C
:103070009701A801DA9469F7DF90EF90FF900F9124
:103080001F91CF91DF9108959B01AC0160E070E04A
:1030900080E89FE30C94E4190C94EB170C940C1843
:1030A0000E941C17D8F39923C9F3940F511DA3F361
:1030B0009150504094F059F0882332F0660F771FFA
:1030C000881F91505040C1F79E3F51052CF7880F43
:1030D000911D9695879597F908955F3FACF0983EBE
:1030E0009CF0BB27869577956795B79508F4B160F6
:1030F0009395C1F7BB0F58F711F460FFE8CF6F5FEE
:103100007F4F8F4F9F4FE3CF0C94371716F00C94DF
:103110000C180C941A1868940C94EB170E941C1746
:10312000A8F39923C1F3AEF3DF93CF931F930F93CB
:10313000FF92C92FDD2788232AF02197660F771F7A
:10314000881FDAF720E030E040E85FEB9FE3883942
:1031500020F0803E38F021968F770E947819E0E9C0
:10316000F0E004C00E947819EDEBF0E00E941D1819
:103170008B01BE01EC01FB2E6F5771097595771F0E
:10318000880B990B0E94D91628E132E741E35FE3EF
:103190000E941D19AF2D9801AE01FF900F911F9154
:1031A000CF91DF910E948F190C94641AFA01DC010F
:1031B000AA0FBB1F9B01AC01BF5728F4222733275E
:1031C0004427507820C0B75190F4AB2F0024469587
:1031D00037952795011CA395D2F3002071F0220F9B
:1031E000331F441FB395DAF30ED00C947719613076
:1031F0007105A0E88A07B94630F49B01AC01662747
:10320000772788279078309621F020833183428376
:10321000538308950E941D190C94641A0E94561A33
:1032200038F00E945D1A20F0952311F00C94EB17F2
:103230000C941A1811240C9437170E94141770F369
:10324000959FC1F3950F50E0551F629FF001729F4B
:10325000BB27F00DB11D639FAA27F00DB11DAA1F5A
:10326000649F6627B00DA11D661F829F2227B00DA7
:10327000A11D621F739FB00DA11D621F839FA00D32
:10328000611D221F749F3327A00D611D231F849F82
:10329000600D211D822F762F6A2F11249F575040D9
:1032A0009AF0F1F088234AF0EE0FFF1FBB1F661F54
:1032B000771F881F91505040A9F79E3F510580F01D
:1032C0000C94EB170C9437175F3FE4F3983ED4F35C
:1032D000869577956795B795F795E7959F5FC1F7C1
:1032E000FE2B880F911D9695879597F90895505854
:1032F000BB27AA270E948F190C94641A0E94561AA1
:1033000038F00E945D1A20F039F49F3F19F426F43A
:103310000C941A180EF4E095E7FB0C94EB17E92FC8
:103320000E94141758F3BA176207730784079507AA
:1033300020F079F4A6F50C9436170EF4E0950B2ED8
:10334000BA2FA02D0B01B90190010C01CA01A001F7
:103350001124FF27591B99F0593F50F4503E68F152
:103360001A16F040A22F232F342F4427585FF3CF93
:10337000469537952795A795F0405395C9F77EF464
:103380001F16BA0B620B730B840BBAF09150A1F0AD
:10339000FF0FBB1F661F771F881FC2F70EC0BA0F33
:1033A000621F731F841F48F4879577956795B795BB
:1033B000F7959E3F08F0B0CF9395880F08F09927B6
:1033C000EE0F9795879508950E94F8190C94641A4A
:1033D0000E945D1A58F00E94561A40F029F45F3F8F
:1033E00029F00C94EB1751110C9437170C941A1800
:1033F0000E94141768F39923B1F3552391F3951B99
:10340000550BBB27AA2762177307840738F09F5F05
:103410005F4F220F331F441FAA1FA9F335D00E2E72
:103420003AF0E0E832D091505040E695001CCAF7DF
:103430002BD0FE2F29D0660F771F881FBB1F2617A2
:1034400037074807AB07B0E809F0BB0B802DBF0179
:10345000FF2793585F4F3AF09E3F510578F00C9448
:10346000EB170C9437175F3FE4F3983ED4F386953F
:1034700077956795B795F7959F5FC9F7880F911D69
:103480009695879597F90895E1E0660F771F881F55
:10349000BB1F621773078407BA0720F0621B730B08
:1034A000840BBA0BEE1F88F7E095089500240A9468
:1034B0001616170618060906089500240A9412160F
:1034C0001306140605060895092E0394000C11F442
:1034D000882352F0BB0F40F4BF2B11F460FF04C0EF
:1034E0006F5F7F4F8F4F9F4F0895991B79E004C006
:1034F000991F961708F0961B881F7A95C9F7809533
:103500000895AA1BBB1B51E107C0AA1FBB1FA6172A
:10351000B70710F0A61BB70B881F991F5A95A9F77C
:1035200080959095BC01CD010895EE0FFF1F059089
:10353000F491E02D099481E090E0F8940C94A01AA5
:04354000F894FFCF2D
:10354400FFFF0D010110010002000400080010003B
:103554002000400080000001000200040008FEFF7B
:10356400FDFFFBFFF7FFEFFFDFFFBFFF7FFFFFFE66
:10357400FFFDFFFBFFF78B060100020004000800BB
:103584001000200040008000000100020004000838
:1035940000100020004000000000FF000F0F333334
:1035A400AAAAFFFF000000003501AA0ACD007C0191
:1035B400FE00DC00F0000000000036020602660295
:1035C400DA01FE01EA01DB01547261636B65727317
:1035D4003A204C656674203D20002C204D696464BB
:1035E4006C65203D20002C205269676874203D20C2
:0435F400000D0A00BC
:00000001FF
