:100000000C94A3000C94CB000C94CB000C94CB006C
:100010000C94CB000C94CB000C94CB000C94CB0034
:100020000C94CB000C9480090C94CB000C942C08FD
:100030000C94CB000C94CB000C94CB000C94CB0014
:100040000C943E0C0C94CB000C94CD050C94A7059D
:100050000C94CB000C94CB000C94CB000C94CB00F4
:100060000C94FF050C94CB0007634236B79BD8A7CE
:100070001A39685618AEBAAB558C1D3CB7CC5763CD
:10008000BD6DEDFD753EF6177231BF000000803F7B
:1000900008000000BE922449123EABAAAA2ABECD97
:1000A000CCCC4C3E00000080BEABAAAAAA3E000009
:1000B0000000BF000000803F000000000008417801
:1000C000D3BB4387D1133D190E3CC3BD4282AD2B38
:1000D0003E68EC8276BED98FE1A93E4C80EFFFBE30
:1000E00001C4FF7F3F00000000000000000023006B
:1000F0002600290000000000240027002A0000003C
:100100000000250028002B00040404040404040457
:1001100002020202020203030303030301020408B2
:100120001020408001020408102001020408102061
:1001300000000008000201000003040700000000A6
:1001400000000000281511241FBECFEFD8E0DEBF4D
:10015000CDBF11E0A0E0B1E0E8E1F4E302C005901A
:100160000D92A43AB107D9F724E0A4EAB1E001C0A6
:100170001D92AE33B207E1F710E0C3EAD0E004C04D
:100180002197FE010E94FF19C23AD107C9F70E94C8
:10019000CD0C0C940A1A0C940000FC01538D448D74
:1001A000252F30E0842F90E0821B930B541710F022
:1001B000CF96089501970895FC01918D828D98172F
:1001C00061F0828DDF01A80FB11D5D968C91928D3B
:1001D0009F5F9F73928F90E008958FEF9FEF089538
:1001E000FC01918D828D981731F0828DE80FF11D01
:1001F000858D90E008958FEF9FEF0895FC01918D1C
:10020000228D892F90E0805C9F4F821B91098F7314
:100210009927089584E693E00E94FE0021E0892B4F
:1002200009F420E0822F0895FC01848DDF01A80FDE
:10023000B11DA35ABF4F2C91848D90E001968F730E
:100240009927848FA689B7892C93A089B1898C912D
:1002500080648C93938D848D981306C00288F389F3
:10026000E02D80818F7D80830895EF92FF920F9320
:100270001F93CF93DF93EC0181E0888F9B8D8C8D52
:10028000981305C0E889F989808185FD24C0F62E80
:100290000B8D10E00F5F1F4F0F731127E02E8C8D19
:1002A000E8120CC00FB607FCFACFE889F989808103
:1002B00085FFF5CFCE010E941401F1CF8B8DFE0199
:1002C000E80FF11DE35AFF4FF0820B8FEA89FB899B
:1002D0008081806207C0EE89FF896083E889F9899F
:1002E00080818064808381E090E0DF91CF911F91D5
:1002F0000F91FF90EF900895CF93DF93EC01888DDD
:100300008823C9F0EA89FB89808185FD05C0A88919
:10031000B9898C9186FD0FC00FB607FCF5CF80819F
:1003200085FFF2CFA889B9898C9185FFEDCFCE01E9
:100330000E941401E7CFDF91CF91089580E090E013
:10034000892B29F00E940A0181110C940000089564
:1003500085ED8093BC008091BC0084FDFCCF1092A1
:100360003F0308954091F402262F30E0240F311D01
:1003700021323105DCF420913F032430C9F4FC0123
:1003800080E090E0861758F43091F4022191DC016E
:10039000AE52BD4FA30FB11D2C930196F3CF8091A8
:1003A000F402680F6093F40280E0089581E00895FC
:1003B00082E008950895E091A5018091A401E817D5
:1003C00030F4F0E0EE54FD4F808190E008958FEF1F
:1003D0009FEF08959091A5018091A401981750F482
:1003E000E92FF0E0EE54FD4F208130E09F5F9093C5
:1003F000A50102C02FEF3FEFC90108958091A4012C
:1004000090E02091A501821B91090895CF92DF927F
:10041000EF92FF920F931F93CF93DF937C01262FD0
:10042000972F8A0180914003882391F0C62FD72F00
:100430006E01C40ED51ECC15DD0571F06991D70192
:10044000ED91FC910190F081E02DC7010995F3CF6A
:10045000642F822F0E94B201C801DF91CF911F91BA
:100460000F91FF90EF90DF90CF900895CF93DF939F
:100470001F92CDB7DEB76983209140032223D1F0CC
:1004800020916303203240F021E030E0FC0133830F
:10049000228380E090E015C080914103E82FF0E0D6
:1004A000EE5BFC4F998190838F5F80934103809333
:1004B000630305C061E0CE0101960E94B20181E0B4
:1004C00090E00F90DF91CF910895089580E090E043
:1004D00008958091B5019091B601892B29F0E091A2
:1004E000AD01F091AE0109959AB180910101892386
:1004F0008AB99BB18091010189238BB994B1809114
:100500000001892384B995B180910001892385B9BF
:1005100080918A0290918B0240910802892B09F008
:10052000E0C08091B9019091BA0190938B028093C1
:100530008A022091B7013091B801E0918902F0E080
:10054000EE0FFF1FE454FE4F80819181822393239D
:10055000892B89F02091890230E080910201082ED8
:10056000000C990B0197841B910947FD9395821705
:1005700093070CF0B8C280910802882309F49DC04B
:1005800080E590E090938802809387022091890211
:1005900030E080910201082E000C990B019728177A
:1005A000390709F08AC0E09189022BB1F0E0E251ED
:1005B000FE4F8081082E000C990B822B8BB9E091A5
:1005C00089022AB1F0E0E550FE4F8081082E000C30
:1005D000990B822B8AB9E091890225B1F0E0EC52A7
:1005E000FE4F8081082E000C990B822B85B9E0917B
:1005F000890224B1F0E0EF51FE4F8081082E000CFB
:10060000990B822B84B98091BB01882311F023B10F
:1006100001C029B180910B0290910C02822380933A
:10062000860280911D0290911E02892B29F18091F2
:100630008602811105C0109285021092840239C091
:10064000109283021092820280918402909185021E
:100650000196909385028093840280918402909108
:100660008502499750F110921E0210921D021092BD
:1006700085021092840221C0809186021092850228
:1006800010928402811115C08091820290918302A0
:1006900001969093830280938202809182029091CE
:1006A0008302499750F081E090E090931E0280937E
:1006B0001D021092830210928202809189028F5F44
:1006C000809389022091890230E080910201082EF6
:1006D000000C990B821793070CF0C1C0109289028D
:1006E000BEC0442309F4BBC080E590E0909388022B
:1006F000809387022091090230910A0280910201C1
:10070000082E000C990B01972817390709F08EC0A5
:10071000E0910902F0910A022BB1E251FE4F808173
:10072000082E000C990B822B8BB9E0910902F091F5
:100730000A022AB1E550FE4F8081082E000C990B69
:10074000822B8AB9E0910902F0910A0225B1EC529C
:10075000FE4F8081082E000C990B822B85B9E09109
:100760000902F0910A0224B1EF51FE4F8081082E58
:10077000000C990B822B84B98091BB01882311F066
:1007800023B101C029B180910B0290910C02822308
:100790008093860280911D0290911E02892B29F17F
:1007A00080918602811105C0109285021092840208
:1007B00039C010928302109282028091840290913B
:1007C0008502019690938502809384028091840231
:1007D00090918502499750F110921E0210921D02CD
:1007E000109285021092840221C08091860210929C
:1007F000850210928402811115C08091820290912D
:1008000083020196909383028093820280918202F8
:1008100090918302499750F081E090E090931E02FE
:1008200080931D021092830210928202809109022D
:1008300090910A02019690930A02809309022091F6
:10084000090230910A0280910201082E000C990BD6
:100850008217930720F410920A02109209028091E5
:100860008A0290918B02019790938B0280938A0267
:100870008091800290918102019709F529B18091C0
:100880007E0290917F02822380937D0290917C0270
:100890008917A9F080937C02809178029091790267
:1008A000A0917A02B0917B020196A11DB11D8093A7
:1008B000780290937902A0937A02B0937B028091A0
:1008C000800290918102029709F523B180917E0206
:1008D00090917F02822380937D0290917C02891700
:1008E000A9F080937C028091780290917902A09186
:1008F0007A02B0917B020196A11DB11D809378020E
:1009000090937902A0937A02B0937B028091760251
:1009100090917702019709F529B180917402909125
:100920007502822380937302909172028917A9F055
:100930008093720280916E0290916F02A09170027A
:10094000B09171020196A11DB11D80936E0290932A
:100950006F02A0937002B093710280917602909121
:100960007702029709F523B1809174029091750284
:10097000822380937302909172028917A9F0809369
:10098000720280916E0290916F02A0917002B091FC
:1009900071020196A11DB11D80936E0290936F02AA
:1009A000A0937002B093710280916C0290916D02DD
:1009B000019709F529B180916A0290916B02822317
:1009C00080936902909168028917A9F08093680268
:1009D0008091640290916502A0916602B0916702D5
:1009E0000196A11DB11D8093640290936502A093AE
:1009F0006602B093670280916C0290916D0202973B
:100A000009F523B180916A0290916B028223809351
:100A10006902909168028917A9F080936802809119
:100A2000640290916502A0916602B09167020196FE
:100A3000A11DB11D8093640290936502A09366028C
:100A4000B09367028091620290916302019709F569
:100A500029B18091600290916102822380935F02AC
:100A600090915E028917A9F080935E0280915A02EC
:100A700090915B02A0915C02B0915D020196A11D74
:100A8000B11D80935A0290935B02A0935C02B093D5
:100A90005D028091620290916302029709F054C056
:100AA00023B18091600290916102822380935F0262
:100AB00090915E02891709F447C080935E0280918D
:100AC0005A0290915B02A0915C02B0915D02019686
:100AD000A11DB11D80935A0290935B02A0935C020A
:100AE000B0935D020895E09189022BB1F0E0E251EC
:100AF000FE4F8081082E000C990B822B8BB9E09160
:100B000089022AB1F0E0E550FE4F8081082E000CEA
:100B1000990B822B8AB9E091890225B1F0E0EC5261
:100B2000FE4F8081082E000C990B822B85B9E09135
:100B3000890224B1F0E0EF51FE4F8081082E000CB5
:100B4000990B822B84B917CD08950E94051A1F9224
:100B50000F920FB60F9211242F933F934F935F93F1
:100B60006F937F938F939F93AF93BF93EF93FF9375
:100B700084E693E00E941401FF91EF91BF91AF9141
:100B80009F918F917F916F915F914F913F912F91A5
:100B90000F900FBE0F901F9018951F920F920FB6D7
:100BA0000F9211242F938F939F93EF93FF93E091D4
:100BB0007403F09175038081E0917A03F0917B03D7
:100BC00082FD12C0908180917D038F5F8F73209191
:100BD0007E03821751F0E0917D03F0E0EC59FC4F69
:100BE000958F80937D0301C08081FF91EF919F914C
:100BF0008F912F910F900FBE0F901F9018951F92FD
:100C00000F920FB60F9211242F933F934F935F9340
:100C10006F937F938F939F93AF93BF93EF93FF93C4
:100C20008091B900887F803609F49CC068F58832CD
:100C300009F45BC090F4803109F454C038F488237F
:100C400009F4F6C0883009F44DC0F6C0883109F4C3
:100C50004CC0803209F45DC0EFC0803409F468C034
:100C600048F4803309F455C0883309F0E5C0809317
:100C70003D03D8C0803509F44FC0883509F45DC004
:100C8000883409F0D9C0D6C0883909F4C7C0A8F49F
:100C9000883709F467C038F4883609F463C08037B0
:100CA00009F460C0C9C0883809F4B8C0803909F4B3
:100CB0005FC0803809F0C0C05BC0803B09F486C0CB
:100CC00038F4803A09F466C0883A09F47FC0B4C0A9
:100CD000803C09F4A7C0883C09F4A4C0883B09F40F
:100CE0008AC0AAC080911A0310C090913C038091E1
:100CF0003B03981770F5E0913C0381E08E0F8093E1
:100D00003C03F0E0E55EFC4F80818093BB0085EC06
:100D100086C080933D038EC0E0913C0381E08E0F3E
:100D200080933C038091BB00F0E0E55EFC4F808344
:100D300090913C0380913B036EC0E0913C0381E0C5
:100D40008E0F80933C038091BB00F0E0E55EFC4F8A
:100D5000808380913E0381116DC081E080931903EF
:100D600084EA61C083E080933F0310921803CFCFE1
:100D700080911803803208F051C0E091180381E09F
:100D80008E0F809318038091BB00F0E0E850FD4F78
:100D90008083BDCF85EC8093BC0010923F0380918F
:100DA0001803803230F4E0911803F0E0E850FD4F72
:100DB00010826091180370E0E091F602F091F70262
:100DC00088EF92E009951092180336C084E0809372
:100DD0003F031092F5021092F402E091F202F091BA
:100DE000F30209958091F402811105C081E080939E
:100DF000F4021092D202E091F50281E08E0F80930E
:100E0000F502F0E0EE52FD4F80818093BB0090919F
:100E1000F5028091F402981708F479CF85E8809361
:100E2000BC000AC085EC8093BC0010923F0304C054
:100E300010923D030E94A801FF91EF91BF91AF91E5
:100E40009F918F917F916F915F914F913F912F91E2
:100E50000F900FBE0F901F901895FC0190819C3051
:100E600080F5818128E830E0281B310987FD339522
:100E7000220F331F220F331F621773077CF082810A
:100E800028E532E0281B310987FD3395220F331FF7
:100E9000220F331F621773070CF49B012250310994
:100EA000220F331F4FB7F894892F90E0FC01EE0F0B
:100EB000FF1F8E0F9F1FFC01E257FD4F32832183DE
:100EC0004FBF0895CF92DF92EF92FF92CF93DF93BF
:100ED000EC01603282E078070CF03DC077FD06C07F
:100EE000653B71052CF064EB70E002C060E070E0DF
:100EF000898128E830E06901C81AD10887FDD394B8
:100F0000CC0CDD1CCC0CDD1C0D2C000CEE08FF08FD
:100F10008A8128E532E0281B310987FD3395220FAD
:100F2000331F220F331FC901330FAA0BBB0B9C01C8
:100F3000AD012C193D094E095F09DB010E94D9154D
:100F400024EB30E040E050E00E94AF15C20ED31E0B
:100F5000E41EF51EB601CE01DF91CF91FF90EF9018
:100F6000DF90CF900C942D071F93CF93DF93EC016C
:100F7000162F88818C3008F04EC061E0812F0E94CE
:100F8000DF0B8881E82FF0E09F01220F331FE20F73
:100F9000F31FE257FD4F1F739081907C192B108334
:100FA00019821A826CE00E94DF199CE0899FB001CF
:100FB000112440E050E09A01260F371FF901EE0F8F
:100FC000FF1F2E0F3F1FF901E257FD4F908196FD45
:100FD00016C04F5F5F4F4C30510569F781110FC04C
:100FE0001092800082E08093810010928500109220
:100FF0008400B19A80916F00826080936F00E881D5
:10100000F0E0CF01880F991FE80FF91FE257FD4F5D
:101010008081806480838881DF91CF911F910895C2
:10102000FC0190918D029C30A0F481E0890F8093A7
:101030008D029083892F90E0FC01EE0FFF1F8E0F31
:101040009F1FFC01E257FD4F88EB9BE09283818359
:1010500008958FEF808308951F920F920FB60F921D
:1010600011242F933F934F935F936F937F938F93AD
:101070009F93AF93BF93EF93FF9380918C0287FF71
:1010800005C010928500109284001BC020918C0234
:10109000022E000C330B80918D0290E02817390747
:1010A00084F480918C02082E000C990BFC01EE0F49
:1010B000FF1F8E0F9F1FFC01E257FD4F808186FDB1
:1010C00015C080918C028F5F80938C0220918C02DE
:1010D000022E000C330B80918D0290E02817390707
:1010E000C4F480918C028C3064F113C080918C0226
:1010F000082E000C990BFC01EE0FFF1F8E0F9F1F97
:10110000FC01E257FD4F808160E08F730E94AF0BBE
:10111000D8CF8091840090918500049680349C49BA
:1011200018F480E49CE905C08091840090918500CA
:10113000049690938900809388008FEF80938C02AF
:101140003BC0209184003091850080918C02082E54
:10115000000C990BFC01EE0FFF1F8E0F9F1FFC016F
:10116000E257FD4F81819281820F931F90938900F6
:101170008093880080918C02082E000C990BFC0152
:10118000EE0FFF1F8E0F9F1FFC01E257FD4F808166
:1011900086FF12C080918C02082E000C990BFC0176
:1011A000EE0FFF1F8E0F9F1FFC01E257FD4F808146
:1011B00061E08F730E94AF0BFF91EF91BF91AF91F0
:1011C0009F918F917F916F915F914F913F912F915F
:1011D0000F900FBE0F901F901895FC01838591E032
:1011E0009093400380936203109241031092630333
:1011F00081E094E00E94360281E00C94C50ACF920F
:10120000DF92EF92FF92CF93DF93EC0160E40E94B4
:10121000ED088B8590913F039111FCCF91E0909365
:101220003F0390933E032FEF20933D0310923C0326
:1012300023E020933B0390931A0390911A03880FA5
:10124000892B80931A0380911903813061F41092E5
:10125000190380911A038093BB008091BC0083FD29
:10126000F8CF85EC01C085EE8093BC0080913F03F0
:101270008130E1F380913C03843018F480913C0389
:1012800001C084E0ABE1B3E022EB32E0F9019E2F34
:10129000921B981718F49D919193F9CF1092A50184
:1012A0008093A40181E094E00E94EA01F82E81E09D
:1012B00094E00E94EA01C12CD12CDF2C8C299D29BD
:1012C0006C01990FEE08FF0881E094E00E94EA01AA
:1012D00081E094E00E94EA018881882341F066273A
:1012E0007727CB016C197D098E099F0902C0C701C0
:1012F000B601DF91CF91FF90EF90DF90CF900895EE
:101300001F920F920FB60F9211242F933F934F937A
:101310005F936F937F938F939F93AF93BF93EF935D
:10132000FF938091AB019091AC018093B2008091CA
:10133000A7019091A801A091A901B091AA010196DD
:10134000A11DB11D8093A7019093A801A093A901AD
:10135000B093AA014091A7015091A8016091A90101
:101360007091AA018091B1019091B201A091B30155
:10137000B091B401481759076A077B07B0F0809114
:10138000A601811112C081E08093A6011092A701ED
:101390001092A8011092A9011092AA01E091AF0148
:1013A000F091B00109951092A601FF91EF91BF91C4
:1013B000AF919F918F917F916F915F914F913F91ED
:1013C0002F910F900FBE0F901F901895CF93DF9322
:1013D000CDB7DEB7E0970FB6F894DEBF0FBECDBF36
:1013E00098E1E2E3F1E0DE01599601900D929A95C1
:1013F000E1F798E1EAE4F1E0DE01119601900D9247
:101400009A95E1F781508C30E0F490E02091B7019B
:101410003091B801880F991FE1E0F0E0EC0FFD1F5B
:10142000E80FF91F662329F0808D918D822B932B75
:1014300004C080819181822393239093B80180938B
:10144000B701E0960FB6F894DEBF0FBECDBFDF91B7
:10145000CF9108950C94A1150C94991560911B02DD
:1014600070911C028DE294E00E942D076CED75E0F6
:1014700080E394E00E942D078EE991E00C94780BB4
:1014800080E10E941B0C90931A02809319028FE056
:101490000E941B0C90931402809313028EE00E9412
:1014A0001B0C9093100280930F0280911702909171
:1014B00018022091150230911602821B930B209185
:1014C000190230911A022817390710F461E001C09F
:1014D00060E08CE00E94E609809111029091120276
:1014E0002091150230911602821B930B209113025A
:1014F000309114022817390710F461E001C060E050
:1015000089E00E94E60980910D0290910E022091DF
:10151000150230911602821B930B20910F0230911D
:1015200010022817390710F461E001C060E086E07E
:101530000C94E609CF92DF92EF92FF920F931F93E4
:10154000CF93DF936C017A018B01C0E0D0E0CE1520
:10155000DF0589F0D8016D918D01D601ED91FC91E7
:101560000190F081E02DC6010995892B11F47E01CF
:1015700002C02196ECCFC701DF91CF911F910F914F
:10158000FF90EF90DF90CF900895382F2091630364
:1015900090916203213208F049C080913F0381118C
:1015A000FCCF42E040933F0330933E033FEF309344
:1015B0003D0310923C0320933B03A2E4B3E04BE1D4
:1015C00053E0FA013E2F341B321718F43D9131934A
:1015D000F9CF10921A0320911A03990F922B90932E
:1015E0001A0390911903913061F4109219039091AC
:1015F0001A039093BB009091BC0093FDF8CF95EC3B
:1016000001C095EE9093BC0090913F039230E1F3BE
:1016100090913D039F3F79F080913D03803241F0EE
:1016200080913D03803331F084E005C081E003C048
:1016300082E001C083E01092410310926303109294
:1016400040030895CF93DF93EC0180913C04909187
:101650003D04009719F06BE40E94ED08D0933D041F
:10166000C0933C048CE599EEAEE5BCE389839A8394
:10167000AB83BC8385E59AE2AFE0B6E38D839E83BE
:10168000AF83B88788E090E09A87898781E080936C
:10169000400380E38093620310924103109263033E
:1016A0006DE481E094E00E9436026B857C85660FD4
:1016B000771F81E094E00E94360281E00E94C50A13
:1016C0006AE4CE01DF91CF910C94ED08009769F0A8
:1016D000FC0101900020E9F73197AF01481B590B3D
:1016E000BC0184E693E00C949A0A80E090E00895AF
:1016F000CF93DF930E94660BEC018BE991E00E948F
:10170000660B8C0F9D1FDF91CF910895833081F080
:1017100028F4813099F08230A1F008958730A9F043
:101720008830B9F08430D1F4809180008F7D03C07F
:10173000809180008F7780938000089584B58F77A3
:1017400002C084B58F7D84BD08958091B0008F77ED
:1017500003C08091B0008F7D8093B00008951F93E7
:10176000CF93DF93282F30E0F901E05DFE4F8491A5
:10177000F901E45EFE4FD491F901E85FFE4FC49198
:10178000CC23C9F0162F81110E94860BEC2FF0E0BC
:10179000EE0FFF1FE250FF4FA591B4918FB7F89461
:1017A000111105C09C91ED2FE095E92302C0EC9149
:1017B000ED2BEC938FBFDF91CF911F910895CF93C5
:1017C000DF9390E0FC01E45EFE4F2491FC01E85FB2
:1017D000FE4F8491882361F190E0880F991FFC01EE
:1017E000EC50FF4FC591D491FC01E250FF4FA59101
:1017F000B491611109C09FB7F89488812095822324
:101800008883EC912E230BC0623061F49FB7F8946B
:101810003881822F809583238883EC912E2B2C9303
:101820009FBF06C08FB7F894E8812E2B28838FBF07
:10183000DF91CF9108958E3008F08E5087708064CC
:1018400080937C0080917A00806480937A008091FC
:101850007A0086FDFCCF809178002091790090E09D
:10186000922B08952FB7F894609138047091390441
:1018700080913A0490913B042FBF08951F920F92DC
:101880000FB60F9211242F933F938F939F93AF9393
:10189000BF938091380490913904A0913A04B0919B
:1018A0003B043091370423E0230F2D3720F40196B9
:1018B000A11DB11D05C026E8230F0296A11DB11D73
:1018C000209337048093380490933904A0933A040A
:1018D000B0933B048091330490913404A09135047B
:1018E000B09136040196A11DB11D809333049093ED
:1018F0003404A0933504B0933604BF91AF919F9107
:101900008F913F912F910F900FBE0F901F901895C0
:10191000CF92DF92EF92FF920F931F93E82FF92F50
:1019200005C0015011092109310961F19081962307
:101930009417B9F305C0015011092109310911F1BA
:10194000908196239413F7CFC12CD12CE12CF12C4C
:101950000AC08FEFC81AD80AE80AF80A0C151D0544
:101960002E053F0579F080818623841791F36C2D35
:101970007D2D8E2D9F2D1F910F91FF90EF90DF9069
:10198000CF90089560E070E080E090E01F910F91AB
:10199000FF90EF90DF90CF900895CF93DF93CDB776
:1019A000DEB7A1970FB6F894DEBF0FBECDBF789417
:1019B00084B5826084BD84B5816084BD85B5826054
:1019C00085BD85B5816085BD80916E008160809305
:1019D0006E0010928100809181008260809381006E
:1019E000809181008160809381008091800081607E
:1019F000809380008091B10084608093B1008091D9
:101A0000B00081608093B00080917A008460809300
:101A10007A0080917A00826080937A0080917A00C7
:101A2000816080937A0080917A00806880937A0048
:101A30001092C1001092A5011092A40110924103CE
:101A40001092630310923F0311E010933E03109233
:101A5000190361E082E10E94AF0B61E083E10E9423
:101A6000AF0B8091B9008E7F8093B9008091B9004F
:101A70008D7F8093B90088E48093B80085E48093DB
:101A8000BC00E0917403F091750382E08083E091E3
:101A90007003F09171031082E0917203F09173036F
:101AA0008FEC808310927C03E0917803F0917903AE
:101AB00086E08083E0917603F091770380818061F6
:101AC0008083E0917603F091770380818860808342
:101AD000E0917603F0917703808180688083E091C4
:101AE0007603F091770380818F7D808387E090E09B
:101AF00090930C0280930B0210920A02109209023A
:101B0000109308028DE0809302018FEF8093000113
:101B10001092ED011092E00181E090E09093BD0100
:101B20008093BC0182E090E09093BF018093BE015E
:101B300084E090E09093C1018093C00188E090E040
:101B40009093C3018093C20180E190E09093C5011E
:101B50008093C40180E290E09093C7018093C60116
:101B600080E490E09093C9018093C80180E890E000
:101B70009093CB018093CA0180E091E09093CD01D6
:101B80008093CC0180E092E09093CF018093CE01CE
:101B900080E094E09093D1018093D00180E098E0C0
:101BA0009093D3018093D2018FE08093010180EF65
:101BB000809307028093FA011092E1011092D40100
:101BC0001092EB011092DE0120E22093EE0180EAF8
:101BD0008093FB018093050280E88093F8011092C6
:101BE000E2011092D5011092E3011092D6012093E8
:101BF000F00190E69093FC019093FD0190E49093A6
:101C0000EF015091FE011092D7014091FF01109217
:101C1000D80130E13093F20150695093FE014069E0
:101C20004093FF018093F1011092E6011092D901D7
:101C30001092E7011092DA013093F40140E54093ED
:101C40000002409301029093F3011092E801109278
:101C5000DB011092E9011092DC013093F60130E3D0
:101C600030930202309303022093F5011092EA01AF
:101C70001092DD011092EC011092DF019093F901B6
:101C800090EC90930402909306028093F701809168
:101C90000B0290910C02089720F51092BB01609105
:101CA0000B0270910C0280E090E00E9441169B01B3
:101CB000AC0160E070E080E090E40E94A7160E9412
:101CC000F7160E94121670930C0260930B0280911B
:101CD0000B0290910C0220EF8227909580930702CF
:101CE00022C01093BB0160910B0270910C026850EE
:101CF000710980E090E00E9441169B01AC0160E018
:101D000070E080E090E40E94A7160E94F7160E94FF
:101D1000121670930C0260930B0280910B0290914B
:101D20000C028093ED0180911F0290912002892B7B
:101D300009F081C081E090E09093200280931F021F
:101D400026E030E03093BA012093B9011092B80137
:101D50001092B7011092B6011092B5014091B101F5
:101D60005091B2016091B3017091B401452B462BA3
:101D7000472B89F09093B6018093B5018091AF0114
:101D80009091B0019093AE018093AD01809170006D
:101D90008E7F80937000809170008E7F80937000A2
:101DA0008091B0008C7F8093B0008091B100877FDC
:101DB0008093B1008091B6008F7D8093B6008091B2
:101DC00070008D7F809370008091B100846080935B
:101DD000B1008091B1008C7F8093B1008AEF90E0D8
:101DE0009093AC018093AB0182E090E0A0E0B0E082
:101DF0008093B1019093B201A093B301B093B40169
:101E000089E692E09093B0018093AF011092A70110
:101E10001092A8011092A9011092AA011092A60195
:101E20008091AB019091AC018093B20080917000E1
:101E300081608093700061E082E00E94DF0B60E0CF
:101E400083E00E94DF0B61E088E00E94DF0B68E026
:101E500070E080E394E00E94B40761E089E00E94B2
:101E6000DF0B69E070E08DE294E00E94B40761E06E
:101E70008AE00E94DF0B6AE070E08AE294E00E9450
:101E8000B40761E08BE00E94DF0B6BE070E087E25B
:101E900094E00E94B40760E08CE00E94DF0B8DE0CC
:101EA00094E00E94220B10920D048AE194E00E94BB
:101EB000220B81E080931A0460E08EE00E94DF0B29
:101EC00060E08FE00E94DF0B60E080E10E94DF0BAA
:101ED00086E990E0909316028093150280E090E0EE
:101EE0000E942C0A182F8093220281E090E00E9429
:101EF0002C0A80932102212F30E0A901582B509306
:101F000018024093170282E090E00E942C0A182FDA
:101F10008093220281E090E00E942C0A80932102AB
:101F2000212F30E0F901F82BF0934002E0933F02BB
:101F300084E090E00E942C0A182F8093220281E016
:101F400090E00E942C0A80932102212F30E0A90109
:101F5000582B509312024093110286E090E00E94A9
:101F60002C0A182F8093220281E090E00E942C0A14
:101F700080932102212F30E0F901F82BF0933E02EB
:101F8000E0933D0288E090E00E942C0A182F809395
:101F9000220281E090E00E942C0A80932102212FEE
:101FA00030E0A901582B50930E0240930D028AE0B5
:101FB00090E00E942C0A182F8093220281E090E08A
:101FC0000E942C0A80932102212F30E0F901F82B86
:101FD000F0933C02E0933B028CE090E00E942C0ADC
:101FE000182F809322028DE090E00E942C0A282F67
:101FF00080932102812F90E0922BA0E0B0E08093AB
:10200000470290934802A0934902B0934A028EE09F
:1020100090E00E942C0A182F809322028FE090E01B
:102020000E942C0A282F80932102812F90E0922B6E
:10203000A0E0B0E08093430290934402A093450255
:10204000B093460274E0472E512C612C712CEFE1C5
:102050002E2EE1E03E2EFAE08F2E912CA12CB12CF9
:102060000E94320C009154021091550220915602A8
:1020700030915702DC01CB01801B910BA20BB30BFB
:10208000893B9B40A105B10518F081E08093530284
:1020900080911D0290911E02892B29F1809152029C
:1020A000811123C081E0809352028091500290916F
:1020B00051020196877099279093510280935002A4
:1020C0000E94320C60935402709355028093560222
:1020D000909357021092530210924F0210924E02A8
:1020E00010924D0202C010925202ECE3F1E0849192
:1020F000E8E2F1E01491E4E1F1E00491002379F0E9
:1021000081110E94860BE02FF0E0EE0FFF1FE651D9
:10211000FF4FA591B4918C91182381E009F480E0E0
:10212000817080930401809150029091510282301D
:10213000910509F490C130F4009761F0019709F41A
:1021400069C006C48330910509F459C2049709F4A3
:1021500026C3FEC30E94400A61E082E00E94AF0BEA
:1021600083E290E00197F1F760E082E00E94AF0B1C
:10217000F1016491EBE0F1E08491E82FF0E0EE0FE3
:10218000FF1FE651FF4F8591949100E117E220E097
:1021900030E0462F0E94880C61157105810591057C
:1021A00039F0DC01CB010196A11DB11DBF7003C048
:1021B00080E090E0DC018093230290932402A093BE
:1021C0002502B09326026CED75E08DE294E00E944A
:1021D0002D076CED75E080E394E00E942D0767E326
:1021E00070E08AE294E00E9462076AE570E087E2AC
:1021F00094E00E9462076AE48DE094E00E94ED089A
:102200006AE48AE194E00E94ED0810924C02109278
:102210004B029EC380915302882309F499C30E9404
:10222000400A8091470290914802A0914902B091E2
:102230004A02885F984FAF4FBF4F8034F6E09F0748
:10224000A105B10560F0853328E09207A105B1052D
:1022500020F084E398E0A0E0B0E0BC0102C060E4BC
:1022600076E070931C0260931B0280914302909170
:102270004402A0914502B0914602885F984FAF4F4B
:10228000BF4F803436E09307A105B10560F0853378
:1022900048E09407A105B10520F084E398E0A0E0B0
:1022A000B0E08C0102C000E416E0109342020093FB
:1022B00041022091150230911602809117029091EF
:1022C0001802821B930B4091190250911A02481771
:1022D000590738F58091110290911202821B930BDD
:1022E000409113025091140284179507D0F4809105
:1022F0000D0290910E02821B930B20910F023091E0
:1023000010022817390768F48DE294E00E942D0727
:10231000B80180E394E00E942D0786E891E00E94D6
:10232000780B20911502309116028091170290913E
:102330001802821B930B4091190250911A028417C4
:102340009507E0F48091110290911202821B930B89
:1023500040911302509114024817590778F4809164
:102360000D0290910E02821B930B20910F0230916F
:1023700010022817390710F40E942E0A2091150226
:10238000309116028091170290911802821B930BD4
:102390004091190250911A024817590760F580912F
:1023A000110290911202821B930B409113025091E3
:1023B000140248175907F8F480910D0290910E020B
:1023C000821B930B20910F0230911002821793070A
:1023D00090F46CED75E08DE294E00E942D07609121
:1023E00041027091420280E394E00E942D078EE842
:1023F00091E00E94780B2091150230911602809195
:10240000170290911802821B930B40911902509170
:102410001A0248175907E0F48091110290911202B4
:10242000821B930B409113025091140248175907D5
:1024300078F480910D0290910E02821B930B2091F3
:102440000F02309110022817390710F40E942E0A4B
:1024500081E090E079C280915302882309F478C228
:1024600080914F0281111EC081E080934F02109233
:10247000400210923F0210923E0210923D021092D2
:102480003C0210923B020E94320C60933702709320
:1024900038028093390290933A02109236021092D9
:1024A000350255C00E94320C00913702109138025B
:1024B0002091390230913A02DC01CB01801B910B53
:1024C000A20BB30B85369105A105B10508F43FC0F9
:1024D0000E94320C60933702709338028093390265
:1024E00090933A020E94400A20913F0230914002AC
:1024F0008091190290911A02820F931F90934002CB
:1025000080933F0220913D0230913E028091130260
:1025100090911402820F931F90933E0280933D028C
:1025200020913B0230913C0280910F029091100269
:10253000820F931F90933C0280933B02809135025F
:102540009091360201969093360280933502209145
:102550003502309136022431310509F049C08091AD
:102560003F0290914002B9010E94EB19462F6093FF
:102570003F027093400280913D0290913E02B9016A
:102580000E94EB1970933E0260933D0280913B02E2
:1025900090913C02B9010E94EB1970933C02609348
:1025A0003B02642F82E090E00E942A0A6091400280
:1025B00083E090E00E942A0A60913D0286E090E06C
:1025C0000E942A0A60913E0287E090E00E942A0A57
:1025D00060913B028AE090E00E942A0A60913C02EE
:1025E0008BE090E00E942A0A109251021092500251
:1025F000E2E0F0E0F0934C02E0934B02A9C180913D
:102600005302882309F4A4C180914F0281111EC096
:1026100081E080934F0210921802109217021092DC
:1026200012021092110210920E0210920D020E94DC
:10263000320C609337027093380280933902909382
:102640003A02109236021092350255C00E94320CA6
:1026500000913702109138022091390230913A02EC
:10266000DC01CB01801B910BA20BB30B85369105CE
:10267000A105B10508F43FC00E94320C60933702F7
:10268000709338028093390290933A020E94400A74
:1026900020911702309118028091190290911A022C
:1026A000820F931F909318028093170220911102BA
:1026B000309112028091130290911402820F931FA5
:1026C000909312028093110220910D0230910E021C
:1026D00080910F0290911002820F931F90930E022F
:1026E00080930D028091350290913602019690936D
:1026F0003602809335022091350230913602243122
:10270000310509F049C08091170290911802B90172
:102710000E94EB19462F6093170270931802809164
:10272000110290911202B9010E94EB1970931202EA
:102730006093110280910D0290910E02B9010E94E6
:10274000EB1970930E0260930D02642F80E090E00D
:102750000E942A0A6091180281E090E00E942A0AF1
:102760006091110284E090E00E942A0A60911202B6
:1027700085E090E00E942A0A60910D0288E090E0D6
:102780000E942A0A60910E0289E090E00E942A0AC3
:10279000109251021092500283E090E0D5C08091D7
:1027A0005302882309F4D4C080914F02811124C0C0
:1027B00081E080934F026AE48DE094E00E94ED088E
:1027C0006AE48AE194E00E94ED080E94320C609372
:1027D0003702709338028093390290933A0268E08E
:1027E00077E08DE294E00E942D0768E077E080E3D7
:1027F00094E00E942D07A6C00E94320C009137027F
:10280000109138022091390230913A02DC01CB015B
:10281000801B910BA20BB30B89389341A105B10525
:1028200008F490C06CED75E08DE294E00E942D07F5
:102830006CED75E080E394E00E942D078DE094E05C
:102840000E94FF086B017C01609331027093320299
:1028500080933302909334028AE194E00E94FF084F
:1028600060932D0270932E0280932F02909330027A
:102870006C157D058E059F05ECF4109243021092B5
:1028800044021092450210924602A7019601261BAF
:10289000370B480B590BCA01B901A30192010E94E1
:1028A000AF1520934702309348024093490250935A
:1028B0004A0218C06C197D098E099F09A301920173
:1028C0000E94AF1520934302309344024093450287
:1028D0005093460210924702109248021092490209
:1028E00010924A02609143028EE090E00E942A0A10
:1028F0008091430290914402A0914502B09146021A
:10290000692F7A2F8B2F99278FE090E00E942A0A57
:10291000609147028CE090E00E942A0A8091470271
:1029200090914802A0914902B0914A02692F7A2FF2
:102930008B2F99278DE090E00E942A0A1092510275
:102940001092500284E090E090934C0280934B02EE
:102950000E94320C0091290210912A0220912B0230
:1029600030912C02DC01CB01801B910BA20BB30B2D
:10297000853F9140A105B10508F467C00E94320C63
:102980006093290270932A0280932B0290932C0269
:1029900084E991E00E94660BE0914B02F0914C02B9
:1029A000EE0FFF1FEA5DFE4F2081318140E050E0D5
:1029B00019A28E010F5D1F4FCA01B901A501940133
:1029C0000E94E115605DF80162938F0121153105C8
:1029D0004105510589F7CF010E94660B8BE991E013
:1029E0000E94660B1091030181E0182710930301E8
:1029F000612F0E94E609612F8DE00E94AF0B0091CC
:102A0000270210912802D801AA0FBB1FAA5FBE4F50
:102A1000E0914B02F0914C02EE0FFF1FEA5DFE4F7A
:102A20002D913C91808191818223932361E0892BB8
:102A300009F060E084E00E94E6090F5F1F4F0F700D
:102A4000112710932802009327020E949E0108CBB1
:102A5000E4E6F3E01382128288EE93E0A0E0B0E0B7
:102A600084839583A683B78326E631E03183208370
:102A700025EC30E03587248724EC30E03787268743
:102A800020EC30E0318B208B21EC30E0338B228B3B
:102A900022EC30E0358B248B26EC30E0378B268B14
:102AA000118E128E138E148EE1E0F4E013821282E6
:102AB00084839583A683B78388E791E0918380839D
:102AC00080E394E00E9410088DE294E00E941008D8
:102AD0008AE294E00E94100887E294E00E941008C5
:102AE00080910501EAE1F4E0282F30E03487238764
:102AF000108211821282138214821582168217822A
:102B0000108612861186EDE0F4E021E0280F30E017
:102B1000348723878E5F8093050110821182128291
:102B200013821482158216821782108612861186ED
:102B30000895F999FECF92BD81BDF89A992780B585
:102B40000895262FF999FECF1FBA92BD81BD20BDF1
:102B50000FB6F894FA9AF99A0FBE01960895052EC9
:102B600097FB1EF400940E94C61557FD07D00E94E3
:102B7000E11507FC03D04EF40C94C6155095409512
:102B8000309521953F4F4F4F5F4F08959095809519
:102B9000709561957F4F8F4F9F4F08950E94031648
:102BA000A59F900DB49F900DA49F800D911D1124A1
:102BB0000895B7FF0C94CE150E94CE15821B930B7F
:102BC0000895A1E21A2EAA1BBB1BFD010DC0AA1F6E
:102BD000BB1FEE1FFF1FA217B307E407F50720F086
:102BE000A21BB30BE40BF50B661F771F881F991F01
:102BF0001A9469F760957095809590959B01AC014A
:102C0000BD01CF010895A29FB001B39FC001A39F52
:102C1000700D811D1124911DB29F700D811D112415
:102C2000911D08950E94861688F09F5798F0B92F3D
:102C30009927B751B0F0E1F0660F771F881F991FF1
:102C40001AF0BA95C9F714C0B13091F00E94A016DD
:102C5000B1E008950C94A016672F782F8827B85FED
:102C600039F0B93FCCF3869577956795B395D9F749
:102C70003EF490958095709561957F4F8F4F9F4F53
:102C80000895E89409C097FB3EF49095809570955F
:102C900061957F4F8F4F9F4F9923A9F0F92F96E9A8
:102CA000BB279395F695879577956795B795F1111D
:102CB000F8CFFAF4BB0F11F460FF1BC06F5F7F4FBA
:102CC0008F4F9F4F16C0882311F096E911C07723CC
:102CD00021F09EE8872F762F05C0662371F096E8D5
:102CE000862F70E060E02AF09A95660F771F881FA4
:102CF000DAF7880F9695879597F9089557FD9058BC
:102D0000440F551F59F05F3F71F04795880F97FBAF
:102D1000991F61F09F3F79F0879508951216130669
:102D20001406551FF2CF4695F1DF08C01616170698
:102D30001806991FF1CF86957105610508940895CD
:102D4000E894BB2766277727CB0197F90895FA0106
:102D5000EE0FFF1F309621053105A1F161157105B8
:102D600061F48038BFE39B0749F16894903881058E
:102D700061F08038BFEF9B0741F099234AF5FF3F90
:102D8000E1053105210519F1E8940894E795D90189
:102D9000AA2329F4AB2FBE2FF85FD0F310C0FF5F3A
:102DA00070F4A695E0F7F73950F019F0FF3A38F4CF
:102DB0009F779F930DD00F9007FC9058089546F091
:102DC0000C94841760E070E080E89FE308954FE77B
:102DD0009F775F934F933F932F930E94F8172F9104
:102DE0003F914F915F910E9474180C9423170E9499
:102DF0008616E8F09E37E8F09639B8F49E3848F425
:102E0000672F782F8827985FF9CF869577956795F4
:102E100093959539D0F3B62FB1706B0F711D811D4D
:102E200020F487957795679593950C945B170C9490
:102E300076170C94A11629F416F00C9455170C94DF
:102E4000A0160C9484170E948616A8F39638A0F753
:102E500007F80F92E8942BE33AEA48EB5FE70E9409
:102E60008A180F920F920F924DB75EB70F920E9481
:102E70004018E8E6F0E00E9487174F915F91EF91CC
:102E8000FF91E595EE1FFF1F49F0FE57E0684427CC
:102E9000EE0F441FFA95E1F74195550B0E94BA17C2
:102EA0000F9007FE0C94AE17089597F99F6780E87E
:102EB00070E060E00895882371F4772321F0985042
:102EC000872B762F07C0662311F499270DC09051E8
:102ED000862B70E060E02AF09A95660F771F881FB6
:102EE000DAF7880F9695879597F908959F3F31F007
:102EF000915020F4879577956795B795880F911D28
:102F00009695879597F908959FEF80EC0895DF9344
:102F1000CF931F930F93FF92EF92DF927B018C016F
:102F2000689406C0DA2EEF010E948718FE01E8942B
:102F3000A5912591359145915591A6F3EF010E94F8
:102F4000F918FE019701A801DA9469F7DF90EF9074
:102F5000FF900F911F91CF91DF9108959B01AC01DC
:102F600060E070E080E89FE30C944E190C945517D4
:102F70000C9476170E948616D8F39923C9F3940F00
:102F8000511DA3F39150504094F059F0882332F032
:102F9000660F771F881F91505040C1F79E3F510523
:102FA0002CF7880F911D9695879597F908955F3FA7
:102FB000ACF0983E9CF0BB27869577956795B795C2
:102FC00008F4B1609395C1F7BB0F58F711F460FF97
:102FD000E8CF6F5F7F4F8F4F9F4FE3CF0C94A116C9
:102FE00016F00C9476170C94841768940C9455176B
:102FF0000E948616A8F39923C1F3AEF3DF93CF9313
:103000001F930F93FF92C92FDD2788232AF0219762
:10301000660F771F881FDAF720E030E040E85FEBAB
:103020009FE3883920F0803E38F021968F770E9408
:10303000E218E0E9F0E004C00E94E218EDEBF0E0F5
:103040000E9487178B01BE01EC01FB2E6F5771099F
:103050007595771F880B990B0E94431628E132E77C
:1030600041E35FE30E948718AF2D9801AE01FF9006
:103070000F911F91CF91DF910E94F9180C94CE19F6
:10308000FA01DC01AA0FBB1F9B01AC01BF5728F45A
:10309000222733274427507820C0B75190F4AB2F14
:1030A0000024469537952795011CA395D2F300205F
:1030B00071F0220F331F441FB395DAF30ED00C9436
:1030C000E11861307105A0E88A07B94630F49B0128
:1030D000AC016627772788279078309621F02083E7
:1030E00031834283538308950E9487180C94CE192C
:1030F0000E94C01938F00E94C71920F0952311F0E2
:103100000C9455170C94841711240C94A1160E944A
:103110007E1670F3959FC1F3950F50E0551F629F87
:10312000F001729FBB27F00DB11D639FAA27F00D20
:10313000B11DAA1F649F6627B00DA11D661F829F47
:103140002227B00DA11D621F739FB00DA11D621F2C
:10315000839FA00D611D221F749F3327A00D611D49
:10316000231F849F600D211D822F762F6A2F11242B
:103170009F5750409AF0F1F088234AF0EE0FFF1F5E
:10318000BB1F661F771F881F91505040A9F79E3FB5
:10319000510580F00C9455170C94A1165F3FE4F391
:1031A000983ED4F3869577956795B795F795E7950B
:1031B0009F5FC1F7FE2B880F911D9695879597F914
:1031C00008955058BB27AA270E94F9180C94CE19CD
:1031D0000E94C01938F00E94C71920F039F49F3FAF
:1031E00019F426F40C9484170EF4E095E7FB0C9484
:1031F0005517E92F0E947E1658F3BA176207730716
:103200008407950720F079F4A6F50C94A0160EF427
:10321000E0950B2EBA2FA02D0B01B90190010C01E6
:10322000CA01A0011124FF27591B99F0593F50F4FE
:10323000503E68F11A16F040A22F232F342F442756
:10324000585FF3CF469537952795A795F04053954E
:10325000C9F77EF41F16BA0B620B730B840BBAF01E
:103260009150A1F0FF0FBB1F661F771F881FC2F789
:103270000EC0BA0F621F731F841F48F4879577959D
:103280006795B795F7959E3F08F0B0CF9395880F57
:1032900008F09927EE0F9795879508950E94621977
:1032A0000C94CE190E94C71958F00E94C01940F022
:1032B00029F45F3F29F00C94551751110C94A11675
:1032C0000C9484170E947E1668F39923B1F355235A
:1032D00091F3951B550BBB27AA2762177307840729
:1032E00038F09F5F5F4F220F331F441FAA1FA9F3BF
:1032F00035D00E2E3AF0E0E832D091505040E695AD
:10330000001CCAF72BD0FE2F29D0660F771F881F0D
:10331000BB1F261737074807AB07B0E809F0BB0B00
:10332000802DBF01FF2793585F4F3AF09E3F510514
:1033300078F00C9455170C94A1165F3FE4F3983E77
:10334000D4F3869577956795B795F7959F5FC9F7FD
:10335000880F911D9695879597F90895E1E0660F7E
:10336000771F881FBB1F621773078407BA0720F0F7
:10337000621B730B840BBA0BEE1F88F7E095089560
:1033800000240A9416161706180609060895002444
:103390000A9412161306140605060895092E0394BE
:1033A000000C11F4882352F0BB0F40F4BF2B11F432
:1033B00060FF04C06F5F7F4F8F4F9F4F0895991B31
:1033C00079E004C0991F961708F0961B881F7A951C
:1033D000C9F780950895AA1BBB1B51E107C0AA1F1E
:1033E000BB1FA617B70710F0A61BB70B881F991FA6
:1033F0005A95A9F780959095BC01CD010895EE0FDF
:10340000FF1F0590F491E02D099481E090E0F8947D
:083410000C940A1AF894FFCF96
:10341800FFFF0D0101100100020004000800100068
:103428002000400080000001000200040008001095
:103438000020004000000000FF000F0F3333AAAA4D
:10344800FFFF0100020004000800100020004000F7
:1034580080000001000200040008FEFFFDFFFBFFE2
:10346800F7FFEFFFDFFFBFFF7FFFFFFEFFFDFFFB63
:10347800FFF70000000035019A0ACD007C01FE002C
:10348800DC00F00000000000360206026602DA01E5
:10349800FE01EA01DB01466F7277617264005269CE
:1034A800676874004D6F64653A20000D0A004C652A
:0434B8006674000036
:00000001FF
