:100000000C94A3000C94CB000C94CB000C94CB006C
:100010000C94CB000C94CB000C94CB000C94CB0034
:100020000C94CB000C9480090C94CB000C942C08FD
:100030000C94CB000C94CB000C94CB000C94CB0014
:100040000C94C90C0C94CB000C94CD050C94A70512
:100050000C94CB000C94CB000C94CB000C94CB00F4
:100060000C94FF050C94CB0007634236B79BD8A7CE
:100070001A39685618AEBAAB558C1D3CB7CC5763CD
:10008000BD6DEDFD753EF6177231BF000000803F7B
:1000900008000000BE922449123EABAAAA2ABECD97
:1000A000CCCC4C3E00000080BEABAAAAAA3E000009
:1000B0000000BF000000803F000000000008417801
:1000C000D3BB4387D1133D190E3CC3BD4282AD2B38
:1000D0003E68EC8276BED98FE1A93E4C80EFFFBE30
:1000E00001C4FF7F3F00000000000000000023006B
:1000F0002600290000000000240027002A0000003C
:100100000000250028002B00040404040404040457
:1001100002020202020203030303030301020408B2
:100120001020408001020408102001020408102061
:1001300000000008000201000003040700000000A6
:1001400000000000B41611241FBECFEFD8E0DEBFC0
:10015000CDBF12E0A0E0B1E0E0E3F7E302C005901C
:100160000D92AE35B107D9F724E0AEE5B2E001C09B
:100170001D92A83FB207E1F710E0C3EAD0E004C047
:100180002197FE010E948B1BC23AD107C9F70E943A
:10019000580D0C94961B0C940000FC01538D448D5B
:1001A000252F30E0842F90E0821B930B541710F022
:1001B000CF96089501970895FC01918D828D98172F
:1001C00061F0828DDF01A80FB11D5D968C91928D3B
:1001D0009F5F9F73928F90E008958FEF9FEF089538
:1001E000FC01918D828D981731F0828DE80FF11D01
:1001F000858D90E008958FEF9FEF0895FC01918D1C
:10020000228D892F90E0805C9F4F821B91098F7314
:10021000992708958EE194E00E94FE0021E0892B49
:1002200009F420E0822F0895FC01848DDF01A80FDE
:10023000B11DA35ABF4F2C91848D90E001968F730E
:100240009927848FA689B7892C93A089B1898C912D
:1002500080648C93938D848D981306C00288F389F3
:10026000E02D80818F7D80830895EF92FF920F9320
:100270001F93CF93DF93EC0181E0888F9B8D8C8D52
:10028000981305C0E889F989808185FD24C0F62E80
:100290000B8D10E00F5F1F4F0F731127E02E8C8D19
:1002A000E8120CC00FB607FCFACFE889F989808103
:1002B00085FFF5CFCE010E941401F1CF8B8DFE0199
:1002C000E80FF11DE35AFF4FF0820B8FEA89FB899B
:1002D0008081806207C0EE89FF896083E889F9899F
:1002E00080818064808381E090E0DF91CF911F91D5
:1002F0000F91FF90EF900895CF93DF93EC01888DDD
:100300008823C9F0EA89FB89808185FD05C0A88919
:10031000B9898C9186FD0FC00FB607FCF5CF80819F
:1003200085FFF2CFA889B9898C9185FFEDCFCE01E9
:100330000E941401E7CFDF91CF91089580E090E013
:10034000892B29F00E940A0181110C940000089564
:1003500085ED8093BC008091BC0084FDFCCF1092A1
:10036000F90308954091AE03262F30E0240F311D8C
:1003700021323105DCF42091F9032430C9F4FC0169
:1003800080E090E0861758F43091AE032191DC01B3
:10039000A457BC4FA30FB11D2C930196F3CF8091AE
:1003A000AE03680F6093AE0380E0089581E0089586
:1003B00082E008950895E0915F0280915E02E8175F
:1003C00030F4F0E0E459FC4F808190E008958FEF25
:1003D0009FEF089590915F0280915E02981750F40C
:1003E000E92FF0E0E459FC4F208130E09F5F9093CB
:1003F0005F0202C02FEF3FEFC901089580915E02B6
:1004000090E020915F02821B91090895CF92DF92C4
:10041000EF92FF920F931F93CF93DF937C01262FD0
:10042000972F8A018091FA03882391F0C62FD72F46
:100430006E01C40ED51ECC15DD0571F06991D70192
:10044000ED91FC910190F081E02DC7010995F3CF6A
:10045000642F822F0E94B201C801DF91CF911F91BA
:100460000F91FF90EF90DF90CF900895CF93DF939F
:100470001F92CDB7DEB769832091FA032223D1F012
:1004800020911D04203240F021E030E0FC01338354
:10049000228380E090E015C08091FB03E82FF0E01C
:1004A000E450FC4F998190838F5F8093FB0380938E
:1004B0001D0405C061E0CE0101960E94B20181E0F9
:1004C00090E00F90DF91CF910895089580E090E043
:1004D000089580916F0290917002892B29F0E0912C
:1004E0006702F091680209959AB180910101892310
:1004F0008AB99BB18091010189238BB994B1809114
:100500000001892384B995B180910001892385B9BF
:1005100080914403909145034091C202892B09F0D8
:10052000E0C0809173029091740290934503809390
:1005300044032091710230917202E0914303F0E094
:10054000EE0FFF1FEA58FD4F808191818223932394
:10055000892B89F02091430330E080910201082E1D
:10056000000C990B0197841B910947FD9395821705
:1005700093070CF0B8C28091C202882309F49DC091
:1005800080E590E0909342038093410320914303E0
:1005900030E080910201082E000C990B019728177A
:1005A000390709F08AC0E09143032BB1F0E0E85528
:1005B000FD4F8081082E000C990B822B8BB9E091A6
:1005C00043032AB1F0E0EB54FD4F8081082E000C6C
:1005D000990B822B8AB9E091430325B1F0E0E257F1
:1005E000FD4F8081082E000C990B822B85B9E0917C
:1005F000430324B1F0E0E556FD4F8081082E000C46
:10060000990B822B84B980917502882311F023B154
:1006100001C029B18091C5029091C60282238093C6
:1006200040038091D5029091D602892B29F18091C7
:100630004003811105C010923F0310923E0339C060
:1006400010923D0310923C0380913E0390913F0332
:10065000019690933F0380933E0380913E039091D7
:100660003F03499750F11092D6021092D502109292
:100670003F0310923E0321C08091400310923F033C
:1006800010923E03811115C080913C0390913D036F
:10069000019690933D0380933C0380913C0390919D
:1006A0003D03499750F081E090E09093D60280930B
:1006B000D50210923D0310923C03809143038F5F5B
:1006C000809343032091430330E080910201082E80
:1006D000000C990B821793070CF0C1C010924303D2
:1006E000BEC0442309F4BBC080E590E09093420370
:1006F000809341032091C3023091C4028091020192
:10070000082E000C990B01972817390709F08EC0A5
:10071000E091C302F091C4022BB1E855FD4F8081F6
:10072000082E000C990B822B8BB9E091C302F0913B
:10073000C4022AB1EB54FD4F8081082E000C990BA6
:10074000822B8AB9E091C302F091C40225B1E2572D
:10075000FD4F8081082E000C990B822B85B9E0910A
:10076000C302F091C40224B1E556FD4F8081082EEA
:10077000000C990B822B84B980917502882311F0AB
:1007800023B101C029B18091C5029091C602822394
:10079000809340038091D5029091D602892B29F154
:1007A00080914003811105C010923F0310923E03D7
:1007B00039C010923D0310923C0380913E0390910A
:1007C0003F03019690933F0380933E0380913E0345
:1007D00090913F03499750F11092D6021092D502A2
:1007E00010923F0310923E0321C08091400310926B
:1007F0003F0310923E03811115C080913C039091FC
:100800003D03019690933D0380933C0380913C030C
:1008100090913D03499750F081E090E09093D6028B
:100820008093D50210923D0310923C038091C30245
:100830009091C40201969093C4028093C3022091C8
:10084000C3023091C40280910201082E000C990B62
:100850008217930720F41092C4021092C302809171
:10086000440390914503019790934503809344037B
:1008700080913A0390913B03019709F529B180914A
:100880003803909139038223809337039091360384
:100890008917A9F080933603809132039091330336
:1008A000A0913403B09135030196A11DB11D809331
:1008B000320390933303A0933403B09335038091B4
:1008C0003A0390913B03029709F523B180913803D5
:1008D00090913903822380933703909136038917CF
:1008E000A9F0809336038091320390913303A09155
:1008F0003403B09135030196A11DB11D80933203DD
:1009000090933303A0933403B09335038091300365
:1009100090913103019709F529B180912E039091AF
:100920002F03822380932D0390912C038917A9F024
:1009300080932C038091280390912903A0912A038E
:10094000B0912B030196A11DB11D809328039093B4
:100950002903A0932A03B0932B0380913003909135
:100960003103029709F523B180912E0390912F0353
:10097000822380932D0390912C038917A9F08093F3
:100980002C038091280390912903A0912A03B09110
:100990002B030196A11DB11D809328039093290379
:1009A000A0932A03B0932B038091260390912703F1
:1009B000019709F529B180912403909125038223A1
:1009C00080932303909122038917A9F08093220337
:1009D00080911E0390911F03A0912003B0912103E9
:1009E0000196A11DB11D80931E0390931F03A09338
:1009F0002003B0932103809126039091270302974F
:100A000009F523B1809124039091250382238093DB
:100A10002303909122038917A9F0809322038091E8
:100A20001E0390911F03A0912003B0912103019612
:100A3000A11DB11D80931E0390931F03A09320035B
:100A4000B093210380911C0390911D03019709F538
:100A500029B180911A0390911B038223809319037B
:100A6000909118038917A9F08093180380911403BB
:100A700090911503A0911603B09117030196A11D43
:100A8000B11D8093140390931503A0931603B093A4
:100A9000170380911C0390911D03029709F054C025
:100AA00023B180911A0390911B0382238093190331
:100AB00090911803891709F447C080931803809117
:100AC000140390911503A0911603B091170301969A
:100AD000A11DB11D8093140390931503A0931603D9
:100AE000B09317030895E09143032BB1F0E0E8556C
:100AF000FD4F8081082E000C990B822B8BB9E09161
:100B000043032AB1F0E0EB54FD4F8081082E000C26
:100B1000990B822B8AB9E091430325B1F0E0E257AB
:100B2000FD4F8081082E000C990B822B85B9E09136
:100B3000430324B1F0E0E556FD4F8081082E000C00
:100B4000990B822B84B917CD08950E94911B1F9297
:100B50000F920FB60F9211242F933F934F935F93F1
:100B60006F937F938F939F93AF93BF93EF93FF9375
:100B70008EE194E00E941401FF91EF91BF91AF913B
:100B80009F918F917F916F915F914F913F912F91A5
:100B90000F900FBE0F901F9018951F920F920FB6D7
:100BA0000F9211242F938F939F93EF93FF93E091D4
:100BB0002E04F0912F048081E0913404F0913504EB
:100BC00082FD12C09081809137048F5F8F732091D6
:100BD0003804821751F0E0913704F0E0E25EFB4FF9
:100BE000958F8093370401C08081FF91EF919F9191
:100BF0008F912F910F900FBE0F901F9018951F92FD
:100C00000F920FB60F9211242F933F934F935F9340
:100C10006F937F938F939F93AF93BF93EF93FF93C4
:100C20008091B900887F803609F49CC068F58832CD
:100C300009F45BC090F4803109F454C038F488237F
:100C400009F4F6C0883009F44DC0F6C0883109F4C3
:100C50004CC0803209F45DC0EFC0803409F468C034
:100C600048F4803309F455C0883309F0E5C0809317
:100C7000F703D8C0803509F44FC0883509F45DC04A
:100C8000883409F0D9C0D6C0883909F4C7C0A8F49F
:100C9000883709F467C038F4883609F463C08037B0
:100CA00009F460C0C9C0883809F4B8C0803909F4B3
:100CB0005FC0803809F0C0C05BC0803B09F486C0CB
:100CC00038F4803A09F466C0883A09F47FC0B4C0A9
:100CD000803C09F4A7C0883C09F4A4C0883B09F40F
:100CE0008AC0AAC08091D40310C09091F60380916D
:100CF000F503981770F5E091F60381E08E0F80936D
:100D0000F603F0E0EB52FC4F80818093BB0085EC52
:100D100086C08093F7038EC0E091F60381E08E0FCA
:100D20008093F6038091BB00F0E0EB52FC4F808390
:100D30009091F6038091F5036EC0E091F60381E097
:100D40008E0F8093F6038091BB00F0E0EB52FC4FD6
:100D500080838091F80381116DC081E08093D3037B
:100D600084EA61C083E08093F9031092D203CFCF6D
:100D70008091D203803208F051C0E091D20381E02B
:100D80008E0F8093D2038091BB00F0E0EE54FC4FB5
:100D90008083BDCF85EC8093BC001092F9038091D5
:100DA000D203803230F4E091D203F0E0EE54FC4FF5
:100DB00010826091D20370E0E091B003F091B10332
:100DC00082EB93E009951092D20336C084E08093C1
:100DD000F9031092AF031092AE03E091AC03F091CF
:100DE000AD0309958091AE03811105C081E0809328
:100DF000AE0310928C03E091AF0381E08E0F8093DD
:100E0000AF03F0E0E457FC4F80818093BB009091EA
:100E1000AF038091AE03981708F479CF85E88093EB
:100E2000BC000AC085EC8093BC001092F90304C09A
:100E30001092F7030E94A801FF91EF91BF91AF912B
:100E40009F918F917F916F915F914F913F912F91E2
:100E50000F900FBE0F901F901895FC0190819C3051
:100E600080F5818128E830E0281B310987FD339522
:100E7000220F331F220F331F621773077CF082810A
:100E800028E532E0281B310987FD3395220F331FF7
:100E9000220F331F621773070CF49B012250310994
:100EA000220F331F4FB7F894892F90E0FC01EE0F0B
:100EB000FF1F8E0F9F1FFC01E85BFC4F32832183D5
:100EC0004FBF0895CF92DF92EF92FF92CF93DF93BF
:100ED000EC01603282E078070CF03DC077FD06C07F
:100EE000653B71052CF064EB70E002C060E070E0DF
:100EF000898128E830E06901C81AD10887FDD394B8
:100F0000CC0CDD1CCC0CDD1C0D2C000CEE08FF08FD
:100F10008A8128E532E0281B310987FD3395220FAD
:100F2000331F220F331FC901330FAA0BBB0B9C01C8
:100F3000AD012C193D094E095F09DB010E946517BF
:100F400024EB30E040E050E00E943B17C20ED31E7D
:100F5000E41EF51EB601CE01DF91CF91FF90EF9018
:100F6000DF90CF900C942D071F93CF93DF93EC016C
:100F7000162F88818C3008F04EC061E0812F0E94CE
:100F80006A0C8881E82FF0E09F01220F331FE20FE7
:100F9000F31FE85BFC4F1F739081907C192B10832B
:100FA00019821A826CE00E946B1B9CE0899FB00141
:100FB000112440E050E09A01260F371FF901EE0F8F
:100FC000FF1F2E0F3F1FF901E85BFC4F908196FD3C
:100FD00016C04F5F5F4F4C30510569F781110FC04C
:100FE0001092800082E08093810010928500109220
:100FF0008400B19A80916F00826080936F00E881D5
:10100000F0E0CF01880F991FE80FF91FE85BFC4F54
:101010008081806480838881DF91CF911F910895C2
:10102000FC01909147039C30A0F481E0890F8093EC
:1010300047039083892F90E0FC01EE0FFF1F8E0F76
:101040009F1FFC01E85BFC4F88EB9BE09283818350
:1010500008958FEF808308951F920F920FB60F921D
:1010600011242F933F934F935F936F937F938F93AD
:101070009F93AF93BF93EF93FF938091460387FFB6
:1010800005C010928500109284001BC02091460379
:10109000022E000C330B8091470390E0281739078C
:1010A00084F480914603082E000C990BFC01EE0F8E
:1010B000FF1F8E0F9F1FFC01E85BFC4F808186FDA8
:1010C00015C0809146038F5F8093460320914603AD
:1010D000022E000C330B8091470390E0281739074C
:1010E000C4F4809146038C3064F113C080914603B0
:1010F000082E000C990BFC01EE0FFF1F8E0F9F1F97
:10110000FC01E85BFC4F808160E08F730E943A0C29
:10111000D8CF8091840090918500049680349C49BA
:1011200018F480E49CE905C08091840090918500CA
:10113000049690938900809388008FEF80934603F4
:101140003BC0209184003091850080914603082E99
:10115000000C990BFC01EE0FFF1F8E0F9F1FFC016F
:10116000E85BFC4F81819281820F931F90938900ED
:101170008093880080914603082E000C990BFC0197
:10118000EE0FFF1F8E0F9F1FFC01E85BFC4F80815D
:1011900086FF12C080914603082E000C990BFC01BB
:1011A000EE0FFF1F8E0F9F1FFC01E85BFC4F80813D
:1011B00061E08F730E943A0CFF91EF91BF91AF9164
:1011C0009F918F917F916F915F914F913F912F915F
:1011D0000F900FBE0F901F901895FC01838591E032
:1011E0009093FA0380931C041092FB0310921D0449
:1011F0008BEB94E00E94360281E00C94D70ACF92E8
:10120000DF92EF92FF92CF93DF93EC0160E40E94B4
:10121000ED088B859091F9039111FCCF91E09093AB
:10122000F9039093F8032FEF2093F7031092F6033E
:1012300023E02093F5039093D4039091D403880F77
:10124000892B8093D4038091D303813061F4109271
:10125000D3038091D4038093BB008091BC0083FDB5
:10126000F8CF85EC01C085EE8093BC008091F90336
:101270008130E1F38091F603843018F48091F60315
:1012800001C084E0A5EDB3E02CE633E0F9019E2F28
:10129000921B981718F49D919193F9CF10925F02C9
:1012A00080935E028BEB94E00E94EA01F82E8BEBB8
:1012B00094E00E94EA01C12CD12CDF2C8C299D29BD
:1012C0006C01990FEE08FF088BEB94E00E94EA0195
:1012D0008BEB94E00E94EA018881882341F0662725
:1012E0007727CB016C197D098E099F0902C0C701C0
:1012F000B601DF91CF91FF90EF90DF90CF900895EE
:101300001F920F920FB60F9211242F933F934F937A
:101310005F936F937F938F939F93AF93BF93EF935D
:10132000FF9380916502909166028093B200809154
:10133000610290916202A0916302B09164020196F1
:10134000A11DB11D8093610290936202A09363027C
:10135000B093640240916102509162026091630215
:101360007091640280916B0290916C02A0916D0269
:10137000B0916E02481759076A077B07B0F0809159
:101380006002811112C081E08093600210926102BC
:10139000109262021092630210926402E09169025C
:1013A000F0916A02099510926002FF91EF91BF914E
:1013B000AF919F918F917F916F915F914F913F91ED
:1013C0002F910F900FBE0F901F901895CF93DF9322
:1013D000CDB7DEB7E0970FB6F894DEBF0FBECDBF36
:1013E00098E1E2E3F1E0DE01599601900D929A95C1
:1013F000E1F798E1EAE4F1E0DE01119601900D9247
:101400009A95E1F781508C30E0F490E020917102E0
:1014100030917202880F991FE1E0F0E0EC0FFD1FA0
:10142000E80FF91F662329F0808D918D822B932B75
:1014300004C08081918182239323909372028093D0
:101440007102E0960FB6F894DEBF0FBECDBFDF91FC
:10145000CF9108950C942D170C94251780E10E94CC
:10146000A60C9093D4028093D3028FE00E94A60C26
:101470009093CE028093CD028EE00E94A60C9093B2
:10148000CA028093C9028091D1029091D202209128
:10149000CF023091D002821B930B2091D302309166
:1014A000D4022817390710F461E001C060E08CE035
:1014B0000E94E6098091CB029091CC022091CF024C
:1014C0003091D002821B930B2091CD023091CE023D
:1014D0002817390710F461E001C060E089E00E943C
:1014E000E6098091C7029091C8022091CF02309105
:1014F000D002821B930B2091C9023091CA02281797
:10150000390710F461E001C060E086E00E94E6095E
:101510008BE492E00E94DD0B6091D3027091D402C3
:1015200080E090E04AE00E948A0B8CE092E00E940A
:10153000DD0B6091CD027091CE0280E090E04AE038
:101540000E948A0B8BEE91E00E94DD0B8091C90214
:101550009091CA020C94CB0BCF92DF92EF92FF9244
:101560000F931F93CF93DF936C017A018B01C0E03F
:10157000D0E0CE15DF0589F0D8016D918D01D6013F
:10158000ED91FC910190F081E02DC6010995892B28
:1015900011F47E0102C02196ECCFC701DF91CF91FB
:1015A0001F910F91FF90EF90DF90CF900895382F0B
:1015B00020911D0490911C04213208F049C08091B3
:1015C000F9038111FCCF42E04093F9033093F80313
:1015D0003FEF3093F7031092F6032093F503ACEF3F
:1015E000B3E045ED53E0FA013E2F341B321718F4F7
:1015F0003D913193F9CF1092D4032091D403990FE8
:10160000922B9093D4039091D303913061F4109274
:10161000D3039091D4039093BB009091BC0093FDB1
:10162000F8CF95EC01C095EE9093BC009091F90332
:101630009230E1F39091F7039F3F79F08091F703A7
:10164000803241F08091F703803331F084E005C0AF
:1016500081E003C082E001C083E01092FB0310929E
:101660001D041092FA030895CF93DF93EC0180914B
:10167000F6049091F704009719F06BE40E94ED08CE
:10168000D093F704C093F6048CE599EEAEE5BCE385
:1016900089839A83AB83BC8385E59AE2AFE0B6E3A6
:1016A0008D839E83AF83B88788E090E09A8789878F
:1016B00081E08093FA0380E380931C041092FB0383
:1016C00010921D046DE48BEB94E00E9436026B8552
:1016D0007C85660F771F8BEB94E00E94360281E0D9
:1016E0000E94D70A6AE4CE01DF91CF910C94ED08F5
:1016F000009769F0FC0101900020E9F73197AF01F4
:10170000481B590BBC018EE194E00C94AC0A80E0BC
:1017100090E008958F929F92AF92BF920F931F9384
:10172000CF93DF93CDB7DEB7A1970FB6F894DEBFA6
:101730000FBECDBF19A2423008F44AE08E010F5D02
:101740001F4F842E912CA12CB12CA50194010E9435
:101750006D17E62FB901CA0101501109EA3014F4DE
:10176000E05D01C0E95CD801EC93232B242B252BF1
:1017700061F7C8010E94780BA1960FB6F894DEBFFE
:101780000FBECDBFDF91CF911F910F91BF90AF9052
:101790009F908F900895CF93DF93BC0180E090E0FD
:1017A0004AE00E948A0BEC018EEA91E00E94780BDD
:1017B0008C0F9D1FDF91CF9108950C94780BCF92E1
:1017C000DF92EF92FF92CF93DF9397FF21C06B01DF
:1017D0007C01E0911E04F0911F040190F081E02D46
:1017E0006DE28EE194E00995EC0166277727CB0145
:1017F0006C197D098E099F094AE00E948A0B8C0FA3
:101800009D1FDF91CF91FF90EF90DF90CF900895D3
:101810004AE0DF91CF91FF90EF90DF90CF900C9452
:101820008A0B833081F028F4813099F08230A1F066
:1018300008958730A9F08830B9F08430D1F48091D0
:1018400080008F7D03C0809180008F77809380001F
:10185000089584B58F7702C084B58F7D84BD0895C7
:101860008091B0008F7703C08091B0008F7D80930E
:10187000B00008951F93CF93DF93282F30E0F90134
:10188000E05DFE4F8491F901E45EFE4FD491F901D1
:10189000E85FFE4FC491CC23C9F0162F81110E943E
:1018A000110CEC2FF0E0EE0FFF1FE250FF4FA5915F
:1018B000B4918FB7F894111105C09C91ED2FE0956C
:1018C000E92302C0EC91ED2BEC938FBFDF91CF9118
:1018D0001F910895CF93DF9390E0FC01E45EFE4FEB
:1018E0002491FC01E85FFE4F8491882361F190E030
:1018F000880F991FFC01EC50FF4FC591D491FC015A
:10190000E250FF4FA591B491611109C09FB7F894BF
:101910008881209582238883EC912E230BC062302E
:1019200061F49FB7F8943881822F80958323888350
:10193000EC912E2B2C939FBF06C08FB7F894E881B3
:101940002E2B28838FBFDF91CF9108958E3008F022
:101950008E508770806480937C0080917A008064D0
:1019600080937A0080917A0086FDFCCF8091780088
:101970002091790090E0922B08952FB7F894609110
:10198000F2047091F3048091F4049091F5042FBF58
:1019900008951F920F920FB60F9211242F933F9329
:1019A0008F939F93AF93BF938091F2049091F30430
:1019B000A091F404B091F5043091F10423E0230FD9
:1019C0002D3720F40196A11DB11D05C026E8230F77
:1019D0000296A11DB11D2093F1048093F20490930F
:1019E000F304A093F404B093F5048091ED04909176
:1019F000EE04A091EF04B091F0040196A11DB11D79
:101A00008093ED049093EE04A093EF04B093F00460
:101A1000BF91AF919F918F913F912F910F900FBEEA
:101A20000F901F901895CF92DF92EF92FF920F9335
:101A30001F93E82FF92F05C0015011092109310921
:101A400061F1908196239417B9F305C001501109F3
:101A50002109310911F1908196239413F7CFC12CFC
:101A6000D12CE12CF12C0AC08FEFC81AD80AE80A51
:101A7000F80A0C151D052E053F0579F08081862397
:101A8000841791F36C2D7D2D8E2D9F2D1F910F911D
:101A9000FF90EF90DF90CF90089560E070E080E0DD
:101AA00090E01F910F91FF90EF90DF90CF900895FD
:101AB000789484B5826084BD84B5816084BD85B529
:101AC000826085BD85B5816085BD80916E00816035
:101AD00080936E00109281008091810082608093DB
:101AE00081008091810081608093810080918000DD
:101AF0008160809380008091B10084608093B10008
:101B00008091B00081608093B00080917A00846001
:101B100080937A0080917A00826080937A0080912D
:101B20007A00816080937A0080917A008068809347
:101B30007A001092C10010925F0210925E02109221
:101B4000FB0310921D041092F903C1E0C093F80347
:101B50001092D30361E082E10E943A0C61E083E1DC
:101B60000E943A0C8091B9008E7F8093B9008091D9
:101B7000B9008D7F8093B90088E48093B80085E434
:101B80008093BC00E0912E04F0912F0482E08083CA
:101B9000E0912A04F0912B041082E0912C04F09142
:101BA0002D048FEC808310923604E0913204F09182
:101BB000330486E08083E0913004F0913104808129
:101BC00080618083E0913004F091310480818860ED
:101BD0008083E0913004F0913104808180688083BB
:101BE000E0913004F091310480818F7D808387E023
:101BF00090E09093C6028093C5021092C4021092A6
:101C0000C302C093C2028DE0809302018FEF8093E4
:101C100000011092A70210929A0281E090E0909346
:101C200077028093760282E090E09093790280932D
:101C3000780284E090E090937B0280937A0288E0BF
:101C400090E090937D0280937C0280E190E09093FD
:101C50007F0280937E0280E290E0909381028093E5
:101C6000800280E490E0909383028093820280E877
:101C700090E0909385028093840280E091E09093BD
:101C800087028093860280E092E09093890280939D
:101C9000880280E094E090938B0280938A0280E037
:101CA00098E090938D0280938C028FE080930101E5
:101CB00080EF8093C1028093B40210929B02109235
:101CC0008E021092A5021092980220E22093A802A0
:101CD00080EA8093B5028093BF0280E88093B202CD
:101CE00010929C0210928F0210929D02109290020C
:101CF0002093AA0290E69093B6029093B70290E4E4
:101D00009093A9025091B802109291024091B902A9
:101D10001092920230E13093AC0250695093B802B5
:101D200040694093B9028093AB021092A0021092D6
:101D300093021092A102109294023093AE0240E5F9
:101D40004093BA024093BB029093AD021092A2025C
:101D5000109295021092A302109296023093B00254
:101D600030E33093BC023093BD022093AF02109257
:101D7000A402109297021092A602109299029093D8
:101D8000B30290EC9093BE029093C0028093B10294
:101D90008091C5029091C602089720F510927502B5
:101DA0006091C5027091C60280E090E00E94CD175C
:101DB0009B01AC0160E070E080E090E40E94331889
:101DC0000E9483180E949E177093C6026093C502FA
:101DD0008091C5029091C60220EF82279095809352
:101DE000C10222C0C09375026091C5027091C60203
:101DF0006850710980E090E00E94CD179B01AC0112
:101E000060E070E080E090E40E9433180E94831844
:101E10000E949E177093C6026093C5028091C5020E
:101E20009091C6028093A7028091D7029091D80228
:101E3000892B09F081C081E090E09093D8028093D3
:101E4000D70226E030E030937402209373021092A0
:101E50007202109271021092700210926F02409101
:101E60006B0250916C0260916D0270916E02452B75
:101E7000462B472B89F09093700280936F028091DC
:101E8000690290916A029093680280936702809140
:101E900070008E7F80937000809170008E7F8093A1
:101EA00070008091B0008C7F8093B0008091B10071
:101EB000877F8093B1008091B6008F7D8093B600BC
:101EC000809170008D7F809370008091B10084605C
:101ED0008093B1008091B1008C7F8093B1008AEF34
:101EE00090E0909366028093650282E090E0A0E02B
:101EF000B0E080936B0290936C02A0936D02B0935C
:101F00006E0289E692E090936A02809369021092D1
:101F100061021092620210926302109264021092A7
:101F2000600280916502909166028093B200809178
:101F3000700081608093700061E082E00E946A0C12
:101F400060E083E00E946A0C61E088E00E946A0C15
:101F500068E070E08AEE94E00E94B40761E089E0F6
:101F60000E946A0C69E070E087EE94E00E94B4077A
:101F700061E08AE00E946A0C6AE070E084EE94E01E
:101F80000E94B40761E08BE00E946A0C6BE070E095
:101F900081EE94E00E94B40760E08CE00E946A0C3D
:101FA00087EC94E00E94340B1092C70484ED94E017
:101FB0000E94340B81E08093D40460E08EE00E94A4
:101FC0006A0C60E08FE00E946A0C60E080E10E9491
:101FD0006A0C82E390E09093D0028093CF0280E07D
:101FE00090E00E942C0AC82F8093DA0281E090E0F2
:101FF0000E942C0A8093D9022C2F30E0A901582B83
:102000005093D2024093D10282E090E00E942C0AC9
:10201000C82F8093DA0281E090E00E942C0A80931E
:10202000D9022C2F30E0F901F82BF093F002E09365
:10203000EF0284E090E00E942C0AC82F8093DA021D
:1020400081E090E00E942C0A8093D9022C2F30E08E
:10205000A901582B5093CC024093CB0286E090E02C
:102060000E942C0AC82F8093DA0281E090E00E943F
:102070002C0A8093D9022C2F30E0F901F82BF09331
:10208000EE02E093ED0288E090E00E942C0AC82F57
:102090008093DA0281E090E00E942C0A8093D902BA
:1020A0002C2F30E0A901582B5093C8024093C7024F
:1020B0008AE090E00E942C0AC82F8093DA0281E027
:1020C00090E00E942C0A8093D9022C2F30E0F90175
:1020D000F82BF093EC02E093EB028CE090E00E948E
:1020E0002C0AC82F8093DA028DE090E00E942C0A1F
:1020F000282F8093D9028C2F90E0922BA0E0B0E0A3
:102100008093F9029093FA02A093FB02B093FC0231
:102110008EE090E00E942C0AC82F8093DA028FE0B4
:1021200090E00E942C0A282F8093D9028C2F90E0F7
:10213000922BA0E0B0E08093F3029093F402A0937E
:10214000F502B093F602C2E02C2E312CD4E04D2ED5
:10215000512C612C712C13E2812E912C0E94BD0C0C
:1021600000910E0310910F03209110033091110381
:10217000DC01CB01801B910BA20BB30B893B9B4075
:10218000A105B10518F081E080930D038091D5027F
:102190009091D602892B29F180910C03811123C0E3
:1021A00081E080930C0380910A0390910B030196C8
:1021B0008770992790930B0380930A030E94BD0CAC
:1021C00060930E0370930F03809310039093110399
:1021D00010920D0310920903109208031092070346
:1021E00002C010920C03ECE3F1E08491E8E2F1E02C
:1021F000C491E4E1F1E0D491DD2379F081110E94F2
:10220000110CED2FF0E0EE0FFF1FE651FF4FA591EF
:10221000B4918C91C82381E009F480E081708093AF
:10222000040180910A0390910B038230910509F417
:102230002FC230F4009761F0019709F4AAC025C5B8
:102240008330910509F41AC3049709F40BC41DC522
:102250000E942E0A61E082E00E943A0CC4010197BC
:10226000F1F760E082E00E943A0CEFE1F1E0649166
:10227000EBE0F1E08491E82FF0E0EE0FFF1FE65174
:10228000FF4F8591949100E117E220E030E0462F66
:102290000E94130D611571058105910539F0DC016E
:1022A000CB010196A11DB11DBF7003C080E090E07D
:1022B000DC018093DB029093DC02A093DD02B093FB
:1022C000DE0286E891E00E94DD0B6091DB027091F6
:1022D000DC028091DD029091DE024AE00E948A0BCE
:1022E0008CE991E00E94DD0B6091DB027091DC02D1
:1022F0008091DD029091DE0224E930E040E050E080
:102300000E946D17CA01B9014AE00E948A0B87EA50
:1023100091E00E94DD0B6091DB027091DC02809104
:10232000DD029091DE022AE330E040E050E00E94BE
:102330006D17CA01B9014AE00E948A0B8EEA91E04A
:102340000E94780B6CED75E087EE94E00E942D07FB
:102350006CED75E08AEE94E00E942D0767E370E073
:1023600084EE94E00E9462076AE570E081EE94E0FA
:102370000E9462076AE487EC94E00E94ED086AE438
:1023800084ED94E00E94ED0810920603109205037C
:102390007CC480910D03882309F477C40E942E0A1F
:1023A00087EC94E00E94FF0860930103709302039E
:1023B000809303039093040384ED94E00E94FF084C
:1023C0006093FD027093FE028093FF0290930003DE
:1023D00081EB91E00E94DD0B60910103709102039B
:1023E00080910303909104030E94DF0B8EEB91E038
:1023F0000E94DD0B6091FD027091FE028091FF0250
:10240000909100030E94DF0B8EEA91E00E94780B0E
:102410008091F9029091FA02A091FB02B091FC0226
:102420008459984FAF4FBF4F8034F6E09F07A10506
:10243000B10560F0853328E09207A105B10520F0D1
:1024400084E398E0A0E0B0E0EC0102C0C0E4D6E094
:10245000D093F802C093F7020091F3021091F402B6
:102460002091F5023091F6020459184F2F4F3F4F3B
:10247000003446E014072105310558F0053358E0D3
:1024800015072105310538F004E318E020E030E0BD
:1024900002C000E416E01093F2020093F102A09053
:1024A000D302B090D402E090CF02F090D002C0905E
:1024B000D102D090D202CE18DF08AC14BD0438F59A
:1024C0008091CB029091CC028E199F092091CD0270
:1024D0003091CE028217930708F03CC48091C70266
:1024E0009091C8028E199F092091C9023091CA02A9
:1024F0002817390708F02EC4BE0187EE94E00E9429
:102500002D07B8018AEE94E00E942D0723C4CA1457
:10251000DB0438F58091CB029091CC028E199F0993
:102520002091CD023091CE0228173907D0F4809146
:10253000C7029091C8028E199F092091C90230915B
:10254000CA022817390708F00AC4BE0176956795B4
:1025500087EE94E00E942D07B8018AEE94E00E9475
:102560002D07AC14BD0408F04CC08091CB029091B3
:10257000CC028E199F092091CD023091CE022817EE
:102580003907C8F48091C7029091C8028E199F093B
:102590002091C9023091CA028217930760F4BE01EC
:1025A00087EE94E00E942D07B801769567958AEE34
:1025B00094E00E942D078091CB029091CC028E195D
:1025C0009F092091CD023091CE0228173907C8F417
:1025D0008091C7029091C8028E199F092091C9026B
:1025E0003091CA022817390760F46CED75E087EE68
:1025F00094E00E942D076CED75E08AEE94E00E9455
:102600002D0780910401882339F0BE0187EE94E004
:102610000E942D07B80108C06CED75E087EE94E0CC
:102620000E942D076CED75E08AEE94E00E942D0764
:1026300084EC91E00E94DD0B6091040170E080E089
:1026400090E00E94DF0B85ED91E00E94DD0B4AE0F7
:102650006CE677E080E090E00E948A0B81EE91E0EA
:102660000E94DD0B6091F7027091F80280E090E02B
:102670004AE00E948A0B8BEE91E00E94DD0B809174
:10268000F1029091F2020E94CB0B81E090E0F9C23E
:1026900080910D03882309F4F8C280910903811108
:1026A0001EC081E0809309031092F0021092EF02A5
:1026B0001092EE021092ED021092EC021092EB02D8
:1026C0000E94BD0C6093E7027093E8028093E902D8
:1026D0009093EA021092E6021092E50255C00E9421
:1026E000BD0C0091E7021091E8022091E9023091BF
:1026F000EA02DC01CB01801B910BA20BB30B8536E8
:102700009105A105B10508F43FC00E94BD0C60937E
:10271000E7027093E8028093E9029093EA020E9434
:102720002E0A2091EF023091F0028091D302909115
:10273000D402820F931F9093F0028093EF022091B6
:10274000ED023091EE028091CD029091CE02820F87
:10275000931F9093EE028093ED022091EB02309153
:10276000EC028091C9029091CA02820F931F90934C
:10277000EC028093EB028091E5029091E6020196D3
:102780009093E6028093E5022091E5023091E60203
:102790002431310509F06DC08091EF029091F00273
:1027A000B9010E94771B7093F0026093EF02809151
:1027B000ED029091EE02B9010E94771B7093EE0238
:1027C0006093ED028091EB029091EC02B9010E94BE
:1027D000771B7093EC026093EB0286EF91E00E940E
:1027E000DD0B6091EF027091F00280E090E04AE032
:1027F0000E948A0B8CE092E00E94DD0B6091ED025A
:102800007091EE0280E090E04AE00E948A0B8BEE2D
:1028100091E00E94DD0B8091EB029091EC020E940E
:10282000CB0B6091EF0282E090E00E942A0A609157
:10283000F00283E090E00E942A0A6091ED0286E0B7
:1028400090E00E942A0A6091EE0287E090E00E94E8
:102850002A0A6091EB028AE090E00E942A0A6091C5
:10286000EC028BE090E00E942A0A10920B03109277
:102870000A03309206032092050307C280910D03DC
:10288000882309F402C28091090381111EC081E0EE
:10289000809309031092D2021092D1021092CC02BE
:1028A0001092CB021092C8021092C7020E94BD0C77
:1028B0006093E7027093E8028093E9029093EA0242
:1028C0001092E6021092E50255C00E94BD0C0091E4
:1028D000E7021091E8022091E9023091EA02DC015E
:1028E000CB01801B910BA20BB30B85369105A10583
:1028F000B10508F43FC00E94BD0C6093E7027093DD
:10290000E8028093E9029093EA020E942E0A209145
:10291000D1023091D2028091D3029091D402820FE1
:10292000931F9093D2028093D1022091CB023091D9
:10293000CC028091CD029091CE02820F931F909392
:10294000CC028093CB022091C7023091C8028091C3
:10295000C9029091CA02820F931F9093C80280937C
:10296000C7028091E5029091E60201969093E602FB
:102970008093E5022091E5023091E6022431310591
:1029800009F06DC08091D1029091D202B9010E94EC
:10299000771B7093D2026093D1028091CB02909109
:1029A000CC02B9010E94771B7093CC026093CB02DA
:1029B0008091C7029091C802B9010E94771B709361
:1029C000C8026093C70288E192E00E94DD0B60912B
:1029D000D1027091D20280E090E04AE00E948A0B1E
:1029E0008CE092E00E94DD0B6091CB027091CC02F2
:1029F00080E090E04AE00E948A0B8BEE91E00E941A
:102A0000DD0B8091C7029091C8020E94CB0B6091B0
:102A1000D10280E090E00E942A0A6091D20281E017
:102A200090E00E942A0A6091CB0284E090E00E942C
:102A30002A0A6091CC0285E090E00E942A0A609107
:102A4000C70288E090E00E942A0A6091C80289E0EB
:102A500090E00E942A0A10920B0310920A0383E06E
:102A600090E00FC180910D03882309F40EC180917D
:102A70000903811124C081E0809309036AE487EC93
:102A800094E00E94ED086AE484ED94E00E94ED0871
:102A90000E94BD0C6093E7027093E8028093E90204
:102AA0009093EA026CE677E087EE94E00E942D07AF
:102AB0006CE677E08AEE94E00E942D07C8C00E9481
:102AC000BD0C0091E7021091E8022091E9023091DB
:102AD000EA02DC01CB01801B910BA20BB30B8938FE
:102AE0009341A105B10508F4B2C06CED75E087EE25
:102AF00094E00E942D076CED75E08AEE94E00E9450
:102B00002D0787EC94E00E94FF086B017C01609325
:102B1000010370930203809303039093040384EDF5
:102B200094E00E94FF086093FD027093FE02809380
:102B3000FF02909300036C157D058E059F05ECF454
:102B40001092F3021092F4021092F5021092F60223
:102B5000A7019601261B370B480B590BCA01B90177
:102B6000A30192010E943B172093F9023093FA02CD
:102B70004093FB025093FC0218C06C197D098E092A
:102B80009F09A30192010E943B172093F302309307
:102B9000F4024093F5025093F6021092F90210925B
:102BA000FA021092FB021092FC028DE292E00E9467
:102BB000DD0B6091F9027091FA028091FB02909115
:102BC000FC024AE00E948A0B8BEE91E00E94DD0B32
:102BD0006091F3027091F4028091F5029091F602F7
:102BE0004AE00E948A0B8EEA91E00E94780B609185
:102BF000F3028EE090E00E942A0A8091F302909105
:102C0000F402A091F502B091F602692F7A2F8B2F72
:102C100099278FE090E00E942A0A6091F9028CE0E7
:102C200090E00E942A0A8091F9029091FA02A09104
:102C3000FB02B091FC02692F7A2F8B2F99278DE030
:102C400090E00E942A0A10920B0310920A0381EB73
:102C500091E00E94DD0B87EC94E00E94FF080E9447
:102C6000DF0B8EEB91E00E94DD0B84ED94E00E947F
:102C7000FF080E94DF0B8EEA91E00E94780B84E04F
:102C800090E090930603809305030E94BD0C009191
:102C9000E1021091E2022091E3023091E402DC01B2
:102CA000CB01801B910BA20BB30B853F9140A1057B
:102CB000B10508F44CC00E94BD0C6093E102709312
:102CC000E2028093E3029093E40284E492E00E94A3
:102CD000DD0BE0910503F0910603EE0FFF1FEA5DA7
:102CE000FE4F808191810E94CB0BC091030181E056
:102CF000C827C09303016C2F0E94E6096C2F8DE05A
:102D00000E943A0CC091DF02D091E002DE01AA0FCE
:102D1000BB1FAA5FBE4FE0910503F0910603EE0FC3
:102D2000FF1FEA5DFE4F8D919C91208131818223AE
:102D3000932361E0892B09F060E084E00E94E609BA
:102D40002196CF70DD27D093E002C093DF020E946E
:102D50009E0104CACA14DB0408F4DCCB06CCAC1414
:102D6000BD0408F40FCC4DCCEEE1F4E013821282E6
:102D700088EE93E0A0E0B0E084839583A683B783D8
:102D800026E631E03183208325EC30E03587248747
:102D900024EC30E03787268720EC30E0318B208B25
:102DA00021EC30E0338B228B22EC30E0358B248B0E
:102DB00026EC30E0378B268B118E128E138E148EFC
:102DC000EBEBF4E01382128284839583A683B783AE
:102DD00088E791E0918380838AEE94E00E94100856
:102DE00087EE94E00E94100884EE94E00E941008A0
:102DF00081EE94E00E94100880910501E4EDF4E07A
:102E0000282F30E0348723871082118212821382A8
:102E10001482158216821782108612861186E7ECBC
:102E2000F4E021E0280F30E0348723878E5F809321
:102E30000501108211821282138214821582168279
:102E400017821086128611860895F999FECF92BDD9
:102E500081BDF89A992780B50895262FF999FECF5C
:102E60001FBA92BD81BD20BD0FB6F894FA9AF99AA7
:102E70000FBE01960895052E97FB1EF400940E9444
:102E8000521757FD07D00E946D1707FC03D04EF470
:102E90000C94521750954095309521953F4F4F4FC8
:102EA0005F4F089590958095709561957F4F8F4FF6
:102EB0009F4F08950E948F17A59F900DB49F900D6E
:102EC000A49F800D911D11240895B7FF0C945A17EB
:102ED0000E945A17821B930B0895A1E21A2EAA1B77
:102EE000BB1BFD010DC0AA1FBB1FEE1FFF1FA217BA
:102EF000B307E407F50720F0A21BB30BE40BF50BB7
:102F0000661F771F881F991F1A9469F7609570953F
:102F1000809590959B01AC01BD01CF010895A29FC2
:102F2000B001B39FC001A39F700D811D1124911D9D
:102F3000B29F700D811D1124911D08950E941218D9
:102F400088F09F5798F0B92F9927B751B0F0E1F06A
:102F5000660F771F881F991F1AF0BA95C9F714C01A
:102F6000B13091F00E942C18B1E008950C942C1807
:102F7000672F782F8827B85F39F0B93FCCF3869553
:102F800077956795B395D9F73EF4909580957095B0
:102F900061957F4F8F4F9F4F0895E89409C097FB2D
:102FA0003EF490958095709561957F4F8F4F9F4F20
:102FB0009923A9F0F92F96E9BB279395F695879564
:102FC00077956795B795F111F8CFFAF4BB0F11F427
:102FD00060FF1BC06F5F7F4F8F4F9F4F16C08823CE
:102FE00011F096E911C0772321F09EE8872F762F04
:102FF00005C0662371F096E8862F70E060E02AF045
:103000009A95660F771F881FDAF7880F9695879530
:1030100097F9089557FD9058440F551F59F05F3F99
:1030200071F04795880F97FB991F61F09F3F79F0EA
:1030300087950895121613061406551FF2CF46956C
:10304000F1DF08C0161617061806991FF1CF8695EE
:103050007105610508940895E894BB2766277727D2
:10306000CB0197F90895FA01EE0FFF1F3096210565
:103070003105A1F16115710561F48038BFE39B074B
:1030800049F168949038810561F08038BFEF9B0763
:1030900041F099234AF5FF3FE1053105210519F17A
:1030A000E8940894E795D901AA2329F4AB2FBE2F01
:1030B000F85FD0F310C0FF5F70F4A695E0F7F73922
:1030C00050F019F0FF3A38F49F779F930DD00F908E
:1030D00007FC9058089546F00C94101960E070E0D9
:1030E00080E89FE308954FE79F775F934F933F9367
:1030F0002F930E9484192F913F914F915F910E94CD
:10310000001A0C94AF180E941218E8F09E37E8F0ED
:103110009639B8F49E3848F4672F782F8827985F3F
:10312000F9CF86957795679593959539D0F3B62F16
:10313000B1706B0F711D811D20F487957795679590
:1031400093950C94E7180C9402190C942D1829F4FB
:1031500016F00C94E1180C942C180C9410190E9481
:103160001218A8F39638A0F707F80F92E8942BE30B
:103170003AEA48EB5FE70E94161A0F920F920F92FD
:103180004DB75EB70F920E94CC19E8E6F0E00E94BE
:1031900013194F915F91EF91FF91E595EE1FFF1F7E
:1031A00049F0FE57E0684427EE0F441FFA95E1F717
:1031B0004195550B0E9446190F9007FE0C943A1941
:1031C000089597F99F6780E870E060E0089588238C
:1031D00071F4772321F09850872B762F07C0662350
:1031E00011F499270DC09051862B70E060E02AF011
:1031F0009A95660F771F881FDAF7880F969587953F
:1032000097F908959F3F31F0915020F48795779575
:103210006795B795880F911D9695879597F90895AD
:103220009FEF80EC0895DF93CF931F930F93FF924E
:10323000EF92DF927B018C01689406C0DA2EEF01D9
:103240000E94131AFE01E894A591259135914591AC
:103250005591A6F3EF010E94851AFE019701A8017E
:10326000DA9469F7DF90EF90FF900F911F91CF9163
:10327000DF9108959B01AC0160E070E080E89FE37E
:103280000C94DA1A0C94E1180C9402190E9412188A
:10329000D8F39923C9F3940F511DA3F391505040D3
:1032A00094F059F0882332F0660F771F881F9150F1
:1032B0005040C1F79E3F51052CF7880F911D969500
:1032C000879597F908955F3FACF0983E9CF0BB2737
:1032D000869577956795B79508F4B1609395C1F792
:1032E000BB0F58F711F460FFE8CF6F5F7F4F8F4F30
:1032F0009F4FE3CF0C942D1816F00C9402190C94E8
:10330000101968940C94E1180E941218A8F39923DC
:10331000C1F3AEF3DF93CF931F930F93FF92C92FA7
:10332000DD2788232AF02197660F771F881FDAF799
:1033300020E030E040E85FEB9FE3883920F0803EFA
:1033400038F021968F770E946E1AE0E9F0E004C011
:103350000E946E1AEDEBF0E00E9413198B01BE0182
:10336000EC01FB2E6F5771097595771F880B990B30
:103370000E94CF1728E132E741E35FE30E94131A6E
:10338000AF2D9801AE01FF900F911F91CF91DF916A
:103390000E94851A0C945A1BFA01DC01AA0FBB1F6C
:1033A0009B01AC01BF5728F42227332744275078CC
:1033B00020C0B75190F4AB2F002446953795279540
:1033C000011CA395D2F3002071F0220F331F441F7C
:1033D000B395DAF30ED00C946D1A61307105A0E844
:1033E0008A07B94630F49B01AC0166277727882706
:1033F0009078309621F0208331834283538308955F
:103400000E94131A0C945A1B0E944C1B38F00E9405
:10341000531B20F0952311F00C94E1180C94101913
:1034200011240C942D180E940A1870F3959FC1F373
:10343000950F50E0551F629FF001729FBB27F00D62
:10344000B11D639FAA27F00DB11DAA1F649F6627B7
:10345000B00DA11D661F829F2227B00DA11D621F06
:10346000739FB00DA11D621F839FA00D611D221FC0
:10347000749F3327A00D611D231F849F600D211DA4
:10348000822F762F6A2F11249F5750409AF0F1F027
:1034900088234AF0EE0FFF1FBB1F661F771F881F90
:1034A00091505040A9F79E3F510580F00C94E118CF
:1034B0000C942D185F3FE4F3983ED4F386957795EE
:1034C0006795B795F795E7959F5FC1F7FE2B880F36
:1034D000911D9695879597F908955058BB27AA276F
:1034E0000E94851A0C945A1B0E944C1B38F00E94B3
:1034F000531B20F039F49F3F19F426F40C94101953
:103500000EF4E095E7FB0C94E118E92F0E940A18ED
:1035100058F3BA17620773078407950720F079F408
:10352000A6F50C942C180EF4E0950B2EBA2FA02DB6
:103530000B01B90190010C01CA01A0011124FF2760
:10354000591B99F0593F50F4503E68F11A16F0405B
:10355000A22F232F342F4427585FF3CF469537955A
:103560002795A795F0405395C9F77EF41F16BA0B1F
:10357000620B730B840BBAF09150A1F0FF0FBB1FCD
:10358000661F771F881FC2F70EC0BA0F621F731F16
:10359000841F48F4879577956795B795F7959E3F73
:1035A00008F0B0CF9395880F08F09927EE0F979504
:1035B000879508950E94EE1A0C945A1B0E94531B83
:1035C00058F00E944C1B40F029F45F3F29F00C9406
:1035D000E11851110C942D180C9410190E940A181E
:1035E00068F39923B1F3552391F3951B550BBB2732
:1035F000AA2762177307840738F09F5F5F4F220F77
:10360000331F441FAA1FA9F335D00E2E3AF0E0E86D
:1036100032D091505040E695001CCAF72BD0FE2FB7
:1036200029D0660F771F881FBB1F2617370748074B
:10363000AB07B0E809F0BB0B802DBF01FF27935803
:103640005F4F3AF09E3F510578F00C94E1180C94CE
:103650002D185F3FE4F3983ED4F3869577956795F0
:10366000B795F7959F5FC9F7880F911D9695879538
:1036700097F90895E1E0660F771F881FBB1F621757
:1036800073078407BA0720F0621B730B840BBA0B15
:10369000EE1F88F7E095089500240A941616170681
:1036A00018060906089500240A9412161306140633
:1036B00005060895092E0394000C11F4882352F096
:1036C000BB0F40F4BF2B11F460FF04C06F5F7F4F4E
:1036D0008F4F9F4F0895991B79E004C0991F96174B
:1036E00008F0961B881F7A95C9F780950895AA1B44
:1036F000BB1B51E107C0AA1FBB1FA617B70710F0DD
:10370000A61BB70B881F991F5A95A9F7809590950E
:10371000BC01CD010895EE0FFF1F0590F491E02D3F
:10372000099481E090E0F8940C94961BF894FFCFF4
:10373000FFFF0D010110010002000400080010004D
:10374000200040008000000100020004000800107A
:103750000020004000000000FF000F0F3333AAAA32
:10376000FFFF0100020004000800100020004000DC
:1037700080000001000200040008FEFFFDFFFBFFC7
:10378000F7FFEFFFDFFFBFFF7FFFFFFEFFFDFFFB48
:10379000FFF7000000003501AC0ACD007C01FE00FF
:1037A000DC00F00000000000360206026602DA01CA
:1037B000FE01EA01DB0154696D6520286D696372C1
:1037C0006F7365636F6E6473293A20002C20496E15
:1037D000636865733A20002C20636D3A20000D0A5F
:1037E00000456E636F64657273204C3A20002C2094
:1037F000523A20004D6F746F727320656E61626C77
:1038000065643A20002C2044656661756C743A202A
:10381000002C204C656674203D20002C20526967E6
:103820006874203D20004C69676874204C6576659B
:103830006C733A204C656674203D20002C204D6945
:1038400064646C65203D20004461726B204C657699
:10385000656C733A204C656674203D20004D6F7492
:103860006F72204F6666736574733A204C65667498
:10387000203D20004D6F64653A2000547261636BF7
:0E3880006572733A204C656674203D2000008E
:00000001FF
