:100000000C94A3000C94CB000C94CB000C94CB006C
:100010000C94CB000C94CB000C94CB000C94CB0034
:100020000C94CB000C94C60B0C94CB000C942C08B5
:100030000C94CB000C94CB000C94CB000C94CB0014
:100040000C94E40C0C94CB000C94CD050C94A705F7
:100050000C94CB000C94CB000C94CB000C94CB00F4
:100060000C94FF050C94CB0007634236B79BD8A7CE
:100070001A39685618AEBAAB558C1D3CB7CC5763CD
:10008000BD6DEDFD753EF6177231BF000000803F7B
:1000900008000000BE922449123EABAAAA2ABECD97
:1000A000CCCC4C3E00000080BEABAAAAAA3E000009
:1000B0000000BF000000803F000000000008417801
:1000C000D3BB4387D1133D190E3CC3BD4282AD2B38
:1000D0003E68EC8276BED98FE1A93E4C80EFFFBE30
:1000E00001C4FF7F3F00000000000000000023006B
:1000F0002600290000000000240027002A0000003C
:100100000000250028002B00040404040404040457
:1001100002020202020203030303030301020408B2
:100120001020408001020408102001020408102061
:1001300000000008000201000003040700000000A6
:1001400000000000BE1511241FBECFEFD8E0DEBFB7
:10015000CDBF11E0A0E0B1E0E4E4F5E302C005901A
:100160000D92A63BB107D9F724E0A6EBB1E001C0A0
:100170001D92AF35B207E1F710E0C3EAD0E004C04A
:100180002197FE010E94951AC23AD107C9F70E9431
:10019000730D0C94A01A0C940000FC01538D448D37
:1001A000252F30E0842F90E0821B930B541710F022
:1001B000CF96089501970895FC01918D828D98172F
:1001C00061F0828DDF01A80FB11D5D968C91928D3B
:1001D0009F5F9F73928F90E008958FEF9FEF089538
:1001E000FC01918D828D981731F0828DE80FF11D01
:1001F000858D90E008958FEF9FEF0895FC01918D1C
:10020000228D892F90E0805C9F4F821B91098F7314
:100210009927089585E893E00E94FE0021E0892B4C
:1002200009F420E0822F0895FC01848DDF01A80FDE
:10023000B11DA35ABF4F2C91848D90E001968F730E
:100240009927848FA689B7892C93A089B1898C912D
:1002500080648C93938D848D981306C00288F389F3
:10026000E02D80818F7D80830895EF92FF920F9320
:100270001F93CF93DF93EC0181E0888F9B8D8C8D52
:10028000981305C0E889F989808185FD24C0F62E80
:100290000B8D10E00F5F1F4F0F731127E02E8C8D19
:1002A000E8120CC00FB607FCFACFE889F989808103
:1002B00085FFF5CFCE010E941401F1CF8B8DFE0199
:1002C000E80FF11DE35AFF4FF0820B8FEA89FB899B
:1002D0008081806207C0EE89FF896083E889F9899F
:1002E00080818064808381E090E0DF91CF911F91D5
:1002F0000F91FF90EF900895CF93DF93EC01888DDD
:100300008823C9F0EA89FB89808185FD05C0A88919
:10031000B9898C9186FD0FC00FB607FCF5CF80819F
:1003200085FFF2CFA889B9898C9185FFEDCFCE01E9
:100330000E941401E7CFDF91CF91089580E090E013
:10034000892B29F00E940A0181110C940000089564
:1003500085ED8093BC008091BC0084FDFCCF1092A1
:100360006003089540915A02262F30E0240F311D7A
:1003700021323105DCF4209160032430C9F4FC0102
:1003800080E090E0861758F430915A022191DC0108
:10039000A85CBD4FA30FB11D2C930196F3CF8091A4
:1003A0005A02680F60935A0280E0089581E0089530
:1003B00082E008950895E091800280917F02E8171D
:1003C00030F4F0E0E85EFD4F808190E008958FEF1B
:1003D0009FEF08959091800280917F02981750F4CA
:1003E000E92FF0E0E85EFD4F208130E09F5F9093C1
:1003F000800202C02FEF3FEFC901089580917F0274
:1004000090E020918002821B91090895CF92DF92A3
:10041000EF92FF920F931F93CF93DF937C01262FD0
:10042000972F8A0180916103882391F0C62FD72FDF
:100430006E01C40ED51ECC15DD0571F06991D70192
:10044000ED91FC910190F081E02DC7010995F3CF6A
:10045000642F822F0E94B201C801DF91CF911F91BA
:100460000F91FF90EF90DF90CF900895CF93DF939F
:100470001F92CDB7DEB76983209161032223D1F0AB
:1004800020918403203240F021E030E0FC013383EE
:10049000228380E090E015C080916203E82FF0E0B5
:1004A000ED59FC4F998190838F5F80936203809315
:1004B000840305C061E0CE0101960E94B20181E093
:1004C00090E00F90DF91CF910895089580E090E043
:1004D00008958091830290918402892B29F0E09104
:1004E0008102F091820209959AB1809101018923DC
:1004F0008AB99BB18091010189238BB994B1809114
:100500000001892384B995B180910001892385B9BF
:100510008091F0019091F1014091D602892B09F070
:10052000E0C080918702909188029093F1018093BE
:10053000F0012091850230918602E091EF01F0E018
:10054000EE0FFF1FE657FD4F808191818223932399
:10055000892B89F02091EF0130E080910201082E73
:10056000000C990B0197841B910947FD9395821705
:1005700093070CF0B8C28091D602882309F49DC07D
:1005800080E590E09093EE018093ED012091EF01E2
:1005900030E080910201082E000C990B019728177A
:1005A000390709F08AC0E091EF012BB1F0E0E45483
:1005B000FD4F8081082E000C990B822B8BB9E091A6
:1005C000EF012AB1F0E0E753FD4F8081082E000CC7
:1005D000990B822B8AB9E091EF0125B1F0E0EE553D
:1005E000FD4F8081082E000C990B822B85B9E0917C
:1005F000EF0124B1F0E0E155FD4F8081082E000CA1
:10060000990B822B84B980918902882311F023B140
:1006100001C029B18091D9029091DA02822380939E
:10062000EC018091EC029091ED02892B29F18091EF
:10063000EC01811105C01092EB011092EA0139C062
:100640001092E9011092E8018091EA019091EB018A
:1006500001969093EB018093EA018091EA019091D9
:10066000EB01499750F11092ED021092EC021092BA
:10067000EB011092EA0121C08091EC011092EB0194
:100680001092EA01811115C08091E8019091E90171
:1006900001969093E9018093E8018091E80190919F
:1006A000E901499750F081E090E09093ED0280934A
:1006B000EC021092E9011092E8018091EF018F5F46
:1006C0008093EF012091EF0130E080910201082E2C
:1006D000000C990B821793070CF0C1C01092EF0128
:1006E000BEC0442309F4BBC080E590E09093EE01C6
:1006F0008093ED012091D7023091D80280910201C0
:10070000082E000C990B01972817390709F08EC0A5
:10071000E091D702F091D8022BB1E454FD4F8081D3
:10072000082E000C990B822B8BB9E091D702F09127
:10073000D8022AB1E753FD4F8081082E000C990B97
:10074000822B8AB9E091D702F091D80225B1EE55FB
:10075000FD4F8081082E000C990B822B85B9E0910A
:10076000D702F091D80224B1E155FD4F8081082EC7
:10077000000C990B822B84B980918902882311F097
:1007800023B101C029B18091D9029091DA0282236C
:100790008093EC018091EC029091ED02892B29F17C
:1007A0008091EC01811105C01092EB011092EA01D9
:1007B00039C01092E9011092E8018091EA0190910C
:1007C000EB0101969093EB018093EA018091EA019D
:1007D0009091EB01499750F11092ED021092EC02CA
:1007E0001092EB011092EA0121C08091EC0110926D
:1007F000EB011092EA01811115C08091E8019091FE
:10080000E90101969093E9018093E8018091E80164
:100810009091E901499750F081E090E09093ED02CA
:100820008093EC021092E9011092E8018091D702C6
:100830009091D80201969093D8028093D70220918C
:10084000D7023091D80280910201082E000C990B3A
:100850008217930720F41092D8021092D702809149
:10086000F0019091F10101979093F1018093F001D3
:100870008091E6019091E701019709F529B18091F6
:10088000E4019091E50182238093E3019091E201DC
:100890008917A9F08093E2018091DE019091DF0138
:1008A000A091E001B091E1010196A11DB11D8093DD
:1008B000DE019093DF01A093E001B093E10180910C
:1008C000E6019091E701029709F523B18091E401D7
:1008D0009091E50182238093E3019091E2018917D1
:1008E000A9F08093E2018091DE019091DF01A09157
:1008F000E001B091E1010196A11DB11D8093DE01DF
:100900009093DF01A093E001B093E1018091DC01BD
:100910009091DD01019709F529B18091DA0190915B
:10092000DB0182238093D9019091D8018917A9F026
:100930008093D8018091D4019091D501A091D601E6
:10094000B091D7010196A11DB11D8093D401909360
:10095000D501A093D601B093D7018091DC0190918D
:10096000DD01029709F523B18091DA019091DB0155
:1009700082238093D9019091D8018917A9F080939F
:10098000D8018091D4019091D501A091D601B09168
:10099000D7010196A11DB11D8093D4019093D5017B
:1009A000A093D601B093D7018091D2019091D30149
:1009B000019709F529B18091D0019091D10182234D
:1009C0008093CF019091CE018917A9F08093CE0139
:1009D0008091CA019091CB01A091CC01B091CD0141
:1009E0000196A11DB11D8093CA019093CB01A093E4
:1009F000CC01B093CD018091D2019091D3010297A7
:100A000009F523B18091D0019091D1018223809387
:100A1000CF019091CE018917A9F08093CE018091EA
:100A2000CA019091CB01A091CC01B091CD0101966A
:100A3000A11DB11D8093CA019093CB01A093CC015D
:100A4000B093CD018091C8019091C901019709F53A
:100A500029B18091C6019091C70182238093C5017D
:100A60009091C4018917A9F08093C4018091C001BD
:100A70009091C101A091C201B091C3010196A11D45
:100A8000B11D8093C0019093C101A093C201B093A6
:100A9000C3018091C8019091C901029709F054C027
:100AA00023B18091C6019091C70182238093C50133
:100AB0009091C401891709F447C08093C4018091C3
:100AC000C0019091C101A091C201B091C3010196F2
:100AD000A11DB11D8093C0019093C101A093C201DB
:100AE000B093C3010895E091EF012BB1F0E0E4541D
:100AF000FD4F8081082E000C990B822B8BB9E09161
:100B0000EF012AB1F0E0E753FD4F8081082E000C81
:100B1000990B822B8AB9E091EF0125B1F0E0EE55F7
:100B2000FD4F8081082E000C990B822B85B9E09136
:100B3000EF0124B1F0E0E155FD4F8081082E000C5B
:100B4000990B822B84B917CD08950E949B1A1F928E
:100B50000F920FB60F9211242F933F934F935F93F1
:100B60006F937F938F939F93AF93BF93EF93FF9375
:100B700085E893E00E941401FF91EF91BF91AF913E
:100B80009F918F917F916F915F914F913F912F91A5
:100B90000F900FBE0F901F9018951F920F920FB6D7
:100BA0000F9211242F938F939F93EF93FF93E091D4
:100BB0009503F09196038081E0919B03F0919C0353
:100BC00082FD12C0908180919E038F5F8F73209170
:100BD0009F03821751F0E0919E03F0E0EB57FC4F2A
:100BE000958F80939E0301C08081FF91EF919F912B
:100BF0008F912F910F900FBE0F901F9018951F92FD
:100C00000F920FB60F9211242F933F934F935F9340
:100C10006F937F938F939F93AF93BF93EF93FF93C4
:100C20008091B900887F803609F49CC068F58832CD
:100C300009F45BC090F4803109F454C038F488237F
:100C400009F4F6C0883009F44DC0F6C0883109F4C3
:100C50004CC0803209F45DC0EFC0803409F468C034
:100C600048F4803309F455C0883309F0E5C0809317
:100C70005E03D8C0803509F44FC0883509F45DC0E3
:100C8000883409F0D9C0D6C0883909F4C7C0A8F49F
:100C9000883709F467C038F4883609F463C08037B0
:100CA00009F460C0C9C0883809F4B8C0803909F4B3
:100CB0005FC0803809F0C0C05BC0803B09F486C0CB
:100CC00038F4803A09F466C0883A09F47FC0B4C0A9
:100CD000803C09F4A7C0883C09F4A4C0883B09F40F
:100CE0008AC0AAC080913B0310C090915D0380919F
:100CF0005C03981770F5E0915D0381E08E0F80939F
:100D00005D03F0E0E45CFC4F80818093BB0085ECE8
:100D100086C080935E038EC0E0915D0381E08E0FFC
:100D200080935D038091BB00F0E0E45CFC4F808326
:100D300090915D0380915C036EC0E0915D0381E062
:100D40008E0F80935D038091BB00F0E0E45CFC4F6C
:100D5000808380915F0381116DC081E080933A03AD
:100D600084EA61C083E08093600310927E02CFCF5B
:100D700080917E02803208F051C0E0917E0281E0D5
:100D80008E0F80937E028091BB00F0E0E25AFD4F0F
:100D90008083BDCF85EC8093BC001092600380916E
:100DA0007E02803230F4E0917E02F0E0E25AFD4FA4
:100DB000108260917E0270E0E0915C02F0915D0231
:100DC0008EE592E0099510927E0236C084E0809311
:100DD000600310925B0210925A02E0915802F09167
:100DE0005902099580915A02811105C081E08093D2
:100DF0005A0210923802E0915B0281E08E0F8093DC
:100E00005B02F0E0E85CFD4F80818093BB00909135
:100E10005B0280915A02981708F479CF85E8809395
:100E2000BC000AC085EC8093BC001092600304C033
:100E300010925E030E94A801FF91EF91BF91AF91C4
:100E40009F918F917F916F915F914F913F912F91E2
:100E50000F900FBE0F901F901895FC0190819C3051
:100E600080F5818128E830E0281B310987FD339522
:100E7000220F331F220F331F621773077CF082810A
:100E800028E532E0281B310987FD3395220F331FF7
:100E9000220F331F621773070CF49B012250310994
:100EA000220F331F4FB7F894892F90E0FC01EE0F0B
:100EB000FF1F8E0F9F1FFC01EC50FE4F32832183DA
:100EC0004FBF0895CF92DF92EF92FF92CF93DF93BF
:100ED000EC01603282E078070CF03DC077FD06C07F
:100EE000653B71052CF064EB70E002C060E070E0DF
:100EF000898128E830E06901C81AD10887FDD394B8
:100F0000CC0CDD1CCC0CDD1C0D2C000CEE08FF08FD
:100F10008A8128E532E0281B310987FD3395220FAD
:100F2000331F220F331FC901330FAA0BBB0B9C01C8
:100F3000AD012C193D094E095F09DB010E946F16B6
:100F400024EB30E040E050E00E944516C20ED31E74
:100F5000E41EF51EB601CE01DF91CF91FF90EF9018
:100F6000DF90CF900C942D071F93CF93DF93EC016C
:100F7000162F88818C3008F04EC061E0812F0E94CE
:100F8000850C8881E82FF0E09F01220F331FE20FCC
:100F9000F31FEC50FE4F1F739081907C192B108330
:100FA00019821A826CE00E94751A9CE0899FB00138
:100FB000112440E050E09A01260F371FF901EE0F8F
:100FC000FF1F2E0F3F1FF901EC50FE4F908196FD41
:100FD00016C04F5F5F4F4C30510569F781110FC04C
:100FE0001092800082E08093810010928500109220
:100FF0008400B19A80916F00826080936F00E881D5
:10100000F0E0CF01880F991FE80FF91FEC50FE4F59
:101010008081806480838881DF91CF911F910895C2
:10102000FC019091F3019C30A0F481E0890F809342
:10103000F3019083892F90E0FC01EE0FFF1F8E0FCC
:101040009F1FFC01EC50FE4F88EB9BE09283818355
:1010500008958FEF808308951F920F920FB60F921D
:1010600011242F933F934F935F936F937F938F93AD
:101070009F93AF93BF93EF93FF938091F20187FF0C
:1010800005C010928500109284001BC02091F201CF
:10109000022E000C330B8091F30190E028173907E2
:1010A00084F48091F201082E000C990BFC01EE0FE4
:1010B000FF1F8E0F9F1FFC01EC50FE4F808186FDAD
:1010C00015C08091F2018F5F8093F2012091F201AF
:1010D000022E000C330B8091F30190E028173907A2
:1010E000C4F48091F2018C3064F113C08091F2015C
:1010F000082E000C990BFC01EE0FFF1F8E0F9F1F97
:10110000FC01EC50FE4F808160E08F730E94550C13
:10111000D8CF8091840090918500049680349C49BA
:1011200018F480E49CE905C08091840090918500CA
:10113000049690938900809388008FEF8093F2014A
:101140003BC020918400309185008091F201082EEF
:10115000000C990BFC01EE0FFF1F8E0F9F1FFC016F
:10116000EC50FE4F81819281820F931F90938900F2
:10117000809388008091F201082E000C990BFC01ED
:10118000EE0FFF1F8E0F9F1FFC01EC50FE4F808162
:1011900086FF12C08091F201082E000C990BFC0111
:1011A000EE0FFF1F8E0F9F1FFC01EC50FE4F808142
:1011B00061E08F730E94550CFF91EF91BF91AF9149
:1011C0009F918F917F916F915F914F913F912F915F
:1011D0000F900FBE0F901F901895FC01838591E032
:1011E00090936103809383031092620310928403AF
:1011F00082E294E00E94360281E00C94D20ACF92FF
:10120000DF92EF92FF92CF93DF93EC0160E40E94B4
:10121000ED088B85909160039111FCCF91E0909344
:10122000600390935F032FEF20935E0310925D03A2
:1012300023E020935C0390933B0390913B03880F42
:10124000892B80933B0380913A03813061F41092A3
:101250003A0380913B038093BB008091BC0083FDE7
:10126000F8CF85EC01C085EE8093BC0080916003CF
:101270008130E1F380915D03843018F480915D0347
:1012800001C084E0ACE3B3E028E132E0F9019E2F35
:10129000921B981718F49D919193F9CF10928002A8
:1012A00080937F0282E294E00E94EA01F82E82E2BB
:1012B00094E00E94EA01C12CD12CDF2C8C299D29BD
:1012C0006C01990FEE08FF0882E294E00E94EA01A7
:1012D00082E294E00E94EA018881882341F0662737
:1012E0007727CB016C197D098E099F0902C0C701C0
:1012F000B601DF91CF91FF90EF90DF90CF900895EE
:10130000CF93DF93CDB7DEB7E0970FB6F894DEBF8B
:101310000FBECDBF98E1E6E0F1E0DE015996019005
:101320000D929A95E1F798E1EEE1F1E0DE01119678
:1013300001900D929A95E1F781508C30E0F490E0A5
:101340002091850230918602880F991FE1E0F0E03C
:10135000EC0FFD1FE80FF91F662329F0808D918D9A
:10136000822B932B04C080819181822393239093BD
:10137000860280938502E0960FB6F894DEBF0FBE1A
:10138000CDBFDF91CF9108950C9437160C942F1692
:101390006BE876E08EE494E00E942D0768E775E044
:1013A00081E594E00C942D07CF92DF92EF92FF92AB
:1013B000CF93DF938823B1F10E94D80C7093BF01C3
:1013C0006093BE01C091BA01D091BB012196D09328
:1013D000BB01C093BA010E94D80C6B017C017093D1
:1013E000B9016093B8016A9720F10E94D80CEE24ED
:1013F000FF24DC01CB018C199D09AE09BF09893896
:101400009341A105B105A8F081E08093E902109213
:10141000B9011092B8010E94D80C7093EB0260934E
:10142000EA0209C00E94D80C7093BD016093BC0110
:10143000C9CF1092E902DF91CF91FF90EF90DF903A
:10144000CF90089580E10E94C10C9093E8028093B0
:10145000E7028FE00E94C10C9093E6028093E502C0
:101460008EE00E94C10C9093E4028093E30280918D
:10147000E1029091E2022091DB023091DC02821BBA
:10148000930B2091E7023091E8022817390710F4F6
:1014900061E001C060E08CE00E9480098091DF0281
:1014A0009091E0022091DB023091DC02821B930BD1
:1014B0002091E5023091E6022817390710F461E027
:1014C00001C060E089E00E9480098091DD02909176
:1014D000DE022091DB023091DC02821B930B209113
:1014E000E3023091E4022817390710F461E001C0EB
:1014F00060E086E00E9480098AE891E00E94730B18
:101500006091E7027091E80280E090E04AE00E947A
:10151000850B8CE991E00E94730B6091E50270915C
:10152000E60280E090E04AE00E94850B88EA91E0C4
:101530000E94730B6091E3027091E40280E090E0FE
:101540004AE00E94850B83EB91E00C94730BCF92E1
:10155000DF92EF92FF920F931F93CF93DF936C0173
:101560007A018B01C0E0D0E0CE15DF0589F0D8010B
:101570006D918D01D601ED91FC910190F081E02DEE
:10158000C6010995892B11F47E0102C02196ECCF8A
:10159000C701DF91CF911F910F91FF90EF90DF90E6
:1015A000CF900895382F20918403909183032132A6
:1015B00008F049C0809160038111FCCF42E0409364
:1015C000600330935F033FEF30935E0310925D033F
:1015D00020935C03A3E6B3E04CE353E0FA013E2F13
:1015E000341B321718F43D913193F9CF10923B031D
:1015F00020913B03990F922B90933B0390913A03D8
:10160000913061F410923A0390913B039093BB00A8
:101610009091BC0093FDF8CF95EC01C095EE9093AE
:10162000BC00909160039230E1F390915E039F3F84
:1016300079F080915E03803241F080915E038033C7
:1016400031F084E005C081E003C082E001C083E0A6
:101650001092620310928403109261030895CF9355
:10166000DF93EC0180915D0490915E04009719F086
:101670006BE40E94ED08D0935E04C0935D048CE59A
:1016800099EEAEE5BCE389839A83AB83BC8385E5A1
:101690009AE2AFE0B6E38D839E83AF83B88788E09C
:1016A00090E09A87898781E08093610380E380934B
:1016B000830310926203109284036DE482E294E04B
:1016C0000E9436026B857C85660F771F82E294E06C
:1016D0000E94360281E00E94D20A6AE4CE01DF91C4
:1016E000CF910C94ED08009769F0FC010190002067
:1016F000E9F73197AF01481B590BBC0185E893E02E
:101700000C94A70A80E090E008958F929F92AF9288
:10171000BF920F931F93CF93DF93CDB7DEB7A197FF
:101720000FB6F894DEBF0FBECDBF19A2423008F449
:101730004AE08E010F5D1F4F842E912CA12CB12CFD
:10174000A50194010E947716E62FB901CA01015044
:101750001109EA3014F4E05D01C0E95CD801EC93B2
:10176000232B242B252B61F7C8010E94730BA19614
:101770000FB6F894DEBF0FBECDBFDF91CF911F91A2
:101780000F91BF90AF909F908F9008951F920F92EE
:101790000FB60F9211242F933F934F935F936F9344
:1017A0007F938F939F93AF93BF93EF93FF9380911A
:1017B0003803909139038093B20080913403909163
:1017C0003503A0913603B09137030196A11DB11DD9
:1017D0008093340390933503A0933603B09337037B
:1017E0004091340350913503609136037091370373
:1017F0008091300390913103A0913203B091330373
:10180000481759076A077B07B0F080912F038111B1
:1018100012C081E080932F0310923403109235039D
:101820001092360310923703E0912D03F0912E03AE
:10183000099510922F03FF91EF91BF91AF919F9166
:101840008F917F916F915F914F913F912F910F9069
:101850000FBE0F901F901895833081F028F48130CF
:1018600099F08230A1F008958730A9F08830B9F05E
:101870008430D1F4809180008F7D03C080918000FE
:101880008F7780938000089584B58F7702C084B5E8
:101890008F7D84BD08958091B0008F7703C08091C3
:1018A000B0008F7D8093B00008951F93CF93DF9396
:1018B000282F30E0F901E05DFE4F8491F901E45EEC
:1018C000FE4FD491F901E85FFE4FC491CC23C9F0DB
:1018D000162F81110E942C0CEC2FF0E0EE0FFF1F51
:1018E000E250FF4FA591B4918FB7F894111105C044
:1018F0009C91ED2FE095E92302C0EC91ED2BEC9348
:101900008FBFDF91CF911F910895CF93DF9390E028
:10191000FC01E45EFE4F2491FC01E85FFE4F8491E0
:10192000882361F190E0880F991FFC01EC50FF4F74
:10193000C591D491FC01E250FF4FA591B491611182
:1019400009C09FB7F8948881209582238883EC9101
:101950002E230BC0623061F49FB7F8943881822F38
:10196000809583238883EC912E2B2C939FBF06C0F8
:101970008FB7F894E8812E2B28838FBFDF91CF910A
:1019800008958E3008F08E508770806480937C00BC
:1019900080917A00806480937A0080917A0086FD3D
:1019A000FCCF809178002091790090E0922B0895EF
:1019B0002FB7F8946091590470915A0480915B0498
:1019C00090915C042FBF08951F920F920FB60F9253
:1019D00011242F933F938F939F93AF93BF93809145
:1019E000590490915A04A0915B04B0915C04309129
:1019F000580423E0230F2D3720F40196A11DB11DBB
:101A000005C026E8230F0296A11DB11D209358049E
:101A10008093590490935A04A0935B04B0935C04A0
:101A20008091540490915504A0915604B0915704AC
:101A30000196A11DB11D8093540490935504A09369
:101A40005604B0935704BF91AF919F918F913F91EE
:101A50002F910F900FBE0F901F901895CF92DF928D
:101A6000EF92FF920F931F93E82FF92F05C00150BB
:101A700011092109310961F1908196239417B9F375
:101A800005C0015011092109310911F190819623F6
:101A90009413F7CFC12CD12CE12CF12C0AC08FEF7D
:101AA000C81AD80AE80AF80A0C151D052E053F05C4
:101AB00079F080818623841791F36C2D7D2D8E2DF6
:101AC0009F2D1F910F91FF90EF90DF90CF90089581
:101AD00060E070E080E090E01F910F91FF90EF9048
:101AE000DF90CF900895789484B5826084BD84B5EA
:101AF000816084BD85B5826085BD85B5816085BD09
:101B000080916E00816080936E00109281008091C0
:101B10008100826080938100809181008160809348
:101B20008100809180008160809380008091B1006D
:101B300084608093B1008091B00081608093B00098
:101B400080917A00846080937A0080917A0082602C
:101B500080937A0080917A00816080937A008091EE
:101B60007A00806880937A001092C10010928002FF
:101B700010927F021092620310928403109260030D
:101B8000C1E0C0935F0310923A0361E082E10E94DA
:101B9000550C61E083E10E94550C8091B9008E7F65
:101BA0008093B9008091B9008D7F8093B90088E45B
:101BB0008093B80085E48093BC00E0919503F09198
:101BC000960382E08083E0919103F091920310826A
:101BD000E0919303F09194038FEC808310929D0326
:101BE000E0919903F0919A0386E08083E091970356
:101BF000F0919803808180618083E0919703F09158
:101C00009803808188608083E0919703F091980326
:101C1000808180688083E0919703F09198038081B0
:101C20008F7D808387E090E09093DA028093D902E1
:101C30001092D8021092D702C093D6028DE0809302
:101C400002018FEF809300011092BB021092AE024E
:101C500081E090E090938B0280938A0282E090E092
:101C600090938D0280938C0284E090E090938F0299
:101C700080938E0288E090E090939102809390028E
:101C800080E190E0909393028093920280E290E052
:101C9000909395028093940280E490E09093970251
:101CA0008093960280E890E0909399028093980246
:101CB00080E091E090939B0280939A0280E092E012
:101CC00090939D0280939C0280E094E090939F0209
:101CD00080939E0280E098E09093A1028093A002FE
:101CE0008FE08093010180EF8093D5028093C8023A
:101CF0001092AF021092A2021092B9021092AC029E
:101D000020E22093BC0280EA8093C9028093D30230
:101D100080E88093C6021092B0021092A302109243
:101D2000B1021092A4022093BE0290E69093CA02E0
:101D30009093CB0290E49093BD025091CC0210920C
:101D4000A5024091CD021092A60230E13093C0026C
:101D500050695093CC0240694093CD028093BF02FA
:101D60001092B4021092A7021092B5021092A8022B
:101D70003093C20240E54093CE024093CF0290934D
:101D8000C1021092B6021092A9021092B7021092EC
:101D9000AA023093C40230E33093D0023093D102D0
:101DA0002093C3021092B8021092AB021092BA02B2
:101DB0001092AD029093C70290EC9093D202909350
:101DC000D4028093C5028091D9029091DA020897DB
:101DD00020F5109289026091D9027091DA0280E0B8
:101DE00090E00E94D7169B01AC0160E070E080E0BB
:101DF00090E40E943D170E948D170E94A8167093D0
:101E0000DA026093D9028091D9029091DA0220EF30
:101E1000822790958093D50222C0C0938902609159
:101E2000D9027091DA026850710980E090E00E9456
:101E3000D7169B01AC0160E070E080E090E40E9466
:101E40003D170E948D170E94A8167093DA026093C6
:101E5000D9028091D9029091DA028093BB028091DD
:101E6000EE029091EF02892B09F081C081E090E0B1
:101E70009093EF028093EE0226E030E030938802E8
:101E8000209387021092860210928502109284029B
:101E900010928302409130035091310360913203DC
:101EA00070913303452B462B472B89F09093840286
:101EB0008093830280912D0390912E039093820250
:101EC00080938102809170008E7F8093700080915A
:101ED00070008E7F809370008091B0008C7F809323
:101EE000B0008091B100877F8093B1008091B600EF
:101EF0008F7D8093B600809170008D7F80937000FD
:101F00008091B10084608093B1008091B1008C7F9A
:101F10008093B1008AEF90E0909339038093380367
:101F200082E090E0A0E0B0E0809330039093310332
:101F3000A0933203B093330389E692E090932E038B
:101F400080932D03109234031092350310923603C0
:101F50001092370310922F03809138039091390328
:101F60008093B2008091700081608093700061E086
:101F700083E00E94850C61E083E00E94550C61E0E3
:101F800082E00E94850C60E083E00E94850C61E0A5
:101F900088E00E94850C68E070E081E594E00E9492
:101FA000B40761E089E00E94850C69E070E08EE48E
:101FB00094E00E94B40761E08AE00E94850C6AE028
:101FC00070E08BE494E00E94B40761E08BE00E9433
:101FD000850C6BE070E088E494E00E94B40760E058
:101FE0008CE00E94850C8EE294E00E942F0B1092F0
:101FF0002E048BE394E00E942F0B81E080933B043E
:1020000060E08EE00E94850C60E08FE00E94850C0D
:1020100060E080E10E94850C86E990E09093DC020C
:102020008093DB0280E090E00E94C609C82F809375
:10203000F10281E090E00E94C6098093F0022C2F0B
:1020400030E0A901582B5093E2024093E10282E074
:1020500090E00E94C609C82F8093F10281E090E0D1
:102060000E94C6098093F0022C2F30E0F901F82B72
:10207000F0930F03E0930E0384E090E00E94C60902
:10208000C82F8093F10281E090E00E94C6098093FE
:10209000F0022C2F30E0A901582B5093E00240931E
:1020A000DF0286E090E00E94C609C82F8093F1020B
:1020B00081E090E00E94C6098093F0022C2F30E06E
:1020C000F901F82BF0930D03E0930C0388E090E006
:1020D0000E94C609C82F8093F10281E090E00E941F
:1020E000C6098093F0022C2F30E0A901582B5093A1
:1020F000DE024093DD028AE090E00E94C609C82F0C
:102100008093F10281E090E00E94C6098093F00282
:102110002C2F30E0F901F82BF0930B03E0930A0326
:102120008CE090E00E94C609C82F8093F1028DE0F8
:1021300090E00E94C609282F8093F0028C2F90E037
:10214000922BA0E0B0E08093180390931903A09322
:102150001A03B0931B038EE090E00E94C609C82FBB
:102160008093F1028FE090E00E94C609282F8093AF
:10217000F0028C2F90E0922BA0E0B0E0809312034D
:1021800090931303A0931403B0931503992493948D
:1021900022242394312C74E0472E512C612C712C75
:1021A000E3E2AE2EB12C0E94D80C009129031091CD
:1021B0002A0320912B0330912C03DC01CB01801BDF
:1021C000910BA20BB30B0B97A105B10510F09092E8
:1021D00028038091EC029091ED02892B21F18091EE
:1021E0002703811122C090922703809125039091AB
:1021F00026030196877099279093260380932503E1
:102200000E94D80C6093290370932A0380932B03B8
:1022100090932C031092280310922403109223030E
:102220001092220302C010922703ECE3F1E08491A4
:10223000E8E2F1E0C491E4E1F1E0D491DD2379F04A
:1022400081110E942C0CED2FF0E0EE0FFF1FE651E4
:10225000FF4FA591B4918C91C82381E009F480E0EF
:102260008170809304018091250390912603823030
:10227000910509F4ABC130F4009761F0019709F4BE
:1022800071C01EC48330910509F473C2049709F428
:102290003FC316C40E94220A61E082E00E94550CEE
:1022A000C5010197F1F760E082E00E94550CEFE173
:1022B000F1E06491EBE0F1E08491E82FF0E0EE0FC3
:1022C000FF1FE651FF4F8591949100E117E220E056
:1022D00030E0462F0E942E0D611571058105910594
:1022E00039F0DC01CB010196A11DB11DBF7003C007
:1022F00080E090E0DC018093F2029093F302A093DF
:10230000F402B093F5026CED75E08EE494E00E9467
:102310002D076CED75E081E594E00E942D0767E3E1
:1023200070E08BE494E00E94620762E370E088E46E
:1023300094E00E9462076AE48EE294E00E94ED0855
:102340006AE48BE394E00E94ED081092210310925E
:10235000200310921C0310921D0310921E03109272
:102360001F03AEC380912803882309F4A9C30E94E8
:10237000220A8091180390911903A0911A03B09139
:102380001B03885F984FAF4FBF4F8034F6E09F0725
:10239000A105B10558F0853328E09207A105B105E4
:1023A00038F084E398E0A0E0B0E002C080E496E07A
:1023B0009093170380931603809112039091130357
:1023C000A0911403B0911503885F984FAF4FBF4F92
:1023D000803436E09307A105B10558F0853348E015
:1023E0009407A105B10538F084E398E0A0E0B0E0DF
:1023F00002C080E496E090931103809310030E9442
:10240000D80C2091EA023091EB02AB01BC01421BD7
:10241000530B61097109413D57406105710510F089
:102420001092E902E090E702F090E802C091DB022E
:10243000D091DC020091E1021091E2020C1B1D0B15
:10244000E016F10660F58091DF029091E0028C1BAE
:102450009D0B2091E5023091E6028217930708F068
:1024600083C38091DD029091DE028C1B9D0B209135
:10247000E3023091E4022817390708F075C36BE8CE
:1024800076E08EE494E00E942D076BE876E081E52B
:1024900094E00E942D0781E00E94D40965C30E15C7
:1024A0001F05E8F48091DF029091E0028C1B9D0BE8
:1024B0002091E5023091E6022817390780F48091D7
:1024C000DD029091DE028C1B9D0B2091E302309186
:1024D000E4022817390708F04CC30E94C809E01627
:1024E000F10608F04FC08091DF029091E0028C1B52
:1024F0009D0B2091E5023091E60228173907C8F4B8
:102500008091DD029091DE028C1B9D0B2091E302F5
:102510003091E4028217930760F468E775E08EE477
:1025200094E00E942D076BE876E081E594E00E943C
:102530002D078091DF029091E0028C1B9D0B209172
:10254000E5023091E60228173907E0F48091DD02B8
:102550009091DE028C1B9D0B2091E3023091E402EE
:102560002817390778F468E775E08EE494E00E9454
:102570002D0768E775E081E594E00E942D0780E073
:102580000E94D4090E151F05E0F48091DF0290919E
:10259000E0028C1B9D0B2091E5023091E602821730
:1025A000930778F48091DD029091DE028C1B9D0BE5
:1025B0002091E3023091E4028217930710F40E9405
:1025C000C80930922103209220037AC28091280307
:1025D000882309F475C28091240381111DC0909253
:1025E000240310920F0310920E0310920D03109209
:1025F0000C0310920B0310920A030E94D80C6093F4
:1026000006037093070380930803909309031092C5
:1026100005031092040355C00E94D80C00910603D4
:10262000109107032091080330910903DC01CB01CD
:10263000801B910BA20BB30B85369105A105B1054B
:1026400008F43FC00E94D80C609306037093070300
:1026500080930803909309030E94220A20910E039D
:1026600030910F038091E7029091E802820F931F4F
:1026700090930F0380930E0320910C0330910D0370
:102680008091E5029091E602820F931F90930D03D3
:1026900080930C0320910A0330910B038091E30295
:1026A0009091E402820F931F90930B0380930A038F
:1026B0008091040390910503019690930503809304
:1026C000040320910403309105032431310509F0FE
:1026D00049C080910E0390910F03B9010E94811AA5
:1026E000462F60930E0370930F0380910C0390911B
:1026F0000D03B9010E94811A70930D0360930C03BE
:1027000080910A0390910B03B9010E94811A709382
:102710000B0360930A03642F82E090E00E94C409D7
:1027200060910F0383E090E00E94C40960910C0364
:1027300086E090E00E94C40960910D0387E090E07C
:102740000E94C40960910A038AE090E00E94C409D3
:1027500060910B038BE090E00E94C4091092260365
:1027600010922503E2E0F0E0F0932103E0932003D0
:10277000A7C180912803882309F4A2C18091240372
:1027800081111DC0909224031092E2021092E10286
:102790001092E0021092DF021092DE021092DD022F
:1027A0000E94D80C6093060370930703809308037C
:1027B00090930903109205031092040355C00E94E0
:1027C000D80C009106031091070320910803309163
:1027D0000903DC01CB01801B910BA20BB30B8536E7
:1027E0009105A105B10508F43FC00E94D80C609383
:1027F00006037093070380930803909309030E94D4
:10280000220A2091E1023091E2028091E702909148
:10281000E802820F931F9093E2028093E1022091DD
:10282000DF023091E0028091E5029091E602820F92
:10283000931F9093E0028093DF022091DD0230919C
:10284000DE028091E3029091E402820F931F909345
:10285000DE028093DD0280910403909105030196CE
:1028600090930503809304032091040330910503A2
:102870002431310509F049C08091E1029091E202D2
:10288000B9010E94811A462F6093E1027093E2021F
:102890008091DF029091E002B9010E94811A709349
:1028A000E0026093DF028091DD029091DE02B901C7
:1028B0000E94811A7093DE026093DD02642F80E033
:1028C00090E00E94C4096091E20281E090E00E94E1
:1028D000C4096091DF0284E090E00E94C409609125
:1028E000E00285E090E00E94C4096091DD0288E08A
:1028F00090E00E94C4096091DE0289E090E00E94AD
:10290000C409109226031092250383E090E0D4C0FE
:1029100080912803882309F4D3C080912403811176
:1029200023C0909224036AE48EE294E00E94ED08B2
:102930006AE48BE394E00E94ED080E94D80C609357
:10294000060370930703809308039093090368E0DC
:1029500077E08EE494E00E942D0768E077E081E55F
:1029600094E00E942D07A6C00E94D80C0091060397
:10297000109107032091080330910903DC01CB017A
:10298000801B910BA20BB30B89389341A105B105B4
:1029900008F490C06CED75E08EE494E00E942D0781
:1029A0006CED75E081E594E00E942D078EE294E0E5
:1029B0000E94FF086B017C01609300037093010388
:1029C00080930203909303038BE394E00E94FF083B
:1029D0006093FC027093FD028093FE029093FF02CD
:1029E0006C157D058E059F05ECF410921203109274
:1029F00013031092140310921503A7019601261BCE
:102A0000370B480B590BCA01B901A30192010E946F
:102A10004516209318033093190340931A035093DB
:102A20001B0318C06C197D098E099F09A30192012F
:102A30000E9445162093120330931303409314030E
:102A400050931503109218031092190310921A0351
:102A500010921B03609112038EE090E00E94C40963
:102A60008091120390911303A0911403B091150368
:102A7000692F7A2F8B2F99278FE090E00E94C4094D
:102A8000609118038CE090E00E94C40980911803C3
:102A900090911903A0911A03B0911B03692F7A2F0B
:102AA0008B2F99278DE090E00E94C4091092260395
:102AB0001092250384E090E09093210380932003FB
:102AC0000E94D80C0091F8021091F9022091FA02AC
:102AD0003091FB02DC01CB01801B910BA20BB30BED
:102AE000853F9140A105B105E0F10E94D80C6093AB
:102AF000F8027093F9028093FA029093FB02C0915E
:102B00000301C925C09303016C2F81E00E94800955
:102B10006C2F8DE00E94550CC091F602D091F70207
:102B2000DE01AA0FBB1FA65CBE4FE0912003F0910F
:102B30002103EE0FFF1FE65AFE4F8D919C912081DD
:102B400031818223932361E0892B09F060E084E0E6
:102B50000E9480092196CF70DD27D093F702C093A1
:102B6000F6020E949E011FCB0E151F0508F49ACC99
:102B7000BACCE016F10608F4C3CC04CDE5E8F3E0E6
:102B80001382128288EE93E0A0E0B0E08483958304
:102B9000A683B7832AE631E03183208325EC30E039
:102BA0003587248724EC30E03787268720EC30E017
:102BB000318B208B21EC30E0338B228B22EC30E008
:102BC000358B248B26EC30E0378B268B118E128EC2
:102BD000138E148EE2E2F4E01382128284839583D2
:102BE000A683B7838CE791E09183808381E594E0AD
:102BF0000E9410088EE494E00E9410088BE494E098
:102C00000E94100888E494E00E9410088091050159
:102C1000EBE3F4E0282F30E0348723871082118221
:102C200012821382148215821682178210861286EF
:102C30001186EEE2F4E021E0280F30E034872387AC
:102C40008E5F80930501108211821282138214829A
:102C50001582168217821086128611860895F999B8
:102C6000FECF92BD81BDF89A992780B50895262F91
:102C7000F999FECF1FBA92BD81BD20BD0FB6F89461
:102C8000FA9AF99A0FBE01960895052E97FB1EF445
:102C900000940E945C1657FD07D00E94771607FC2F
:102CA00003D04EF40C945C165095409530952195C8
:102CB0003F4F4F4F5F4F0895909580957095619568
:102CC0007F4F8F4F9F4F08950E949916A59F900D9B
:102CD000B49F900DA49F800D911D11240895B7FFFE
:102CE0000C9464160E946416821B930B0895A1E253
:102CF0001A2EAA1BBB1BFD010DC0AA1FBB1FEE1F76
:102D0000FF1FA217B307E407F50720F0A21BB30BC0
:102D1000E40BF50B661F771F881F991F1A9469F73C
:102D200060957095809590959B01AC01BD01CF0198
:102D30000895A29FB001B39FC001A39F700D811D94
:102D40001124911DB29F700D811D1124911D0895B4
:102D50000E941C1788F09F5798F0B92F9927B751F8
:102D6000B0F0E1F0660F771F881F991F1AF0BA952F
:102D7000C9F714C0B13091F00E943617B1E0089540
:102D80000C943617672F782F8827B85F39F0B93F32
:102D9000CCF3869577956795B395D9F73EF49095E2
:102DA0008095709561957F4F8F4F9F4F0895E89460
:102DB00009C097FB3EF490958095709561957F4F83
:102DC0008F4F9F4F9923A9F0F92F96E9BB27939531
:102DD000F695879577956795B795F111F8CFFAF441
:102DE000BB0F11F460FF1BC06F5F7F4F8F4F9F4F72
:102DF00016C0882311F096E911C0772321F09EE8D0
:102E0000872F762F05C0662371F096E8862F70E035
:102E100060E02AF09A95660F771F881FDAF7880F0F
:102E20009695879597F9089557FD9058440F551F2B
:102E300059F05F3F71F04795880F97FB991F61F03C
:102E40009F3F79F087950895121613061406551FB3
:102E5000F2CF4695F1DF08C0161617061806991F1F
:102E6000F1CF86957105610508940895E894BB2714
:102E700066277727CB0197F90895FA01EE0FFF1F18
:102E8000309621053105A1F16115710561F4803895
:102E9000BFE39B0749F168949038810561F0803861
:102EA000BFEF9B0741F099234AF5FF3FE10531054C
:102EB000210519F1E8940894E795D901AA2329F48A
:102EC000AB2FBE2FF85FD0F310C0FF5F70F4A69554
:102ED000E0F7F73950F019F0FF3A38F49F779F93F5
:102EE0000DD00F9007FC9058089546F00C941A18D6
:102EF00060E070E080E89FE308954FE79F775F937D
:102F00004F933F932F930E948E182F913F914F9193
:102F10005F910E940A190C94B9170E941C17E8F0DF
:102F20009E37E8F09639B8F49E3848F4672F782F2A
:102F30008827985FF9CF869577956795939595390A
:102F4000D0F3B62FB1706B0F711D811D20F48795E2
:102F50007795679593950C94F1170C940C180C9435
:102F6000371729F416F00C94EB170C9436170C94C1
:102F70001A180E941C17A8F39638A0F707F80F92AA
:102F8000E8942BE33AEA48EB5FE70E9420190F929E
:102F90000F920F924DB75EB70F920E94D618E8E6D7
:102FA000F0E00E941D184F915F91EF91FF91E59520
:102FB000EE1FFF1F49F0FE57E0684427EE0F441F45
:102FC000FA95E1F74195550B0E9450180F9007FEB6
:102FD0000C944418089597F99F6780E870E060E0CA
:102FE0000895882371F4772321F09850872B762F4A
:102FF00007C0662311F499270DC09051862B70E00D
:1030000060E02AF09A95660F771F881FDAF7880F1D
:103010009695879597F908959F3F31F0915020F448
:10302000879577956795B795880F911D96958795A4
:1030300097F908959FEF80EC0895DF93CF931F9346
:103040000F93FF92EF92DF927B018C01689406C090
:10305000DA2EEF010E941D19FE01E894A591259139
:10306000359145915591A6F3EF010E948F19FE010C
:103070009701A801DA9469F7DF90EF90FF900F9124
:103080001F91CF91DF9108959B01AC0160E070E04A
:1030900080E89FE30C94E4190C94EB170C940C1843
:1030A0000E941C17D8F39923C9F3940F511DA3F361
:1030B0009150504094F059F0882332F0660F771FFA
:1030C000881F91505040C1F79E3F51052CF7880F43
:1030D000911D9695879597F908955F3FACF0983EBE
:1030E0009CF0BB27869577956795B79508F4B160F6
:1030F0009395C1F7BB0F58F711F460FFE8CF6F5FEE
:103100007F4F8F4F9F4FE3CF0C94371716F00C94DF
:103110000C180C941A1868940C94EB170E941C1746
:10312000A8F39923C1F3AEF3DF93CF931F930F93CB
:10313000FF92C92FDD2788232AF02197660F771F7A
:10314000881FDAF720E030E040E85FEB9FE3883942
:1031500020F0803E38F021968F770E947819E0E9C0
:10316000F0E004C00E947819EDEBF0E00E941D1819
:103170008B01BE01EC01FB2E6F5771097595771F0E
:10318000880B990B0E94D91628E132E741E35FE3EF
:103190000E941D19AF2D9801AE01FF900F911F9154
:1031A000CF91DF910E948F190C94641AFA01DC010F
:1031B000AA0FBB1F9B01AC01BF5728F4222733275E
:1031C0004427507820C0B75190F4AB2F0024469587
:1031D00037952795011CA395D2F3002071F0220F9B
:1031E000331F441FB395DAF30ED00C947719613076
:1031F0007105A0E88A07B94630F49B01AC01662747
:10320000772788279078309621F020833183428376
:10321000538308950E941D190C94641A0E94561A33
:1032200038F00E945D1A20F0952311F00C94EB17F2
:103230000C941A1811240C9437170E94141770F369
:10324000959FC1F3950F50E0551F629FF001729F4B
:10325000BB27F00DB11D639FAA27F00DB11DAA1F5A
:10326000649F6627B00DA11D661F829F2227B00DA7
:10327000A11D621F739FB00DA11D621F839FA00D32
:10328000611D221F749F3327A00D611D231F849F82
:10329000600D211D822F762F6A2F11249F575040D9
:1032A0009AF0F1F088234AF0EE0FFF1FBB1F661F54
:1032B000771F881F91505040A9F79E3F510580F01D
:1032C0000C94EB170C9437175F3FE4F3983ED4F35C
:1032D000869577956795B795F795E7959F5FC1F7C1
:1032E000FE2B880F911D9695879597F90895505854
:1032F000BB27AA270E948F190C94641A0E94561AA1
:1033000038F00E945D1A20F039F49F3F19F426F43A
:103310000C941A180EF4E095E7FB0C94EB17E92FC8
:103320000E94141758F3BA176207730784079507AA
:1033300020F079F4A6F50C9436170EF4E0950B2ED8
:10334000BA2FA02D0B01B90190010C01CA01A001F7
:103350001124FF27591B99F0593F50F4503E68F152
:103360001A16F040A22F232F342F4427585FF3CF93
:10337000469537952795A795F0405395C9F77EF464
:103380001F16BA0B620B730B840BBAF09150A1F0AD
:10339000FF0FBB1F661F771F881FC2F70EC0BA0F33
:1033A000621F731F841F48F4879577956795B795BB
:1033B000F7959E3F08F0B0CF9395880F08F09927B6
:1033C000EE0F9795879508950E94F8190C94641A4A
:1033D0000E945D1A58F00E94561A40F029F45F3F8F
:1033E00029F00C94EB1751110C9437170C941A1800
:1033F0000E94141768F39923B1F3552391F3951B99
:10340000550BBB27AA2762177307840738F09F5F05
:103410005F4F220F331F441FAA1FA9F335D00E2E72
:103420003AF0E0E832D091505040E695001CCAF7DF
:103430002BD0FE2F29D0660F771F881FBB1F2617A2
:1034400037074807AB07B0E809F0BB0B802DBF0179
:10345000FF2793585F4F3AF09E3F510578F00C9448
:10346000EB170C9437175F3FE4F3983ED4F386953F
:1034700077956795B795F7959F5FC9F7880F911D69
:103480009695879597F90895E1E0660F771F881F55
:10349000BB1F621773078407BA0720F0621B730B08
:1034A000840BBA0BEE1F88F7E095089500240A9468
:1034B0001616170618060906089500240A9412160F
:1034C0001306140605060895092E0394000C11F442
:1034D000882352F0BB0F40F4BF2B11F460FF04C0EF
:1034E0006F5F7F4F8F4F9F4F0895991B79E004C006
:1034F000991F961708F0961B881F7A95C9F7809533
:103500000895AA1BBB1B51E107C0AA1FBB1FA6172A
:10351000B70710F0A61BB70B881F991F5A95A9F77C
:1035200080959095BC01CD010895EE0FFF1F059089
:10353000F491E02D099481E090E0F8940C94A01AA5
:04354000F894FFCF2D
:10354400FFFF0D010110010002000400080010003B
:103554002000400080000001000200040008FEFF7B
:10356400FDFFFBFFF7FFEFFFDFFFBFFF7FFFFFFE66
:10357400FFFDFFFBFFF778058B0601000200040046
:103584000800100020004000800000010002000438
:10359400000800100020004000000000FF000F0F92
:1035A4003333AAAAFFFF000000003501A70ACD00AB
:1035B4007C01FE00DC00F000000000003602060280
:1035C4006602DA01FE01EA01DB01547261636B6594
:1035D40072733A204C656674203D20002C204D699E
:1035E40064646C65203D20002C2052696768742057
:0635F4003D20000D0A005D
:00000001FF
