:100000000C94A3000C94CB000C94CB000C94CB006C
:100010000C94CB000C94CB000C94CB000C94CB0034
:100020000C94CB000C94F60B0C94CB000C942C0885
:100030000C94CB000C94CB000C94CB000C94CB0014
:100040000C944E0D0C94CB000C94CD050C94A7058C
:100050000C94CB000C94CB000C94CB000C94CB00F4
:100060000C94FF050C94CB0007634236B79BD8A7CE
:100070001A39685618AEBAAB558C1D3CB7CC5763CD
:10008000BD6DEDFD753EF6177231BF000000803F7B
:1000900008000000BE922449123EABAAAA2ABECD97
:1000A000CCCC4C3E00000080BEABAAAAAA3E000009
:1000B0000000BF000000803F000000000008417801
:1000C000D3BB4387D1133D190E3CC3BD4282AD2B38
:1000D0003E68EC8276BED98FE1A93E4C80EFFFBE30
:1000E00001C4FF7F3F00000000000000000023006B
:1000F0002600290000000000240027002A0000003C
:100100000000250028002B00040404040404040457
:1001100002020202020203030303030301020408B2
:100120001020408001020408102001020408102061
:1001300000000008000201000003040700000000A6
:10014000000000009F1611241FBECFEFD8E0DEBFD5
:10015000CDBF11E0A0E0B1E0E6E0F7E302C005901A
:100160000D92AE39B107D9F724E0AEE9B1E001C094
:100170001D92A534B207E1F710E0C3EAD0E004C055
:100180002197FE010E94761BC23AD107C9F70E944F
:10019000DD0D0C94811B0C940000FC01538D448DEB
:1001A000252F30E0842F90E0821B930B541710F022
:1001B000CF96089501970895FC01918D828D98172F
:1001C00061F0828DDF01A80FB11D5D968C91928D3B
:1001D0009F5F9F73928F90E008958FEF9FEF089538
:1001E000FC01918D828D981731F0828DE80FF11D01
:1001F000858D90E008958FEF9FEF0895FC01918D1C
:10020000228D892F90E0805C9F4F821B91098F7314
:10021000992708958BE693E00E94FE0021E0892B48
:1002200009F420E0822F0895FC01848DDF01A80FDE
:10023000B11DA35ABF4F2C91848D90E001968F730E
:100240009927848FA689B7892C93A089B1898C912D
:1002500080648C93938D848D981306C00288F389F3
:10026000E02D80818F7D80830895EF92FF920F9320
:100270001F93CF93DF93EC0181E0888F9B8D8C8D52
:10028000981305C0E889F989808185FD24C0F62E80
:100290000B8D10E00F5F1F4F0F731127E02E8C8D19
:1002A000E8120CC00FB607FCFACFE889F989808103
:1002B00085FFF5CFCE010E941401F1CF8B8DFE0199
:1002C000E80FF11DE35AFF4FF0820B8FEA89FB899B
:1002D0008081806207C0EE89FF896083E889F9899F
:1002E00080818064808381E090E0DF91CF911F91D5
:1002F0000F91FF90EF900895CF93DF93EC01888DDD
:100300008823C9F0EA89FB89808185FD05C0A88919
:10031000B9898C9186FD0FC00FB607FCF5CF80819F
:1003200085FFF2CFA889B9898C9185FFEDCFCE01E9
:100330000E941401E7CFDF91CF91089580E090E013
:10034000892B29F00E940A0181110C940000089564
:1003500085ED8093BC008091BC0084FDFCCF1092A1
:10036000460308954091EE02262F30E0240F311D00
:1003700021323105DCF4209146032430C9F4FC011C
:1003800080E090E0861758F43091EE022191DC0174
:10039000A453BD4FA30FB11D2C930196F3CF8091B1
:1003A000EE02680F6093EE0280E0089581E0089508
:1003B00082E008950895E0919F0180919E01E817E1
:1003C00030F4F0E0E455FD4F808190E008958FEF28
:1003D0009FEF089590919F0180919E01981750F48E
:1003E000E92FF0E0E455FD4F208130E09F5F9093CE
:1003F0009F0102C02FEF3FEFC901089580919E0138
:1004000090E020919F01821B91090895CF92DF9285
:10041000EF92FF920F931F93CF93DF937C01262FD0
:10042000972F8A0180914703882391F0C62FD72FF9
:100430006E01C40ED51ECC15DD0571F06991D70192
:10044000ED91FC910190F081E02DC7010995F3CF6A
:10045000642F822F0E94B201C801DF91CF911F91BA
:100460000F91FF90EF90DF90CF900895CF93DF939F
:100470001F92CDB7DEB76983209147032223D1F0C5
:1004800020916A03203240F021E030E0FC01338308
:10049000228380E090E015C080914803E82FF0E0CF
:1004A000E75BFC4F998190838F5F80934803809333
:1004B0006A0305C061E0CE0101960E94B20181E0AD
:1004C00090E00F90DF91CF910895089580E090E043
:1004D00008958091A2019091A301892B29F0E091C8
:1004E000A001F091A10109959AB1809101018923A0
:1004F0008AB99BB18091010189238BB994B1809114
:100500000001892384B995B180910001892385B9BF
:1005100080918402909185024091F501892B09F028
:10052000E0C08091A6019091A701909385028093ED
:1005300084022091A4013091A501E0918302F0E0B2
:10054000EE0FFF1FE755FE4F808191818223932399
:10055000892B89F02091830230E080910201082EDE
:10056000000C990B0197841B910947FD9395821705
:1005700093070CF0B8C28091F501882309F49DC05F
:1005800080E590E090938202809381022091830223
:1005900030E080910201082E000C990B019728177A
:1005A000390709F08AC0E09183022BB1F0E0E552EF
:1005B000FE4F8081082E000C990B822B8BB9E091A5
:1005C00083022AB1F0E0E851FE4F8081082E000C32
:1005D000990B822B8AB9E091830225B1F0E0EF53A9
:1005E000FE4F8081082E000C990B822B85B9E0917B
:1005F000830224B1F0E0E253FE4F8081082E000C0C
:10060000990B822B84B98091A801882311F023B122
:1006100001C029B18091F8019091F9018223809362
:10062000800280910B0290910C02892B29F180911C
:100630008002811105C010927F0210927E0239C0A3
:1006400010927D0210927C0280917E0290917F0236
:10065000019690937F0280937E0280917E0290911A
:100660007F02499750F110920C0210920B021092E7
:100670007F0210927E0221C08091800210927F0240
:1006800010927E02811115C080917C0290917D02B2
:10069000019690937D0280937C0280917C029091E0
:1006A0007D02499750F081E090E090930C02809396
:1006B0000B0210927D0210927C02809183028F5F68
:1006C000809383022091830230E080910201082E02
:1006D000000C990B821793070CF0C1C01092830293
:1006E000BEC0442309F4BBC080E590E09093820231
:1006F000809381022091F6013091F70180910201EF
:10070000082E000C990B01972817390709F08EC0A5
:10071000E091F601F091F7012BB1E552FE4F808197
:10072000082E000C990B822B8BB9E091F601F09109
:10073000F7012AB1E851FE4F8081082E000C990B79
:10074000822B8AB9E091F601F091F70125B1EF53C0
:10075000FE4F8081082E000C990B822B85B9E09109
:10076000F601F091F70124B1E253FE4F8081082E8B
:10077000000C990B822B84B98091A801882311F079
:1007800023B101C029B18091F8019091F901822330
:100790008093800280910B0290910C02892B29F1A9
:1007A00080918002811105C010927F0210927E021A
:1007B00039C010927D0210927C0280917E0290914D
:1007C0007F02019690937F0280937E0280917E0249
:1007D00090917F02499750F110920C0210920B02F7
:1007E00010927F0210927E0221C0809180021092AE
:1007F0007F0210927E02811115C080917C0290913F
:100800007D02019690937D0280937C0280917C0210
:1008100090917D02499750F081E090E090930C0216
:1008200080930B0210927D0210927C028091F6015F
:100830009091F70101969093F7018093F601209132
:10084000F6013091F70180910201082E000C990BFE
:100850008217930720F41092F7011092F60180910D
:10086000840290918502019790938502809384027F
:1008700080917A0290917B02019709F529B18091CC
:100880007802909179028223809377029091760288
:100890008917A9F080937602809172029091730279
:1008A000A0917402B09175020196A11DB11D8093B3
:1008B000720290937302A0937402B09375028091B8
:1008C0007A0290917B02029709F523B18091780218
:1008D0009091790282238093770290917602891712
:1008E000A9F0809376028091720290917302A09198
:1008F0007402B09175020196A11DB11D8093720220
:1009000090937302A0937402B09375028091700269
:1009100090917102019709F529B180916E02909131
:100920006F02822380936D0290916C028917A9F067
:1009300080936C028091680290916902A0916A0292
:10094000B0916B020196A11DB11D80936802909336
:100950006902A0936A02B0936B0280917002909139
:100960007102029709F523B180916E0290916F0296
:10097000822380936D0290916C028917A9F0809375
:100980006C028091680290916902A0916A02B09114
:100990006B020196A11DB11D8093680290936902BC
:1009A000A0936A02B0936B028091660290916702F5
:1009B000019709F529B18091640290916502822323
:1009C00080936302909162028917A9F0809362027A
:1009D00080915E0290915F02A0916002B0916102ED
:1009E0000196A11DB11D80935E0290935F02A093BA
:1009F0006002B09361028091660290916702029753
:100A000009F523B18091640290916502822380935D
:100A10006302909162028917A9F08093620280912B
:100A20005E0290915F02A0916002B0916102019616
:100A3000A11DB11D80935E0290935F02A09360029E
:100A4000B093610280915C0290915D02019709F57B
:100A500029B180915A0290915B02822380935902BE
:100A6000909158028917A9F08093580280915402FE
:100A700090915502A0915602B09157020196A11D86
:100A8000B11D8093540290935502A0935602B093E7
:100A9000570280915C0290915D02029709F054C068
:100AA00023B180915A0290915B0282238093590274
:100AB00090915802891709F447C080935802809199
:100AC000540290915502A0915602B091570201969E
:100AD000A11DB11D8093540290935502A09356021C
:100AE000B09357020895E09183022BB1F0E0E552F4
:100AF000FE4F8081082E000C990B822B8BB9E09160
:100B000083022AB1F0E0E851FE4F8081082E000CEC
:100B1000990B822B8AB9E091830225B1F0E0EF5363
:100B2000FE4F8081082E000C990B822B85B9E09135
:100B3000830224B1F0E0E253FE4F8081082E000CC6
:100B4000990B822B84B917CD08950E947C1B1F92AC
:100B50000F920FB60F9211242F933F934F935F93F1
:100B60006F937F938F939F93AF93BF93EF93FF9375
:100B70008BE693E00E941401FF91EF91BF91AF913A
:100B80009F918F917F916F915F914F913F912F91A5
:100B90000F900FBE0F901F9018951F920F920FB6D7
:100BA0000F9211242F938F939F93EF93FF93E091D4
:100BB0007B03F0917C038081E0918103F0918203BB
:100BC00082FD12C09081809184038F5F8F7320918A
:100BD0008503821751F0E0918403F0E0E559FC4F62
:100BE000958F8093840301C08081FF91EF919F9145
:100BF0008F912F910F900FBE0F901F9018951F92FD
:100C00000F920FB60F9211242F933F934F935F9340
:100C10006F937F938F939F93AF93BF93EF93FF93C4
:100C20008091B900887F803609F49CC068F58832CD
:100C300009F45BC090F4803109F454C038F488237F
:100C400009F4F6C0883009F44DC0F6C0883109F4C3
:100C50004CC0803209F45DC0EFC0803409F468C034
:100C600048F4803309F455C0883309F0E5C0809317
:100C70004403D8C0803509F44FC0883509F45DC0FD
:100C8000883409F0D9C0D6C0883909F4C7C0A8F49F
:100C9000883709F467C038F4883609F463C08037B0
:100CA00009F460C0C9C0883809F4B8C0803909F4B3
:100CB0005FC0803809F0C0C05BC0803B09F486C0CB
:100CC00038F4803A09F466C0883A09F47FC0B4C0A9
:100CD000803C09F4A7C0883C09F4A4C0883B09F40F
:100CE0008AC0AAC08091210310C0909143038091D3
:100CF0004203981770F5E091430381E08E0F8093D3
:100D00004303F0E0EE5DFC4F80818093BB0085ECF7
:100D100086C0809344038EC0E091430381E08E0F30
:100D2000809343038091BB00F0E0EE5DFC4F808335
:100D300090914303809142036EC0E091430381E0B0
:100D40008E0F809343038091BB00F0E0EE5DFC4F7B
:100D500080838091450381116DC081E080932003E1
:100D600084EA61C083E08093460310921203CFCFE0
:100D700080911203803208F051C0E091120381E0AB
:100D80008E0F809312038091BB00F0E0EE50FD4F78
:100D90008083BDCF85EC8093BC0010924603809188
:100DA0001203803230F4E0911203F0E0EE50FD4F78
:100DB00010826091120370E0E091F002F091F10274
:100DC00082EF92E009951092120336C084E080937E
:100DD00046031092EF021092EE02E091EC02F091C5
:100DE000ED0209958091EE02811105C081E08093AA
:100DF000EE021092CC02E091EF0281E08E0F809320
:100E0000EF02F0E0E453FD4F80818093BB009091AE
:100E1000EF028091EE02981708F479CF85E880936D
:100E2000BC000AC085EC8093BC001092460304C04D
:100E3000109244030E94A801FF91EF91BF91AF91DE
:100E40009F918F917F916F915F914F913F912F91E2
:100E50000F900FBE0F901F901895FC0190819C3051
:100E600080F5818128E830E0281B310987FD339522
:100E7000220F331F220F331F621773077CF082810A
:100E800028E532E0281B310987FD3395220F331FF7
:100E9000220F331F621773070CF49B012250310994
:100EA000220F331F4FB7F894892F90E0FC01EE0F0B
:100EB000FF1F8E0F9F1FFC01E857FD4F32832183D8
:100EC0004FBF0895CF92DF92EF92FF92CF93DF93BF
:100ED000EC01603282E078070CF03DC077FD06C07F
:100EE000653B71052CF064EB70E002C060E070E0DF
:100EF000898128E830E06901C81AD10887FDD394B8
:100F0000CC0CDD1CCC0CDD1C0D2C000CEE08FF08FD
:100F10008A8128E532E0281B310987FD3395220FAD
:100F2000331F220F331FC901330FAA0BBB0B9C01C8
:100F3000AD012C193D094E095F09DB010E945017D4
:100F400024EB30E040E050E00E942617C20ED31E92
:100F5000E41EF51EB601CE01DF91CF91FF90EF9018
:100F6000DF90CF900C942D071F93CF93DF93EC016C
:100F7000162F88818C3008F04EC061E0812F0E94CE
:100F8000B50C8881E82FF0E09F01220F331FE20F9C
:100F9000F31FE857FD4F1F739081907C192B10832E
:100FA00019821A826CE00E94561B9CE0899FB00156
:100FB000112440E050E09A01260F371FF901EE0F8F
:100FC000FF1F2E0F3F1FF901E857FD4F908196FD3F
:100FD00016C04F5F5F4F4C30510569F781110FC04C
:100FE0001092800082E08093810010928500109220
:100FF0008400B19A80916F00826080936F00E881D5
:10100000F0E0CF01880F991FE80FF91FE857FD4F57
:101010008081806480838881DF91CF911F910895C2
:10102000FC01909187029C30A0F481E0890F8093AD
:1010300087029083892F90E0FC01EE0FFF1F8E0F37
:101040009F1FFC01E857FD4F88EB9BE09283818353
:1010500008958FEF808308951F920F920FB60F921D
:1010600011242F933F934F935F936F937F938F93AD
:101070009F93AF93BF93EF93FF938091860287FF77
:1010800005C010928500109284001BC0209186023A
:10109000022E000C330B8091870290E0281739074D
:1010A00084F480918602082E000C990BFC01EE0F4F
:1010B000FF1F8E0F9F1FFC01E857FD4F808186FDAB
:1010C00015C0809186028F5F8093860220918602F0
:1010D000022E000C330B8091870290E0281739070D
:1010E000C4F4809186028C3064F113C08091860232
:1010F000082E000C990BFC01EE0FFF1F8E0F9F1F97
:10110000FC01E857FD4F808160E08F730E94850CE1
:10111000D8CF8091840090918500049680349C49BA
:1011200018F480E49CE905C08091840090918500CA
:10113000049690938900809388008FEF80938602B5
:101140003BC0209184003091850080918602082E5A
:10115000000C990BFC01EE0FFF1F8E0F9F1FFC016F
:10116000E857FD4F81819281820F931F90938900F0
:101170008093880080918602082E000C990BFC0158
:10118000EE0FFF1F8E0F9F1FFC01E857FD4F808160
:1011900086FF12C080918602082E000C990BFC017C
:1011A000EE0FFF1F8E0F9F1FFC01E857FD4F808140
:1011B00061E08F730E94850CFF91EF91BF91AF9119
:1011C0009F918F917F916F915F914F913F912F915F
:1011D0000F900FBE0F901F901895FC01838591E032
:1011E00090934703809369031092480310926A0317
:1011F00088E094E00E94360281E00C94DB0ACF92F2
:10120000DF92EF92FF92CF93DF93EC0160E40E94B4
:10121000ED088B85909146039111FCCF91E090935E
:101220004603909345032FEF20934403109243030A
:1012300023E0209342039093210390912103880F90
:10124000892B8093210380912003813061F41092D7
:101250002003809121038093BB008091BC0083FD1B
:10126000F8CF85EC01C085EE8093BC0080914603E9
:101270008130E1F380914303843018F4809143037B
:1012800001C084E0A2E2B3E02CEA32E0F9019E2F33
:10129000921B981718F49D919193F9CF10929F018A
:1012A00080939E0188E094E00E94EA01F82E88E095
:1012B00094E00E94EA01C12CD12CDF2C8C299D29BD
:1012C0006C01990FEE08FF0888E094E00E94EA01A3
:1012D00088E094E00E94EA018881882341F0662733
:1012E0007727CB016C197D098E099F0902C0C701C0
:1012F000B601DF91CF91FF90EF90DF90CF900895EE
:10130000CF93DF93CDB7DEB7E0970FB6F894DEBF8B
:101310000FBECDBF98E1E4E3F1E0DE015996019004
:101320000D929A95E1F798E1ECE4F1E0DE01119677
:1013300001900D929A95E1F781508C30E0F490E0A5
:101340002091A4013091A501880F991FE1E0F0E000
:10135000EC0FFD1FE80FF91F662329F0808D918D9A
:10136000822B932B04C080819181822393239093BD
:10137000A5018093A401E0960FB6F894DEBF0FBEDE
:10138000CDBFDF91CF9108950C9418170C941017CE
:101390006DE275E084E394E00E942D076BE876E04F
:1013A00087E394E00C942D076BE876E084E394E007
:1013B0000E942D076DE275E087E394E00C942D0701
:1013C000CF92DF92EF92FF92CF93DF936BE876E0BC
:1013D00084E394E00E942D076BE876E087E394E0D5
:1013E0000E942D070E94420D709353026093520297
:1013F000C0915002D09151022196D0935102C093D6
:1014000050020E94420D6B017C0170934F02609369
:101410004E026A9778F00E94420DEE24FF24DC0110
:10142000CB018C199D09AE09BF0989389341A105EB
:10143000B10518F4109208020DC081E080930802F3
:1014400010924F0210924E020E94420D70930A02B7
:1014500060930902DF91CF91FF90EF90DF90CF90E2
:10146000089580E10E94F10C909307028093060298
:101470008FE00E94F10C90930102809300028EE0B5
:101480000E94F10C9093FD018093FC018091040275
:10149000909105022091020230910302821B930B6E
:1014A00020910602309107022817390710F461E0F5
:1014B00001C060E08CE00E9480098091FE01909163
:1014C000FF012091020230910302821B930B2091B5
:1014D0000002309101022817390710F461E001C0C1
:1014E00060E089E00E9480098091FA019091FB01FF
:1014F0002091020230910302821B930B2091FC0188
:101500003091FD012817390710F461E001C060E057
:1015100086E00C9480093FB7F89480913F04909145
:101520004004A0914104B091420426B5A89B05C097
:101530002F3F19F00196A11DB11D3FBFBA2FA92F52
:10154000982F8827820F911DA11DB11DBC01CD01CF
:1015500042E0660F771F881F991F4A95D1F70895BB
:10156000CF92DF92EF92FF920F931F93CF93DF936F
:101570006C017A018B01C0E0D0E0CE15DF0589F067
:10158000D8016D918D01D601ED91FC910190F08112
:10159000E02DC6010995892B11F47E0102C0219628
:1015A000ECCFC701DF91CF911F910F91FF90EF908A
:1015B000DF90CF900895382F20916A0390916903AE
:1015C000213208F049C0809146038111FCCF42E0EE
:1015D00040934603309345033FEF3093440310920A
:1015E000430320934203A9E4B3E042E253E0FA014B
:1015F0003E2F341B321718F43D913193F9CF1092DE
:10160000210320912103990F922B90932103909114
:101610002003913061F41092200390912103909364
:10162000BB009091BC0093FDF8CF95EC01C095EE06
:101630009093BC00909146039230E1F39091440363
:101640009F3F79F080914403803241F080914403C0
:10165000803331F084E005C081E003C082E001C046
:1016600083E01092480310926A0310924703089592
:10167000CF93DF93EC018091430490914404009751
:1016800019F06BE40E94ED08D0934404C093430426
:101690008CE599EEAEE5BCE389839A83AB83BC838A
:1016A00085E59AE2AFE0B6E38D839E83AF83B8878A
:1016B00088E090E09A87898781E08093470380E300
:1016C000809369031092480310926A036DE488E0E6
:1016D00094E00E9436026B857C85660F771F88E058
:1016E00094E00E94360281E00E94DB0A6AE4CE01A7
:1016F000DF91CF910C94ED08009769F0FC01019007
:101700000020E9F73197AF01481B590BBC018BE66C
:1017100093E00C94B00A80E090E008958F929F923D
:10172000AF92BF920F931F93CF93DF93CDB7DEB7E6
:10173000A1970FB6F894DEBF0FBECDBF19A24230FD
:1017400008F44AE08E010F5D1F4F842E912CA12CCE
:10175000B12CA50194010E945817E62FB901CA01C6
:1017600001501109EA3014F4E05D01C0E95CD801D0
:10177000EC93232B242B252B61F7C8010E947C0BB3
:10178000A1960FB6F894DEBF0FBECDBFDF91CF910B
:101790001F910F91BF90AF909F908F900895CF921F
:1017A000DF92EF92FF92CF93DF936B017C01E09188
:1017B0006B03F0916C030190F081E02D6DE28BE6FC
:1017C00093E00995EC0166277727CB016C197D0919
:1017D0008E099F094AE00E948E0B8C0F9D1FDF919E
:1017E000CF91FF90EF90DF90CF9008951F920F92CE
:1017F0000FB60F9211242F933F934F935F936F93E4
:101800007F938F939F93AF93BF93EF93FF938091B9
:101810001E0390911F038093B20080911A03909150
:101820001B03A0911C03B0911D030196A11DB11DC6
:1018300080931A0390931B03A0931C03B0931D0382
:1018400040911A0350911B0360911C0370911D037A
:101850008091160390911703A0911803B09119037A
:10186000481759076A077B07B0F08091150381116B
:1018700012C081E08093150310921A0310921B038B
:1018800010921C0310921D03E0911303F0911403B6
:10189000099510921503FF91EF91BF91AF919F9120
:1018A0008F917F916F915F914F913F912F910F9009
:1018B0000FBE0F901F901895833081F028F481306F
:1018C00099F08230A1F008958730A9F08830B9F0FE
:1018D0008430D1F4809180008F7D03C0809180009E
:1018E0008F7780938000089584B58F7702C084B588
:1018F0008F7D84BD08958091B0008F7703C0809163
:10190000B0008F7D8093B00008951F93CF93DF9335
:10191000282F30E0F901E05DFE4F8491F901E45E8B
:10192000FE4FD491F901E85FFE4FC491CC23C9F07A
:10193000162F81110E945C0CEC2FF0E0EE0FFF1FC0
:10194000E250FF4FA591B4918FB7F894111105C0E3
:101950009C91ED2FE095E92302C0EC91ED2BEC93E7
:101960008FBFDF91CF911F910895CF93DF9390E0C8
:10197000FC01E45EFE4F2491FC01E85FFE4F849180
:10198000882361F190E0880F991FFC01EC50FF4F14
:10199000C591D491FC01E250FF4FA591B491611122
:1019A00009C09FB7F8948881209582238883EC91A1
:1019B0002E230BC0623061F49FB7F8943881822FD8
:1019C000809583238883EC912E2B2C939FBF06C098
:1019D0008FB7F894E8812E2B28838FBFDF91CF91AA
:1019E00008958E3008F08E508770806480937C005C
:1019F00080917A00806480937A0080917A0086FDDD
:101A0000FCCF809178002091790090E0922B08958E
:101A10008F929F92AF92BF92CF92DF92EF92FF92FE
:101A20006B017C010E948B0A4B015C01C114D10443
:101A3000E104F104F1F00E948B0ADC01CB0188196A
:101A40009909AA09BB09883E9340A105B10570F325
:101A500021E0C21AD108E108F10888EE880E83E07F
:101A6000981EA11CB11CC114D104E104F10419F7A2
:101A7000DDCFFF90EF90DF90CF90BF90AF909F9021
:101A80008F9008952FB7F89460913B0470913C04B7
:101A900080913D0490913E042FBF08951F920F92B4
:101AA0000FB60F9211242F933F938F939F93AF9371
:101AB000BF9380913B0490913C04A0913D04B09170
:101AC0003E0430913A0423E0230F2D3720F4019691
:101AD000A11DB11D05C026E8230F0296A11DB11D51
:101AE00020933A0480933B0490933C04A0933D04DC
:101AF000B0933E0480913F0490914004A091410432
:101B0000B09142040196A11DB11D80933F049093B2
:101B10004004A0934104B0934204BF91AF919F91C0
:101B20008F913F912F910F900FBE0F901F9018959E
:101B3000CF92DF92EF92FF920F931F93E82FF92F2E
:101B400005C0015011092109310961F190819623E5
:101B50009417B9F305C0015011092109310911F198
:101B6000908196239413F7CFC12CD12CE12CF12C2A
:101B70000AC08FEFC81AD80AE80AF80A0C151D0522
:101B80002E053F0579F080818623841791F36C2D13
:101B90007D2D8E2D9F2D1F910F91FF90EF90DF9047
:101BA000CF90089560E070E080E090E01F910F9189
:101BB000FF90EF90DF90CF900895789484B5826085
:101BC00084BD84B5816084BD85B5826085BD85B5E1
:101BD000816085BD80916E00816080936E0010925F
:101BE00081008091810082608093810080918100DA
:101BF000816080938100809180008160809380006B
:101C00008091B10084608093B1008091B0008160C8
:101C10008093B00080917A00846080937A008091F4
:101C20007A00826080937A0080917A00816080934C
:101C30007A0080917A00806880937A001092C100C7
:101C400010929F0110929E011092480310926A0315
:101C500010924603C1E0C09345031092200361E057
:101C600082E10E94850C61E083E10E94850C8091F5
:101C7000B9008E7F8093B9008091B9008D7F8093E9
:101C8000B90088E48093B80085E48093BC00E091BB
:101C90007B03F0917C0382E08083E0917703F091F5
:101CA00078031082E0917903F0917A038FEC8083BE
:101CB00010928303E0917F03F091800386E080839C
:101CC000E0917D03F0917E03808180618083E091CB
:101CD0007D03F0917E03808188608083E0917D03A5
:101CE000F0917E03808180688083E0917D03F09194
:101CF0007E0380818F7D808387E090E09093F9015F
:101D00008093F8011092F7011092F601C093F5014B
:101D10008DE0809302018FEF809300011092DA0131
:101D20001092CD0181E090E09093AA018093A901E7
:101D300082E090E09093AC018093AB0184E090E06E
:101D40009093AE018093AD0188E090E09093B00154
:101D50008093AF0180E190E09093B2018093B10154
:101D600080E290E09093B4018093B30180E490E02E
:101D70009093B6018093B50180E890E09093B8010C
:101D80008093B70180E091E09093BA018093B9010C
:101D900080E092E09093BC018093BB0180E094E0EE
:101DA0009093BE018093BD0180E098E09093C001C4
:101DB0008093BF018FE08093010180EF8093F40155
:101DC0008093E7011092CE011092C1011092D801C8
:101DD0001092CB0120E22093DB0180EA8093E8019E
:101DE0008093F20180E88093E5011092CF01109278
:101DF000C2011092D0011092C3012093DD0190E640
:101E00009093E9019093EA0190E49093DC01509162
:101E1000EB011092C4014091EC011092C50130E138
:101E20003093DF0150695093EB0140694093EC011E
:101E30008093DE011092D3011092C6011092D4015A
:101E40001092C7013093E10140E54093ED014093CA
:101E5000EE019093E0011092D5011092C80110920A
:101E6000D6011092C9013093E30130E33093EF01C2
:101E70003093F0012093E2011092D7011092CA0131
:101E80001092D9011092CC019093E60190EC9093BE
:101E9000F1019093F3018093E4018091F801909116
:101EA000F901089720F51092A8016091F80170914E
:101EB000F90180E090E00E94B8179B01AC0160E05E
:101EC00070E080E090E40E941E180E946E180E944C
:101ED00089177093F9016093F8018091F80190914E
:101EE000F90120EF822790958093F40122C0C093DE
:101EF000A8016091F8017091F9016850710980E0C2
:101F000090E00E94B8179B01AC0160E070E080E0B7
:101F100090E40E941E180E946E180E948917709308
:101F2000F9016093F8018091F8019091F901809393
:101F3000DA0180910D0290910E02892B09F081C087
:101F400081E090E090930E0280930D0226E030E055
:101F50003093A7012093A6011092A5011092A4012D
:101F60001092A3011092A201409116035091170301
:101F70006091180370911903452B462B472B89F06C
:101F80009093A3018093A201809113039091140375
:101F90009093A1018093A001809170008E7F809327
:101FA0007000809170008E7F809370008091B000EF
:101FB0008C7F8093B0008091B100877F8093B100C7
:101FC0008091B6008F7D8093B600809170008D7FE8
:101FD000809370008091B10084608093B100809103
:101FE000B1008C7F8093B1008AEF90E090931F0343
:101FF00080931E0382E090E0A0E0B0E0809316039F
:1020000090931703A0931803B093190389E692E005
:10201000909314038093130310921A0310921B03DE
:1020200010921C0310921D031092150380911E0341
:1020300090911F038093B200809170008160809323
:10204000700061E083E00E94B50C61E083E00E94D3
:10205000850C61E082E00E94B50C60E083E00E94A4
:10206000B50C61E088E00E94B50C68E070E087E3A1
:1020700094E00E94B40761E089E00E94B50C69E039
:1020800070E084E394E00E94B40761E08AE00E947B
:10209000B50C6AE070E081E394E00E94B40761E06F
:1020A0008BE00E94B50C6BE070E08EE294E00E9441
:1020B000B40760E08CE00E94B50C84E194E00E94DB
:1020C000380B1092140481E294E00E94380B81E0F6
:1020D0008093210460E08EE00E94B50C60E08FE008
:1020E0000E94B50C60E080E10E94B50C86E990E0AA
:1020F000909303028093020280E090E00E94C60960
:10210000C82F8093160281E090E00E94C609809358
:1021100015022C2F30E0A901582B50930502409353
:10212000040282E090E00E94C609C82F8093160244
:1021300081E090E00E94C609809315022C2F30E0C8
:10214000F901F82BF0931402E093130284E090E07D
:102150000E94C609C82F8093160281E090E00E9479
:10216000C609809315022C2F30E0A901582B5093FB
:10217000FF014093FE0186E090E00E94C609C82F4F
:102180008093160281E090E00E94C60980931502B8
:102190002C2F30E0F901F82BF0931202E09311029A
:1021A00088E090E00E94C609C82F8093160281E063
:1021B00090E00E94C609809315022C2F30E0A901FF
:1021C000582B5093FB014093FA018AE090E00E9463
:1021D000C609C82F8093160281E090E00E94C609CC
:1021E000809315022C2F30E0F901F82BF0931002A8
:1021F000E0930F028CE090E00E94C609C82F809304
:1022000016028DE090E00E94C609282F80931502E7
:102210008C2F90E0922BA0E0B0E080932F0290935F
:102220003002A0933102B09332028EE090E00E941F
:10223000C609C82F809316028FE090E00E94C6095D
:10224000282F809315028C2F90E0922BA0E0B0E015
:102250008093290290932A02A0932B02B0932C0220
:1022600022242394312C74E0872E912CA12CB12CA4
:10227000E3E2CE2ED12CF2E0EF2EF12C0E94420DA3
:10228000009148021091490220914A0230914B027C
:10229000DC01CB01801B910BA20BB30B893B9B4054
:1022A000A105B10518F081E08093470280910B02EF
:1022B00090910C02892B29F180914602811123C053
:1022C00081E08093460280914402909145020196FC
:1022D0008770992790934502809344020E94420D93
:1022E000609348027093490280934A0290934B0294
:1022F0001092470210924302109242021092410241
:1023000002C010924602ECE3F1E08491E8E2F1E0D1
:10231000C491E4E1F1E0D491DD2379F081110E94D0
:102320005C0CED2FF0E0EE0FFF1FE651FF4FA59183
:10233000B4918C91C82381E009F480E0817080938E
:10234000060180914402909145028230910509F482
:1023500097C230F4009761F0019709F471C087C407
:102360008330910509F4D6C2049709F4A7C37FC44A
:102370000E94310A61E082E00E94850CC60101974B
:10238000F1F760E082E00E94850CEFE1F1E06491FA
:10239000EBE0F1E08491E82FF0E0EE0FFF1FE65153
:1023A000FF4F8591949100E117E220E030E0462F45
:1023B0000E94980D611571058105910539F0DC01C8
:1023C000CB010196A11DB11DBF7003C080E090E05C
:1023D000DC018093170290931802A0931902B09326
:1023E0001A026CED75E084E394E00E942D076CED19
:1023F00075E087E394E00E942D0767E370E081E3D6
:1024000094E00E94620762E370E08EE294E00E9432
:1024100062076AE484E194E00E94ED086AE481E2E4
:1024200094E00E94ED081092400210923F02109238
:102430003B0210923C0210923D0210923E0217C4E1
:1024400080914702882309F412C40E94310A84E172
:1024500094E00E94FF0860933702709338028093E3
:10246000390290933A0281E294E00E94FF0860935F
:10247000330270933402809335029093360288E8D9
:1024800091E00E947C0B609137027091380280913C
:10249000390290913A0297FF03C00E94CF0B03C00C
:1024A0004AE00E948E0B85E991E00E947C0B6091CE
:1024B000330270913402809135029091360297FF79
:1024C00003C00E94CF0B03C04AE00E948E0B8BE931
:1024D00091E00E947C0B80912F0290913002A0919C
:1024E0003102B0913202885F984FAF4FBF4F8034B6
:1024F000F6E09F07A105B10558F0853328E0920763
:10250000A105B10538F084E398E0A0E0B0E002C096
:1025100080E496E090932E0280932D028091290210
:1025200090912A02A0912B02B0912C02885F984FC3
:10253000AF4FBF4F803436E09307A105B10558F087
:10254000853348E09407A105B10538F084E398E0AD
:10255000A0E0B0E002C080E496E09093280280936F
:1025600027020E94420D2091090230910A02AB011C
:10257000BC01421B530B61097109413D5740610584
:10258000710510F0109208028091040190910501EC
:102590008130910521F0029709F4AFC06CC1009120
:1025A0000602109107026090020270900302C0912F
:1025B0000402D0910502C619D7090C171D07F8F4BB
:1025C0008091FE019091FF018619970920910002E8
:1025D000309101028217930708F09DC38091FA01A0
:1025E0009091FB01861997092091FC013091FD0122
:1025F0002817390708F08FC30E94E0098CC3C01761
:10260000D107E8F48091FE019091FF0186199709A6
:1026100020910002309101022817390780F480913F
:10262000FA019091FB01861997092091FC013091E4
:10263000FD012817390708F073C30E94D4090C174D
:102640001D07E0F58091FE019091FF018619970921
:1026500020910002309101022817390778F4809107
:10266000FA019091FB01861997092091FC013091A4
:10267000FD018217930710F40E94C8098091FE01A2
:102680009091FF0186199709209100023091010273
:102690002817390798F48091FA019091FB01861967
:1026A00097092091FC013091FD012817390730F47A
:1026B0000E94C809F0920501E0920401C017D107F9
:1026C000E0F48091FE019091FF0186199709209115
:1026D0000002309101028217930778F48091FA0189
:1026E0009091FB01861997092091FC013091FD0121
:1026F0008217930710F40E94E009009106021091DE
:1027000007026090020270900302C0910402D0910F
:102710000502C619D7090C171D07F8F48091FE01B0
:102720009091FF01861997092091000230910102D2
:102730008217930708F0F9C28091FA019091FB018A
:10274000861997092091FC013091FD01281739075E
:1027500008F0EBC20E94E009E8C2C017D107E8F414
:102760008091FE019091FF01861997092091000246
:10277000309101022817390780F48091FA01909175
:10278000FB01861997092091FC013091FD01281762
:10279000390708F0CFC20E94D4090C171D0708F0B2
:1027A0004BC08091FE019091FF01861997092091FD
:1027B0000002309101022817390778F48091FA015C
:1027C0009091FB01861997092091FC013091FD0140
:1027D0008217930710F40E94C8098091FE0190911E
:1027E000FF018619970920910002309101022817F4
:1027F000390710F58091FA019091FB01861997092C
:102800002091FC013091FD0128173907A8F46CEDE7
:1028100075E084E394E00E942D076CED75E087E39A
:1028200094E00E942D07809104019091050101968A
:102830009093050180930401C017D107E0F48091C3
:10284000FE019091FF0186199709209100023091B5
:1028500001028217930778F48091FA019091FB01AD
:10286000861997092091FC013091FD018217930789
:1028700010F40E94E0093092400220923F02F7C11A
:10288000C7E3D0E0BE0181E394E00E9462076AE002
:1028900070E080E090E00E94080D2196C837D105D5
:1028A00089F7C2E3D0E0BE018EE294E00E946207A5
:1028B0006AE070E080E090E00E94080D2196CC383C
:1028C000D10589F7CCE8D0E0BE018EE294E00E9409
:1028D00062076AE070E080E090E00E94080D2197B6
:1028E000C233D10589F7C8E7D0E0BE0181E394E0A7
:1028F0000E9462076AE070E080E090E00E94080DAC
:102900002197C733D10589F768EE73E080E090E046
:102910000E94080D80914702882309F4A8C1809184
:10292000430281111EC081E0809343021092050290
:10293000109204021092FF011092FE011092FB010E
:102940001092FA010E94420D6093230270932402B8
:102950008093250290932602109222021092210267
:1029600055C00E94420D0091230210912402209133
:10297000250230912602DC01CB01801B910BA20BBA
:10298000B30B85369105A105B10508F43FC00E943F
:10299000420D60932302709324028093250290934A
:1029A00026020E94310A2091040230910502809192
:1029B000060290910702820F931F90930502809365
:1029C00004022091FE013091FF018091000290915C
:1029D0000102820F931F9093FF018093FE012091CB
:1029E000FA013091FB018091FC019091FD01820F71
:1029F000931F9093FB018093FA01809121029091A3
:102A000022020196909322028093210220912102BA
:102A1000309122022431310509F049C0809104022D
:102A200090910502B9010E94621B462F6093040237
:102A3000709305028091FE019091FF01B9010E94FF
:102A4000621B7093FF016093FE018091FA019091E7
:102A5000FB01B9010E94621B7093FB016093FA01B4
:102A6000642F80E090E00E94C4096091050281E03B
:102A700090E00E94C4096091FE0184E090E00E9411
:102A8000C4096091FF0185E090E00E94C409609153
:102A9000FA0188E090E00E94C4096091FB0189E09E
:102AA00090E00E94C4091092450210924402E3E0B3
:102AB000F0E0F0934002E0933F02D9C080914702DA
:102AC000882309F4D4C080914302811124C081E09D
:102AD000809343026AE484E194E00E94ED086AE492
:102AE00081E294E00E94ED080E94420D609323026F
:102AF00070932402809325029093260268E077E089
:102B000084E394E00E942D0768E077E087E394E097
:102B10000E942D07A6C00E94420D00912302109131
:102B200024022091250230912602DC01CB01801B7A
:102B3000910BA20BB30B89389341A105B10508F4A1
:102B400090C06CED75E084E394E00E942D076CED7D
:102B500075E087E394E00E942D0784E194E00E94F1
:102B6000FF082B013C016093370270933802809379
:102B7000390290933A0281E294E00E94FF08609348
:102B800033027093340280933502909336026415B9
:102B9000750586059705ECF41092290210922A0219
:102BA00010922B0210922C02A3019201261B370BCC
:102BB000480B590BCA01B901A50194010E942617BF
:102BC00020932F023093300240933102509332020F
:102BD00018C06419750986099709A50194010E9416
:102BE00026172093290230932A0240932B025093F8
:102BF0002C0210922F021092300210923102109289
:102C00003202609129028EE090E00E94C409809116
:102C1000290290912A02A0912B02B0912C02692FD7
:102C20007A2F8B2F99278FE090E00E94C409609142
:102C30002F028CE090E00E94C40980912F029091B5
:102C40003002A0913102B0913202692F7A2F8B2F7E
:102C500099278DE090E00E94C409109245021092DD
:102C6000440284E090E09093400280933F020E94EF
:102C7000420D00911D0210911E0220911F02309101
:102C80002002DC01CB01801B910BA20BB30B853F13
:102C90009140A105B105E0F10E94420D60931D0233
:102CA00070931E0280931F0290932002C091030133
:102CB00081E0C827C09303016C2F0E9480096C2F0C
:102CC0008DE00E94850CC0911B02D0911C02DE0198
:102CD000AA0FBB1FA85FBE4FE0913F02F0914002D8
:102CE000EE0FFF1FE85DFE4F8D919C912081318199
:102CF0008223932361E0892B09F060E084E00E9445
:102D000080092196CF70DD27D0931C02C0931B024F
:102D10000E949E01B3CAC017D10708F473CC92CCAD
:102D20000C171D0708F49BCCC9CCC017D10708F4B9
:102D300017CD37CD0C171D0708F440CD7DCDEBE640
:102D4000F3E01382128288EE93E0A0E0B0E0848387
:102D50009583A683B78328E631E03183208325EC71
:102D600030E03587248724EC30E03787268720EC55
:102D700030E0318B208B21EC30E0338B228B22EC46
:102D800030E0358B248B26EC30E0378B268B118E90
:102D9000128E138E148EE8E0F4E013821282848384
:102DA0009583A683B7838AE791E09183808387E345
:102DB00094E00E94100884E394E00E94100881E3EC
:102DC00094E00E9410088EE294E00E941008809126
:102DD0000701E1E2F4E0282F30E0348723871082F6
:102DE0001182128213821482158216821782108633
:102DF00012861186E4E1F4E021E0280F30E0348708
:102E000023878E5F809307011082118212821382C2
:102E100014821582168217821086128611860895F2
:102E2000F999FECF92BD81BDF89A992780B5089592
:102E3000262FF999FECF1FBA92BD81BD20BD0FB6D6
:102E4000F894FA9AF99A0FBE01960895052E97FB09
:102E50001EF400940E943D1757FD07D00E9458179A
:102E600007FC03D04EF40C943D17509540953095D7
:102E700021953F4F4F4F5F4F0895909580957095E6
:102E800061957F4F8F4F9F4F08950E947A17A59F9E
:102E9000900DB49F900DA49F800D911D1124089555
:102EA000B7FF0C9445170E944517821B930B08959A
:102EB000A1E21A2EAA1BBB1BFD010DC0AA1FBB1F3E
:102EC000EE1FFF1FA217B307E407F50720F0A21BB0
:102ED000B30BE40BF50B661F771F881F991F1A941D
:102EE00069F760957095809590959B01AC01BD0147
:102EF000CF010895A29FB001B39FC001A39F700DA1
:102F0000811D1124911DB29F700D811D1124911DF1
:102F100008950E94FD1788F09F5798F0B92F9927C0
:102F2000B751B0F0E1F0660F771F881F991F1AF0B4
:102F3000BA95C9F714C0B13091F00E941718B1E0EA
:102F400008950C941718672F782F8827B85F39F0E9
:102F5000B93FCCF3869577956795B395D9F73EF44D
:102F600090958095709561957F4F8F4F9F4F0895F5
:102F7000E89409C097FB3EF4909580957095619513
:102F80007F4F8F4F9F4F9923A9F0F92F96E9BB27C9
:102F90009395F695879577956795B795F111F8CF45
:102FA000FAF4BB0F11F460FF1BC06F5F7F4F8F4FB0
:102FB0009F4F16C0882311F096E911C0772321F0A6
:102FC0009EE8872F762F05C0662371F096E8862F3E
:102FD00070E060E02AF09A95660F771F881FDAF795
:102FE000880F9695879597F9089557FD9058440F47
:102FF000551F59F05F3F71F04795880F97FB991F58
:1030000061F09F3F79F08795089512161306140614
:10301000551FF2CF4695F1DF08C0161617061806A1
:10302000991FF1CF86957105610508940895E8947C
:10303000BB2766277727CB0197F90895FA01EE0F92
:10304000FF1F309621053105A1F16115710561F46D
:103050008038BFE39B0749F168949038810561F09F
:103060008038BFEF9B0741F099234AF5FF3FE10508
:103070003105210519F1E8940894E795D901AA23AF
:1030800029F4AB2FBE2FF85FD0F310C0FF5F70F4B0
:10309000A695E0F7F73950F019F0FF3A38F49F772A
:1030A0009F930DD00F9007FC9058089546F00C9414
:1030B000FB1860E070E080E89FE308954FE79F779A
:1030C0005F934F933F932F930E946F192F913F91DE
:1030D0004F915F910E94EB190C949A180E94FD1772
:1030E000E8F09E37E8F09639B8F49E3848F4672F38
:1030F000782F8827985FF9CF869577956795939570
:103100009539D0F3B62FB1706B0F711D811D20F46E
:1031100087957795679593950C94D2180C94ED1834
:103120000C94181829F416F00C94CC180C94171859
:103130000C94FB180E94FD17A8F39638A0F707F827
:103140000F92E8942BE33AEA48EB5FE70E94011AFA
:103150000F920F920F924DB75EB70F920E94B71960
:10316000E8E6F0E00E94FE184F915F91EF91FF9129
:10317000E595EE1FFF1F49F0FE57E0684427EE0F6C
:10318000441FFA95E1F74195550B0E9431190F90B4
:1031900007FE0C942519089597F99F6780E870E061
:1031A00060E00895882371F4772321F09850872BED
:1031B000762F07C0662311F499270DC09051862BF6
:1031C00070E060E02AF09A95660F771F881FDAF7A3
:1031D000880F9695879597F908959F3F31F0915004
:1031E00020F4879577956795B795880F911D9695EB
:1031F000879597F908959FEF80EC0895DF93CF931B
:103200001F930F93FF92EF92DF927B018C016894E2
:1032100006C0DA2EEF010E94FE19FE01E894A59186
:103220002591359145915591A6F3EF010E94701AB1
:10323000FE019701A801DA9469F7DF90EF90FF9003
:103240000F911F91CF91DF9108959B01AC0160E038
:1032500070E080E89FE30C94C51A0C94CC180C9491
:10326000ED180E94FD17D8F39923C9F3940F511D4F
:10327000A3F39150504094F059F0882332F0660F38
:10328000771F881F91505040C1F79E3F51052CF782
:10329000880F911D9695879597F908955F3FACF03B
:1032A000983E9CF0BB27869577956795B79508F46F
:1032B000B1609395C1F7BB0F58F711F460FFE8CFE9
:1032C0006F5F7F4F8F4F9F4FE3CF0C94181816F00E
:1032D0000C94ED180C94FB1868940C94CC180E9474
:1032E000FD17A8F39923C1F3AEF3DF93CF931F9398
:1032F0000F93FF92C92FDD2788232AF02197660FAD
:10330000771F881FDAF720E030E040E85FEB9FE3AB
:10331000883920F0803E38F021968F770E94591A24
:10332000E0E9F0E004C00E94591AEDEBF0E00E94E1
:10333000FE188B01BE01EC01FB2E6F5771097595CC
:10334000771F880B990B0E94BA1728E132E741E3F7
:103350005FE30E94FE19AF2D9801AE01FF900F911F
:103360001F91CF91DF910E94701A0C94451BFA01B6
:10337000DC01AA0FBB1F9B01AC01BF5728F4222719
:1033800033274427507820C0B75190F4AB2F002446
:10339000469537952795011CA395D2F3002071F02F
:1033A000220F331F441FB395DAF30ED00C94581A32
:1033B00061307105A0E88A07B94630F49B01AC0181
:1033C0006627772788279078309621F020833183ED
:1033D0004283538308950E94FE190C94451B0E945A
:1033E000371B38F00E943E1B20F0952311F00C94FF
:1033F000CC180C94FB1811240C9418180E94F51783
:1034000070F3959FC1F3950F50E0551F629FF00137
:10341000729FBB27F00DB11D639FAA27F00DB11D50
:10342000AA1F649F6627B00DA11D661F829F2227D9
:10343000B00DA11D621F739FB00DA11D621F839F60
:10344000A00D611D221F749F3327A00D611D231F36
:10345000849F600D211D822F762F6A2F11249F5784
:1034600050409AF0F1F088234AF0EE0FFF1FBB1F87
:10347000661F771F881F91505040A9F79E3F510546
:1034800080F00C94CC180C9418185F3FE4F3983E2D
:10349000D4F3869577956795B795F795E7959F5FF0
:1034A000C1F7FE2B880F911D9695879597F9089582
:1034B0005058BB27AA270E94701A0C94451B0E94E3
:1034C000371B38F00E943E1B20F039F49F3F19F45F
:1034D00026F40C94FB180EF4E095E7FB0C94CC1842
:1034E000E92F0E94F51758F3BA176207730784078C
:1034F000950720F079F4A6F50C9417180EF4E095D2
:103500000B2EBA2FA02D0B01B90190010C01CA019D
:10351000A0011124FF27591B99F0593F50F4503E48
:1035200068F11A16F040A22F232F342F4427585F3A
:10353000F3CF469537952795A795F0405395C9F752
:103540007EF41F16BA0B620B730B840BBAF091500A
:10355000A1F0FF0FBB1F661F771F881FC2F70EC0A9
:10356000BA0F621F731F841F48F48795779567957C
:10357000B795F7959E3F08F0B0CF9395880F08F068
:103580009927EE0F9795879508950E94D91A0C9464
:10359000451B0E943E1B58F00E94371B40F029F447
:1035A0005F3F29F00C94CC1851110C9418180C940E
:1035B000FB180E94F51768F39923B1F3552391F393
:1035C000951B550BBB27AA2762177307840738F092
:1035D0009F5F5F4F220F331F441FAA1FA9F335D0EF
:1035E0000E2E3AF0E0E832D091505040E695001CA3
:1035F000CAF72BD0FE2F29D0660F771F881FBB1F5D
:10360000261737074807AB07B0E809F0BB0B802D3A
:10361000BF01FF2793585F4F3AF09E3F510578F066
:103620000C94CC180C9418185F3FE4F3983ED4F334
:10363000869577956795B795F7959F5FC9F7880F3A
:10364000911D9695879597F90895E1E0660F771F8C
:10365000881FBB1F621773078407BA0720F0621B1D
:10366000730B840BBA0BEE1F88F7E09508950024C6
:103670000A941616170618060906089500240A94D7
:1036800012161306140605060895092E0394000C5D
:1036900011F4882352F0BB0F40F4BF2B11F460FFEC
:1036A00004C06F5F7F4F8F4F9F4F0895991B79E044
:1036B00004C0991F961708F0961B881F7A95C9F7C2
:1036C00080950895AA1BBB1B51E107C0AA1FBB1F11
:1036D000A617B70710F0A61BB70B881F991F5A959E
:1036E000A9F780959095BC01CD010895EE0FFF1FBD
:1036F0000590F491E02D099481E090E0F8940C9409
:06370000811BF894FFCFCD
:10370600FFFF0D0101000110010002000400080086
:1037160010002000400080000001000200040008A4
:1037260000100020004000000000FF000F0F3333A0
:10373600AAAAFFFF010002000400080010002000F2
:10374600400080000001000200040008FEFFFDFFAB
:10375600FBFFF7FFEFFFDFFFBFFF7FFFFFFEFFFD72
:10376600FFFBFFF7000000003501B00ACD007C0129
:10377600FE00DC00F00000000000360206026602D1
:10378600DA01FE01EA01DB01456E636F646572735F
:0E379600204C3A20002C20523A20000D0A0050
:00000001FF
