:100000000C94A3000C94CB000C94CB000C94CB006C
:100010000C94CB000C94CB000C94CB000C94CB0034
:100020000C94CB000C9480090C94CB000C942C08FD
:100030000C94CB000C94CB000C94CB000C94CB0014
:100040000C942C0C0C94CB000C94CD050C94A705AF
:100050000C94CB000C94CB000C94CB000C94CB00F4
:100060000C94FF050C94CB0007634236B79BD8A7CE
:100070001A39685618AEBAAB558C1D3CB7CC5763CD
:10008000BD6DEDFD753EF6177231BF000000803F7B
:1000900008000000BE922449123EABAAAA2ABECD97
:1000A000CCCC4C3E00000080BEABAAAAAA3E000009
:1000B0000000BF000000803F000000000008417801
:1000C000D3BB4387D1133D190E3CC3BD4282AD2B38
:1000D0003E68EC8276BED98FE1A93E4C80EFFFBE30
:1000E00001C4FF7F3F00000000000000000023006B
:1000F0002600290000000000240027002A0000003C
:100100000000250028002B00040404040404040457
:1001100002020202020203030303030301020408B2
:100120001020408001020408102001020408102061
:1001300000000008000201000003040700000000A6
:1001400000000000341511241FBECFEFD8E0DEBF41
:10015000CDBF11E0A0E0B1E0E0E3F4E302C0059020
:100160000D92A83AB107D9F724E0A8EAB1E001C09E
:100170001D92A234B207E1F710E0C3EAD0E004C058
:100180002197FE010E940B1AC23AD107C9F70E94BB
:10019000BB0C0C94161A0C940000FC01538D448D7A
:1001A000252F30E0842F90E0821B930B541710F022
:1001B000CF96089501970895FC01918D828D98172F
:1001C00061F0828DDF01A80FB11D5D968C91928D3B
:1001D0009F5F9F73928F90E008958FEF9FEF089538
:1001E000FC01918D828D981731F0828DE80FF11D01
:1001F000858D90E008958FEF9FEF0895FC01918D1C
:10020000228D892F90E0805C9F4F821B91098F7314
:100210009927089588E693E00E94FE0021E0892B4B
:1002200009F420E0822F0895FC01848DDF01A80FDE
:10023000B11DA35ABF4F2C91848D90E001968F730E
:100240009927848FA689B7892C93A089B1898C912D
:1002500080648C93938D848D981306C00288F389F3
:10026000E02D80818F7D80830895EF92FF920F9320
:100270001F93CF93DF93EC0181E0888F9B8D8C8D52
:10028000981305C0E889F989808185FD24C0F62E80
:100290000B8D10E00F5F1F4F0F731127E02E8C8D19
:1002A000E8120CC00FB607FCFACFE889F989808103
:1002B00085FFF5CFCE010E941401F1CF8B8DFE0199
:1002C000E80FF11DE35AFF4FF0820B8FEA89FB899B
:1002D0008081806207C0EE89FF896083E889F9899F
:1002E00080818064808381E090E0DF91CF911F91D5
:1002F0000F91FF90EF900895CF93DF93EC01888DDD
:100300008823C9F0EA89FB89808185FD05C0A88919
:10031000B9898C9186FD0FC00FB607FCF5CF80819F
:1003200085FFF2CFA889B9898C9185FFEDCFCE01E9
:100330000E941401E7CFDF91CF91089580E090E013
:10034000892B29F00E940A0181110C940000089564
:1003500085ED8093BC008091BC0084FDFCCF1092A1
:10036000430308954091F802262F30E0240F311DF9
:1003700021323105DCF4209143032430C9F4FC011F
:1003800080E090E0861758F43091F8022191DC016A
:10039000AA52BD4FA30FB11D2C930196F3CF8091AC
:1003A000F802680F6093F80280E0089581E00895F4
:1003B00082E008950895E091A9018091A801E817CD
:1003C00030F4F0E0EA54FD4F808190E008958FEF23
:1003D0009FEF08959091A9018091A801981750F47A
:1003E000E92FF0E0EA54FD4F208130E09F5F9093C9
:1003F000A90102C02FEF3FEFC90108958091A80124
:1004000090E02091A901821B91090895CF92DF927B
:10041000EF92FF920F931F93CF93DF937C01262FD0
:10042000972F8A0180914403882391F0C62FD72FFC
:100430006E01C40ED51ECC15DD0571F06991D70192
:10044000ED91FC910190F081E02DC7010995F3CF6A
:10045000642F822F0E94B201C801DF91CF911F91BA
:100460000F91FF90EF90DF90CF900895CF93DF939F
:100470001F92CDB7DEB76983209144032223D1F0C8
:1004800020916703203240F021E030E0FC0133830B
:10049000228380E090E015C080914503E82FF0E0D2
:1004A000EA5BFC4F998190838F5F80934503809333
:1004B000670305C061E0CE0101960E94B20181E0B0
:1004C00090E00F90DF91CF910895089580E090E043
:1004D00008958091B9019091BA01892B29F0E0919A
:1004E000B101F091B20109959AB18091010189237E
:1004F0008AB99BB18091010189238BB994B1809114
:100500000001892384B995B180910001892385B9BF
:1005100080918E0290918F0240910C02892B09F0FC
:10052000E0C08091BD019091BE0190938F028093B5
:100530008E022091BB013091BC01E0918D02F0E070
:10054000EE0FFF1FE054FE4F8081918182239323A1
:10055000892B89F020918D0230E080910201082ED4
:10056000000C990B0197841B910947FD9395821705
:1005700093070CF0B8C280910C02882309F49DC047
:1005800080E590E090938C0280938B0220918D0205
:1005900030E080910201082E000C990B019728177A
:1005A000390709F08AC0E0918D022BB1F0E0EE50DE
:1005B000FE4F8081082E000C990B822B8BB9E091A5
:1005C0008D022AB1F0E0E150FE4F8081082E000C30
:1005D000990B822B8AB9E0918D0225B1F0E0E852A7
:1005E000FE4F8081082E000C990B822B85B9E0917B
:1005F0008D0224B1F0E0EB51FE4F8081082E000CFB
:10060000990B822B84B98091BF01882311F023B10B
:1006100001C029B180910F02909110028223809332
:100620008A0280911F0290912002892B29F18091EA
:100630008A02811105C0109289021092880239C085
:10064000109287021092860280918802909189020E
:1006500001969093890280938802809188029091FC
:100660008902499750F11092200210921F021092B5
:1006700089021092880221C080918A021092890218
:1006800010928802811115C0809186029091870294
:1006900001969093870280938602809186029091C2
:1006A0008702499750F081E090E090932002809378
:1006B0001F02109287021092860280918D028F5F36
:1006C00080938D0220918D0230E080910201082EEE
:1006D000000C990B821793070CF0C1C010928D0289
:1006E000BEC0442309F4BBC080E590E090938C0227
:1006F00080938B0220910D0230910E0280910201B5
:10070000082E000C990B01972817390709F08EC0A5
:10071000E0910D02F0910E022BB1EE50FE4F808160
:10072000082E000C990B822B8BB9E0910D02F091F1
:100730000E022AB1E150FE4F8081082E000C990B69
:10074000822B8AB9E0910D02F0910E0225B1E85298
:10075000FE4F8081082E000C990B822B85B9E09109
:100760000D02F0910E0224B1EB51FE4F8081082E54
:10077000000C990B822B84B98091BF01882311F062
:1007800023B101C029B180910F0290911002822300
:1007900080938A0280911F0290912002892B29F177
:1007A00080918A02811105C01092890210928802FC
:1007B00039C010928702109286028091880290912F
:1007C0008902019690938902809388028091880221
:1007D00090918902499750F11092200210921F02C5
:1007E000109289021092880221C080918A02109290
:1007F000890210928802811115C080918602909121
:1008000087020196909387028093860280918602E8
:1008100090918702499750F081E090E090932002F8
:1008200080931F02109287021092860280910D021F
:1008300090910E02019690930E0280930D022091EA
:100840000D0230910E0280910201082E000C990BCE
:100850008217930720F410920E0210920D028091DD
:100860008E0290918F02019790938F0280938E0257
:100870008091840290918502019709F529B18091B8
:100880008202909183028223809381029091800260
:100890008917A9F08093800280917C0290917D025B
:1008A000A0917E02B0917F020196A11DB11D80939F
:1008B0007C0290937D02A0937E02B0937F02809190
:1008C000840290918502029709F523B180918202FA
:1008D00090918302822380938102909180028917F4
:1008E000A9F08093800280917C0290917D02A0917A
:1008F0007E02B0917F020196A11DB11D80937C0202
:1009000090937D02A0937E02B0937F0280917A0241
:1009100090917B02019709F529B18091780290911D
:100920007902822380937702909176028917A9F049
:10093000809376028091720290917302A09174026A
:10094000B09175020196A11DB11D80937202909322
:100950007302A0937402B093750280917A02909111
:100960007B02029709F523B1809178029091790278
:10097000822380937702909176028917A9F0809361
:1009800076028091720290917302A0917402B091EC
:1009900075020196A11DB11D80937202909373029E
:1009A000A0937402B09375028091700290917102CD
:1009B000019709F529B180916E0290916F0282230F
:1009C00080936D0290916C028917A9F080936C025C
:1009D0008091680290916902A0916A02B0916B02C5
:1009E0000196A11DB11D8093680290936902A093A6
:1009F0006A02B0936B02809170029091710202972B
:100A000009F523B180916E0290916F028223809349
:100A10006D0290916C028917A9F080936C0280910D
:100A2000680290916902A0916A02B0916B020196EE
:100A3000A11DB11D8093680290936902A0936A0280
:100A4000B0936B028091660290916702019709F55D
:100A500029B18091640290916502822380936302A0
:100A6000909162028917A9F08093620280915E02E0
:100A700090915F02A0916002B09161020196A11D68
:100A8000B11D80935E0290935F02A0936002B093C9
:100A900061028091660290916702029709F054C04A
:100AA00023B1809164029091650282238093630256
:100AB00090916202891709F447C080936202809185
:100AC0005E0290915F02A0916002B0916102019676
:100AD000A11DB11D80935E0290935F02A0936002FE
:100AE000B09361020895E0918D022BB1F0E0EE50D9
:100AF000FE4F8081082E000C990B822B8BB9E09160
:100B00008D022AB1F0E0E150FE4F8081082E000CEA
:100B1000990B822B8AB9E0918D0225B1F0E0E85261
:100B2000FE4F8081082E000C990B822B85B9E09135
:100B30008D0224B1F0E0EB51FE4F8081082E000CB5
:100B4000990B822B84B917CD08950E94111A1F9218
:100B50000F920FB60F9211242F933F934F935F93F1
:100B60006F937F938F939F93AF93BF93EF93FF9375
:100B700088E693E00E941401FF91EF91BF91AF913D
:100B80009F918F917F916F915F914F913F912F91A5
:100B90000F900FBE0F901F9018951F920F920FB6D7
:100BA0000F9211242F938F939F93EF93FF93E091D4
:100BB0007803F09179038081E0917E03F0917F03C7
:100BC00082FD12C09081809181038F5F8F7320918D
:100BD0008203821751F0E0918103F0E0E859FC4F65
:100BE000958F8093810301C08081FF91EF919F9148
:100BF0008F912F910F900FBE0F901F9018951F92FD
:100C00000F920FB60F9211242F933F934F935F9340
:100C10006F937F938F939F93AF93BF93EF93FF93C4
:100C20008091B900887F803609F49CC068F58832CD
:100C300009F45BC090F4803109F454C038F488237F
:100C400009F4F6C0883009F44DC0F6C0883109F4C3
:100C50004CC0803209F45DC0EFC0803409F468C034
:100C600048F4803309F455C0883309F0E5C0809317
:100C70004103D8C0803509F44FC0883509F45DC000
:100C8000883409F0D9C0D6C0883909F4C7C0A8F49F
:100C9000883709F467C038F4883609F463C08037B0
:100CA00009F460C0C9C0883809F4B8C0803909F4B3
:100CB0005FC0803809F0C0C05BC0803B09F486C0CB
:100CC00038F4803A09F466C0883A09F47FC0B4C0A9
:100CD000803C09F4A7C0883C09F4A4C0883B09F40F
:100CE0008AC0AAC080911E0310C0909140038091D9
:100CF0003F03981770F5E091400381E08E0F8093D9
:100D00004003F0E0E15EFC4F80818093BB0085EC06
:100D100086C0809341038EC0E091400381E08E0F36
:100D2000809340038091BB00F0E0E15EFC4F808344
:100D30009091400380913F036EC0E091400381E0B9
:100D40008E0F809340038091BB00F0E0E15EFC4F8A
:100D500080838091420381116DC081E080931D03E7
:100D600084EA61C083E08093430310921C03CFCFD9
:100D700080911C03803208F051C0E0911C0381E097
:100D80008E0F80931C038091BB00F0E0E450FD4F78
:100D90008083BDCF85EC8093BC001092430380918B
:100DA0001C03803230F4E0911C03F0E0E450FD4F6E
:100DB000108260911C0370E0E091FA02F091FB0256
:100DC0008CEF92E0099510921C0336C084E080936A
:100DD00043031092F9021092F802E091F602F091AA
:100DE000F70209958091F802811105C081E0809396
:100DF000F8021092D602E091F90281E08E0F809302
:100E0000F902F0E0EA52FD4F80818093BB0090919F
:100E1000F9028091F802981708F479CF85E8809359
:100E2000BC000AC085EC8093BC001092430304C050
:100E3000109241030E94A801FF91EF91BF91AF91E1
:100E40009F918F917F916F915F914F913F912F91E2
:100E50000F900FBE0F901F901895FC0190819C3051
:100E600080F5818128E830E0281B310987FD339522
:100E7000220F331F220F331F621773077CF082810A
:100E800028E532E0281B310987FD3395220F331FF7
:100E9000220F331F621773070CF49B012250310994
:100EA000220F331F4FB7F894892F90E0FC01EE0F0B
:100EB000FF1F8E0F9F1FFC01EE56FD4F32832183D3
:100EC0004FBF0895CF92DF92EF92FF92CF93DF93BF
:100ED000EC01603282E078070CF03DC077FD06C07F
:100EE000653B71052CF064EB70E002C060E070E0DF
:100EF000898128E830E06901C81AD10887FDD394B8
:100F0000CC0CDD1CCC0CDD1C0D2C000CEE08FF08FD
:100F10008A8128E532E0281B310987FD3395220FAD
:100F2000331F220F331FC901330FAA0BBB0B9C01C8
:100F3000AD012C193D094E095F09DB010E94E51541
:100F400024EB30E040E050E00E94BB15C20ED31EFF
:100F5000E41EF51EB601CE01DF91CF91FF90EF9018
:100F6000DF90CF900C942D071F93CF93DF93EC016C
:100F7000162F88818C3008F04EC061E0812F0E94CE
:100F8000CD0B8881E82FF0E09F01220F331FE20F85
:100F9000F31FEE56FD4F1F739081907C192B108329
:100FA00019821A826CE00E94EB199CE0899FB001C3
:100FB000112440E050E09A01260F371FF901EE0F8F
:100FC000FF1F2E0F3F1FF901EE56FD4F908196FD3A
:100FD00016C04F5F5F4F4C30510569F781110FC04C
:100FE0001092800082E08093810010928500109220
:100FF0008400B19A80916F00826080936F00E881D5
:10100000F0E0CF01880F991FE80FF91FEE56FD4F52
:101010008081806480838881DF91CF911F910895C2
:10102000FC01909191029C30A0F481E0890F8093A3
:1010300091029083892F90E0FC01EE0FFF1F8E0F2D
:101040009F1FFC01EE56FD4F88EB9BE0928381834E
:1010500008958FEF808308951F920F920FB60F921D
:1010600011242F933F934F935F936F937F938F93AD
:101070009F93AF93BF93EF93FF938091900287FF6D
:1010800005C010928500109284001BC02091900230
:10109000022E000C330B8091910290E02817390743
:1010A00084F480919002082E000C990BFC01EE0F45
:1010B000FF1F8E0F9F1FFC01EE56FD4F808186FDA6
:1010C00015C0809190028F5F8093900220919002D2
:1010D000022E000C330B8091910290E02817390703
:1010E000C4F4809190028C3064F113C0809190021E
:1010F000082E000C990BFC01EE0FFF1F8E0F9F1F97
:10110000FC01EE56FD4F808160E08F730E949D0BC5
:10111000D8CF8091840090918500049680349C49BA
:1011200018F480E49CE905C08091840090918500CA
:10113000049690938900809388008FEF80939002AB
:101140003BC0209184003091850080919002082E50
:10115000000C990BFC01EE0FFF1F8E0F9F1FFC016F
:10116000EE56FD4F81819281820F931F90938900EB
:101170008093880080919002082E000C990BFC014E
:10118000EE0FFF1F8E0F9F1FFC01EE56FD4F80815B
:1011900086FF12C080919002082E000C990BFC0172
:1011A000EE0FFF1F8E0F9F1FFC01EE56FD4F80813B
:1011B00061E08F730E949D0BFF91EF91BF91AF9102
:1011C0009F918F917F916F915F914F913F912F915F
:1011D0000F900FBE0F901F901895FC01838591E032
:1011E0009093440380936603109245031092670323
:1011F00085E094E00E94360281E00C94B30ACF921D
:10120000DF92EF92FF92CF93DF93EC0160E40E94B4
:10121000ED088B85909143039111FCCF91E0909361
:101220004303909342032FEF209341031092400316
:1012300023E020933F0390931E0390911E03880F99
:10124000892B80931E0380911D03813061F41092DD
:101250001D0380911E038093BB008091BC0083FD21
:10126000F8CF85EC01C085EE8093BC0080914303EC
:101270008130E1F380914003843018F48091400381
:1012800001C084E0AFE1B3E026EB32E0F9019E2F2C
:10129000921B981718F49D919193F9CF1092A90180
:1012A0008093A80185E094E00E94EA01F82E85E091
:1012B00094E00E94EA01C12CD12CDF2C8C299D29BD
:1012C0006C01990FEE08FF0885E094E00E94EA01A6
:1012D00085E094E00E94EA018881882341F0662736
:1012E0007727CB016C197D098E099F0902C0C701C0
:1012F000B601DF91CF91FF90EF90DF90CF900895EE
:101300001F920F920FB60F9211242F933F934F937A
:101310005F936F937F938F939F93AF93BF93EF935D
:10132000FF938091AF019091B0018093B2008091C2
:10133000AB019091AC01A091AD01B091AE010196CD
:10134000A11DB11D8093AB019093AC01A093AD01A1
:10135000B093AE014091AB015091AC016091AD01F1
:101360007091AE018091B5019091B601A091B70145
:10137000B091B801481759076A077B07B0F0809110
:10138000AA01811112C081E08093AA011092AB01E1
:101390001092AC011092AD011092AE01E091B30138
:1013A000F091B40109951092AA01FF91EF91BF91BC
:1013B000AF919F918F917F916F915F914F913F91ED
:1013C0002F910F900FBE0F901F901895CF93DF9322
:1013D000CDB7DEB7E0970FB6F894DEBF0FBECDBF36
:1013E00098E1E2E3F1E0DE01599601900D929A95C1
:1013F000E1F798E1EAE4F1E0DE01119601900D9247
:101400009A95E1F781508C30E0F490E02091BB0197
:101410003091BC01880F991FE1E0F0E0EC0FFD1F57
:10142000E80FF91F662329F0808D918D822B932B75
:1014300004C080819181822393239093BC01809387
:10144000BB01E0960FB6F894DEBF0FBECDBFDF91B3
:10145000CF9108950C94AD150C94A51580E10E94D0
:10146000090C90931E0280931D028FE00E94090CCC
:1014700090931802809317028EE00E94090C9093BB
:1014800014028093130280911B0290911C02209100
:10149000190230911A02821B930B20911D02309188
:1014A0001E022817390710F461E001C060E08CE0EB
:1014B0000E94E6098091150290911602209119026E
:1014C00030911A02821B930B20911702309118025F
:1014D0002817390710F461E001C060E089E00E943C
:1014E000E609809111029091120220911902309127
:1014F0001A02821B930B20911302309114022817B9
:10150000390710F461E001C060E086E00C94E60960
:10151000CF92DF92EF92FF920F931F93CF93DF93BF
:101520006C017A018B01C0E0D0E0CE15DF0589F0B7
:10153000D8016D918D01D601ED91FC910190F08162
:10154000E02DC6010995892B11F47E0102C0219678
:10155000ECCFC701DF91CF911F910F91FF90EF90DA
:10156000DF90CF900895382F209167039091660304
:10157000213208F049C0809143038111FCCF42E041
:1015800040934303309342033FEF30934103109263
:10159000400320933F03A6E4B3E04FE153E0FA0198
:1015A0003E2F341B321718F43D913193F9CF10922E
:1015B0001E0320911E03990F922B90931E0390916E
:1015C0001D03913061F410921D0390911E039093BE
:1015D000BB009091BC0093FDF8CF95EC01C095EE57
:1015E0009093BC00909143039230E1F390914103BA
:1015F0009F3F79F080914103803241F08091410317
:10160000803331F084E005C081E003C082E001C096
:1016100083E01092450310926703109244030895EB
:10162000CF93DF93EC0180914004909141040097A7
:1016300019F06BE40E94ED08D0934104C09340047C
:101640008CE599EEAEE5BCE389839A83AB83BC83DA
:1016500085E59AE2AFE0B6E38D839E83AF83B887DA
:1016600088E090E09A87898781E08093440380E353
:101670008093660310924503109267036DE485E042
:1016800094E00E9436026B857C85660F771F85E0AB
:1016900094E00E94360281E00E94B30A6AE4CE011F
:1016A000DF91CF910C94ED08009769F0FC01019057
:1016B0000020E9F73197AF01481B590BBC0188E6C0
:1016C00093E00C94880A80E090E00895CF93DF9334
:1016D0000E94540BEC0185EA91E00E94540B8C0FA0
:1016E0009D1FDF91CF910895833081F028F48130E0
:1016F00099F08230A1F008958730A9F08830B9F0D0
:101700008430D1F4809180008F7D03C0809180006F
:101710008F7780938000089584B58F7702C084B559
:101720008F7D84BD08958091B0008F7703C0809134
:10173000B0008F7D8093B00008951F93CF93DF9307
:10174000282F30E0F901E05DFE4F8491F901E45E5D
:10175000FE4FD491F901E85FFE4FC491CC23C9F04C
:10176000162F81110E94740BEC2FF0E0EE0FFF1F7B
:10177000E250FF4FA591B4918FB7F894111105C0B5
:101780009C91ED2FE095E92302C0EC91ED2BEC93B9
:101790008FBFDF91CF911F910895CF93DF9390E09A
:1017A000FC01E45EFE4F2491FC01E85FFE4F849152
:1017B000882361F190E0880F991FFC01EC50FF4FE6
:1017C000C591D491FC01E250FF4FA591B4916111F4
:1017D00009C09FB7F8948881209582238883EC9173
:1017E0002E230BC0623061F49FB7F8943881822FAA
:1017F000809583238883EC912E2B2C939FBF06C06A
:101800008FB7F894E8812E2B28838FBFDF91CF917B
:1018100008958E3008F08E508770806480937C002D
:1018200080917A00806480937A0080917A0086FDAE
:10183000FCCF809178002091790090E0922B089560
:101840002FB7F89460913C0470913D0480913E0460
:1018500090913F042FBF08951F920F920FB60F92E1
:1018600011242F933F938F939F93AF93BF938091B6
:101870003C0490913D04A0913E04B0913F0430910E
:101880003B0423E0230F2D3720F40196A11DB11D49
:1018900005C026E8230F0296A11DB11D20933B042D
:1018A00080933C0490933D04A0933E04B0933F0486
:1018B0008091370490913804A0913904B0913A0492
:1018C0000196A11DB11D8093370490933804A09315
:1018D0003904B0933A04BF91AF919F918F913F919A
:1018E0002F910F900FBE0F901F901895CF92DF92FF
:1018F000EF92FF920F931F93E82FF92F05C001502D
:1019000011092109310961F1908196239417B9F3E6
:1019100005C0015011092109310911F19081962367
:101920009413F7CFC12CD12CE12CF12C0AC08FEFEE
:10193000C81AD80AE80AF80A0C151D052E053F0535
:1019400079F080818623841791F36C2D7D2D8E2D67
:101950009F2D1F910F91FF90EF90DF90CF900895F2
:1019600060E070E080E090E01F910F91FF90EF90B9
:10197000DF90CF900895CF93DF93CDB7DEB7A197D7
:101980000FB6F894DEBF0FBECDBF789484B58260E9
:1019900084BD84B5816084BD85B5826085BD85B513
:1019A000816085BD80916E00816080936E00109291
:1019B000810080918100826080938100809181000C
:1019C000816080938100809180008160809380009D
:1019D0008091B10084608093B1008091B0008160FB
:1019E0008093B00080917A00846080937A00809127
:1019F0007A00826080937A0080917A00816080937F
:101A00007A0080917A00806880937A001092C100F9
:101A10001092A9011092A801109245031092670339
:101A20001092430311E01093420310921D0361E0F2
:101A300082E10E949D0B61E083E10E949D0B8091F9
:101A4000B9008E7F8093B9008091B9008D7F80931B
:101A5000B90088E48093B80085E48093BC00E091ED
:101A60007803F091790382E08083E0917403F09130
:101A700075031082E0917603F09177038FEC8083F9
:101A800010928003E0917C03F0917D0386E08083D7
:101A9000E0917A03F0917B03808180618083E09103
:101AA0007A03F0917B03808188608083E0917A03E0
:101AB000F0917B03808180688083E0917A03F091CC
:101AC0007B0380818F7D808387E090E0909310027C
:101AD00080930F0210920E0210920D0210930C02CE
:101AE0008DE0809302018FEF809300011092F1014D
:101AF0001092E40181E090E09093C1018093C001D5
:101B000082E090E09093C3018093C20184E090E072
:101B10009093C5018093C40188E090E09093C70141
:101B20008093C60180E190E09093C9018093C80141
:101B300080E290E09093CB018093CA0180E490E032
:101B40009093CD018093CC0180E890E09093CF01F9
:101B50008093CE0180E091E09093D1018093D001F9
:101B600080E092E09093D3018093D20180E094E0F2
:101B70009093D5018093D40180E098E09093D701B1
:101B80008093D6018FE08093010180EF80930B0258
:101B90008093FE011092E5011092D8011092EF019E
:101BA0001092E20120E22093F20180EA8093FF018B
:101BB0008093090280E88093FC011092E601109264
:101BC000D9011092E7011092DA012093F40190E616
:101BD000909300029093010290E49093F30150914E
:101BE00002021092DB01409103021092DC0130E10D
:101BF0003093F6015069509302024069409303020A
:101C00008093F5011092EA011092DD011092EB0130
:101C10001092DE013093F80140E5409304024093B6
:101C200005029093F7011092EC011092DF011092DF
:101C3000ED011092E0013093FA0130E33093060297
:101C4000309307022093F9011092EE011092E10106
:101C50001092F0011092E3019093FD0190EC9093AB
:101C6000080290930A028093FB0180910F029091E9
:101C70001002089720F51092BF0160910F02709139
:101C8000100280E090E00E944D169B01AC0160E0E4
:101C900070E080E090E40E94B3160E9403170E9457
:101CA0001E167093100260930F0280910F029091A4
:101CB000100220EF8227909580930B0222C0109390
:101CC000BF0160910F02709110026850710980E0AD
:101CD00090E00E944D169B01AC0160E070E080E056
:101CE00090E40E94B3160E9403170E941E16709380
:101CF000100260930F0280910F0290911002809366
:101D0000F1018091210290912202892B09F081C07A
:101D100081E090E0909322028093210226E030E05F
:101D20003093BE012093BD011092BC011092BB0103
:101D30001092BA011092B9014091B5015091B601CB
:101D40006091B7017091B801452B462B472B89F064
:101D50009093BA018093B9018091B3019091B4013D
:101D60009093B2018093B101809170008E7F809337
:101D70007000809170008E7F809370008091B00021
:101D80008C7F8093B0008091B100877F8093B100F9
:101D90008091B6008F7D8093B600809170008D7F1A
:101DA000809370008091B10084608093B100809135
:101DB000B1008C7F8093B1008AEF90E09093B001E6
:101DC0008093AF0182E090E0A0E0B0E08093B501A5
:101DD0009093B601A093B701B093B80189E692E061
:101DE0009093B4018093B3011092AB011092AC01B7
:101DF0001092AD011092AE011092AA018091AF0134
:101E00009091B0018093B2008091700081608093C6
:101E1000700061E082E00E94CD0B60E083E00E94F0
:101E2000CD0B61E088E00E94CD0B68E070E084E3B8
:101E300094E00E94B40761E089E00E94CD0B69E064
:101E400070E081E394E00E94B40761E08AE00E94C0
:101E5000CD0B6AE070E08EE294E00E94B40761E08E
:101E60008BE00E94CD0B6BE070E08BE294E00E946F
:101E7000B40760E08CE00E94CD0B81E194E00E9409
:101E8000100B109211048EE194E00E94100B81E07F
:101E900080931E0460E08EE00E94CD0B60E08FE036
:101EA0000E94CD0B60E080E10E94CD0B86E990E0BE
:101EB00090931A028093190280E090E00E942C0A0D
:101EC000182F8093240281E090E00E942C0A8093D6
:101ED0002302212F30E0A901582B50931C0240937C
:101EE0001B0282E090E00E942C0A182F80932402AB
:101EF00081E090E00E942C0A80932302212F30E0A1
:101F0000F901F82BF0934202E093410284E090E063
:101F10000E942C0A182F8093240281E090E00E94F6
:101F20002C0A80932302212F30E0A901582B5093D3
:101F300016024093150286E090E00E942C0A182FAA
:101F40008093240281E090E00E942C0A8093230277
:101F5000212F30E0F901F82BF0934002E0933F028B
:101F600088E090E00E942C0A182F8093240281E0E0
:101F700090E00E942C0A80932302212F30E0A901D7
:101F8000582B50931202409311028AE090E00E9475
:101F90002C0A182F8093240281E090E00E942C0AE2
:101FA00080932302212F30E0F901F82BF0933E02B9
:101FB000E0933D028CE090E00E942C0A182F809361
:101FC00024028DE090E00E942C0A282F80932302A7
:101FD000812F90E0922BA0E0B0E080934B02909391
:101FE0004C02A0934D02B0934E028EE090E00E940E
:101FF0002C0A182F809324028FE090E00E942C0A74
:10200000282F80932302812F90E0922BA0E0B0E054
:102010008093450290934602A0934702B0934802F2
:1020200074E0472E512C612C712CEFE12E2EE1E053
:102030003E2EFAE08F2E912CA12CB12C0E94200C68
:10204000009158021091590220915A0230915B027E
:10205000DC01CB01801B910BA20BB30B893B9B4096
:10206000A105B10518F081E08093570280911F020D
:1020700090912002892B29F180915602811123C071
:1020800081E080935602809154029091550201960E
:102090008770992790935502809354020E94200CD8
:1020A000609358027093590280935A0290935B0296
:1020B0001092570210925302109252021092510243
:1020C00002C010925602ECE3F1E08491E8E2F1E004
:1020D0001491E4E1F1E00491002379F081110E9470
:1020E000740BE02FF0E0EE0FFF1FE651FF4FA591BC
:1020F000B4918C91182381E009F480E08170809381
:10210000040180915402909155028230910509F4A6
:10211000AEC130F4009761F0019709F469C024C49E
:102120008330910509F477C2049709F444C31CC4B1
:102130000E942E0A61E082E00E949D0B83E290E003
:102140000197F1F760E082E00E949D0BF10164913C
:10215000EBE0F1E08491E82FF0E0EE0FFF1FE65195
:10216000FF4F8591949100E117E220E030E0462F87
:102170000E94760C611571058105910539F0DC012D
:10218000CB010196A11DB11DBF7003C080E090E09E
:10219000DC018093250290932602A0932702B0933E
:1021A00028026CED75E081E394E00E942D076CED50
:1021B00075E084E394E00E942D0767E370E08EE20F
:1021C00094E00E9462076AE570E08BE294E00E946E
:1021D00062076AE481E194E00E94ED086AE48EE11E
:1021E00094E00E94ED081092500210924F02BCC37E
:1021F00080915702882309F4B7C30E942E0A809168
:102200004B0290914C02A0914D02B0914E02885F1A
:10221000984FAF4FBF4F8034F6E09F07A105B1053F
:1022200060F0853328E09207A105B10520F084E332
:1022300098E0A0E0B0E0BC0102C060E476E07093FA
:102240004A02609349028091450290914602A09112
:102250004702B0914802885F984FAF4FBF4F80341C
:1022600036E09307A105B10560F0853348E0940797
:10227000A105B10520F084E398E0A0E0B0E08C0176
:1022800002C000E416E01093440200934302209140
:10229000190230911A0280911B0290911C02821B3C
:1022A000930B40911D0250911E024817590738F5B3
:1022B0008091150290911602821B930B4091170298
:1022C0005091180284179507D0F4809111029091D3
:1022D0001202821B930B20911302309114022817D3
:1022E000390768F481E394E00E942D07B80184E384
:1022F00094E00E942D0786E891E00E94660B2091F1
:10230000190230911A0280911B0290911C02821BCB
:10231000930B40911D0250911E028417950760F5A2
:102320008091150290911602821B930B4091170227
:102330005091180248175907F8F4809111029091B2
:102340001202821B930B2091130230911402281762
:10235000390790F46091490270914A0281E394E058
:102360000E942D076CED75E084E394E00E942D0738
:102370008EE891E00E94660B2091190230911A02BA
:1023800080911B0290911C02821B930B40911D02B5
:1023900050911E024817590760F5809115029091DF
:1023A0001602821B930B4091170250911802481796
:1023B0005907F8F48091110290911202821B930B3D
:1023C00020911302309114028217930790F46CED60
:1023D00075E081E394E00E942D07609143027091C3
:1023E000440284E394E00E942D0783E991E00E9477
:1023F000660B2091190230911A0280911B02909174
:102400001C02821B930B40911D0250911E02481723
:10241000590750F58091150290911602821B930B7B
:10242000409117025091180248175907E8F480911B
:10243000110290911202821B930B20911302309192
:1024400014022817390780F46CED75E081E394E0FD
:102450000E942D076CED75E084E394E00E942D0747
:1024600089E991E00E94660B81E090E079C2809159
:102470005702882309F478C28091530281111EC04B
:1024800081E0809353021092420210924102109216
:10249000400210923F0210923E0210923D020E94B2
:1024A000200C6093390270933A0280933B02909320
:1024B0003C02109238021092370255C00E94200C44
:1024C0000091390210913A0220913B0230913C0276
:1024D000DC01CB01801B910BA20BB30B8536910560
:1024E000A105B10508F43FC00E94200C6093390299
:1024F00070933A0280933B0290933C020E942E0A12
:10250000209141023091420280911D0290911E0261
:10251000820F931F909342028093410220913F02C9
:10252000309140028091170290911802820F931F00
:102530009093400280933F0220913D0230913E02F1
:102540008091130290911402820F931F90933E0288
:1025500080933D02809137029091380201969093CA
:1025600038028093370220913702309138022431AB
:10257000310509F049C08091410290914202B901B0
:102580000E94F719462F6093410270934202809196
:102590003F0290914002B9010E94F71970934002E6
:1025A00060933F0280913D0290913E02B9010E94EA
:1025B000F71970933E0260933D02642F82E090E031
:1025C0000E942A0A6091420283E090E00E942A0A57
:1025D00060913F0286E090E00E942A0A60914002EA
:1025E00087E090E00E942A0A60913D028AE090E034
:1025F0000E942A0A60913E028BE090E00E942A0A23
:102600001092550210925402E2E0F0E0F093500272
:10261000E0934F02A9C180915702882309F4A4C115
:102620008091530281111EC081E080935302109269
:102630001C0210921B0210921602109215021092A8
:102640001202109211020E94200C609339027093C2
:102650003A0280933B0290933C021092380210920F
:10266000370255C00E94200C0091390210913A02A5
:1026700020913B0230913C02DC01CB01801B910B8D
:10268000A20BB30B85369105A105B10508F43FC037
:102690000E94200C6093390270933A0280933B02AF
:1026A00090933C020E942E0A20911B0230911C0242
:1026B00080911D0290911E02820F931F90931C0225
:1026C00080931B022091150230911602809117020F
:1026D00090911802820F931F909316028093150217
:1026E00020911102309112028091130290911402F4
:1026F000820F931F909312028093110280913702F0
:10270000909138020196909338028093370220917D
:102710003702309138022431310509F049C08091E7
:102720001B0290911C02B9010E94F719462F609379
:102730001B0270931C028091150290911602B90140
:102740000E94F7197093160260931502809111028E
:1027500090911202B9010E94F719709312026093CE
:102760001102642F80E090E00E942A0A60911C020E
:1027700081E090E00E942A0A6091150284E090E0D6
:102780000E942A0A6091160285E090E00E942A0ABF
:102790006091110288E090E00E942A0A6091120282
:1027A00089E090E00E942A0A109255021092540289
:1027B00083E090E0D5C080915702882309F4D4C00B
:1027C00080915302811124C081E0809353026AE416
:1027D00081E194E00E94ED086AE48EE194E00E94B9
:1027E000ED080E94200C6093390270933A028093A6
:1027F0003B0290933C0268E077E081E394E00E9422
:102800002D0768E077E084E394E00E942D07A6C0DE
:102810000E94200C0091390210913A0220913B0253
:1028200030913C02DC01CB01801B910BA20BB30B5E
:1028300089389341A105B10508F490C06CED75E0AD
:1028400081E394E00E942D076CED75E084E394E051
:102850000E942D0781E194E00E94FF086B017C013A
:102860006093330270933402809335029093360262
:102870008EE194E00E94FF0860932F027093300273
:1028800080933102909332026C157D058E059F0571
:10289000ECF41092450210924602109247021092F8
:1028A0004802A7019601261B370B480B590BCA019A
:1028B000B901A30192010E94BB1520934B023093F2
:1028C0004C0240934D0250934E0218C06C197D0982
:1028D0008E099F09A30192010E94BB152093450216
:1028E00030934602409347025093480210924B02A5
:1028F00010924C0210924D0210924E0260914502CD
:102900008EE090E00E942A0A809145029091460252
:10291000A0914702B0914802692F7A2F8B2F9927F7
:102920008FE090E00E942A0A60914B028CE090E0D8
:102930000E942A0A80914B0290914C02A0914D0274
:10294000B0914E02692F7A2F8B2F99278DE090E05E
:102950000E942A0A109255021092540284E090E0DC
:102960009093500280934F020E94200C00912B0202
:1029700010912C0220912D0230912E02DC01CB010E
:10298000801B910BA20BB30B853F9140A105B105B4
:1029900008F467C00E94200C60932B0270932C02F5
:1029A00080932D0290932E028EE991E00E94540BA9
:1029B000E0914F02F0915002EE0FFF1FEA5DFE4FD3
:1029C0002081318140E050E019A28E010F5D1F4F40
:1029D000CA01B901A50194010E94ED15605DF801DD
:1029E00062938F01211531054105510589F7CF010A
:1029F0000E94540B85EA91E00E94540B1091030150
:102A000081E0182710930301612F0E94E609612FCE
:102A10008DE00E949D0B0091290210912A02D8019D
:102A2000AA0FBB1FAA5FBE4FE0914F02F091500268
:102A3000EE0FFF1FEA5DFE4F2D913C918081918149
:102A40008223932361E0892B09F060E084E00E94F7
:102A5000E6090F5F1F4F0F70112710932A02009392
:102A600029020E949E01EACAE8E6F3E0138212827C
:102A700088EE93E0A0E0B0E084839583A683B783DB
:102A800026E631E03183208325EC30E0358724874A
:102A900024EC30E03787268720EC30E0318B208B28
:102AA00021EC30E0338B228B22EC30E0358B248B11
:102AB00026EC30E0378B268B118E128E138E148EFF
:102AC000E5E0F4E01382128284839583A683B783C2
:102AD00088E791E09183808384E394E00E9410086A
:102AE00081E394E00E9410088EE294E00E941008B6
:102AF0008BE294E00E94100880910501EEE1F4E081
:102B0000282F30E0348723871082118212821382AB
:102B10001482158216821782108612861186E1E1D0
:102B2000F4E021E0280F30E0348723878E5F809324
:102B3000050110821182128213821482158216827C
:102B400017821086128611860895F999FECF92BDDC
:102B500081BDF89A992780B50895262FF999FECF5F
:102B60001FBA92BD81BD20BD0FB6F894FA9AF99AAA
:102B70000FBE01960895052E97FB1EF400940E9447
:102B8000D21557FD07D00E94ED1507FC03D04EF477
:102B90000C94D21550954095309521953F4F4F4F4D
:102BA0005F4F089590958095709561957F4F8F4FF9
:102BB0009F4F08950E940F16A59F900DB49F900DF2
:102BC000A49F800D911D11240895B7FF0C94DA1570
:102BD0000E94DA15821B930B0895A1E21A2EAA1BFC
:102BE000BB1BFD010DC0AA1FBB1FEE1FFF1FA217BD
:102BF000B307E407F50720F0A21BB30BE40BF50BBA
:102C0000661F771F881F991F1A9469F76095709542
:102C1000809590959B01AC01BD01CF010895A29FC5
:102C2000B001B39FC001A39F700D811D1124911DA0
:102C3000B29F700D811D1124911D08950E9492165E
:102C400088F09F5798F0B92F9927B751B0F0E1F06D
:102C5000660F771F881F991F1AF0BA95C9F714C01D
:102C6000B13091F00E94AC16B1E008950C94AC160E
:102C7000672F782F8827B85F39F0B93FCCF3869556
:102C800077956795B395D9F73EF4909580957095B3
:102C900061957F4F8F4F9F4F0895E89409C097FB30
:102CA0003EF490958095709561957F4F8F4F9F4F23
:102CB0009923A9F0F92F96E9BB279395F695879567
:102CC00077956795B795F111F8CFFAF4BB0F11F42A
:102CD00060FF1BC06F5F7F4F8F4F9F4F16C08823D1
:102CE00011F096E911C0772321F09EE8872F762F07
:102CF00005C0662371F096E8862F70E060E02AF048
:102D00009A95660F771F881FDAF7880F9695879533
:102D100097F9089557FD9058440F551F59F05F3F9C
:102D200071F04795880F97FB991F61F09F3F79F0ED
:102D300087950895121613061406551FF2CF46956F
:102D4000F1DF08C0161617061806991FF1CF8695F1
:102D50007105610508940895E894BB2766277727D5
:102D6000CB0197F90895FA01EE0FFF1F3096210568
:102D70003105A1F16115710561F48038BFE39B074E
:102D800049F168949038810561F08038BFEF9B0766
:102D900041F099234AF5FF3FE1053105210519F17D
:102DA000E8940894E795D901AA2329F4AB2FBE2F04
:102DB000F85FD0F310C0FF5F70F4A695E0F7F73925
:102DC00050F019F0FF3A38F49F779F930DD00F9091
:102DD00007FC9058089546F00C94901760E070E05E
:102DE00080E89FE308954FE79F775F934F933F936A
:102DF0002F930E9404182F913F914F915F910E9451
:102E000080180C942F170E949216E8F09E37E8F075
:102E10009639B8F49E3848F4672F782F8827985F42
:102E2000F9CF86957795679593959539D0F3B62F19
:102E3000B1706B0F711D811D20F487957795679593
:102E400093950C9467170C9482170C94AD1629F483
:102E500016F00C9461170C94AC160C9490170E9409
:102E60009216A8F39638A0F707F80F92E8942BE390
:102E70003AEA48EB5FE70E9496180F920F920F9282
:102E80004DB75EB70F920E944C18E8E6F0E00E9442
:102E900093174F915F91EF91FF91E595EE1FFF1F03
:102EA00049F0FE57E0684427EE0F441FFA95E1F71A
:102EB0004195550B0E94C6170F9007FE0C94BA1748
:102EC000089597F99F6780E870E060E0089588238F
:102ED00071F4772321F09850872B762F07C0662353
:102EE00011F499270DC09051862B70E060E02AF014
:102EF0009A95660F771F881FDAF7880F9695879542
:102F000097F908959F3F31F0915020F48795779578
:102F10006795B795880F911D9695879597F90895B0
:102F20009FEF80EC0895DF93CF931F930F93FF9251
:102F3000EF92DF927B018C01689406C0DA2EEF01DC
:102F40000E949318FE01E894A59125913591459131
:102F50005591A6F3EF010E940519FE019701A80102
:102F6000DA9469F7DF90EF90FF900F911F91CF9166
:102F7000DF9108959B01AC0160E070E080E89FE381
:102F80000C945A190C9461170C9482170E94921693
:102F9000D8F39923C9F3940F511DA3F391505040D6
:102FA00094F059F0882332F0660F771F881F9150F4
:102FB0005040C1F79E3F51052CF7880F911D969503
:102FC000879597F908955F3FACF0983E9CF0BB273A
:102FD000869577956795B79508F4B1609395C1F795
:102FE000BB0F58F711F460FFE8CF6F5F7F4F8F4F33
:102FF0009F4FE3CF0C94AD1616F00C9482170C94EF
:10300000901768940C9461170E949216A8F3992364
:10301000C1F3AEF3DF93CF931F930F93FF92C92FAA
:10302000DD2788232AF02197660F771F881FDAF79C
:1030300020E030E040E85FEB9FE3883920F0803EFD
:1030400038F021968F770E94EE18E0E9F0E004C096
:103050000E94EE18EDEBF0E00E9493178B01BE0189
:10306000EC01FB2E6F5771097595771F880B990B33
:103070000E944F1628E132E741E35FE30E94931874
:10308000AF2D9801AE01FF900F911F91CF91DF916D
:103090000E9405190C94DA19FA01DC01AA0FBB1F72
:1030A0009B01AC01BF5728F42227332744275078CF
:1030B00020C0B75190F4AB2F002446953795279543
:1030C000011CA395D2F3002071F0220F331F441F7F
:1030D000B395DAF30ED00C94ED1861307105A0E8C9
:1030E0008A07B94630F49B01AC0166277727882709
:1030F0009078309621F02083318342835383089562
:103100000E9493180C94DA190E94CC1938F00E948E
:10311000D31920F0952311F00C9461170C9490179B
:1031200011240C94AD160E948A1670F3959FC1F37A
:10313000950F50E0551F629FF001729FBB27F00D65
:10314000B11D639FAA27F00DB11DAA1F649F6627BA
:10315000B00DA11D661F829F2227B00DA11D621F09
:10316000739FB00DA11D621F839FA00D611D221FC3
:10317000749F3327A00D611D231F849F600D211DA7
:10318000822F762F6A2F11249F5750409AF0F1F02A
:1031900088234AF0EE0FFF1FBB1F661F771F881F93
:1031A00091505040A9F79E3F510580F00C94611753
:1031B0000C94AD165F3FE4F3983ED4F38695779573
:1031C0006795B795F795E7959F5FC1F7FE2B880F39
:1031D000911D9695879597F908955058BB27AA2772
:1031E0000E9405190C94DA190E94CC1938F00E943B
:1031F000D31920F039F49F3F19F426F40C9490175A
:103200000EF4E095E7FB0C946117E92F0E948A16F3
:1032100058F3BA17620773078407950720F079F40B
:10322000A6F50C94AC160EF4E0950B2EBA2FA02D3B
:103230000B01B90190010C01CA01A0011124FF2763
:10324000591B99F0593F50F4503E68F11A16F0405E
:10325000A22F232F342F4427585FF3CF469537955D
:103260002795A795F0405395C9F77EF41F16BA0B22
:10327000620B730B840BBAF09150A1F0FF0FBB1FD0
:10328000661F771F881FC2F70EC0BA0F621F731F19
:10329000841F48F4879577956795B795F7959E3F76
:1032A00008F0B0CF9395880F08F09927EE0F979507
:1032B000879508950E946E190C94DA190E94D3190B
:1032C00058F00E94CC1940F029F45F3F29F00C948B
:1032D000611751110C94AD160C9490170E948A1628
:1032E00068F39923B1F3552391F3951B550BBB2735
:1032F000AA2762177307840738F09F5F5F4F220F7A
:10330000331F441FAA1FA9F335D00E2E3AF0E0E870
:1033100032D091505040E695001CCAF72BD0FE2FBA
:1033200029D0660F771F881FBB1F2617370748074E
:10333000AB07B0E809F0BB0B802DBF01FF27935806
:103340005F4F3AF09E3F510578F00C9461170C9452
:10335000AD165F3FE4F3983ED4F386957795679575
:10336000B795F7959F5FC9F7880F911D969587953B
:1033700097F90895E1E0660F771F881FBB1F62175A
:1033800073078407BA0720F0621B730B840BBA0B18
:10339000EE1F88F7E095089500240A941616170684
:1033A00018060906089500240A9412161306140636
:1033B00005060895092E0394000C11F4882352F099
:1033C000BB0F40F4BF2B11F460FF04C06F5F7F4F51
:1033D0008F4F9F4F0895991B79E004C0991F96174E
:1033E00008F0961B881F7A95C9F780950895AA1B47
:1033F000BB1B51E107C0AA1FBB1FA617B70710F0E0
:10340000A61BB70B881F991F5A95A9F78095909511
:10341000BC01CD010895EE0FFF1F0590F491E02D42
:10342000099481E090E0F8940C94161AF894FFCF78
:10343000FFFF0D0101100100020004000800100050
:10344000200040008000000100020004000800107D
:103450000020004000000000FF000F0F3333AAAA35
:10346000FFFF0100020004000800100020004000DF
:1034700080000001000200040008FEFFFDFFFBFFCA
:10348000F7FFEFFFDFFFBFFF7FFFFFFEFFFDFFFB4B
:10349000FFF7000000003501880ACD007C01FE0026
:1034A000DC00F00000000000360206026602DA01CD
:1034B000FE01EA01DB01466F7277617264004C65C0
:1034C00066740052696768740053746F70004D6FC2
:0834D00064653A20000D0A00BA
:00000001FF
