:100000000C94A3000C94CB000C94CB000C94CB006C
:100010000C94CB000C94CB000C94CB000C94CB0034
:100020000C94CB000C94620C0C94CB000C942C0818
:100030000C94CB000C94CB000C94CB000C94CB0014
:100040000C94BA0D0C94CB000C94CD050C94A70520
:100050000C94CB000C94CB000C94CB000C94CB00F4
:100060000C94FF050C94CB0007634236B79BD8A7CE
:100070001A39685618AEBAAB558C1D3CB7CC5763CD
:10008000BD6DEDFD753EF6177231BF000000803F7B
:1000900008000000BE922449123EABAAAA2ABECD97
:1000A000CCCC4C3E00000080BEABAAAAAA3E000009
:1000B0000000BF000000803F000000000008417801
:1000C000D3BB4387D1133D190E3CC3BD4282AD2B38
:1000D0003E68EC8276BED98FE1A93E4C80EFFFBE30
:1000E00001C4FF7F3F00000000000000000023006B
:1000F0002600290000000000240027002A0000003C
:100100000000250028002B00040404040404040457
:1001100002020202020203030303030301020408B2
:100120001020408001020408102001020408102061
:1001300000000008000201000003040700000000A6
:1001400000000000281711241FBECFEFD8E0DEBF4B
:10015000CDBF11E0A0E0B1E0E8E1F8E302C0059016
:100160000D92AC3BB107D9F724E0ACEBB1E001C094
:100170001D92AF36B207E1F710E0C3EAD0E004C049
:100180002197FE010E94FF1BC23AD107C9F70E94C6
:10019000490E0C940A1C0C940000FC01538D448DF4
:1001A000252F30E0842F90E0821B930B541710F022
:1001B000CF96089501970895FC01918D828D98172F
:1001C00061F0828DDF01A80FB11D5D968C91928D3B
:1001D0009F5F9F73928F90E008958FEF9FEF089538
:1001E000FC01918D828D981731F0828DE80FF11D01
:1001F000858D90E008958FEF9FEF0895FC01918D1C
:10020000228D892F90E0805C9F4F821B91098F7314
:100210009927089585E993E00E94FE0021E0892B4B
:1002200009F420E0822F0895FC01848DDF01A80FDE
:10023000B11DA35ABF4F2C91848D90E001968F730E
:100240009927848FA689B7892C93A089B1898C912D
:1002500080648C93938D848D981306C00288F389F3
:10026000E02D80818F7D80830895EF92FF920F9320
:100270001F93CF93DF93EC0181E0888F9B8D8C8D52
:10028000981305C0E889F989808185FD24C0F62E80
:100290000B8D10E00F5F1F4F0F731127E02E8C8D19
:1002A000E8120CC00FB607FCFACFE889F989808103
:1002B00085FFF5CFCE010E941401F1CF8B8DFE0199
:1002C000E80FF11DE35AFF4FF0820B8FEA89FB899B
:1002D0008081806207C0EE89FF896083E889F9899F
:1002E00080818064808381E090E0DF91CF911F91D5
:1002F0000F91FF90EF900895CF93DF93EC01888DDD
:100300008823C9F0EA89FB89808185FD05C0A88919
:10031000B9898C9186FD0FC00FB607FCF5CF80819F
:1003200085FFF2CFA889B9898C9185FFEDCFCE01E9
:100330000E941401E7CFDF91CF91089580E090E013
:10034000892B29F00E940A0181110C940000089564
:1003500085ED8093BC008091BC0084FDFCCF1092A1
:100360007003089540916002262F30E0240F311D64
:1003700021323105DCF4209170032430C9F4FC01F2
:1003800080E090E0861758F4309160022191DC0102
:10039000A25CBD4FA30FB11D2C930196F3CF8091AA
:1003A0006002680F6093600280E0089581E0089524
:1003B00082E008950895E091860280918502E81711
:1003C00030F4F0E0E25EFD4F808190E008958FEF21
:1003D0009FEF08959091860280918502981750F4BE
:1003E000E92FF0E0E25EFD4F208130E09F5F9093C7
:1003F000860202C02FEF3FEFC90108958091850268
:1004000090E020918602821B91090895CF92DF929D
:10041000EF92FF920F931F93CF93DF937C01262FD0
:10042000972F8A0180917103882391F0C62FD72FCF
:100430006E01C40ED51ECC15DD0571F06991D70192
:10044000ED91FC910190F081E02DC7010995F3CF6A
:10045000642F822F0E94B201C801DF91CF911F91BA
:100460000F91FF90EF90DF90CF900895CF93DF939F
:100470001F92CDB7DEB76983209171032223D1F09B
:1004800020919403203240F021E030E0FC013383DE
:10049000228380E090E015C080917203E82FF0E0A5
:1004A000ED58FC4F998190838F5F80937203809306
:1004B000940305C061E0CE0101960E94B20181E083
:1004C00090E00F90DF91CF910895089580E090E043
:1004D00008958091890290918A02892B29F0E091F8
:1004E0008702F091880209959AB1809101018923D0
:1004F0008AB99BB18091010189238BB994B1809114
:100500000001892384B995B180910001892385B9BF
:100510008091F6019091F7014091DC02892B09F05E
:10052000E0C080918D0290918E029093F7018093AC
:10053000F60120918B0230918C02E091F501F0E000
:10054000EE0FFF1FE057FD4F80819181822393239F
:10055000892B89F02091F50130E080910201082E6D
:10056000000C990B0197841B910947FD9395821705
:1005700093070CF0B8C28091DC02882309F49DC077
:1005800080E590E09093F4018093F3012091F501D0
:1005900030E080910201082E000C990B019728177A
:1005A000390709F08AC0E091F5012BB1F0E0EE5374
:1005B000FD4F8081082E000C990B822B8BB9E091A6
:1005C000F5012AB1F0E0E153FD4F8081082E000CC7
:1005D000990B822B8AB9E091F50125B1F0E0E8553D
:1005E000FD4F8081082E000C990B822B85B9E0917C
:1005F000F50124B1F0E0EB54FD4F8081082E000C92
:10060000990B822B84B980918F02882311F023B13A
:1006100001C029B18091DF029091E0028223809392
:10062000F2018091F6029091F702892B29F18091D5
:10063000F201811105C01092F1011092F00139C050
:100640001092EF011092EE018091F0019091F10172
:1006500001969093F1018093F0018091F0019091C7
:10066000F101499750F11092F7021092F6021092A0
:10067000F1011092F00121C08091F2011092F1017C
:100680001092F001811115C08091EE019091EF015F
:1006900001969093EF018093EE018091EE0190918D
:1006A000EF01499750F081E090E09093F70280933A
:1006B000F6021092EF011092EE018091F5018F5F2A
:1006C0008093F5012091F50130E080910201082E20
:1006D000000C990B821793070CF0C1C01092F50122
:1006E000BEC0442309F4BBC080E590E09093F401C0
:1006F0008093F3012091DD023091DE0280910201AE
:10070000082E000C990B01972817390709F08EC0A5
:10071000E091DD02F091DE022BB1EE53FD4F8081BE
:10072000082E000C990B822B8BB9E091DD02F09121
:10073000DE022AB1E153FD4F8081082E000C990B97
:10074000822B8AB9E091DD02F091DE0225B1E855F5
:10075000FD4F8081082E000C990B822B85B9E0910A
:10076000DD02F091DE0224B1EB54FD4F8081082EB2
:10077000000C990B822B84B980918F02882311F091
:1007800023B101C029B18091DF029091E002822360
:100790008093F2018091F6029091F702892B29F162
:1007A0008091F201811105C01092F1011092F001C7
:1007B00039C01092EF011092EE018091F0019091FA
:1007C000F10101969093F1018093F0018091F00185
:1007D0009091F101499750F11092F7021092F602B0
:1007E0001092F1011092F00121C08091F20110925B
:1007F000F1011092F001811115C08091EE019091EC
:10080000EF0101969093EF018093EE018091EE014C
:100810009091EF01499750F081E090E09093F702BA
:100820008093F6021092EF011092EE018091DD02AA
:100830009091DE0201969093DE028093DD0220917A
:10084000DD023091DE0280910201082E000C990B2E
:100850008217930720F41092DE021092DD0280913D
:10086000F6019091F70101979093F7018093F601BB
:100870008091EC019091ED01019709F529B18091EA
:10088000EA019091EB0182238093E9019091E801C4
:100890008917A9F08093E8018091E4019091E50126
:1008A000A091E601B091E7010196A11DB11D8093D1
:1008B000E4019093E501A093E601B093E7018091F4
:1008C000EC019091ED01029709F523B18091EA01C5
:1008D0009091EB0182238093E9019091E8018917BF
:1008E000A9F08093E8018091E4019091E501A09145
:1008F000E601B091E7010196A11DB11D8093E401CD
:100900009093E501A093E601B093E7018091E201A5
:100910009091E301019709F529B18091E00190914F
:10092000E10182238093DF019091DE018917A9F014
:100930008093DE018091DA019091DB01A091DC01CE
:10094000B091DD010196A11DB11D8093DA01909354
:10095000DB01A093DC01B093DD018091E201909175
:10096000E301029709F523B18091E0019091E10143
:1009700082238093DF019091DE018917A9F0809393
:10098000DE018091DA019091DB01A091DC01B09150
:10099000DD010196A11DB11D8093DA019093DB0169
:1009A000A093DC01B093DD018091D8019091D90131
:1009B000019709F529B18091D6019091D701822341
:1009C0008093D5019091D4018917A9F08093D40127
:1009D0008091D0019091D101A091D201B091D30129
:1009E0000196A11DB11D8093D0019093D101A093D8
:1009F000D201B093D3018091D8019091D90102978F
:100A000009F523B18091D6019091D701822380937B
:100A1000D5019091D4018917A9F08093D4018091D8
:100A2000D0019091D101A091D201B091D301019652
:100A3000A11DB11D8093D0019093D101A093D2014B
:100A4000B093D3018091CE019091CF01019709F528
:100A500029B18091CC019091CD0182238093CB016B
:100A60009091CA018917A9F08093CA018091C601AB
:100A70009091C701A091C801B091C9010196A11D33
:100A8000B11D8093C6019093C701A093C801B09394
:100A9000C9018091CE019091CF01029709F054C015
:100AA00023B18091CC019091CD0182238093CB0121
:100AB0009091CA01891709F447C08093CA018091B7
:100AC000C6019091C701A091C801B091C9010196DA
:100AD000A11DB11D8093C6019093C701A093C801C9
:100AE000B093C9010895E091F5012BB1F0E0EE5308
:100AF000FD4F8081082E000C990B822B8BB9E09161
:100B0000F5012AB1F0E0E153FD4F8081082E000C81
:100B1000990B822B8AB9E091F50125B1F0E0E855F7
:100B2000FD4F8081082E000C990B822B85B9E09136
:100B3000F50124B1F0E0EB54FD4F8081082E000C4C
:100B4000990B822B84B917CD08950E94051C1F9222
:100B50000F920FB60F9211242F933F934F935F93F1
:100B60006F937F938F939F93AF93BF93EF93FF9375
:100B700085E993E00E941401FF91EF91BF91AF913D
:100B80009F918F917F916F915F914F913F912F91A5
:100B90000F900FBE0F901F9018951F920F920FB6D7
:100BA0000F9211242F938F939F93EF93FF93E091D4
:100BB000A503F091A6038081E091AB03F091AC0313
:100BC00082FD12C090818091AE038F5F8F73209160
:100BD000AF03821751F0E091AE03F0E0EB56FC4F0B
:100BE000958F8093AE0301C08081FF91EF919F911B
:100BF0008F912F910F900FBE0F901F9018951F92FD
:100C00000F920FB60F9211242F933F934F935F9340
:100C10006F937F938F939F93AF93BF93EF93FF93C4
:100C20008091B900887F803609F49CC068F58832CD
:100C300009F45BC090F4803109F454C038F488237F
:100C400009F4F6C0883009F44DC0F6C0883109F4C3
:100C50004CC0803209F45DC0EFC0803409F468C034
:100C600048F4803309F455C0883309F0E5C0809317
:100C70006E03D8C0803509F44FC0883509F45DC0D3
:100C8000883409F0D9C0D6C0883909F4C7C0A8F49F
:100C9000883709F467C038F4883609F463C08037B0
:100CA00009F460C0C9C0883809F4B8C0803909F4B3
:100CB0005FC0803809F0C0C05BC0803B09F486C0CB
:100CC00038F4803A09F466C0883A09F47FC0B4C0A9
:100CD000803C09F4A7C0883C09F4A4C0883B09F40F
:100CE0008AC0AAC080914B0310C090916D0380917F
:100CF0006C03981770F5E0916D0381E08E0F80937F
:100D00006D03F0E0E45BFC4F80818093BB0085ECD9
:100D100086C080936E038EC0E0916D0381E08E0FDC
:100D200080936D038091BB00F0E0E45BFC4F808317
:100D300090916D0380916C036EC0E0916D0381E032
:100D40008E0F80936D038091BB00F0E0E45BFC4F5D
:100D5000808380916F0381116DC081E080934A038D
:100D600084EA61C083E08093700310928402CFCF45
:100D700080918402803208F051C0E091840281E0C9
:100D80008E0F809384028091BB00F0E0EC59FD4F00
:100D90008083BDCF85EC8093BC001092700380915E
:100DA0008402803230F4E0918402F0E0EC59FD4F8F
:100DB00010826091840270E0E0916202F09163021F
:100DC00084E692E009951092840236C084E0809314
:100DD00070031092610210926002E0915E02F09145
:100DE0005F02099580916002811105C081E08093C6
:100DF000600210923E02E091610281E08E0F8093CA
:100E00006102F0E0E25CFD4F80818093BB00909135
:100E1000610280916002981708F479CF85E8809389
:100E2000BC000AC085EC8093BC001092700304C023
:100E300010926E030E94A801FF91EF91BF91AF91B4
:100E40009F918F917F916F915F914F913F912F91E2
:100E50000F900FBE0F901F901895FC0190819C3051
:100E600080F5818128E830E0281B310987FD339522
:100E7000220F331F220F331F621773077CF082810A
:100E800028E532E0281B310987FD3395220F331FF7
:100E9000220F331F621773070CF49B012250310994
:100EA000220F331F4FB7F894892F90E0FC01EE0F0B
:100EB000FF1F8E0F9F1FFC01E650FE4F32832183E0
:100EC0004FBF0895CF92DF92EF92FF92CF93DF93BF
:100ED000EC01603282E078070CF03DC077FD06C07F
:100EE000653B71052CF064EB70E002C060E070E0DF
:100EF000898128E830E06901C81AD10887FDD394B8
:100F0000CC0CDD1CCC0CDD1C0D2C000CEE08FF08FD
:100F10008A8128E532E0281B310987FD3395220FAD
:100F2000331F220F331FC901330FAA0BBB0B9C01C8
:100F3000AD012C193D094E095F09DB010E94D9174B
:100F400024EB30E040E050E00E94AF17C20ED31E09
:100F5000E41EF51EB601CE01DF91CF91FF90EF9018
:100F6000DF90CF900C942D071F93CF93DF93EC016C
:100F7000162F88818C3008F04EC061E0812F0E94CE
:100F8000210D8881E82FF0E09F01220F331FE20F2F
:100F9000F31FE650FE4F1F739081907C192B108336
:100FA00019821A826CE00E94DF1B9CE0899FB001CD
:100FB000112440E050E09A01260F371FF901EE0F8F
:100FC000FF1F2E0F3F1FF901E650FE4F908196FD47
:100FD00016C04F5F5F4F4C30510569F781110FC04C
:100FE0001092800082E08093810010928500109220
:100FF0008400B19A80916F00826080936F00E881D5
:10100000F0E0CF01880F991FE80FF91FE650FE4F5F
:101010008081806480838881DF91CF911F910895C2
:10102000FC019091F9019C30A0F481E0890F80933C
:10103000F9019083892F90E0FC01EE0FFF1F8E0FC6
:101040009F1FFC01E650FE4F88EB9BE0928381835B
:1010500008958FEF808308951F920F920FB60F921D
:1010600011242F933F934F935F936F937F938F93AD
:101070009F93AF93BF93EF93FF938091F80187FF06
:1010800005C010928500109284001BC02091F801C9
:10109000022E000C330B8091F90190E028173907DC
:1010A00084F48091F801082E000C990BFC01EE0FDE
:1010B000FF1F8E0F9F1FFC01E650FE4F808186FDB3
:1010C00015C08091F8018F5F8093F8012091F8019D
:1010D000022E000C330B8091F90190E0281739079C
:1010E000C4F48091F8018C3064F113C08091F80150
:1010F000082E000C990BFC01EE0FFF1F8E0F9F1F97
:10110000FC01E650FE4F808160E08F730E94F10C7D
:10111000D8CF8091840090918500049680349C49BA
:1011200018F480E49CE905C08091840090918500CA
:10113000049690938900809388008FEF8093F80144
:101140003BC020918400309185008091F801082EE9
:10115000000C990BFC01EE0FFF1F8E0F9F1FFC016F
:10116000E650FE4F81819281820F931F90938900F8
:10117000809388008091F801082E000C990BFC01E7
:10118000EE0FFF1F8E0F9F1FFC01E650FE4F808168
:1011900086FF12C08091F801082E000C990BFC010B
:1011A000EE0FFF1F8E0F9F1FFC01E650FE4F808148
:1011B00061E08F730E94F10CFF91EF91BF91AF91AD
:1011C0009F918F917F916F915F914F913F912F915F
:1011D0000F900FBE0F901F901895FC01838591E032
:1011E000909371038093930310927203109294036F
:1011F00082E394E00E94360281E00C946E0BCF9261
:10120000DF92EF92FF92CF93DF93EC0160E40E94B4
:10121000ED088B85909170039111FCCF91E0909334
:10122000700390936F032FEF20936E0310926D0362
:1012300023E020936C0390934B0390914B03880F12
:10124000892B80934B0380914A03813061F4109283
:101250004A0380914B038093BB008091BC0083FDC7
:10126000F8CF85EC01C085EE8093BC0080917003BF
:101270008130E1F380916D03843018F480916D0327
:1012800001C084E0ACE4B3E02EE132E0F9019E2F2E
:10129000921B981718F49D919193F9CF10928602A2
:1012A0008093850282E394E00E94EA01F82E82E3B3
:1012B00094E00E94EA01C12CD12CDF2C8C299D29BD
:1012C0006C01990FEE08FF0882E394E00E94EA01A6
:1012D00082E394E00E94EA018881882341F0662736
:1012E0007727CB016C197D098E099F0902C0C701C0
:1012F000B601DF91CF91FF90EF90DF90CF900895EE
:10130000CF93DF93CDB7DEB7E0970FB6F894DEBF8B
:101310000FBECDBF98E1E6E0F1E0DE015996019005
:101320000D929A95E1F798E1EEE1F1E0DE01119678
:1013300001900D929A95E1F781508C30E0F490E0A5
:1013400020918B0230918C02880F991FE1E0F0E030
:10135000EC0FFD1FE80FF91F662329F0808D918D9A
:10136000822B932B04C080819181822393239093BD
:101370008C0280938B02E0960FB6F894DEBF0FBE0E
:10138000CDBFDF91CF9108950C94A1170C949917BC
:10139000CF93DF93C7E3D0E0BE018BE594E00E94DA
:1013A00062076AE070E080E090E00E94740D219690
:1013B000C837D10589F7DF91CF910895CF93DF9397
:1013C000C8E7D0E0BE018BE594E00E9462076AE0C6
:1013D00070E080E090E00E94740D2197C733D10542
:1013E00089F7DF91CF910895CF93DF93C2E3D0E0E7
:1013F000BE0188E594E00E9462076AE070E080E048
:1014000090E00E94740D2196CC38D10589F7DF91C8
:10141000CF9108956CED75E08EE594E00E942D0764
:101420006CED75E081E694E00C942D0768E775E0BB
:101430008EE594E00E942D076BE876E081E694E06B
:101440000C942D07882309F44DC00E94AE0D7093B3
:10145000C5016093C4018AE891E00E940F0C60917D
:10146000C0017091C10180E090E04AE00E94210C2F
:101470008BE991E00E940F0C8091C4019091C5010D
:101480002091C2013091C3018217930729F0821B7A
:10149000930B883C910578F48091C0019091C10133
:1014A00001969093C1018093C0010E94AE0D70938C
:1014B000BF016093BE018091C0019091C1014A9724
:1014C00070F081E08093EF021092BF011092BE0194
:1014D0000E94AE0D7093F1026093F0020895109295
:1014E000EF0208950E94AE0D7093C3016093C20194
:1014F000B2CF6BE876E08EE594E00E942D076BE8B2
:1015000076E081E694E00E942D0781E00C94220AA7
:101510000F931F9361E082E00E94F10C83E290E060
:101520000197F1F760E082E00E94F10CEFE1F1E059
:101530006491EBE0F1E0E491F0E0EE0FFF1FE65183
:10154000FF4F8591949100E117E220E030E0462FB3
:101550000E94040E611571058105910539F0DC01C9
:10156000CB010196A11DB11DBF7003C080E090E0CA
:10157000DC018093F2029093F302A093F402B09303
:10158000F5021F910F91089580E10E945D0D9093E7
:10159000EE028093ED028FE00E945D0D9093EC02CD
:1015A0008093EB028EE00E945D0D9093EA0280939F
:1015B000E9028091E7029091E8022091E1023091E6
:1015C000E202821B930B2091ED023091EE0228176C
:1015D000390710F461E001C060E08CE00E948009EE
:1015E0008091E5029091E6022091E1023091E202C1
:1015F000821B930B2091EB023091EC0228173907E4
:1016000010F461E001C060E089E00E9480098091EF
:10161000E3029091E4022091E1023091E202821B08
:10162000930B2091E9023091EA022817390710F450
:1016300061E001C060E086E00C9480093FB7F89457
:101640008091690490916A04A0916B04B0916C043C
:1016500026B5A89B05C02F3F19F00196A11DB11D0D
:101660003FBFBA2FA92F982F8827820F911DA11D48
:10167000B11DBC01CD0142E0660F771F881F991F85
:101680004A95D1F70895CF92DF92EF92FF920F9390
:101690001F93CF93DF936C017A018B01C0E0D0E000
:1016A000CE15DF0589F0D8016D918D01D601ED9140
:1016B000FC910190F081E02DC6010995892B11F470
:1016C0007E0102C02196ECCFC701DF91CF911F911F
:1016D0000F91FF90EF90DF90CF900895382F2091D9
:1016E000940390919303213208F049C080917003D4
:1016F0008111FCCF42E04093700330936F033FEFC2
:1017000030936E0310926D0320936C03A3E7B3E054
:101710004CE453E0FA013E2F341B321718F43D918C
:101720003193F9CF10924B0320914B03990F922BD9
:1017300090934B0390914A03913061F410924A03C5
:1017400090914B039093BB009091BC0093FDF8CF18
:1017500095EC01C095EE9093BC009091700392308F
:10176000E1F390916E039F3F79F080916E03803298
:1017700041F080916E03803331F084E005C081E058
:1017800003C082E001C083E01092720310929403C0
:10179000109271030895CF93DF93EC0180916D0453
:1017A00090916E04009719F06BE40E94ED08D093BD
:1017B0006E04C0936D048CE599EEAEE5BCE38983BD
:1017C0009A83AB83BC8385E59AE2AFE0B6E38D8371
:1017D0009E83AF83B88788E090E09A87898781E00D
:1017E0008093710380E380939303109272031092AD
:1017F00094036DE482E394E00E9436026B857C855D
:10180000660F771F82E394E00E94360281E00E9417
:101810006E0B6AE4CE01DF91CF910C94ED08009736
:1018200069F0FC0101900020E9F73197AF01481BF6
:10183000590BBC0185E993E00C94430B80E090E0E8
:1018400008958F929F92AF92BF920F931F93CF9361
:10185000DF93CDB7DEB7A1970FB6F894DEBF0FBE0A
:10186000CDBF19A2423008F44AE08E010F5D1F4F30
:10187000842E912CA12CB12CA50194010E94E1177A
:10188000E62FB901CA0101501109EA3014F4E05DF4
:1018900001C0E95CD801EC93232B242B252B61F7A5
:1018A000C8010E940F0CA1960FB6F894DEBF0FBEC0
:1018B000CDBFDF91CF911F910F91BF90AF909F90BF
:1018C0008F9008951F920F920FB60F9211242F93AD
:1018D0003F934F935F936F937F938F939F93AF93B8
:1018E000BF93EF93FF9380914803909149038093B6
:1018F000B2008091440390914503A0914603B091BA
:1019000047030196A11DB11D8093440390934503A5
:10191000A0934603B093470340914403509145037D
:101920006091460370914703809140039091410379
:10193000A0914203B0914303481759076A077B07F8
:10194000B0F080913F03811112C081E080933F038A
:1019500010924403109245031092460310924703DD
:10196000E0913D03F0913E03099510923F03FF91F2
:10197000EF91BF91AF919F918F917F916F915F9107
:101980004F913F912F910F900FBE0F901F90189580
:10199000833081F028F4813099F08230A1F00895ED
:1019A0008730A9F08830B9F08430D1F4809180007C
:1019B0008F7D03C0809180008F7780938000089591
:1019C00084B58F7702C084B58F7D84BD08958091E2
:1019D000B0008F7703C08091B0008F7D8093B000FE
:1019E00008951F93CF93DF93282F30E0F901E05D36
:1019F000FE4F8491F901E45EFE4FD491F901E85F56
:101A0000FE4FC491CC23C9F0162F81110E94C80C3F
:101A1000EC2FF0E0EE0FFF1FE250FF4FA591B491C5
:101A20008FB7F894111105C09C91ED2FE095E92333
:101A300002C0EC91ED2BEC938FBFDF91CF911F9102
:101A40000895CF93DF9390E0FC01E45EFE4F249174
:101A5000FC01E85FFE4F8491882361F190E0880FDC
:101A6000991FFC01EC50FF4FC591D491FC01E2504D
:101A7000FF4FA591B491611109C09FB7F894888177
:101A8000209582238883EC912E230BC0623061F471
:101A90009FB7F8943881822F809583238883EC91B7
:101AA0002E2B2C939FBF06C08FB7F894E8812E2B66
:101AB00028838FBFDF91CF9108958E3008F08E502C
:101AC0008770806480937C0080917A00806480932A
:101AD0007A0080917A0086FDFCCF80917800209179
:101AE000790090E0922B08958F929F92AF92BF92CF
:101AF000CF92DF92EF92FF926B017C010E941E0B4E
:101B00004B015C01C114D104E104F104F1F00E9425
:101B10001E0BDC01CB0188199909AA09BB09883E73
:101B20009340A105B10570F321E0C21AD108E10884
:101B3000F10888EE880E83E0981EA11CB11CC11428
:101B4000D104E104F10419F7DDCFFF90EF90DF90AD
:101B5000CF90BF90AF909F908F9008952FB7F8943B
:101B600060916504709166048091670490916804A7
:101B70002FBF08951F920F920FB60F9211242F932B
:101B80003F938F939F93AF93BF9380916504909100
:101B90006604A0916704B09168043091640423E066
:101BA000230F2D3720F40196A11DB11D05C026E895
:101BB000230F0296A11DB11D209364048093650438
:101BC00090936604A0936704B093680480916904BD
:101BD00090916A04A0916B04B0916C040196A11DD0
:101BE000B11D8093690490936A04A0936B04B09331
:101BF0006C04BF91AF919F918F913F912F910F9066
:101C00000FBE0F901F901895CF92DF92EF92FF9228
:101C10000F931F93E82FF92F05C0015011092109D7
:101C2000310961F1908196239417B9F305C00150F1
:101C300011092109310911F1908196239413F7CFED
:101C4000C12CD12CE12CF12C0AC08FEFC81AD80A74
:101C5000E80AF80A0C151D052E053F0579F080816C
:101C60008623841791F36C2D7D2D8E2D9F2D1F9132
:101C70000F91FF90EF90DF90CF90089560E070E0BB
:101C800080E090E01F910F91FF90EF90DF90CF9058
:101C90000895789484B5826084BD84B5816084BDE4
:101CA00085B5826085BD85B5816085BD80916E00FA
:101CB000816080936E00109281008091810082602B
:101CC0008093810080918100816080938100809168
:101CD00080008160809380008091B1008460809357
:101CE000B1008091B00081608093B00080917A0053
:101CF000846080937A0080917A00826080937A0079
:101D000080917A00816080937A0080917A00806867
:101D100080937A001092C100109286021092850280
:101D2000109272031092940310927003C1E0C0935A
:101D30006F0310924A0361E082E10E94F10C61E0BE
:101D400083E10E94F10C8091B9008E7F8093B900ED
:101D50008091B9008D7F8093B90088E48093B800AA
:101D600085E48093BC00E091A503F091A60382E096
:101D70008083E091A103F091A2031082E091A3037C
:101D8000F091A4038FEC80831092AD03E091A9033E
:101D9000F091AA0386E08083E091A703F091A80365
:101DA000808180618083E091A703F091A803808106
:101DB00088608083E091A703F091A8038081806808
:101DC0008083E091A703F091A80380818F7D8083B9
:101DD00087E090E09093E0028093DF021092DE02B1
:101DE0001092DD02C093DC028DE0809302018FEF40
:101DF000809300011092C1021092B40281E090E041
:101E0000909391028093900282E090E090939302ED
:101E10008093920284E090E09093950280939402E4
:101E200088E090E0909397028093960280E190E0A2
:101E3000909399028093980280E290E090939B02A5
:101E400080939A0280E490E090939D0280939C029C
:101E500080E890E090939F0280939E0280E091E062
:101E60009093A1028093A00280E092E09093A3025D
:101E70008093A20280E094E09093A5028093A40254
:101E800080E098E09093A7028093A6028FE0809371
:101E9000010180EF8093DB028093CE021092B502A5
:101EA0001092A8021092BF021092B20220E2209378
:101EB000C20280EA8093CF028093D90280E88093A7
:101EC000CC021092B6021092A9021092B7021092A0
:101ED000AA022093C40290E69093D0029093D1027C
:101EE00090E49093C3025091D2021092AB024091C1
:101EF000D3021092AC0230E13093C6025069509385
:101F0000D20240694093D3028093C5021092BA0274
:101F10001092AD021092BB021092AE023093C80232
:101F200040E54093D4024093D5029093C7021092AB
:101F3000BC021092AF021092BD021092B002309318
:101F4000CA0230E33093D6023093D7022093C902FD
:101F50001092BE021092B1021092C0021092B3020F
:101F60009093CD0290EC9093D8029093DA028093F4
:101F7000CB028091DF029091E002089720F5109249
:101F80008F026091DF027091E00280E090E00E9499
:101F900041189B01AC0160E070E080E090E40E9499
:101FA000A7180E94F7180E9412187093E00260931D
:101FB000DF028091DF029091E00220EF822790956E
:101FC0008093DB0222C0C0938F026091DF02709188
:101FD000E0026850710980E090E00E9441189B0186
:101FE000AC0160E070E080E090E40E94A7180E94DD
:101FF000F7180E9412187093E0026093DF0280913C
:10200000DF029091E0028093C1028091F8029091EA
:10201000F902892B09F081C081E090E09093F902E8
:102020008093F80226E030E030938E0220938D02F8
:1020300010928C0210928B0210928A0210928902E6
:1020400040914003509141036091420370914303DA
:10205000452B462B472B89F090938A028093890267
:1020600080913D0390913E03909388028093870274
:10207000809170008E7F80937000809170008E7FC1
:10208000809370008091B0008C7F8093B00080912D
:10209000B100877F8093B1008091B6008F7D8093DF
:1020A000B600809170008D7F809370008091B100A8
:1020B00084608093B1008091B1008C7F8093B100E7
:1020C0008AEF90E0909349038093480382E090E088
:1020D000A0E0B0E08093400390934103A0934203BB
:1020E000B093430389E692E090933E0380933D03CF
:1020F0001092440310924503109246031092470336
:1021000010923F0380914803909149038093B2005D
:102110008091700081608093700061E083E00E9494
:10212000210D61E083E00E94F10C61E082E00E94F9
:10213000210D60E083E00E94210D61E088E00E94B3
:10214000210D68E070E081E694E00E94B40761E050
:1021500089E00E94210D69E070E08EE594E00E9424
:10216000B40761E08AE00E94210D6AE070E08BE52F
:1021700094E00E94B40761E08BE00E94210D6BE0C7
:1021800070E088E594E00E94B40760E08CE00E9473
:10219000210D8EE394E00E94CB0B10923E048BE461
:1021A00094E00E94CB0B81E080934B0460E08EE0D2
:1021B0000E94210D60E08FE00E94210D60E080E12F
:1021C0000E94210D86E990E09093E2028093E10263
:1021D00080E090E00E94C609C82F8093FB0281E056
:1021E00090E00E94C6098093FA022C2F30E0A901EA
:1021F000582B5093E8024093E70282E090E00E945F
:10220000C609C82F8093FB0281E090E00E94C609B6
:102210008093FA022C2F30E0F901F82BF09315038C
:10222000E093140384E090E00E94C609C82F8093D5
:10223000FB0281E090E00E94C6098093FA022C2FF5
:1022400030E0A901582B5093E6024093E50286E066
:1022500090E00E94C609C82F8093FB0281E090E0C5
:102260000E94C6098093FA022C2F30E0F901F82B66
:10227000F0931303E093120388E090E00E94C609F4
:10228000C82F8093FB0281E090E00E94C6098093F2
:10229000FA022C2F30E0A901582B5093E40240930E
:1022A000E3028AE090E00E94C609C82F8093FB02F7
:1022B00081E090E00E94C6098093FA022C2F30E062
:1022C000F901F82BF0931103E09310038CE090E0F8
:1022D0000E94C609C82F8093FB028DE090E00E9407
:1022E000C609282F8093FA028C2F90E0922BA0E051
:1022F000B0E08093240390932503A0932603B0932A
:1023000027038EE090E00E94C609C82F8093FB024D
:102310008FE090E00E94C609282F8093FA028C2F4C
:1023200090E0922BA0E0B0E080931E0390931F03F7
:10233000A0932003B0932103C1E052E0252E312C5D
:1023400064E0862E912CA12CB12C78EE472E73E000
:10235000572E612C712C0E94AE0D00913903109103
:102360003A0320913B0330913C03DC01CB01801BFD
:10237000910BA20BB30B0B97A105B10510F0C09305
:1023800038038091F6029091F702892B21F1809118
:102390003703811122C0C093370380913503909198
:1023A00036030196877099279093360380933503FF
:1023B0000E94AE0D6093390370933A0380933B0300
:1023C00090933C031092380310923403109233031D
:1023D0001092320302C010923703ECE3F1E08491D3
:1023E000E8E2F1E01491E4E1F1E00491002379F0F6
:1023F00081110E94C80CE02FF0E0EE0FFF1FE651A4
:10240000FF4FA591B4918C91182381E009F480E0ED
:10241000817080930401809135039091360382305E
:10242000910509F448C230F4009761F0019709F46E
:1024300061C0B9C48330910509F40EC3049709F44F
:10244000DAC3B1C40E94C40A0E94880A6CED75E028
:102450008EE594E00E942D076CED75E081E694E036
:102460000E942D0767E370E08BE594E00E9462070D
:1024700062E370E088E594E00E9462076AE48EE31C
:1024800094E00E94ED086AE48BE494E00E94ED0879
:10249000109231031092300310922C0310922D03EE
:1024A00010922E0310922F038EE991E00E940F0CE0
:1024B0006091F2027091F3028091F4029091F50222
:1024C0002AE330E040E050E00E94E117CA01B90180
:1024D0004AE00E94210C8BE991E00E940F0C0E94BF
:1024E000AE0D609328037093290380932A03909381
:1024F0002B0359C480913803882309F454C40E94E3
:10250000C40A8091240390912503A0912603B091E1
:102510002703885F984FAF4FBF4F8034F6E09F0787
:10252000A105B10558F0853328E09207A105B10552
:1025300038F084E398E0A0E0B0E002C080E496E0E8
:10254000909323038093220380911E0390911F0395
:10255000A0912003B0912103885F984FAF4FBF4FE8
:10256000803436E09307A105B10558F0853348E083
:102570009407A105B10538F084E398E0A0E0B0E04D
:1025800002C080E496E090931D0380931C030E9498
:10259000AE0D2091F0023091F102AB01BC01421B63
:1025A000530B61097109413D57406105710510F0F8
:1025B0001092EF020E94AE0D70931B0360931A03FA
:1025C0008091E1029091E2022091E7023091E802CD
:1025D000281B390B4091ED025091EE024217530730
:1025E000E8F42091E5023091E602281B390B409176
:1025F000EB025091EC022417350780F42091E3029E
:102600003091E402F901E81BF90B2091E9023091C5
:10261000EA022E173F0710F40E94790AC090ED02DB
:10262000D090EE020091E1021091E202E090E70208
:10263000F090E802E01AF10AEC14FD0440F58091F4
:10264000E5029091E602801B910B2091EB02309104
:10265000EC022817390708F063C08091E3029091DB
:10266000E402801B910B2091E9023091EA022817C5
:10267000390708F055C06BE876E08EE594E00E94DB
:102680002D0768E775E081E694E00E942D07CE14DF
:10269000DF0408F045C08091E5029091E602801BBE
:1026A000910B2091EB023091EC022817390778F456
:1026B0008091E3029091E402801B910B2091E9024A
:1026C0003091EA028217930710F40E94160A809153
:1026D000E5029091E602801B910B2091EB02309174
:1026E000EC0228173907E0F48091E3029091E402AC
:1026F000801B910B2091E9023091EA0228173907DB
:1027000078F468E775E08EE594E00E942D0768E7AD
:1027100075E081E694E00E942D0780E00E94220A85
:102720008091E1029091E2022091E7023091E8026B
:10273000281B390B4091ED025091EE02241735070A
:10274000E8F42091E5023091E602281B390B409114
:10275000EB025091EC022417350780F42091E3023C
:102760003091E402A901481B590B2091E9023091F4
:10277000EA024217530710F40E94160A0E94880AC0
:102780008091F2029091F302A091F402B091F502CF
:10279000CA97A109B1098E3A9105A105B10508F0C2
:1027A00048C080911903811144C00E940A0A0E9406
:1027B000F4090E94C8090CE810E0B80188E594E02B
:1027C0000E9462076AE070E080E090E00E94740D71
:1027D000015011090233110581F70E94DE0960EBF7
:1027E00074E08EE594E00E942D0768E077E081E6D2
:1027F00094E00E942D0764EA76E080E090E00E9479
:10280000740D6CED75E08EE594E00E942D076CED83
:1028100075E081E694E00E942D07C09319030E94A1
:10282000AE0DA30192010E94E1173093180320938B
:1028300017038091EF028823C1F080911603811164
:1028400014C00E94790A8BEA91E00E940F0C8BE978
:1028500091E00E940F0C6CEB72E080E090E00E942F
:10286000740D1092EF02C09316038091F2029091C2
:10287000F302A091F402B091F502CA97A109B1093F
:102880008E3A9105A105B10598F48091190388232A
:1028900079F080911603882359F00E940A0A0E9459
:1028A000C8090E94F4090E94DE090E940A0AFDCFAD
:1028B00081E090E074C280913803882309F473C2E8
:1028C0008091340381111DC0C0933403109215030D
:1028D000109214031092130310921203109211031A
:1028E000109210030E94AE0D60930C0370930D03C1
:1028F00080930E0390930F0310920B0310920A0320
:1029000055C00E94AE0D00910C0310910D03209153
:102910000E0330910F03DC01CB01801B910BA20B46
:10292000B30B85369105A105B10508F43FC00E949F
:10293000AE0D60930C0370930D0380930E03909380
:102940000F030E94C40A2091140330911503809153
:10295000ED029091EE02820F931F909315038093E6
:10296000140320911203309113038091EB02909194
:10297000EC02820F931F9093130380931203209114
:102980001003309111038091E9029091EA02820FC5
:10299000931F909311038093100380910A039091E9
:1029A0000B03019690930B0380930A0320910A0373
:1029B00030910B032431310509F049C08091140393
:1029C00090911503B9010E94EB1B462F60931403ED
:1029D000709315038091120390911303B9010E9423
:1029E000EB1B70931303609312038091100390917B
:1029F0001103B9010E94EB1B709311036093100344
:102A0000642F82E090E00E94C4096091150383E086
:102A100090E00E94C4096091120386E090E00E9459
:102A2000C4096091130387E090E00E94C40960919B
:102A300010038AE090E00E94C409609111038BE0CA
:102A400090E00E94C4091092360310923503309230
:102A5000310320923003A7C180913803882309F401
:102A6000A2C18091340381111DC0C0933403109220
:102A7000E8021092E7021092E6021092E50210922C
:102A8000E4021092E3020E94AE0D60930C03709377
:102A90000D0380930E0390930F0310920B0310927B
:102AA0000A0355C00E94AE0D00910C0310910D0356
:102AB00020910E0330910F03DC01CB01801B910BA1
:102AC000A20BB30B85369105A105B10508F43FC0F3
:102AD0000E94AE0D60930C0370930D0380930E0360
:102AE00090930F030E94C40A2091E7023091E802FC
:102AF0008091ED029091EE02820F931F9093E80275
:102B00008093E7022091E5023091E6028091EB028A
:102B10009091EC02820F931F9093E6028093E5025E
:102B20002091E3023091E4028091E9029091EA025F
:102B3000820F931F9093E4028093E30280910A0333
:102B400090910B03019690930B0380930A032091BD
:102B50000A0330910B032431310509F049C08091FB
:102B6000E7029091E802B9010E94EB1B462F6093A7
:102B7000E7027093E8028091E5029091E602B901C4
:102B80000E94EB1B7093E6026093E5028091E302E2
:102B90009091E402B9010E94EB1B7093E4026093F0
:102BA000E302642F80E090E00E94C4096091E80293
:102BB00081E090E00E94C4096091E50284E090E029
:102BC0000E94C4096091E60285E090E00E94C40979
:102BD0006091E30288E090E00E94C4096091E40201
:102BE00089E090E00E94C4091092360310923503E8
:102BF00083E090E0D4C080913803882309F4D3C0E7
:102C000080913403811123C0C09334036AE48EE3BE
:102C100094E00E94ED086AE48BE494E00E94ED08E1
:102C20000E94AE0D60930C0370930D0380930E030E
:102C300090930F0368E077E08EE594E00E942D0703
:102C400068E077E081E694E00E942D07A6C00E942C
:102C5000AE0D00910C0310910D0320910E033091E5
:102C60000F03DC01CB01801B910BA20BB30B893846
:102C70009341A105B10508F490C06CED75E08EE5B7
:102C800094E00E942D076CED75E081E694E00E94CF
:102C90002D078EE394E00E94FF086B017C01609396
:102CA00006037093070380930803909309038BE452
:102CB00094E00E94FF0860930203709303038093E3
:102CC0000403909305036C157D058E059F05ECF4B8
:102CD00010921E0310921F031092200310922103E2
:102CE000A7019601261B370B480B590BCA01B901E6
:102CF000A50194010E94AF1720932403309325036C
:102D0000409326035093270318C06C197D098E0940
:102D10009F09A50194010E94AF1720931E033093D1
:102D20001F03409320035093210310922403109219
:102D30002503109226031092270360911E038EE054
:102D400090E00E94C40980911E0390911F03A091FE
:102D50002003B0912103692F7A2F8B2F99278FE0C1
:102D600090E00E94C409609124038CE090E00E94EE
:102D7000C4098091240390912503A0912603B0916A
:102D80002703692F7A2F8B2F99278DE090E00E94DF
:102D9000C409109236031092350384E090E09093BA
:102DA0003103809330030E94AE0D0091FE0210911A
:102DB000FF022091000330910103DC01CB01801B55
:102DC000910BA20BB30B853F9140A105B105E8F132
:102DD0000E94AE0D6093FE027093FF028093000389
:102DE00090930103109103011C2710930301612F9D
:102DF00081E00E948009612F8DE00E94F10C00911A
:102E0000FC021091FD02D801AA0FBB1FA65CBE4FA9
:102E1000E0913003F0913103EE0FFF1FE65AFE4FB1
:102E20008D919C91208131818223932361E0892BB4
:102E300009F060E084E00E9480090F5F1F4F0F706F
:102E400011271093FD020093FC020E949E0183CA89
:102E5000E5E9F3E01382128288EE93E0A0E0B0E0AF
:102E600084839583A683B7832AE631E03183208368
:102E700025EC30E03587248724EC30E0378726873F
:102E800020EC30E0318B208B21EC30E0338B228B37
:102E900022EC30E0358B248B26EC30E0378B268B10
:102EA000118E128E138E148EE2E3F4E013821282DE
:102EB00084839583A683B7838CE791E09183808395
:102EC00081E694E00E9410088EE594E00E941008CC
:102ED0008BE594E00E94100888E594E00E941008B9
:102EE00080910501EBE4F4E0282F30E0348723875C
:102EF0001082118212821382148215821682178226
:102F0000108612861186EEE3F4E021E0280F30E00F
:102F1000348723878E5F809305011082118212828D
:102F200013821482158216821782108612861186E9
:102F30000895F999FECF92BD81BDF89A992780B581
:102F40000895262FF999FECF1FBA92BD81BD20BDED
:102F50000FB6F894FA9AF99A0FBE01960895052EC5
:102F600097FB1EF400940E94C61757FD07D00E94DD
:102F7000E11707FC03D04EF40C94C617509540950A
:102F8000309521953F4F4F4F5F4F08959095809515
:102F9000709561957F4F8F4F9F4F08950E94031842
:102FA000A59F900DB49F900DA49F800D911D11249D
:102FB0000895B7FF0C94CE170E94CE17821B930B77
:102FC0000895A1E21A2EAA1BBB1BFD010DC0AA1F6A
:102FD000BB1FEE1FFF1FA217B307E407F50720F082
:102FE000A21BB30BE40BF50B661F771F881F991FFD
:102FF0001A9469F760957095809590959B01AC0146
:10300000BD01CF010895A29FB001B39FC001A39F4E
:10301000700D811D1124911DB29F700D811D112411
:10302000911D08950E94861888F09F5798F0B92F37
:103030009927B751B0F0E1F0660F771F881F991FED
:103040001AF0BA95C9F714C0B13091F00E94A018D7
:10305000B1E008950C94A018672F782F8827B85FE7
:1030600039F0B93FCCF3869577956795B395D9F745
:103070003EF490958095709561957F4F8F4F9F4F4F
:103080000895E89409C097FB3EF49095809570955B
:1030900061957F4F8F4F9F4F9923A9F0F92F96E9A4
:1030A000BB279395F695879577956795B795F11119
:1030B000F8CFFAF4BB0F11F460FF1BC06F5F7F4FB6
:1030C0008F4F9F4F16C0882311F096E911C07723C8
:1030D00021F09EE8872F762F05C0662371F096E8D1
:1030E000862F70E060E02AF09A95660F771F881FA0
:1030F000DAF7880F9695879597F9089557FD9058B8
:10310000440F551F59F05F3F71F04795880F97FBAB
:10311000991F61F09F3F79F0879508951216130665
:103120001406551FF2CF4695F1DF08C01616170694
:103130001806991FF1CF86957105610508940895C9
:10314000E894BB2766277727CB0197F90895FA0102
:10315000EE0FFF1F309621053105A1F161157105B4
:1031600061F48038BFE39B0749F16894903881058A
:1031700061F08038BFEF9B0741F099234AF5FF3F8C
:10318000E1053105210519F1E8940894E795D90185
:10319000AA2329F4AB2FBE2FF85FD0F310C0FF5F36
:1031A00070F4A695E0F7F73950F019F0FF3A38F4CB
:1031B0009F779F930DD00F9007FC9058089546F08D
:1031C0000C94841960E070E080E89FE308954FE775
:1031D0009F775F934F933F932F930E94F8192F91FE
:1031E0003F914F915F910E94741A0C9423190E9491
:1031F0008618E8F09E37E8F09639B8F49E3848F41F
:10320000672F782F8827985FF9CF869577956795F0
:1032100093959539D0F3B62FB1706B0F711D811D49
:1032200020F487957795679593950C945B190C948A
:1032300076190C94A11829F416F00C9455190C94D5
:10324000A0180C9484190E948618A8F39638A0F749
:1032500007F80F92E8942BE33AEA48EB5FE70E9405
:103260008A1A0F920F920F924DB75EB70F920E947B
:10327000401AE8E6F0E00E9487194F915F91EF91C4
:10328000FF91E595EE1FFF1F49F0FE57E0684427C8
:10329000EE0F441FFA95E1F74195550B0E94BA19BC
:1032A0000F9007FE0C94AE19089597F99F6780E878
:1032B00070E060E00895882371F4772321F098503E
:1032C000872B762F07C0662311F499270DC09051E4
:1032D000862B70E060E02AF09A95660F771F881FB2
:1032E000DAF7880F9695879597F908959F3F31F003
:1032F000915020F4879577956795B795880F911D24
:103300009695879597F908959FEF80EC0895DF9340
:10331000CF931F930F93FF92EF92DF927B018C016B
:10332000689406C0DA2EEF010E94871AFE01E89425
:10333000A5912591359145915591A6F3EF010E94F4
:10334000F91AFE019701A801DA9469F7DF90EF906E
:10335000FF900F911F91CF91DF9108959B01AC01D8
:1033600060E070E080E89FE30C944E1B0C945519CC
:103370000C9476190E948618D8F39923C9F3940FF8
:10338000511DA3F39150504094F059F0882332F02E
:10339000660F771F881F91505040C1F79E3F51051F
:1033A0002CF7880F911D9695879597F908955F3FA3
:1033B000ACF0983E9CF0BB27869577956795B795BE
:1033C00008F4B1609395C1F7BB0F58F711F460FF93
:1033D000E8CF6F5F7F4F8F4F9F4FE3CF0C94A118C3
:1033E00016F00C9476190C94841968940C94551961
:1033F0000E948618A8F39923C1F3AEF3DF93CF930D
:103400001F930F93FF92C92FDD2788232AF021975E
:10341000660F771F881FDAF720E030E040E85FEBA7
:103420009FE3883920F0803E38F021968F770E9404
:10343000E21AE0E9F0E004C00E94E21AEDEBF0E0ED
:103440000E9487198B01BE01EC01FB2E6F57710999
:103450007595771F880B990B0E94431828E132E776
:1034600041E35FE30E94871AAF2D9801AE01FF9000
:103470000F911F91CF91DF910E94F91A0C94CE1BEE
:10348000FA01DC01AA0FBB1F9B01AC01BF5728F456
:10349000222733274427507820C0B75190F4AB2F10
:1034A0000024469537952795011CA395D2F300205B
:1034B00071F0220F331F441FB395DAF30ED00C9432
:1034C000E11A61307105A0E88A07B94630F49B0122
:1034D000AC016627772788279078309621F02083E3
:1034E00031834283538308950E94871A0C94CE1B24
:1034F0000E94C01B38F00E94C71B20F0952311F0DA
:103500000C9455190C94841911240C94A1180E9440
:103510007E1870F3959FC1F3950F50E0551F629F81
:10352000F001729FBB27F00DB11D639FAA27F00D1C
:10353000B11DAA1F649F6627B00DA11D661F829F43
:103540002227B00DA11D621F739FB00DA11D621F28
:10355000839FA00D611D221F749F3327A00D611D45
:10356000231F849F600D211D822F762F6A2F112427
:103570009F5750409AF0F1F088234AF0EE0FFF1F5A
:10358000BB1F661F771F881F91505040A9F79E3FB1
:10359000510580F00C9455190C94A1185F3FE4F389
:1035A000983ED4F3869577956795B795F795E79507
:1035B0009F5FC1F7FE2B880F911D9695879597F910
:1035C00008955058BB27AA270E94F91A0C94CE1BC5
:1035D0000E94C01B38F00E94C71B20F039F49F3FA7
:1035E00019F426F40C9484190EF4E095E7FB0C947E
:1035F0005519E92F0E947E1858F3BA17620773070E
:103600008407950720F079F4A6F50C94A0180EF421
:10361000E0950B2EBA2FA02D0B01B90190010C01E2
:10362000CA01A0011124FF27591B99F0593F50F4FA
:10363000503E68F11A16F040A22F232F342F442752
:10364000585FF3CF469537952795A795F04053954A
:10365000C9F77EF41F16BA0B620B730B840BBAF01A
:103660009150A1F0FF0FBB1F661F771F881FC2F785
:103670000EC0BA0F621F731F841F48F48795779599
:103680006795B795F7959E3F08F0B0CF9395880F53
:1036900008F09927EE0F9795879508950E94621B71
:1036A0000C94CE1B0E94C71B58F00E94C01B40F018
:1036B00029F45F3F29F00C94551951110C94A1186D
:1036C0000C9484190E947E1868F39923B1F3552352
:1036D00091F3951B550BBB27AA2762177307840725
:1036E00038F09F5F5F4F220F331F441FAA1FA9F3BB
:1036F00035D00E2E3AF0E0E832D091505040E695A9
:10370000001CCAF72BD0FE2F29D0660F771F881F09
:10371000BB1F261737074807AB07B0E809F0BB0BFC
:10372000802DBF01FF2793585F4F3AF09E3F510510
:1037300078F00C9455190C94A1185F3FE4F3983E6F
:10374000D4F3869577956795B795F7959F5FC9F7F9
:10375000880F911D9695879597F90895E1E0660F7A
:10376000771F881FBB1F621773078407BA0720F0F3
:10377000621B730B840BBA0BEE1F88F7E09508955C
:1037800000240A9416161706180609060895002440
:103790000A9412161306140605060895092E0394BA
:1037A000000C11F4882352F0BB0F40F4BF2B11F42E
:1037B00060FF04C06F5F7F4F8F4F9F4F0895991B2D
:1037C00079E004C0991F961708F0961B881F7A9518
:1037D000C9F780950895AA1BBB1B51E107C0AA1F1A
:1037E000BB1FA617B70710F0A61BB70B881F991FA2
:1037F0005A95A9F780959095BC01CD010895EE0FDB
:10380000FF1F0590F491E02D099481E090E0F89479
:083810000C940A1CF894FFCF90
:10381800FFFF0D0101100100020004000800100064
:103828002000400080000001000200040008FEFFA4
:10383800FDFFFBFFF7FFEFFFDFFFBFFF7FFFFFFE8F
:10384800FFFDFFFBFFF778058B060100020004006F
:103858000800100020004000800000010002000461
:10386800000800100020004000000000FF000F0FBB
:103878003333AAAAFFFF000000003501430BCD0037
:103888007C01FE00DC00F0000000000036020602A9
:103898006602DA01FE01EA01DB0144656164204544
:1038A8006E6420436F756E743A20000D0A00556CE3
:1038B800747261736F6E69633A2000446561644590
:0C38C8006E642043726F7373656400002F
:00000001FF
