:100000000C94A3000C94CB000C94CB000C94CB006C
:100010000C94CB000C94CB000C94CB000C94CB0034
:100020000C94CB000C94C50B0C94CB000C942C08B6
:100030000C94CB000C94CB000C94CB000C94CB0014
:100040000C94E30C0C94CB000C94CD050C94A705F8
:100050000C94CB000C94CB000C94CB000C94CB00F4
:100060000C94FF050C94CB0007634236B79BD8A7CE
:100070001A39685618AEBAAB558C1D3CB7CC5763CD
:10008000BD6DEDFD753EF6177231BF000000803F7B
:1000900008000000BE922449123EABAAAA2ABECD97
:1000A000CCCC4C3E00000080BEABAAAAAA3E000009
:1000B0000000BF000000803F000000000008417801
:1000C000D3BB4387D1133D190E3CC3BD4282AD2B38
:1000D0003E68EC8276BED98FE1A93E4C80EFFFBE30
:1000E00001C4FF7F3F00000000000000000023006B
:1000F0002600290000000000240027002A0000003C
:100100000000250028002B00040404040404040457
:1001100002020202020203030303030301020408B2
:100120001020408001020408102001020408102061
:1001300000000008000201000003040700000000A6
:1001400000000000091611241FBECFEFD8E0DEBF6B
:10015000CDBF11E0A0E0B1E0EAEDF5E302C005900B
:100160000D92AC39B107D9F724E0ACE9B1E001C098
:100170001D92A534B207E1F710E0C3EAD0E004C055
:100180002197FE010E94E01AC23AD107C9F70E94E6
:10019000720D0C94EB1A0C940000FC01538D448DED
:1001A000252F30E0842F90E0821B930B541710F022
:1001B000CF96089501970895FC01918D828D98172F
:1001C00061F0828DDF01A80FB11D5D968C91928D3B
:1001D0009F5F9F73928F90E008958FEF9FEF089538
:1001E000FC01918D828D981731F0828DE80FF11D01
:1001F000858D90E008958FEF9FEF0895FC01918D1C
:10020000228D892F90E0805C9F4F821B91098F7314
:10021000992708958BE693E00E94FE0021E0892B48
:1002200009F420E0822F0895FC01848DDF01A80FDE
:10023000B11DA35ABF4F2C91848D90E001968F730E
:100240009927848FA689B7892C93A089B1898C912D
:1002500080648C93938D848D981306C00288F389F3
:10026000E02D80818F7D80830895EF92FF920F9320
:100270001F93CF93DF93EC0181E0888F9B8D8C8D52
:10028000981305C0E889F989808185FD24C0F62E80
:100290000B8D10E00F5F1F4F0F731127E02E8C8D19
:1002A000E8120CC00FB607FCFACFE889F989808103
:1002B00085FFF5CFCE010E941401F1CF8B8DFE0199
:1002C000E80FF11DE35AFF4FF0820B8FEA89FB899B
:1002D0008081806207C0EE89FF896083E889F9899F
:1002E00080818064808381E090E0DF91CF911F91D5
:1002F0000F91FF90EF900895CF93DF93EC01888DDD
:100300008823C9F0EA89FB89808185FD05C0A88919
:10031000B9898C9186FD0FC00FB607FCF5CF80819F
:1003200085FFF2CFA889B9898C9185FFEDCFCE01E9
:100330000E941401E7CFDF91CF91089580E090E013
:10034000892B29F00E940A0181110C940000089564
:1003500085ED8093BC008091BC0084FDFCCF1092A1
:10036000460308954091EE02262F30E0240F311D00
:1003700021323105DCF4209146032430C9F4FC011C
:1003800080E090E0861758F43091EE022191DC0174
:10039000A453BD4FA30FB11D2C930196F3CF8091B1
:1003A000EE02680F6093EE0280E0089581E0089508
:1003B00082E008950895E0919D0180919C01E817E5
:1003C00030F4F0E0E455FD4F808190E008958FEF28
:1003D0009FEF089590919D0180919C01981750F492
:1003E000E92FF0E0E455FD4F208130E09F5F9093CE
:1003F0009D0102C02FEF3FEFC901089580919C013C
:1004000090E020919D01821B91090895CF92DF9287
:10041000EF92FF920F931F93CF93DF937C01262FD0
:10042000972F8A0180914703882391F0C62FD72FF9
:100430006E01C40ED51ECC15DD0571F06991D70192
:10044000ED91FC910190F081E02DC7010995F3CF6A
:10045000642F822F0E94B201C801DF91CF911F91BA
:100460000F91FF90EF90DF90CF900895CF93DF939F
:100470001F92CDB7DEB76983209147032223D1F0C5
:1004800020916A03203240F021E030E0FC01338308
:10049000228380E090E015C080914803E82FF0E0CF
:1004A000E75BFC4F998190838F5F80934803809333
:1004B0006A0305C061E0CE0101960E94B20181E0AD
:1004C00090E00F90DF91CF910895089580E090E043
:1004D00008958091A0019091A101892B29F0E091CC
:1004E0009E01F0919F0109959AB1809101018923A4
:1004F0008AB99BB18091010189238BB994B1809114
:100500000001892384B995B180910001892385B9BF
:1005100080918402909185024091F301892B09F02A
:10052000E0C08091A4019091A501909385028093F1
:1005300084022091A2013091A301E0918302F0E0B6
:10054000EE0FFF1FE955FE4F808191818223932397
:10055000892B89F02091830230E080910201082EDE
:10056000000C990B0197841B910947FD9395821705
:1005700093070CF0B8C28091F301882309F49DC061
:1005800080E590E090938202809381022091830223
:1005900030E080910201082E000C990B019728177A
:1005A000390709F08AC0E09183022BB1F0E0E752ED
:1005B000FE4F8081082E000C990B822B8BB9E091A5
:1005C00083022AB1F0E0EA51FE4F8081082E000C30
:1005D000990B822B8AB9E091830225B1F0E0E154B6
:1005E000FE4F8081082E000C990B822B85B9E0917B
:1005F000830224B1F0E0E453FE4F8081082E000C0A
:10060000990B822B84B98091A601882311F023B124
:1006100001C029B18091F6019091F7018223809366
:1006200080028091090290910A02892B29F1809120
:100630008002811105C010927F0210927E0239C0A3
:1006400010927D0210927C0280917E0290917F0236
:10065000019690937F0280937E0280917E0290911A
:100660007F02499750F110920A02109209021092EB
:100670007F0210927E0221C08091800210927F0240
:1006800010927E02811115C080917C0290917D02B2
:10069000019690937D0280937C0280917C029091E0
:1006A0007D02499750F081E090E090930A02809398
:1006B000090210927D0210927C02809183028F5F6A
:1006C000809383022091830230E080910201082E02
:1006D000000C990B821793070CF0C1C01092830293
:1006E000BEC0442309F4BBC080E590E09093820231
:1006F000809381022091F4013091F50180910201F3
:10070000082E000C990B01972817390709F08EC0A5
:10071000E091F401F091F5012BB1E752FE4F808199
:10072000082E000C990B822B8BB9E091F401F0910B
:10073000F5012AB1EA51FE4F8081082E000C990B79
:10074000822B8AB9E091F401F091F50125B1E154D1
:10075000FE4F8081082E000C990B822B85B9E09109
:10076000F401F091F50124B1E453FE4F8081082E8D
:10077000000C990B822B84B98091A601882311F07B
:1007800023B101C029B18091F6019091F701822334
:10079000809380028091090290910A02892B29F1AD
:1007A00080918002811105C010927F0210927E021A
:1007B00039C010927D0210927C0280917E0290914D
:1007C0007F02019690937F0280937E0280917E0249
:1007D00090917F02499750F110920A0210920902FB
:1007E00010927F0210927E0221C0809180021092AE
:1007F0007F0210927E02811115C080917C0290913F
:100800007D02019690937D0280937C0280917C0210
:1008100090917D02499750F081E090E090930A0218
:100820008093090210927D0210927C028091F40163
:100830009091F50101969093F5018093F401209138
:10084000F4013091F50180910201082E000C990B02
:100850008217930720F41092F5011092F401809111
:10086000840290918502019790938502809384027F
:1008700080917A0290917B02019709F529B18091CC
:100880007802909179028223809377029091760288
:100890008917A9F080937602809172029091730279
:1008A000A0917402B09175020196A11DB11D8093B3
:1008B000720290937302A0937402B09375028091B8
:1008C0007A0290917B02029709F523B18091780218
:1008D0009091790282238093770290917602891712
:1008E000A9F0809376028091720290917302A09198
:1008F0007402B09175020196A11DB11D8093720220
:1009000090937302A0937402B09375028091700269
:1009100090917102019709F529B180916E02909131
:100920006F02822380936D0290916C028917A9F067
:1009300080936C028091680290916902A0916A0292
:10094000B0916B020196A11DB11D80936802909336
:100950006902A0936A02B0936B0280917002909139
:100960007102029709F523B180916E0290916F0296
:10097000822380936D0290916C028917A9F0809375
:100980006C028091680290916902A0916A02B09114
:100990006B020196A11DB11D8093680290936902BC
:1009A000A0936A02B0936B028091660290916702F5
:1009B000019709F529B18091640290916502822323
:1009C00080936302909162028917A9F0809362027A
:1009D00080915E0290915F02A0916002B0916102ED
:1009E0000196A11DB11D80935E0290935F02A093BA
:1009F0006002B09361028091660290916702029753
:100A000009F523B18091640290916502822380935D
:100A10006302909162028917A9F08093620280912B
:100A20005E0290915F02A0916002B0916102019616
:100A3000A11DB11D80935E0290935F02A09360029E
:100A4000B093610280915C0290915D02019709F57B
:100A500029B180915A0290915B02822380935902BE
:100A6000909158028917A9F08093580280915402FE
:100A700090915502A0915602B09157020196A11D86
:100A8000B11D8093540290935502A0935602B093E7
:100A9000570280915C0290915D02029709F054C068
:100AA00023B180915A0290915B0282238093590274
:100AB00090915802891709F447C080935802809199
:100AC000540290915502A0915602B091570201969E
:100AD000A11DB11D8093540290935502A09356021C
:100AE000B09357020895E09183022BB1F0E0E752F2
:100AF000FE4F8081082E000C990B822B8BB9E09160
:100B000083022AB1F0E0EA51FE4F8081082E000CEA
:100B1000990B822B8AB9E091830225B1F0E0E15470
:100B2000FE4F8081082E000C990B822B85B9E09135
:100B3000830224B1F0E0E453FE4F8081082E000CC4
:100B4000990B822B84B917CD08950E94E61A1F9243
:100B50000F920FB60F9211242F933F934F935F93F1
:100B60006F937F938F939F93AF93BF93EF93FF9375
:100B70008BE693E00E941401FF91EF91BF91AF913A
:100B80009F918F917F916F915F914F913F912F91A5
:100B90000F900FBE0F901F9018951F920F920FB6D7
:100BA0000F9211242F938F939F93EF93FF93E091D4
:100BB0007B03F0917C038081E0918103F0918203BB
:100BC00082FD12C09081809184038F5F8F7320918A
:100BD0008503821751F0E0918403F0E0E559FC4F62
:100BE000958F8093840301C08081FF91EF919F9145
:100BF0008F912F910F900FBE0F901F9018951F92FD
:100C00000F920FB60F9211242F933F934F935F9340
:100C10006F937F938F939F93AF93BF93EF93FF93C4
:100C20008091B900887F803609F49CC068F58832CD
:100C300009F45BC090F4803109F454C038F488237F
:100C400009F4F6C0883009F44DC0F6C0883109F4C3
:100C50004CC0803209F45DC0EFC0803409F468C034
:100C600048F4803309F455C0883309F0E5C0809317
:100C70004403D8C0803509F44FC0883509F45DC0FD
:100C8000883409F0D9C0D6C0883909F4C7C0A8F49F
:100C9000883709F467C038F4883609F463C08037B0
:100CA00009F460C0C9C0883809F4B8C0803909F4B3
:100CB0005FC0803809F0C0C05BC0803B09F486C0CB
:100CC00038F4803A09F466C0883A09F47FC0B4C0A9
:100CD000803C09F4A7C0883C09F4A4C0883B09F40F
:100CE0008AC0AAC08091210310C0909143038091D3
:100CF0004203981770F5E091430381E08E0F8093D3
:100D00004303F0E0EE5DFC4F80818093BB0085ECF7
:100D100086C0809344038EC0E091430381E08E0F30
:100D2000809343038091BB00F0E0EE5DFC4F808335
:100D300090914303809142036EC0E091430381E0B0
:100D40008E0F809343038091BB00F0E0EE5DFC4F7B
:100D500080838091450381116DC081E080932003E1
:100D600084EA61C083E08093460310921203CFCFE0
:100D700080911203803208F051C0E091120381E0AB
:100D80008E0F809312038091BB00F0E0EE50FD4F78
:100D90008083BDCF85EC8093BC0010924603809188
:100DA0001203803230F4E0911203F0E0EE50FD4F78
:100DB00010826091120370E0E091F002F091F10274
:100DC00082EF92E009951092120336C084E080937E
:100DD00046031092EF021092EE02E091EC02F091C5
:100DE000ED0209958091EE02811105C081E08093AA
:100DF000EE021092CC02E091EF0281E08E0F809320
:100E0000EF02F0E0E453FD4F80818093BB009091AE
:100E1000EF028091EE02981708F479CF85E880936D
:100E2000BC000AC085EC8093BC001092460304C04D
:100E3000109244030E94A801FF91EF91BF91AF91DE
:100E40009F918F917F916F915F914F913F912F91E2
:100E50000F900FBE0F901F901895FC0190819C3051
:100E600080F5818128E830E0281B310987FD339522
:100E7000220F331F220F331F621773077CF082810A
:100E800028E532E0281B310987FD3395220F331FF7
:100E9000220F331F621773070CF49B012250310994
:100EA000220F331F4FB7F894892F90E0FC01EE0F0B
:100EB000FF1F8E0F9F1FFC01E857FD4F32832183D8
:100EC0004FBF0895CF92DF92EF92FF92CF93DF93BF
:100ED000EC01603282E078070CF03DC077FD06C07F
:100EE000653B71052CF064EB70E002C060E070E0DF
:100EF000898128E830E06901C81AD10887FDD394B8
:100F0000CC0CDD1CCC0CDD1C0D2C000CEE08FF08FD
:100F10008A8128E532E0281B310987FD3395220FAD
:100F2000331F220F331FC901330FAA0BBB0B9C01C8
:100F3000AD012C193D094E095F09DB010E94BA166B
:100F400024EB30E040E050E00E949016C20ED31E29
:100F5000E41EF51EB601CE01DF91CF91FF90EF9018
:100F6000DF90CF900C942D071F93CF93DF93EC016C
:100F7000162F88818C3008F04EC061E0812F0E94CE
:100F8000840C8881E82FF0E09F01220F331FE20FCD
:100F9000F31FE857FD4F1F739081907C192B10832E
:100FA00019821A826CE00E94C01A9CE0899FB001ED
:100FB000112440E050E09A01260F371FF901EE0F8F
:100FC000FF1F2E0F3F1FF901E857FD4F908196FD3F
:100FD00016C04F5F5F4F4C30510569F781110FC04C
:100FE0001092800082E08093810010928500109220
:100FF0008400B19A80916F00826080936F00E881D5
:10100000F0E0CF01880F991FE80FF91FE857FD4F57
:101010008081806480838881DF91CF911F910895C2
:10102000FC01909187029C30A0F481E0890F8093AD
:1010300087029083892F90E0FC01EE0FFF1F8E0F37
:101040009F1FFC01E857FD4F88EB9BE09283818353
:1010500008958FEF808308951F920F920FB60F921D
:1010600011242F933F934F935F936F937F938F93AD
:101070009F93AF93BF93EF93FF938091860287FF77
:1010800005C010928500109284001BC0209186023A
:10109000022E000C330B8091870290E0281739074D
:1010A00084F480918602082E000C990BFC01EE0F4F
:1010B000FF1F8E0F9F1FFC01E857FD4F808186FDAB
:1010C00015C0809186028F5F8093860220918602F0
:1010D000022E000C330B8091870290E0281739070D
:1010E000C4F4809186028C3064F113C08091860232
:1010F000082E000C990BFC01EE0FFF1F8E0F9F1F97
:10110000FC01E857FD4F808160E08F730E94540C12
:10111000D8CF8091840090918500049680349C49BA
:1011200018F480E49CE905C08091840090918500CA
:10113000049690938900809388008FEF80938602B5
:101140003BC0209184003091850080918602082E5A
:10115000000C990BFC01EE0FFF1F8E0F9F1FFC016F
:10116000E857FD4F81819281820F931F90938900F0
:101170008093880080918602082E000C990BFC0158
:10118000EE0FFF1F8E0F9F1FFC01E857FD4F808160
:1011900086FF12C080918602082E000C990BFC017C
:1011A000EE0FFF1F8E0F9F1FFC01E857FD4F808140
:1011B00061E08F730E94540CFF91EF91BF91AF914A
:1011C0009F918F917F916F915F914F913F912F915F
:1011D0000F900FBE0F901F901895FC01838591E032
:1011E00090934703809369031092480310926A0317
:1011F00088E094E00E94360281E00C94AA0ACF9223
:10120000DF92EF92FF92CF93DF93EC0160E40E94B4
:10121000ED088B85909146039111FCCF91E090935E
:101220004603909345032FEF20934403109243030A
:1012300023E0209342039093210390912103880F90
:10124000892B8093210380912003813061F41092D7
:101250002003809121038093BB008091BC0083FD1B
:10126000F8CF85EC01C085EE8093BC0080914603E9
:101270008130E1F380914303843018F4809143037B
:1012800001C084E0A2E2B3E02CEA32E0F9019E2F33
:10129000921B981718F49D919193F9CF10929D018C
:1012A00080939C0188E094E00E94EA01F82E88E097
:1012B00094E00E94EA01C12CD12CDF2C8C299D29BD
:1012C0006C01990FEE08FF0888E094E00E94EA01A3
:1012D00088E094E00E94EA018881882341F0662733
:1012E0007727CB016C197D098E099F0902C0C701C0
:1012F000B601DF91CF91FF90EF90DF90CF900895EE
:10130000CF93DF93CDB7DEB7E0970FB6F894DEBF8B
:101310000FBECDBF98E1E2E3F1E0DE015996019006
:101320000D929A95E1F798E1EAE4F1E0DE01119679
:1013300001900D929A95E1F781508C30E0F490E0A5
:101340002091A2013091A301880F991FE1E0F0E004
:10135000EC0FFD1FE80FF91F662329F0808D918D9A
:10136000822B932B04C080819181822393239093BD
:10137000A3018093A201E0960FB6F894DEBF0FBEE2
:10138000CDBFDF91CF9108950C9482160C947A16FC
:10139000CF92DF92EF92FF92CF93DF938823B1F148
:1013A0000E94D70C7093530260935202C0914E0278
:1013B000D0914F022196D0934F02C0934E020E94CB
:1013C000D70C6B017C0170934D0260934C026A97BD
:1013D00020F10E94D70CEE24FF24DC01CB018C19F4
:1013E0009D09AE09BF0989389341A105B105A8F04F
:1013F00081E08093080210924D0210924C020E94EC
:10140000D70C709307026093060209C00E94D70CA4
:101410007093510260935002C9CF10920802DF917D
:10142000CF91FF90EF90DF90CF9008956BE876E03A
:1014300084E394E00E942D076BE876E087E394E074
:101440000E942D0781E00C94C80980E10E94C00C25
:1014500090930502809304028FE00E94C00C909349
:10146000FF018093FE018EE00E94C00C9093FB016F
:101470008093FA0180910202909103022091000270
:1014800030910102821B930B2091040230910502DE
:101490002817390710F461E001C060E08CE00E9479
:1014A00080098091FC019091FD0120910002309112
:1014B0000102821B930B2091FE013091FF0128173E
:1014C000390710F461E001C060E089E00E94800902
:1014D0008091F8019091F901209100023091010270
:1014E000821B930B2091FA013091FB0128173907D9
:1014F00010F461E001C060E086E00C948009CF92B6
:10150000DF92EF92FF920F931F93CF93DF936C01C3
:101510007A018B01C0E0D0E0CE15DF0589F0D8015B
:101520006D918D01D601ED91FC910190F081E02D3E
:10153000C6010995892B11F47E0102C02196ECCFDA
:10154000C701DF91CF911F910F91FF90EF90DF9036
:10155000CF900895382F20916A039091690321322A
:1015600008F049C0809146038111FCCF42E04093CE
:101570004603309345033FEF3093440310924303F7
:1015800020934203A9E4B3E042E253E0FA013E2F84
:10159000341B321718F43D913193F9CF1092210387
:1015A00020912103990F922B909321039091200376
:1015B000913061F410922003909121039093BB002D
:1015C0009091BC0093FDF8CF95EC01C095EE9093FF
:1015D000BC00909146039230E1F3909144039F3F09
:1015E00079F080914403803241F08091440380334C
:1015F00031F084E005C081E003C082E001C083E0F7
:101600001092480310926A03109247030895CF93F3
:10161000DF93EC018091430490914404009719F00A
:101620006BE40E94ED08D0934404C09343048CE51E
:1016300099EEAEE5BCE389839A83AB83BC8385E5F1
:101640009AE2AFE0B6E38D839E83AF83B88788E0EC
:1016500090E09A87898781E08093470380E38093B5
:1016600069031092480310926A036DE488E094E0E5
:101670000E9436026B857C85660F771F88E094E0B8
:101680000E94360281E00E94AA0A6AE4CE01DF913C
:10169000CF910C94ED08009769F0FC0101900020B7
:1016A000E9F73197AF01481B590BBC018BE693E07A
:1016B0000C947F0A80E090E008958F929F92AF9201
:1016C000BF920F931F93CF93DF93CDB7DEB7A19750
:1016D0000FB6F894DEBF0FBECDBF19A2423008F49A
:1016E0004AE08E010F5D1F4F842E912CA12CB12C4E
:1016F000A50194010E94C216E62FB901CA0101504A
:101700001109EA3014F4E05D01C0E95CD801EC9302
:10171000232B242B252B61F7C8010E944B0BA1968C
:101720000FB6F894DEBF0FBECDBFDF91CF911F91F2
:101730000F91BF90AF909F908F900895CF92DF92BE
:10174000EF92FF92CF93DF936B017C01E0916B03EB
:10175000F0916C030190F081E02D6DE28BE693E057
:101760000995EC0166277727CB016C197D098E0955
:101770009F094AE00E945D0B8C0F9D1FDF91CF9166
:10178000FF90EF90DF90CF9008951F920F920FB6C9
:101790000F9211242F933F934F935F936F937F93F7
:1017A0008F939F93AF93BF93EF93FF9380911E030B
:1017B00090911F038093B20080911A0390911B03B4
:1017C000A0911C03B0911D030196A11DB11D809332
:1017D0001A0390931B03A0931C03B0931D03409125
:1017E0001A0350911B0360911C0370911D0380919B
:1017F000160390911703A0911803B091190348178D
:1018000059076A077B07B0F080911503811112C058
:1018100081E08093150310921A0310921B0310921B
:101820001C0310921D03E0911303F091140309951A
:1018300010921503FF91EF91BF91AF919F918F91FE
:101840007F916F915F914F913F912F910F900FBEBC
:101850000F901F901895833081F028F4813099F013
:101860008230A1F008958730A9F08830B9F0843033
:10187000D1F4809180008F7D03C0809180008F77AC
:1018800080938000089584B58F7702C084B58F7DE2
:1018900084BD08958091B0008F7703C08091B0001F
:1018A0008F7D8093B00008951F93CF93DF93282FEF
:1018B00030E0F901E05DFE4F8491F901E45EFE4FF6
:1018C000D491F901E85FFE4FC491CC23C9F0162FE3
:1018D00081110E942B0CEC2FF0E0EE0FFF1FE25065
:1018E000FF4FA591B4918FB7F894111105C09C9149
:1018F000ED2FE095E92302C0EC91ED2BEC938FBF27
:10190000DF91CF911F910895CF93DF9390E0FC0179
:10191000E45EFE4F2491FC01E85FFE4F8491882332
:1019200061F190E0880F991FFC01EC50FF4FC591C9
:10193000D491FC01E250FF4FA591B491611109C00F
:101940009FB7F8948881209582238883EC912E2379
:101950000BC0623061F49FB7F8943881822F809574
:1019600083238883EC912E2B2C939FBF06C08FB7C7
:10197000F894E8812E2B28838FBFDF91CF910895B3
:101980008E3008F08E508770806480937C00809148
:101990007A00806480937A0080917A0086FDFCCF83
:1019A000809178002091790090E0922B08952FB7D4
:1019B000F89460913F0470914004809141049091AB
:1019C00042042FBF08951F920F920FB60F92112459
:1019D0002F933F938F939F93AF93BF9380913F0437
:1019E00090914004A0914104B091420430913E0492
:1019F00023E0230F2D3720F40196A11DB11D05C052
:101A000026E8230F0296A11DB11D20933E0480936A
:101A10003F0490934004A0934104B093420480910A
:101A20003A0490913B04A0913C04B0913D0401968E
:101A3000A11DB11D80933A0490933B04A0933C04F4
:101A4000B0933D04BF91AF919F918F913F912F91A2
:101A50000F900FBE0F901F901895CF92DF92EF92CC
:101A6000FF920F931F93E82FF92F05C00150110922
:101A70002109310961F1908196239417B9F305C0CA
:101A8000015011092109310911F190819623941314
:101A9000F7CFC12CD12CE12CF12C0AC08FEFC81A42
:101AA000D80AE80AF80A0C151D052E053F0579F03D
:101AB00080818623841791F36C2D7D2D8E2D9F2D93
:101AC0001F910F91FF90EF90DF90CF90089560E00D
:101AD00070E080E090E01F910F91FF90EF90DF9019
:101AE000CF900895789484B5826084BD84B5816078
:101AF00084BD85B5826085BD85B5816085BD8091D9
:101B00006E00816080936E00109281008091810050
:101B10008260809381008091810081608093810048
:101B2000809180008160809380008091B10084600A
:101B30008093B1008091B00081608093B00080916B
:101B40007A00846080937A0080917A00826080932A
:101B50007A0080917A00816080937A0080917A0087
:101B6000806880937A001092C10010929D011092BB
:101B70009C011092480310926A0310924603C1E040
:101B8000C09345031092200361E082E10E94540C4F
:101B900061E083E10E94540C8091B9008E7F8093B4
:101BA000B9008091B9008D7F8093B90088E480935B
:101BB000B80085E48093BC00E0917B03F0917C0346
:101BC00082E08083E0917703F09178031082E091C6
:101BD0007903F0917A038FEC808310928303E09174
:101BE0007F03F091800386E08083E0917D03F09194
:101BF0007E03808180618083E0917D03F0917E038C
:101C0000808188608083E0917D03F0917E038081F4
:101C100080688083E0917D03F0917E0380818F7DD9
:101C2000808387E090E09093F7018093F601109213
:101C3000F5011092F401C093F3018DE0809302014D
:101C40008FEF809300011092D8011092CB0181E0B8
:101C500090E09093A8018093A70182E090E0909398
:101C6000AA018093A90184E090E09093AC01809355
:101C7000AB0188E090E09093AE018093AD0180E1EC
:101C800090E09093B0018093AF0180E290E0909358
:101C9000B2018093B10180E490E09093B40180930D
:101CA000B30180E890E09093B6018093B50180E0A5
:101CB00091E09093B8018093B70180E092E0909317
:101CC000BA018093B90180E094E09093BC018093C5
:101CD000BB0180E098E09093BE018093BD018FE04E
:101CE0008093010180EF8093F2018093E5011092CF
:101CF000CC011092BF011092D6011092C90120E2CE
:101D00002093D90180EA8093E6018093F00180E876
:101D10008093E3011092CD011092C0011092CE0188
:101D20001092C1012093DB0190E69093E70190931C
:101D3000E80190E49093DA015091E9011092C20118
:101D40004091EA011092C30130E13093DD01506906
:101D50005093E90140694093EA018093DC011092BD
:101D6000D1011092C4011092D2011092C50130939A
:101D7000DF0140E54093EB014093EC019093DE01DD
:101D80001092D3011092C6011092D4011092C70193
:101D90003093E10130E33093ED013093EE01209375
:101DA000E0011092D5011092C8011092D701109253
:101DB000CA019093E40190EC9093EF019093F101AC
:101DC0008093E2018091F6019091F701089720F548
:101DD0001092A6016091F6017091F70180E090E009
:101DE0000E9422179B01AC0160E070E080E090E46B
:101DF0000E9488170E94D8170E94F3167093F7016B
:101E00006093F6018091F6019091F70120EF82270F
:101E100090958093F20122C0C093A6016091F601D3
:101E20007091F7016850710980E090E00E942217DC
:101E30009B01AC0160E070E080E090E40E948817B4
:101E40000E94D8170E94F3167093F7016093F60171
:101E50008091F6019091F7018093D80180910B0257
:101E600090910C02892B09F081C081E090E0909361
:101E70000C0280930B0226E030E03093A501209302
:101E8000A4011092A3011092A2011092A10110923C
:101E9000A0014091160350911703609118037091AF
:101EA0001903452B462B472B89F09093A101809372
:101EB000A001809113039091140390939F0180934C
:101EC0009E01809170008E7F8093700080917000E1
:101ED0008E7F809370008091B0008C7F8093B000E3
:101EE0008091B100877F8093B1008091B6008F7D93
:101EF0008093B600809170008D7F809370008091F8
:101F0000B10084608093B1008091B1008C7F809398
:101F1000B1008AEF90E090931F0380931E0382E04C
:101F200090E0A0E0B0E08093160390931703A09395
:101F30001803B093190389E692E0909314038093F9
:101F4000130310921A0310921B0310921C03109299
:101F50001D031092150380911E0390911F0380931F
:101F6000B2008091700081608093700061E083E036
:101F70000E94840C61E083E00E94540C61E082E0E6
:101F80000E94840C60E083E00E94840C61E088E0A1
:101F90000E94840C68E070E087E394E00E94B4073C
:101FA00061E089E00E94840C69E070E084E394E0E1
:101FB0000E94B40761E08AE00E94840C6AE070E04D
:101FC00081E394E00E94B40761E08BE00E94840CFE
:101FD0006BE070E08EE294E00E94B40760E08CE079
:101FE0000E94840C84E194E00E94070B1092140478
:101FF00081E294E00E94070B81E08093210460E07D
:102000008EE00E94840C60E08FE00E94840C60E00F
:1020100080E10E94840C86E990E090930102809315
:10202000000280E090E00E94C609C82F80930E0253
:1020300081E090E00E94C60980930D022C2F30E0D1
:10204000A901582B509303024093020282E090E0D2
:102050000E94C609C82F80930E0281E090E00E9482
:10206000C60980930D022C2F30E0F901F82BF09374
:102070002402E093230284E090E00E94C609C82F66
:1020800080930E0281E090E00E94C60980930D02C9
:102090002C2F30E0A901582B5093FD014093FC01F7
:1020A00086E090E00E94C609C82F80930E0281E06E
:1020B00090E00E94C60980930D022C2F30E0F901B8
:1020C000F82BF0932202E093210288E090E00E9436
:1020D000C609C82F80930E0281E090E00E94C609D5
:1020E00080930D022C2F30E0A901582B5093F90159
:1020F0004093F8018AE090E00E94C609C82F8093BF
:102100000E0281E090E00E94C60980930D022C2F00
:1021100030E0F901F82BF0932002E0931F028CE0ED
:1021200090E00E94C609C82F80930E028DE090E0D7
:102130000E94C609282F80930D028C2F90E0922BCD
:10214000A0E0B0E080932D0290932E02A0932F0286
:10215000B09330028EE090E00E94C609C82F8093B1
:102160000E028FE090E00E94C609282F80930D0296
:102170008C2F90E0922BA0E0B0E080932702909308
:102180002802A0932902B0932A029924939422242E
:102190002394312C74E0472E512C612C712CE3E2F6
:1021A000AE2EB12C0E94D70C00914602109147022E
:1021B0002091480230914902DC01CB01801B910B38
:1021C000A20BB30B893B9B40A105B10510F0909287
:1021D00045028091090290910A02892B21F1809198
:1021E0004402811122C09092440280914202909157
:1021F000430201968770992790934302809342028D
:102200000E94D70C60934602709347028093480265
:10221000909349021092450210924102109240029E
:1022200010923F0202C010924402ECE3F1E084916C
:10223000E8E2F1E0C491E4E1F1E0D491DD2379F04A
:1022400081110E942B0CED2FF0E0EE0FFF1FE651E5
:10225000FF4FA591B4918C91C82381E009F480E0EF
:1022600081708093040180914202909143028230F8
:10227000910509F4F6C130F4009761F0019709F473
:1022800071C069C48330910509F4BEC2049709F492
:102290008AC361C40E94250A61E082E00E94540C56
:1022A000C5010197F1F760E082E00E94540CEFE174
:1022B000F1E06491EBE0F1E08491E82FF0E0EE0FC3
:1022C000FF1FE651FF4F8591949100E117E220E056
:1022D00030E0462F0E942D0D611571058105910595
:1022E00039F0DC01CB010196A11DB11DBF7003C007
:1022F00080E090E0DC0180930F0290931002A093A5
:102300001102B09312026CED75E084E394E00E9438
:102310002D076CED75E087E394E00E942D0767E3DD
:1023200070E081E394E00E9462076AE570E08EE26B
:1023300094E00E9462076AE484E194E00E94ED0860
:102340006AE481E294E00E94ED0810923E0210924D
:102350003D021092390210923A0210923B02109202
:102360003C02F9C380914502882309F4F4C30E941A
:10237000250A84E194E00E94FF086093350270937F
:102380003602809337029093380281E294E00E94F3
:10239000FF0860933102709332028093330290936E
:1023A000340286E891E00E944B0B609135027091F7
:1023B0003602809137029091380297FF03C00E9445
:1023C0009E0B03C04AE00E945D0B83E991E00E94EE
:1023D0004B0B6091310270913202809133029091E7
:1023E000340297FF03C00E949E0B03C04AE00E9484
:1023F0005D0B89E991E00E944B0B80912D02909139
:102400002E02A0912F02B0913002885F984FAF4FFB
:10241000BF4F8034F6E09F07A105B10558F0853322
:1024200028E09207A105B10538F084E398E0A0E028
:10243000B0E002C080E496E090932C0280932B02DF
:102440008091270290912802A0912902B0912A023E
:10245000885F984FAF4FBF4F803436E09307A10598
:10246000B10558F0853348E09407A105B10538F06F
:1024700084E398E0A0E0B0E002C080E496E09093AE
:1024800026028093250280910802882311F061E0E2
:1024900001C060E083E00E94540C0E94D70C2091A0
:1024A000060230910702AB01BC01421B530B6109CC
:1024B0007109413D57406105710510F01092080205
:1024C000E0900402F0900502C0910002D091010258
:1024D00000910202109103020C1B1D0BE016F10685
:1024E000F8F48091FC019091FD018C1B9D0B2091D3
:1024F000FE013091FF018217930708F080C380919D
:10250000F8019091F9018C1B9D0B2091FA013091FB
:10251000FB012817390708F072C30E94160A6FC31F
:102520000E151F0538F58091FC019091FD018C1B63
:102530009D0B2091FE013091FF0128173907D0F43F
:102540008091F8019091F9018C1B9D0B2091FA016B
:102550003091FB012817390708F056C36BE876E085
:1025600084E394E00E942D076DE275E087E394E038
:102570000E942D07E016F10608F04FC08091FC0183
:102580009091FD018C1B9D0B2091FE013091FF016C
:1025900028173907C8F48091F8019091F9018C1B34
:1025A0009D0B2091FA013091FB018217930760F493
:1025B0006DE275E084E394E00E942D076BE876E01D
:1025C00087E394E00E942D078091FC019091FD012A
:1025D0008C1B9D0B2091FE013091FF0128173907BC
:1025E000E0F48091F8019091F9018C1B9D0B2091F2
:1025F000FA013091FB012817390778F46DE275E094
:1026000084E394E00E942D076DE275E087E394E097
:102610000E942D0780E00E94C8090E151F05E0F4F6
:102620008091FC019091FD018C1B9D0B2091FE017E
:102630003091FF018217930778F48091F80190910F
:10264000F9018C1B9D0B2091FA013091FB0182173F
:10265000930710F40E94160A30923E0220923D0227
:102660007AC280914502882309F475C280914102A3
:1026700081111DC0909241021092240210922302F7
:1026800010922202109221021092200210921F0238
:102690000E94D70C60931B0270931C0280931D0252
:1026A00090931E0210921A021092190255C00E94B5
:1026B000D70C00911B0210911C0220911D02309139
:1026C0001E02DC01CB01801B910BA20BB30B8536E4
:1026D0009105A105B10508F43FC00E94D70C609395
:1026E0001B0270931C0280931D0290931E020E9495
:1026F000250A2091230230912402809104029091B6
:102700000502820F931F909324028093230220914D
:102710002102309122028091FE019091FF01820FEF
:10272000931F909322028093210220911F023091E7
:1027300020028091FA019091FB01820F931F9093E8
:10274000200280931F028091190290911A02019633
:1027500090931A02809319022091190230911A0263
:102760002431310509F049C080912302909124025F
:10277000B9010E94CC1A462F609323027093240261
:102780008091210290912202B9010E94CC1A70938B
:1027900022026093210280911F0290912002B901D0
:1027A0000E94CC1A7093200260931F02642F82E073
:1027B00090E00E94C4096091240283E090E00E94AE
:1027C000C4096091210286E090E00E94C4096091F2
:1027D000220287E090E00E94C40960911F028AE013
:1027E00090E00E94C409609120028BE090E00E947A
:1027F000C4091092430210924202E2E0F0E0F0932A
:102800003E02E0933D02A7C180914502882309F46E
:10281000A2C18091410281111DC09092410210928B
:102820000302109202021092FD011092FC0110921C
:10283000F9011092F8010E94D70C60931B0270936B
:102840001C0280931D0290931E0210921A02109295
:10285000190255C00E94D70C00911B0210911C0256
:1028600020911D0230911E02DC01CB01801B910BD7
:10287000A20BB30B85369105A105B10508F43FC045
:102880000E94D70C60931B0270931C0280931D0260
:1028900090931E020E94250A2091020230910302A9
:1028A0008091040290910502820F931F909303027E
:1028B000809302022091FC013091FD018091FE0184
:1028C0009091FF01820F931F9093FD018093FC0173
:1028D0002091F8013091F9018091FA019091FB016A
:1028E000820F931F9093F9018093F8018091190250
:1028F00090911A02019690931A02809319022091E6
:10290000190230911A022431310509F049C0809131
:10291000020290910302B9010E94CC1A462F6093E3
:102920000202709303028091FC019091FD01B901B4
:102930000E94CC1A7093FD016093FC018091F80114
:102940009091F901B9010E94CC1A7093F90160933A
:10295000F801642F80E090E00E94C40960910302B6
:1029600081E090E00E94C4096091FC0184E090E065
:102970000E94C4096091FD0185E090E00E94C409B5
:102980006091F80188E090E00E94C4096091F9012B
:1029900089E090E00E94C409109243021092420222
:1029A00083E090E0D4C080914502882309F4D3C02D
:1029B00080914102811123C0909241026AE484E136
:1029C00094E00E94ED086AE481E294E00E94ED0840
:1029D0000E94D70C60931B0270931C0280931D020F
:1029E00090931E0268E077E084E394E00E942D0754
:1029F00068E077E087E394E00E942D07A6C00E947C
:102A0000D70C00911B0210911C0220911D023091E5
:102A10001E02DC01CB01801B910BA20BB30B89388A
:102A20009341A105B10508F490C06CED75E084E315
:102A300094E00E942D076CED75E087E394E00E941E
:102A40002D0784E194E00E94FF086B017C016093F4
:102A5000350270933602809337029093380281E2F8
:102A600094E00E94FF0860933102709332028093D9
:102A70003302909334026C157D058E059F05ECF4AE
:102A800010922702109228021092290210922A0214
:102A9000A7019601261B370B480B590BCA01B90138
:102AA000A30192010E94901620932D0230932E02D2
:102AB00040932F025093300218C06C197D098E0983
:102AC0009F09A30192010E94901620932702309340
:102AD00028024093290250932A0210922D0210924C
:102AE0002E0210922F0210923002609127028EE087
:102AF00090E00E94C4098091270290912802A09141
:102B00002902B0912A02692F7A2F8B2F99278FE003
:102B100090E00E94C40960912D028CE090E00E9438
:102B2000C40980912D0290912E02A0912F02B091A4
:102B30003002692F7A2F8B2F99278DE090E00E9429
:102B4000C409109243021092420284E090E09093F4
:102B50003E0280933D020E94D70C00911502109115
:102B600016022091170230911802DC01CB01801B64
:102B7000910BA20BB30B853F9140A105B105E0F18C
:102B80000E94D70C6093150270931602809317026F
:102B900090931802C0910301C925C09303016C2FC3
:102BA00081E00E9480096C2F8DE00E94540CC0913E
:102BB0001302D0911402DE01AA0FBB1FAA5FBE4F01
:102BC000E0913D02F0913E02EE0FFF1FEA5DFE4FE5
:102BD0008D919C91208131818223932361E0892B07
:102BE00009F060E084E00E9480092196CF70DD2723
:102BF000D0931402C09313020E949E01D3CA0E15F3
:102C00001F0508F490CCBACCE016F10608F4C3CC4A
:102C100004CDEBE6F3E01382128288EE93E0A0E0AD
:102C2000B0E084839583A683B78326E631E03183C1
:102C3000208325EC30E03587248724EC30E037878B
:102C4000268720EC30E0318B208B21EC30E0338B79
:102C5000228B22EC30E0358B248B26EC30E0378B56
:102C6000268B118E128E138E148EE8E0F4E0138200
:102C7000128284839583A683B78388E791E091834A
:102C8000808387E394E00E94100884E394E00E942C
:102C9000100881E394E00E9410088EE294E00E9404
:102CA000100880910501E1E2F4E0282F30E034873C
:102CB0002387108211821282138214821582168257
:102CC0001782108612861186E4E1F4E021E0280FD5
:102CD00030E0348723878E5F809305011082118254
:102CE000128213821482158216821782108612862F
:102CF00011860895F999FECF92BD81BDF89A992762
:102D000080B50895262FF999FECF1FBA92BD81BDD7
:102D100020BD0FB6F894FA9AF99A0FBE019608955D
:102D2000052E97FB1EF400940E94A71657FD07D0AE
:102D30000E94C21607FC03D04EF40C94A7165095BF
:102D40004095309521953F4F4F4F5F4F0895909597
:102D50008095709561957F4F8F4F9F4F08950E948A
:102D6000E416A59F900DB49F900DA49F800D911D1A
:102D700011240895B7FF0C94AF160E94AF16821B62
:102D8000930B0895A1E21A2EAA1BBB1BFD010DC0D7
:102D9000AA1FBB1FEE1FFF1FA217B307E407F5070B
:102DA00020F0A21BB30BE40BF50B661F771F881FE7
:102DB000991F1A9469F760957095809590959B017D
:102DC000AC01BD01CF010895A29FB001B39FC00126
:102DD000A39F700D811D1124911DB29F700D811D47
:102DE0001124911D08950E94671788F09F5798F04D
:102DF000B92F9927B751B0F0E1F0660F771F881F00
:102E0000991F1AF0BA95C9F714C0B13091F00E9419
:102E10008117B1E008950C948117672F782F8827C8
:102E2000B85F39F0B93FCCF3869577956795B39540
:102E3000D9F73EF490958095709561957F4F8F4FAF
:102E40009F4F0895E89409C097FB3EF490958095B4
:102E5000709561957F4F8F4F9F4F9923A9F0F92F60
:102E600096E9BB279395F695879577956795B795DE
:102E7000F111F8CFFAF4BB0F11F460FF1BC06F5FC4
:102E80007F4F8F4F9F4F16C0882311F096E911C0D6
:102E9000772321F09EE8872F762F05C0662371F0F7
:102EA00096E8862F70E060E02AF09A95660F771F0B
:102EB000881FDAF7880F9695879597F9089557FD3B
:102EC0009058440F551F59F05F3F71F04795880F98
:102ED00097FB991F61F09F3F79F08795089512162F
:102EE00013061406551FF2CF4695F1DF08C01616DB
:102EF00017061806991FF1CF86957105610508948C
:102F00000895E894BB2766277727CB0197F90895A2
:102F1000FA01EE0FFF1F309621053105A1F1611571
:102F2000710561F48038BFE39B0749F168949038DC
:102F3000810561F08038BFEF9B0741F099234AF586
:102F4000FF3FE1053105210519F1E8940894E79563
:102F5000D901AA2329F4AB2FBE2FF85FD0F310C0FC
:102F6000FF5F70F4A695E0F7F73950F019F0FF3ADB
:102F700038F49F779F930DD00F9007FC90580895D9
:102F800046F00C94651860E070E080E89FE30895D7
:102F90004FE79F775F934F933F932F930E94D918EA
:102FA0002F913F914F915F910E9455190C940418F5
:102FB0000E946717E8F09E37E8F09639B8F49E381B
:102FC00048F4672F782F8827985FF9CF86957795F3
:102FD000679593959539D0F3B62FB1706B0F711D2E
:102FE000811D20F487957795679593950C943C18EF
:102FF0000C9457180C94821729F416F00C94361878
:103000000C9481170C9465180E946717A8F39638E2
:10301000A0F707F80F92E8942BE33AEA48EB5FE752
:103020000E946B190F920F920F924DB75EB70F92DD
:103030000E942119E8E6F0E00E9468184F915F9124
:10304000EF91FF91E595EE1FFF1F49F0FE57E068F5
:103050004427EE0F441FFA95E1F74195550B0E9466
:103060009B180F9007FE0C948F18089597F99F678F
:1030700080E870E060E00895882371F4772321F000
:103080009850872B762F07C0662311F499270DC01F
:103090009051862B70E060E02AF09A95660F771FBA
:1030A000881FDAF7880F9695879597F908959F3FBF
:1030B00031F0915020F4879577956795B795880FF3
:1030C000911D9695879597F908959FEF80EC089547
:1030D000DF93CF931F930F93FF92EF92DF927B01C9
:1030E0008C01689406C0DA2EEF010E946819FE0177
:1030F000E894A5912591359145915591A6F3EF015D
:103100000E94DA19FE019701A801DA9469F7DF90AD
:10311000EF90FF900F911F91CF91DF9108959B0148
:10312000AC0160E070E080E89FE30C942F1A0C94EF
:1031300036180C9457180E946717D8F39923C9F3CF
:10314000940F511DA3F39150504094F059F08823EF
:1031500032F0660F771F881F91505040C1F79E3F95
:1031600051052CF7880F911D9695879597F908952D
:103170005F3FACF0983E9CF0BB27869577956795AE
:10318000B79508F4B1609395C1F7BB0F58F711F4E8
:1031900060FFE8CF6F5F7F4F8F4F9F4FE3CF0C945F
:1031A000821716F00C9457180C94651868940C94B8
:1031B00036180E946717A8F39923C1F3AEF3DF9383
:1031C000CF931F930F93FF92C92FDD2788232AF0F7
:1031D0002197660F771F881FDAF720E030E040E87C
:1031E0005FEB9FE3883920F0803E38F021968F779F
:1031F0000E94C319E0E9F0E004C00E94C319EDEB9E
:10320000F0E00E9468188B01BE01EC01FB2E6F57A5
:1032100071097595771F880B990B0E94241728E177
:1032200032E741E35FE30E946819AF2D9801AE01D8
:10323000FF900F911F91CF91DF910E94DA190C94AA
:10324000AF1AFA01DC01AA0FBB1F9B01AC01BF57EB
:1032500028F4222733274427507820C0B75190F410
:10326000AB2F0024469537952795011CA395D2F3E3
:10327000002071F0220F331F441FB395DAF30ED0F4
:103280000C94C21961307105A0E88A07B94630F480
:103290009B01AC016627772788279078309621F02C
:1032A000208331834283538308950E9468190C94CC
:1032B000AF1A0E94A11A38F00E94A81A20F0952394
:1032C00011F00C9436180C94651811240C94821784
:1032D0000E945F1770F3959FC1F3950F50E0551F43
:1032E000629FF001729FBB27F00DB11D639FAA275B
:1032F000F00DB11DAA1F649F6627B00DA11D661FAA
:10330000829F2227B00DA11D621F739FB00DA11DCA
:10331000621F839FA00D611D221F749F3327A00D84
:10332000611D231F849F600D211D822F762F6A2F20
:1033300011249F5750409AF0F1F088234AF0EE0F85
:10334000FF1FBB1F661F771F881F91505040A9F7B2
:103350009E3F510580F00C9436180C9482175F3F05
:10336000E4F3983ED4F3869577956795B795F795EE
:10337000E7959F5FC1F7FE2B880F911D9695879566
:1033800097F908955058BB27AA270E94DA190C9480
:10339000AF1A0E94A11A38F00E94A81A20F039F43E
:1033A0009F3F19F426F40C9465180EF4E095E7FBA2
:1033B0000C943618E92F0E945F1758F3BA1762076A
:1033C00073078407950720F079F4A6F50C9481170C
:1033D0000EF4E0950B2EBA2FA02D0B01B901900130
:1033E0000C01CA01A0011124FF27591B99F0593F74
:1033F00050F4503E68F11A16F040A22F232F342FBC
:103400004427585FF3CF469537952795A795F04009
:103410005395C9F77EF41F16BA0B620B730B840B1E
:10342000BAF09150A1F0FF0FBB1F661F771F881FD6
:10343000C2F70EC0BA0F621F731F841F48F487952E
:1034400077956795B795F7959E3F08F0B0CF939520
:10345000880F08F09927EE0F9795879508950E9499
:10346000431A0C94AF1A0E94A81A58F00E94A11A8D
:1034700040F029F45F3F29F00C94361851110C9458
:1034800082170C9465180E945F1768F39923B1F3B3
:10349000552391F3951B550BBB27AA27621773077A
:1034A000840738F09F5F5F4F220F331F441FAA1F0E
:1034B000A9F335D00E2E3AF0E0E832D091505040CA
:1034C000E695001CCAF72BD0FE2F29D0660F771F78
:1034D000881FBB1F261737074807AB07B0E809F05E
:1034E000BB0B802DBF01FF2793585F4F3AF09E3FE3
:1034F000510578F00C9436180C9482175F3FE4F372
:10350000983ED4F3869577956795B795F7959F5F25
:10351000C9F7880F911D9695879597F90895E1E071
:10352000660F771F881FBB1F621773078407BA07D0
:1035300020F0621B730B840BBA0BEE1F88F7E0952B
:10354000089500240A941616170618060906089509
:1035500000240A9412161306140605060895092E6F
:103560000394000C11F4882352F0BB0F40F4BF2BDE
:1035700011F460FF04C06F5F7F4F8F4F9F4F08951E
:10358000991B79E004C0991F961708F0961B881FB5
:103590007A95C9F780950895AA1BBB1B51E107C016
:1035A000AA1FBB1FA617B70710F0A61BB70B881FD3
:1035B000991F5A95A9F780959095BC01CD01089562
:1035C000EE0FFF1F0590F491E02D099481E090E04B
:0A35D000F8940C94EB1AF894FFCF66
:1035DA00FFFF0D01011001000200040008001000A5
:1035EA0020004000800000010002000400080010D2
:1035FA000020004000000000FF000F0F3333AAAA8A
:10360A00FFFF010002000400080010002000400033
:10361A0080000001000200040008FEFFFDFFFBFF1E
:10362A00F7FFEFFFDFFFBFFF7FFFFFFEFFFDFFFB9F
:10363A00FFF70000000035017F0ACD007C01FE0083
:10364A00DC00F00000000000360206026602DA0121
:10365A00FE01EA01DB01456E636F64657273204CFB
:0C366A003A20002C20523A20000D0A00EB
:00000001FF
