:100000000C9462000C948A000C948A000C948A0070
:100010000C948A000C948A000C948A000C948A0038
:100020000C948A000C948A000C948A000C94CF03E0
:100030000C948A000C948A000C948A000C948A0018
:100040000C942D030C948A000C949D030C9477035C
:100050000C948A000C948A000C948A000C948A00F8
:100060000C948A000C948A000000000024002700F1
:100070002A0000000000250028002B0000000000DE
:1000800023002600290004040404040404040202DA
:100090000202020203030303030301020408102007
:1000A0004080010204081020010204081020000012
:1000B0000008000201000003040700000000000027
:1000C0000000900411241FBECFEFD8E0DEBFCDBFEB
:1000D00011E0A0E0B1E0E4E5FFE002C005900D9280
:1000E000A632B107D9F722E0A6E2B1E001C01D9225
:1000F000A530B207E1F710E0C2E6D0E004C02197D6
:10010000FE010E949D07C136D107C9F70E94EE0487
:100110000C94A8070C940000CF92DF92EF92FF920C
:10012000DC01A03282E0B8070CF03EC0B7FD06C08B
:10013000A53BB1052CF0A4EBB0E002C0A0E0B0E01C
:100140008091030228E830E06901C81AD10887FDD0
:10015000D394CC0CDD1CCC0CDD1C0D2C000CEE085B
:10016000FF088091040228E532E0281B310987FD51
:100170003395220F331F220F331FA901330F660B54
:10018000770B9A01AB012C193D094E095F090E94BA
:10019000510724EB30E040E050E00E942707C20EF8
:1001A000D31EE41EF51ED601909102029C3098F5F4
:1001B0008091030248E850E0481B510987FD5395A0
:1001C000440F551F440F551FA417B5078CF080919D
:1001D000040228E532E0281B310987FD3395220F00
:1001E000331F220F331FAD012A173B070CF4A9015F
:1001F00042505109440F551F2FB7F894892F90E0B2
:10020000FC01EE0FFF1F8E0F9F1FFC01E352FE4FFC
:10021000528341832FBFFF90EF90DF90CF900895DE
:10022000833081F028F4813099F08230A1F0089574
:100230008730A9F08830B9F08430D1F48091800003
:100240008F7D03C0809180008F7780938000089518
:1002500084B58F7702C084B58F7D84BD0895809169
:10026000B0008F7703C08091B0008F7D8093B00085
:100270000895CF93DF93282F30E0F901E255FF4F27
:100280008491F901E656FF4FD491F901EA57FF4FE7
:10029000C491CC2391F081110E941001EC2FF0E069
:1002A000EE0FFF1FE458FF4FA591B491EC91ED23A1
:1002B00081E090E021F480E002C080E090E0DF91F6
:1002C000CF9108951F93CF93DF93282F30E0F9014A
:1002D000E255FF4F8491F901E656FF4FD491F901A1
:1002E000EA57FF4FC491CC23C9F0162F81110E9409
:1002F0001001EC2FF0E0EE0FFF1FEE58FF4FA5911D
:10030000B4918FB7F894111105C09C91ED2FE09531
:10031000E92302C0EC91ED2BEC938FBFDF91CF91DD
:100320001F910895CF93DF9390E0FC01E656FF4FB5
:100330002491FC01EA57FF4F8491882361F190E0FA
:10034000880F991FFC01E859FF4FC591D491FC011A
:10035000EE58FF4FA591B491611109C09FB7F89471
:100360008881209582238883EC912E230BC06230F4
:1003700061F49FB7F8943881822F80958323888316
:10038000EC912E2B2C939FBF06C08FB7F894E88179
:100390002E2B28838FBFDF91CF910895CF92DF92CC
:1003A000EF92FF920F931F93CF93DF936C017A012B
:1003B0008B01C0E0D0E0CE15DF0589F0D8016D914A
:1003C0008D01D601ED91FC910190F081E02DC601E7
:1003D0000995892B11F47E0102C02196ECCFC7014B
:1003E000DF91CF911F910F91FF90EF90DF90CF9011
:1003F0000895089580E090E00895FC01538D448DA8
:10040000252F30E0842F90E0821B930B541710F0BF
:10041000CF96089501970895FC01918D828D9817CC
:1004200061F0828DDF01A80FB11D5D968C91928DD8
:100430009F5F9F73928F90E008958FEF9FEF0895D5
:10044000FC01918D828D981731F0828DE80FF11D9E
:10045000858D90E008958FEF9FEF0895FC01918DB9
:10046000228D892F90E0805C9F4F821B91098F73B2
:100470009927089580E491E00E942E0221E0892BC3
:1004800009F420E0822F0895FC01848DDF01A80F7C
:10049000B11DA35ABF4F2C91848D90E001968F73AC
:1004A0009927848FA689B7892C93A089B1898C91CB
:1004B00080648C93938D848D981306C00288F38991
:1004C000E02D80818F7D80830895EF92FF920F93BE
:1004D0001F93CF93DF93EC0181E0888F9B8D8C8DF0
:1004E000981305C0E889F989808185FD24C0F62E1E
:1004F0000B8D10E00F5F1F4F0F731127E02E8C8DB7
:10050000E8120CC00FB607FCFACFE889F9898081A0
:1005100085FFF5CFCE010E944402F1CF8B8DFE0105
:10052000E80FF11DE35AFF4FF0820B8FEA89FB8938
:100530008081806207C0EE89FF896083E889F9893C
:1005400080818064808381E090E0DF91CF911F9172
:100550000F91FF90EF900895CF93DF93EC01888D7A
:100560008823C9F0EA89FB89808185FD05C0A889B7
:10057000B9898C9186FD0FC00FB607FCF5CF80813D
:1005800085FFF2CFA889B9898C9185FFEDCFCE0187
:100590000E944402E7CFDF91CF91089580E090E080
:1005A000892B29F00E943A0281110C9400000895D1
:1005B000009769F0FC0101900020E9F73197AF0145
:1005C000481B590BBC0180E491E00C94CE0180E003
:1005D00090E008958F929F92AF92BF920F931F93D6
:1005E000CF93DF93CDB7DEB7A1970FB6F894DEBFF8
:1005F0000FBECDBF19A2423008F44AE08E010F5D54
:100600001F4F842E912CA12CB12CA50194010E9486
:100610005907E62FB901CA0101501109EA3014F453
:10062000E05D01C0E95CD801EC93232B242B252B42
:1006300061F7C8010E94D802A1960FB6F894DEBFF8
:100640000FBECDBFDF91CF911F910F91BF90AF90A3
:100650009F908F9008950E94A3071F920F920FB64C
:100660000F9211242F933F938F939F93AF93BF9338
:1006700080913C0190913D01A0913E01B0913F01DC
:1006800030913B0123E0230F2D3720F40196A11D6B
:10069000B11D05C026E8230F0296A11DB11D2093B0
:1006A0003B0180933C0190933D01A0933E01B093A8
:1006B0003F018091370190913801A0913901B091AB
:1006C0003A010196A11DB11D809337019093380125
:1006D000A0933901B0933A01BF91AF919F918F914F
:1006E0003F912F910F900FBE0F901F9018951F9262
:1006F0000F920FB60F9211242F933F934F935F9356
:100700006F937F938F939F93AF93BF93EF93FF93D9
:1007100080E491E00E944402FF91EF91BF91AF917C
:100720009F918F917F916F915F914F913F912F9109
:100730000F900FBE0F901F9018951F920F920FB63B
:100740000F9211242F938F939F93EF93FF93E09138
:100750005001F09151018081E0915601F0915701D3
:1007600082FD12C09081809159018F5F8F7320911B
:100770005A01821751F0E0915901F0E0E05CFE4F20
:10078000958F8093590101C08081FF91EF919F91D6
:100790008F912F910F900FBE0F901F9018951F9261
:1007A0000F920FB60F9211242F933F934F935F93A5
:1007B0006F937F938F939F93AF93BF93EF93FF9329
:1007C0008091260187FF05C0109285001092840059
:1007D0001BC020912601022E000C330B80910102D8
:1007E00090E02817390784F480912601082E000C28
:1007F000990BFC01EE0FFF1F8E0F9F1FFC01E352B0
:10080000FE4F808186FD15C0809126018F5F809309
:10081000260120912601022E000C330B809101024B
:1008200090E028173907C4F4809126018C3064F1D8
:1008300013C080912601082E000C990BFC01EE0FCD
:10084000FF1F8E0F9F1FFC01E352FE4F808160E06F
:100850008F730E946201D8CF8091840090918500AF
:10086000049680349C4918F480E49CE905C080918A
:10087000840090918500049690938900809388006D
:100880008FEF809326013BC020918400309185003A
:1008900080912601082E000C990BFC01EE0FFF1F22
:1008A0008E0F9F1FFC01E352FE4F81819281820FC8
:1008B000931F909389008093880080912601082ED1
:1008C000000C990BFC01EE0FFF1F8E0F9F1FFC0108
:1008D000E352FE4F808186FF12C080912601082ED0
:1008E000000C990BFC01EE0FFF1F8E0F9F1FFC01E8
:1008F000E352FE4F808161E08F730E946201FF919D
:10090000EF91BF91AF919F918F917F916F915F9187
:100910004F913F912F910F900FBE0F901F90189500
:10092000109243011092420188EE93E0A0E0B0E003
:100930008093440190934501A0934601B0934701F1
:100940008FE091E0909341018093400185EC90E02D
:1009500090934D0180934C0184EC90E090934F0173
:1009600080934E0180EC90E0909351018093500170
:1009700081EC90E0909353018093520182EC90E0DF
:10098000909355018093540186EC90E09093570129
:10099000809356011092590110925A0110925B01F6
:1009A00010925C01809101028C30A0F491E0980FCC
:1009B000909301028093020290E0FC01EE0FFF1F72
:1009C0008E0F9F1FFC01E352FE4F88EB9BE092834A
:1009D000818308958FEF809302020895789484B5FF
:1009E000826084BD84B5816084BD85B5826085BD2B
:1009F00085B5816085BD80916E00816080936E00B9
:100A000010928100809181008260809381008091AA
:100A1000810081608093810080918000816080935B
:100A200080008091B10084608093B1008091B0001B
:100A300081608093B00080917A00846080937A0016
:100A400080917A00826080937A0080917A00816040
:100A500080937A0080917A00806880937A00109267
:100A6000C10061E087E00E94920161E086E00E949F
:100A7000920161E085E00E94920161E084E00E94C1
:100A8000920160E082E00E94920160E083E00E94B7
:100A9000920161E082E00E946201E0915001F091D8
:100AA000510182E08083E0914C01F0914D01108270
:100AB000E0914E01F0914F018FEC8083109258012C
:100AC000E0915401F091550186E08083E09152015C
:100AD000F0915301808180618083E0915201F09117
:100AE0005301808188608083E0915201F09153012D
:100AF000808180688083E0915201F0915301808170
:100B00008F7D8083809102028C3008F051C061E0BB
:100B100089E00E94920180910202E82FF0E09F019B
:100B2000220F331FE20FF31FE352FE4F9081907CA0
:100B30009960908310920302109204026CE00E946C
:100B40008A072CE0829FB001112440E050E09A0116
:100B5000260F371FF901EE0FFF1F2E0F3F1FF90160
:100B6000E352FE4F908196FD16C04F5F5F4F4C30B1
:100B7000510569F781110FC01092800082E08093C7
:100B800081001092850010928400B19A80916F00CC
:100B9000826080936F00E0910202F0E0CF01880F45
:100BA000991FE80FF91FE352FE4F80818064808314
:100BB000812C912C540183946AE0C62ED12CE12C17
:100BC000F12C44244A9473E0572E612C712C01E0DF
:100BD00010E0C2E0D0E08DE191E00E94D80282E214
:100BE00091E00E94D802609101017091020180E0C1
:100BF00090E04AE00E94EA0282E291E00E94D8027C
:100C000083E00E943901892BC9F182E00E943901F9
:100C1000892B09F011C18091010190910201883E58
:100C2000934008F009C18092330190923401A09260
:100C30003501B092360182E00E943901892B29F7F3
:100C400060913301709134018091350190913601AA
:100C50009B01AC012F5F3F4F4F4F5F4F20933301FC
:100C60003093340140933501509336014AE00E949D
:100C7000EA0282E291E00E94D802DDCF80E4809314
:100C80007C0080917A00806480937A0080917A0061
:100C900086FDFCCFA091780080917900B0E0B82B60
:100CA000AD010B2E000C660B770B40932F01509378
:100CB0003001609331017093320124E630E00E94EC
:100CC0009607A30192010E945907309302012093D5
:100CD00001018FB7F89440913C0150913D01609122
:100CE0003E0170913F018FBF50932E0140932D0123
:100CF00080912B0190912C019A01281B390B809136
:100D00000101909102012817390708F492C050930D
:100D10002C0140932B012090290130902A012114AD
:100D2000310421F481E08093000106C093E029168C
:100D3000310411F410920001809127019091280153
:100D4000209100012223F9F00097F9F024E0221607
:100D500031044CF48130910531F4F101EE0FFF1FA5
:100D6000EB5FFE4F2BC08230910571F7F101EE0F62
:100D7000FF1FED5FFE4F60E080810E9462018FEFF8
:100D8000281A380A33C0009771F4F101EE0FFF1FE3
:100D9000ED5FFE4F61E080810E94620110932801A7
:100DA000009327012BC0121413048CF48130910599
:100DB00071F4F101EE0FFF1FEF5FFE4F61E08081E4
:100DC0000E946201D0932801C093270117C082308E
:100DD0009105C9F6F101EE0FFF1FED5FFE4F60E0D8
:100DE00080810E94620191E0291A310830922A0123
:100DF0002092290110922801109227018091290147
:100E000090912A01009719F480E090E010C08130A1
:100E1000910519F48CE390E00AC08230910519F431
:100E200088E790E004C0039721F484EB90E00E94EF
:100E30008C000E94CE02CFCE6091330170913401BC
:100E40008091350190913601A70196013CCF052E86
:100E500097FB1EF400940E943E0757FD07D00E94A6
:100E6000590707FC03D04EF40C943E07509540956B
:100E7000309521953F4F4F4F5F4F08959095809546
:100E8000709561957F4F8F4F9F4F08950E947B070C
:100E9000A59F900DB49F900DA49F800D911D1124CE
:100EA0000895B7FF0C9446070E944607821B930BD8
:100EB0000895A1E21A2EAA1BBB1BFD010DC0AA1F9B
:100EC000BB1FEE1FFF1FA217B307E407F50720F0B3
:100ED000A21BB30BE40BF50B661F771F881F991F2E
:100EE0001A9469F760957095809590959B01AC0177
:100EF000BD01CF010895A29FB001B39FC001A39F80
:100F0000700D811D1124911DB29F700D811D112442
:100F1000911D0895991B79E004C0991F961708F058
:100F2000961B881F7A95C9F7809508950E947B07C4
:100F3000B7FF0895821B930B0895EE0FFF1F0590D6
:100F4000F491E02D099481E090E0F8940C94A807C6
:040F5000F894FFCF43
:100F540001640007000600050004000000000065AD
:100F640002CE01FD01AC022E020C022002496E7475
:060F74003A000D0A000026
:00000001FF
