:100000000C945D000C9485000C9485000C94850084
:100010000C9485000C9485000C9485000C9485004C
:100020000C9485000C9485000C9485000C94D002EF
:100030000C9485000C9485000C9485000C9485002C
:100040000C942E020C9485000C949E020C94780261
:100050000C9485000C9485000C9485000C9485000C
:100060000C9485000C9485000000000024002700FB
:100070002A0000000000250028002B0004040404CE
:100080000404040402020202020203030303030342
:10009000010204081020408001020408102001021F
:1000A00004081020000000080002010000030407FB
:1000B0000000000000000000910311241FBECFEFDC
:1000C000D8E0DEBFCDBF11E0A0E0B1E0ECEEFCE097
:1000D00002C005900D92A831B107D9F721E0A8E13F
:1000E000B1E001C01D92AF3EB207E1F710E0CDE5EF
:1000F000D0E004C02197FE010E946906CC35D107EB
:10010000C9F70E94EF030C9474060C94000080E47D
:1001100080937C0080917A00806480937A00809143
:100120007A0086FDFCCF809178002091790090E0E4
:10013000922B089590E0FC01EC55FF4F3491FC01A7
:10014000E057FF4F2491FC01E458FF4FE491EE2368
:1001500009F43BC0332339F1333091F038F43130B6
:10016000A9F0323001F584B58F7D12C0373091F09F
:100170003830A1F03430B9F4809180008F7D03C015
:10018000809180008F77809380000DC084B58F7739
:1001900084BD09C08091B0008F7703C08091B0000A
:1001A0008F7D8093B000F0E0EE0FFF1FEE58FF4F01
:1001B000A591B4918FB7F894EC91611103C020958B
:1001C0002E2301C02E2B2C938FBF0895CF93DF9346
:1001D00090E0FC01E057FF4F2491FC01E458FF4FF1
:1001E0008491882361F190E0880F991FFC01E85900
:1001F000FF4FC591D491FC01EE58FF4FA591B491EA
:10020000611109C09FB7F894888120958223888363
:10021000EC912E230BC0623061F49FB7F8943881C3
:10022000822F809583238883EC912E2B2C939FBF64
:1002300006C08FB7F894E8812E2B28838FBFDF91FB
:10024000CF910895CF92DF92EF92FF920F931F9379
:10025000CF93DF936C017A018B01C0E0D0E0CE1523
:10026000DF0589F0D8016D918D01D601ED91FC91EA
:100270000190F081E02DC6010995892B11F47E01D2
:1002800002C02196ECCFC701DF91CF911F910F9152
:10029000FF90EF90DF90CF900895089580E090E078
:1002A0000895FC01538D448D252F30E0842F90E07C
:1002B000821B930B541710F0CF9608950197089561
:1002C000FC01918D828D981761F0828DDF01A80F5E
:1002D000B11D5D968C91928D9F5F9F73928F90E080
:1002E00008958FEF9FEF0895FC01918D828D9817EF
:1002F00031F0828DE80FF11D858D90E008958FEF2C
:100300009FEF0895FC01918D228D892F90E0805CF4
:100310009F4F821B91098F73992708958AE291E07C
:100320000E94820121E0892B09F420E0822F0895A8
:10033000FC01848DDF01A80FB11DA35ABF4F2C9182
:10034000848D90E001968F739927848FA689B78951
:100350002C93A089B1898C9180648C93938D848D2A
:10036000981306C00288F389E02D80818F7D8083F9
:100370000895EF92FF920F931F93CF93DF93EC01B9
:1003800081E0888F9B8D8C8D981305C0E889F98951
:10039000808185FD24C0F62E0B8D10E00F5F1F4F6E
:1003A0000F731127E02E8C8DE8120CC00FB607FCDE
:1003B000FACFE889F989808185FFF5CFCE010E94C7
:1003C0009801F1CF8B8DFE01E80FF11DE35AFF4F2D
:1003D000F0820B8FEA89FB898081806207C0EE89F9
:1003E000FF896083E889F98980818064808381E066
:1003F00090E0DF91CF911F910F91FF90EF900895C2
:10040000CF93DF93EC01888D8823C9F0EA89FB89BB
:10041000808185FD05C0A889B9898C9186FD0FC0B2
:100420000FB607FCF5CF808185FFF2CFA889B98987
:100430008C9185FFEDCFCE010E949801E7CFDF912F
:10044000CF91089580E090E0892B29F00E948E01E1
:1004500081110C94000008950E946F061F920F9264
:100460000FB60F9211242F933F938F939F93AF93C7
:10047000BF938091260190912701A0912801B0910E
:1004800029013091250123E0230F2D3720F4019617
:10049000A11DB11D05C026E8230F0296A11DB11DA7
:1004A000209325018093260190932701A093280192
:1004B000B09329018091210190912201A091230103
:1004C000B09124010196A11DB11D8093210190934B
:1004D0002201A0932301B0932401BF91AF919F917A
:1004E0008F913F912F910F900FBE0F901F901895F5
:1004F0001F920F920FB60F9211242F933F934F9399
:100500005F936F937F938F939F93AF93BF93EF937B
:10051000FF938AE291E00E949801FF91EF91BF91D1
:10052000AF919F918F917F916F915F914F913F918B
:100530002F910F900FBE0F901F9018951F920F9242
:100540000FB60F9211242F938F939F93EF93FF93E6
:10055000E0913A01F0913B018081E0914001F091FE
:10056000410182FD12C09081809143018F5F8F73A2
:1005700020914401821751F0E0914301F0E0E65DE3
:10058000FE4F958F8093430101C08081FF91EF91D1
:100590009F918F912F910F900FBE0F901F901895E4
:1005A0001F920F920FB60F9211242F933F934F93E8
:1005B0005F936F937F938F939F93AF93BF93EF93CB
:1005C000FF938091180187FF05C01092850010925B
:1005D00084001BC020911801022E000C330B809167
:1005E000EB0190E02817390784F480911801082E58
:1005F000000C990BFC01EE0FFF1F8E0F9F1FFC01DB
:10060000E953FE4F808186FD15C0809118018F5FF0
:100610008093180120911801022E000C330B809159
:10062000EB0190E028173907C4F4809118018C3051
:1006300064F113C080911801082E000C990BFC0185
:10064000EE0FFF1F8E0F9F1FFC01E953FE4F8081AD
:1006500060E08F730E949A00D8CF809184009091BF
:100660008500049680349C4918F480E49CE905C018
:1006700080918400909185000496909389008093E6
:1006800088008FEF809318013BC020918400309147
:10069000850080911801082E000C990BFC01EE0FCB
:1006A000FF1F8E0F9F1FFC01E953FE4F8181928136
:1006B000820F931F90938900809388008091180186
:1006C000082E000C990BFC01EE0FFF1F8E0F9F1FD1
:1006D000FC01E953FE4F808186FF12C08091180112
:1006E000082E000C990BFC01EE0FFF1F8E0F9F1FB1
:1006F000FC01E953FE4F808161E08F730E949A00F4
:10070000FF91EF91BF91AF919F918F917F916F91E9
:100710005F914F913F912F910F900FBE0F901F90BF
:10072000189510922D0110922C0188EE93E0A0E014
:10073000B0E080932E0190932F01A0933001B093ED
:10074000310186E091E090932B0180932A0185ECA2
:1007500090E0909337018093360184EC90E0909381
:1007600039018093380180EC90E090933B018093B5
:100770003A0181EC90E090933D0180933C0182EC42
:1007800090E090933F0180933E0186EC90E090933F
:100790004101809340011092430110924401109254
:1007A0004501109246018091EB018C30A0F491E05C
:1007B000980F9093EB018093EC0190E0FC01EE0F19
:1007C000FF1F8E0F9F1FFC01E953FE4F88EB9BE03C
:1007D0009283818308958FEF8093EC010895CF93E6
:1007E000DF93CDB7DEB7A1970FB6F894DEBF0FBE8B
:1007F000CDBF789484B5826084BD84B5816084BDAA
:1008000085B5826085BD85B5816085BD80916E00AE
:10081000816080936E0010928100809181008260DF
:10082000809381008091810081608093810080911C
:1008300080008160809380008091B100846080930B
:10084000B1008091B00081608093B00080917A0007
:10085000846080937A0080917A00826080937A002D
:1008600080917A00816080937A0080917A0080681C
:1008700080937A001092C10061E087E00E94E60058
:1008800061E086E00E94E60061E085E00E94E6000B
:1008900061E084E00E94E60060E082E00E94E60001
:1008A00060E083E00E94E60061E082E00E949A003E
:1008B000E0913A01F0913B0182E08083E0913601C2
:1008C000F09137011082E0913801F09139018FECFD
:1008D000808310924201E0913E01F0913F0186E059
:1008E0008083E0913C01F0913D01808180618083B3
:1008F000E0913C01F0913D01808188608083E0912E
:100900003C01F0913D01808180688083E0913C0151
:10091000F0913D0180818F7D80838091EC018C304E
:1009200008F051C061E089E00E94E6008091EC018E
:10093000E82FF0E09F01220F331FE20FF31FE9536E
:10094000FE4F9081907C996090831092ED011092FF
:10095000EE016CE00E9456064CE0849FB001112429
:1009600040E050E09A01260F371FF901EE0FFF1FFC
:100970002E0F3F1FF901E953FE4F908196FD16C0DF
:100980004F5F5F4F4C30510569F781110FC01092D6
:10099000800082E080938100109285001092840094
:1009A000B19A80916F00826080936F00E091EC01BA
:1009B000F0E0CF01880F991FE80FF91FE953FE4FB0
:1009C000808180648083CC24CA9493E0D92EE12C6A
:1009D000F12C28E5222E22E0322E34EB432E512C2E
:1009E000612C712C0E948700AC01092E000C660B53
:1009F000770B40931D0150931E0160931F0170936C
:100A0000200124E630E0DC010E946206A701960185
:100A10000E94250630930101209300018FB7F894BE
:100A20004091260150912701609128017091290180
:100A30008FBF50931C0140931B018091190190912D
:100A40001A019A01281B390B809100019091010134
:100A50002817390720F050931A01409319010E947A
:100A600087009C01990F440B550B20931D01309377
:100A70001E0140931F015093200119A28E010F5DAA
:100A80001F4FCA01B9012AE030E040E050E00E9467
:100A90002506605DF80162938F012115310541053E
:100AA000510579F7309761F001900020E9F731970F
:100AB000AF01401B510BB8018AE291E00E94220174
:100AC00042E050E064E171E08AE291E00E9422019C
:100AD00020911D0130911E0140911F015091200174
:100AE000A4EBB0E00E941206A70196010E94250621
:100AF000F901E03242E0F4070CF03DC0F7FD06C01A
:100B0000E53BF1052CF0E4EBF0E002C0E0E0F0E0C2
:100B10008091ED01A8E8B0E0A81BB10987FDB3956D
:100B2000AA0FBB1FAA0FBB1F4D01BB0FAA08BB0812
:100B30008091EE018101081B110987FD1395000FBB
:100B4000111F000F111F012E000C220B330BA901E6
:100B50009801281939094A095B09DF010E941D061D
:100B6000A30192010E94F305DA01C901880D991DC4
:100B7000AA1DBB1DFC012091EC012C3088F5809151
:100B8000ED0148E850E0481B510987FD5395CA0123
:100B9000880F991F880F991FE817F90784F0809133
:100BA000EE01B101681B710987FD7395660F771F10
:100BB000660F771FCF016E177F070CF4CB010297EA
:100BC000880F991F4FB7F89430E0F901EE0FFF1F1F
:100BD0002E0F3F1FF901E953FE4F928381834FBFD0
:100BE0000E942202FFCE052E97FB1EF400940E9465
:100BF0000A0657FD07D00E94250607FC03D04EF4D5
:100C00000C940A0650954095309521953F4F4F4FD3
:100C10005F4F089590958095709561957F4F8F4FA8
:100C20009F4F08950E944706A59F900DB49F900D79
:100C3000A49F800D911D11240895B7FF0C941206F6
:100C40000E941206821B930B0895A1E21A2EAA1B82
:100C5000BB1BFD010DC0AA1FBB1FEE1FFF1FA2176C
:100C6000B307E407F50720F0A21BB30BE40BF50B69
:100C7000661F771F881F991F1A9469F760957095F2
:100C8000809590959B01AC01BD01CF010895A29F75
:100C9000B001B39FC001A39F700D811D1124911D50
:100CA000B29F700D811D1124911D0895991B79E04B
:100CB00004C0991F961708F0961B881F7A95C9F7EC
:100CC000809508950E944706B7FF0895821B930BF5
:100CD0000895EE0FFF1F0590F491E02D099481E037
:0C0CE00090E0F8940C947406F894FFCF98
:100CEC00640000000000B9012201510100028201E0
:080CFC00600174010D0A000003
:00000001FF
