:100000000C9462000C948A000C948A000C948A0070
:100010000C948A000C948A000C948A000C948A0038
:100020000C948A000C948A000C948A000C948A0028
:100030000C948A000C948A000C948A000C948A0018
:100040000C94A9020C948A000C9419030C94F302EA
:100050000C948A000C948A000C948A000C948A00F8
:100060000C948A000C948A000000000024002700F1
:100070002A0000000000250028002B0000000000DE
:1000800023002600290004040404040404040202DA
:100090000202020203030303030301020408102007
:1000A0004080010204081020010204081020000012
:1000B0000008000201000003040700000000000027
:1000C0000000130511241FBECFEFD8E0DEBFCDBF67
:1000D00011E0A0E0B1E0EAE0FBE002C005900D9283
:1000E000A632B107D9F721E0A6E2B1E001C01D9226
:1000F000AC3DB207E1F710E0C2E6D0E004C02197C2
:10010000FE010E946905C136D107C9F70E944B0361
:100110000C9483050C940000833081F028F4813026
:1001200099F08230A1F008958730A9F08830B9F0B5
:100130008430D1F4809180008F7D03C08091800055
:100140008F7780938000089584B58F7702C084B53F
:100150008F7D84BD08958091B0008F7703C080911A
:10016000B0008F7D8093B0000895CF93DF93282F48
:1001700030E0F901E255FF4F8491F901E656FF4F57
:10018000D491F901EA57FF4FC491CC2391F081112A
:100190000E948C00EC2FF0E0EE0FFF1FE458FF4FA1
:1001A000A591B491EC91ED2381E090E021F480E001
:1001B00002C080E090E0DF91CF9108951F93CF932C
:1001C000DF93282F30E0F901E255FF4F8491F901C8
:1001D000E656FF4FD491F901EA57FF4FC491CC2363
:1001E000C9F0162F81110E948C00EC2FF0E0EE0F69
:1001F000FF1FEE58FF4FA591B4918FB7F8941111DE
:1002000005C09C91ED2FE095E92302C0EC91ED2B08
:10021000EC938FBFDF91CF911F910895CF93DF9320
:1002200090E0FC01E656FF4F2491FC01EA57FF4F96
:100230008491882361F190E0880F991FFC01E859AF
:10024000FF4FC591D491FC01EE58FF4FA591B49199
:10025000611109C09FB7F894888120958223888313
:10026000EC912E230BC0623061F49FB7F894388173
:10027000822F809583238883EC912E2B2C939FBF14
:1002800006C08FB7F894E8812E2B28838FBFDF91AB
:10029000CF910895CF92DF92EF92FF920F931F9329
:1002A000CF93DF936C017A018B01C0E0D0E0CE15D3
:1002B000DF0589F0D8016D918D01D601ED91FC919A
:1002C0000190F081E02DC6010995892B11F47E0182
:1002D00002C02196ECCFC701DF91CF911F910F9102
:1002E000FF90EF90DF90CF900895089580E090E028
:1002F0000895FC01538D448D252F30E0842F90E02C
:10030000821B930B541710F0CF9608950197089510
:10031000FC01918D828D981761F0828DDF01A80F0D
:10032000B11D5D968C91928D9F5F9F73928F90E02F
:1003300008958FEF9FEF0895FC01918D828D98179E
:1003400031F0828DE80FF11D858D90E008958FEFDB
:100350009FEF0895FC01918D228D892F90E0805CA4
:100360009F4F821B91098F73992708958FE391E026
:100370000E94AA0121E0892B09F420E0822F089530
:10038000FC01848DDF01A80FB11DA35ABF4F2C9132
:10039000848D90E001968F739927848FA689B78901
:1003A0002C93A089B1898C9180648C93938D848DDA
:1003B000981306C00288F389E02D80818F7D8083A9
:1003C0000895EF92FF920F931F93CF93DF93EC0169
:1003D00081E0888F9B8D8C8D981305C0E889F98901
:1003E000808185FD24C0F62E0B8D10E00F5F1F4F1E
:1003F0000F731127E02E8C8DE8120CC00FB607FC8E
:10040000FACFE889F989808185FFF5CFCE010E9476
:10041000C001F1CF8B8DFE01E80FF11DE35AFF4FB4
:10042000F0820B8FEA89FB898081806207C0EE89A8
:10043000FF896083E889F98980818064808381E015
:1004400090E0DF91CF911F910F91FF90EF90089571
:10045000CF93DF93EC01888D8823C9F0EA89FB896B
:10046000808185FD05C0A889B9898C9186FD0FC062
:100470000FB607FCF5CF808185FFF2CFA889B98937
:100480008C9185FFEDCFCE010E94C001E7CFDF91B7
:10049000CF91089580E090E0892B29F00E94B60169
:1004A00081110C9400000895009769F0FC010190FF
:1004B0000020E9F73197AF01481B590BBC018FE3CE
:1004C00091E00C944A0180E090E008958F929F9211
:1004D000AF92BF920F931F93CF93DF93CDB7DEB749
:1004E000A1970FB6F894DEBF0FBECDBF19A2423060
:1004F00008F44AE08E010F5D1F4F842E912CA12C31
:10050000B12CA50194010E944005E62FB901CA0152
:1005100001501109EA3014F4E05D01C0E95CD80132
:10052000EC93232B242B252B61F7C8010E94540246
:10053000A1960FB6F894DEBF0FBECDBFDF91CF916D
:100540001F910F91BF90AF909F908F9008950E9440
:100550007E051F920F920FB60F9211242F933F9397
:100560008F939F93AF93BF9380913B0190913C01F8
:10057000A0913D01B0913E0130913A0123E0230F5B
:100580002D3720F40196A11DB11D05C026E8230FCB
:100590000296A11DB11D20933A0180933B019093D7
:1005A0003C01A0933D01B0933E01809136019091B2
:1005B0003701A0913801B09139010196A11DB11DFB
:1005C0008093360190933701A0933801B09339019D
:1005D000BF91AF919F918F913F912F910F900FBE3F
:1005E0000F901F9018951F920F920FB60F92112423
:1005F0002F933F934F935F936F937F938F939F932B
:10060000AF93BF93EF93FF938FE391E00E94C001FC
:10061000FF91EF91BF91AF919F918F917F916F91DA
:100620005F914F913F912F910F900FBE0F901F90B0
:1006300018951F920F920FB60F9211242F938F933C
:100640009F93EF93FF93E0914F01F09150018081D0
:10065000E0915501F091560182FD12C09081809188
:1006600058018F5F8F7320915901821751F0E091EB
:100670005801F0E0E15CFE4F958F8093580101C076
:100680008081FF91EF919F918F912F910F900FBEDD
:100690000F901F901895789484B5826084BD84B5BE
:1006A000816084BD85B5826085BD85B5816085BD6D
:1006B00080916E00816080936E0010928100809125
:1006C00081008260809381008091810081608093AD
:1006D0008100809180008160809380008091B100D2
:1006E00084608093B1008091B00081608093B000FD
:1006F00080917A00846080937A0080917A00826091
:1007000080937A0080917A00816080937A00809152
:100710007A00806880937A001092C10061E087E0DF
:100720000E940E0161E086E00E940E0161E085E01A
:100730000E940E0161E084E00E940E0160E082E010
:100740000E940E0160E083E00E940E0161E082E001
:100750000E94DE00E0914F01F091500182E0808321
:10076000E0914B01F0914C011082E0914D01F0912C
:100770004E018FEC808310925701E0915301F0916C
:10078000540186E08083E0915101F0915201808113
:1007900080618083E0915101F091520180818860F5
:1007A0008083E0915101F0915201808180688083C3
:1007B000E0915101F091520180818F7D8083812CE5
:1007C000912C540183946AE0C62ED12CE12CF12C9B
:1007D00044244A9473E0572E612C712C01E010E000
:1007E000C2E0D0E08DE191E00E94540282E291E00B
:1007F0000E945402609101017091020180E090E03A
:100800004AE00E94660282E291E00E94540283E084
:100810000E94B500892BC9F182E00E94B500892BA6
:1008200009F0F6C08091010190910201883E934049
:1008300008F0EEC08092320190923301A092340110
:10084000B092350182E00E94B500892B29F76091B2
:1008500032017091330180913401909135019B01F7
:10086000AC012F5F3F4F4F4F5F4F209332013093CA
:10087000330140933401509335014AE00E946602EF
:1008800082E291E00E945402DDCF80E480937C00FC
:1008900080917A00806480937A0080917A0086FD4E
:1008A000FCCFA091780080917900B0E0B82BAD0129
:1008B0000B2E000C660B770B40932E0150932F01EB
:1008C000609330017093310124E630E00E946205AC
:1008D000A30192010E94400530930201209301017F
:1008E0008FB7F89440913B0150913C0160913D01DC
:1008F00070913E018FBF50932D0140932C01809148
:100900002A0190912B019A01281B390B809101013A
:10091000909102012817390708F477C050932B01F2
:1009200040932A012090280130902901211431049C
:1009300021F481E08093000106C023E022163104F7
:1009400011F41092000180912601909127012091CD
:1009500000012223F9F00097F9F024E02216310477
:100960004CF48130910531F4F101EE0FFF1FE95E87
:10097000FE4F2BC08230910571F7F101EE0FFF1F82
:10098000EB5EFE4F60E080810E94DE008FEF281A50
:10099000380A33C0009771F4F101EE0FFF1FEB5ED0
:1009A000FE4F61E080810E94DE00109327010093DA
:1009B00026012BC0121413048CF48130910571F4BC
:1009C000F101EE0FFF1FED5EFE4F61E080810E949E
:1009D000DE00D0932701C093260117C08230910515
:1009E000C9F6F101EE0FFF1FEB5EFE4F60E0808164
:1009F0000E94DE0021E0221A310830922901209263
:100A0000280110922701109226010E944A02EACE84
:100A100060913201709133018091340190913501E0
:100A2000A701960157CFEFE3F1E01382128288EE1F
:100A300093E0A0E0B0E084839583A683B78387E04A
:100A400091E09183808385EC90E09587848784ECA6
:100A500090E09787868780EC90E0918B808B81EC8B
:100A600090E0938B828B82EC90E0958B848B86EC6C
:100A700090E0978B868B118E128E138E148E0895B4
:100A8000A1E21A2EAA1BBB1BFD010DC0AA1FBB1F92
:100A9000EE1FFF1FA217B307E407F50720F0A21B04
:100AA000B30BE40BF50B661F771F881F991F1A9471
:100AB00069F760957095809590959B01AC01BD019B
:100AC000CF0108950E946F05B7FF0895821B930B15
:100AD0000895EE0FFF1F0590F491E02D0994A29F59
:100AE000B001B39FC001A39F700D811D1124911D02
:100AF000B29F700D811D1124911D089581E090E039
:0A0B0000F8940C948305F894FFCFDD
:100B0A0001640000000000E1014A0179012802AAFB
:100B1A000188019C010700060005000400496E7463
:060B2A003A000D0A000074
:00000001FF
