:100000000C94A3000C94CB000C94CB000C94CB006C
:100010000C94CB000C94CB000C94CB000C94CB0034
:100020000C94CB000C9480090C94CB000C942C08FD
:100030000C94CB000C94CB000C94CB000C94CB0014
:100040000C940C0C0C94CB000C94CD050C94A705CF
:100050000C94CB000C94CB000C94CB000C94CB00F4
:100060000C94FF050C94CB0007634236B79BD8A7CE
:100070001A39685618AEBAAB558C1D3CB7CC5763CD
:10008000BD6DEDFD753EF6177231BF000000803F7B
:1000900008000000BE922449123EABAAAA2ABECD97
:1000A000CCCC4C3E00000080BEABAAAAAA3E000009
:1000B0000000BF000000803F000000000008417801
:1000C000D3BB4387D1133D190E3CC3BD4282AD2B38
:1000D0003E68EC8276BED98FE1A93E4C80EFFFBE30
:1000E00001C4FF7F3F00000000000000000023006B
:1000F0002600290000000000240027002A0000003C
:100100000000250028002B00040404040404040457
:1001100002020202020203030303030301020408B2
:100120001020408001020408102001020408102061
:1001300000000008000201000003040700000000A6
:1001400000000000051411241FBECFEFD8E0DEBF71
:10015000CDBF11E0A0E0B1E0E2EDF1E302C0059017
:100160000D92A638B107D9F724E0A6E8B1E001C0A6
:100170001D92A032B207E1F710E0C3EAD0E004C05C
:100180002197FE010E94DC18C23AD107C9F70E94EC
:100190009B0C0C94E7180C940000FC01538D448DCB
:1001A000252F30E0842F90E0821B930B541710F022
:1001B000CF96089501970895FC01918D828D98172F
:1001C00061F0828DDF01A80FB11D5D968C91928D3B
:1001D0009F5F9F73928F90E008958FEF9FEF089538
:1001E000FC01918D828D981731F0828DE80FF11D01
:1001F000858D90E008958FEF9FEF0895FC01918D1C
:10020000228D892F90E0805C9F4F821B91098F7314
:100210009927089586E493E00E94FE0021E0892B4F
:1002200009F420E0822F0895FC01848DDF01A80FDE
:10023000B11DA35ABF4F2C91848D90E001968F730E
:100240009927848FA689B7892C93A089B1898C912D
:1002500080648C93938D848D981306C00288F389F3
:10026000E02D80818F7D80830895EF92FF920F9320
:100270001F93CF93DF93EC0181E0888F9B8D8C8D52
:10028000981305C0E889F989808185FD24C0F62E80
:100290000B8D10E00F5F1F4F0F731127E02E8C8D19
:1002A000E8120CC00FB607FCFACFE889F989808103
:1002B00085FFF5CFCE010E941401F1CF8B8DFE0199
:1002C000E80FF11DE35AFF4FF0820B8FEA89FB899B
:1002D0008081806207C0EE89FF896083E889F9899F
:1002E00080818064808381E090E0DF91CF911F91D5
:1002F0000F91FF90EF900895CF93DF93EC01888DDD
:100300008823C9F0EA89FB89808185FD05C0A88919
:10031000B9898C9186FD0FC00FB607FCF5CF80819F
:1003200085FFF2CFA889B9898C9185FFEDCFCE01E9
:100330000E941401E7CFDF91CF91089580E090E013
:10034000892B29F00E940A0181110C940000089564
:1003500085ED8093BC008091BC0084FDFCCF1092A1
:100360002103089540912202262F30E0240F311DF1
:1003700021323105DCF4209121032430C9F4FC0141
:1003800080E090E0861758F4309122022191DC0140
:10039000A050BE4FA30FB11D2C930196F3CF8091B7
:1003A0002202680F6093220280E0089581E00895A0
:1003B00082E008950895E091480280914702E8178D
:1003C00030F4F0E0E052FE4F808190E008958FEF2E
:1003D0009FEF08959091480280914702981750F43A
:1003E000E92FF0E0E052FE4F208130E09F5F9093D4
:1003F000480202C02FEF3FEFC901089580914702E4
:1004000090E020914802821B91090895CF92DF92DB
:10041000EF92FF920F931F93CF93DF937C01262FD0
:10042000972F8A0180912203882391F0C62FD72F1E
:100430006E01C40ED51ECC15DD0571F06991D70192
:10044000ED91FC910190F081E02DC7010995F3CF6A
:10045000642F822F0E94B201C801DF91CF911F91BA
:100460000F91FF90EF90DF90CF900895CF93DF939F
:100470001F92CDB7DEB76983209122032223D1F0EA
:1004800020914503203240F021E030E0FC0133832D
:10049000228380E090E015C080912303E82FF0E0F4
:1004A000EC5DFC4F998190838F5F80932303809351
:1004B000450305C061E0CE0101960E94B20181E0D2
:1004C00090E00F90DF91CF910895089580E090E043
:1004D00008958091580290915902892B29F0E0915A
:1004E0005002F091510209959AB18091010189233E
:1004F0008AB99BB18091010189238BB994B1809114
:100500000001892384B995B180910001892385B9BF
:100510008091B8019091B9014091AB02892B09F00B
:10052000E0C080915C0290915D029093B90180934C
:10053000B80120915A0230915B02E091B701F0E0DE
:10054000EE0FFF1FE15AFD4F80819181822393239B
:10055000892B89F02091B70130E080910201082EAB
:10056000000C990B0197841B910947FD9395821705
:1005700093070CF0B8C28091AB02882309F49DC0A8
:1005800080E590E09093B6018093B5012091B7018A
:1005900030E080910201082E000C990B019728177A
:1005A000390709F08AC0E091B7012BB1F0E0EF56AE
:1005B000FD4F8081082E000C990B822B8BB9E091A6
:1005C000B7012AB1F0E0E256FD4F8081082E000C01
:1005D000990B822B8AB9E091B70125B1F0E0E95877
:1005E000FD4F8081082E000C990B822B85B9E0917C
:1005F000B70124B1F0E0EC57FD4F8081082E000CCC
:10060000990B822B84B980915E02882311F023B16B
:1006100001C029B18091AE029091AF0282238093F4
:10062000B4018091BE029091BF02892B29F1809183
:10063000B401811105C01092B3011092B20139C00A
:100640001092B1011092B0018091B2019091B3016A
:1006500001969093B3018093B2018091B201909181
:10066000B301499750F11092BF021092BE0210924E
:10067000B3011092B20121C08091B4011092B30174
:100680001092B201811115C08091B0019091B10119
:1006900001969093B1018093B0018091B001909147
:1006A000B101499750F081E090E09093BF028093B0
:1006B000BE021092B1011092B0018091B7018F5F1C
:1006C0008093B7012091B70130E080910201082E9C
:1006D000000C990B821793070CF0C1C01092B70160
:1006E000BEC0442309F4BBC080E590E09093B601FE
:1006F0008093B5012091AC023091AD02809102014E
:10070000082E000C990B01972817390709F08EC0A5
:10071000E091AC02F091AD022BB1EF56FD4F80811C
:10072000082E000C990B822B8BB9E091AC02F09152
:10073000AD022AB1E256FD4F8081082E000C990BC4
:10074000822B8AB9E091AC02F091AD0225B1E95853
:10075000FD4F8081082E000C990B822B85B9E0910A
:10076000AC02F091AD0224B1EC57FD4F8081082E10
:10077000000C990B822B84B980915E02882311F0C2
:1007800023B101C029B18091AE029091AF028223C2
:100790008093B4018091BE029091BF02892B29F110
:1007A0008091B401811105C01092B3011092B20181
:1007B00039C01092B1011092B0018091B2019091B4
:1007C000B30101969093B3018093B2018091B2017D
:1007D0009091B301499750F11092BF021092BE025E
:1007E0001092B3011092B20121C08091B401109215
:1007F000B3011092B201811115C08091B0019091A6
:10080000B10101969093B1018093B0018091B00144
:100810009091B101499750F081E090E09093BF0230
:100820008093BE021092B1011092B0018091AC028F
:100830009091AD0201969093AD028093AC0220910D
:10084000AC023091AD0280910201082E000C990B90
:100850008217930720F41092AD021092AC0280919F
:10086000B8019091B90101979093B9018093B801B3
:100870008091AE019091AF01019709F529B1809166
:10088000AC019091AD0182238093AB019091AA01BC
:100890008917A9F08093AA018091A6019091A701E0
:1008A000A091A801B091A9010196A11DB11D80934D
:1008B000A6019093A701A093A801B093A9018091EC
:1008C000AE019091AF01029709F523B18091AC017F
:1008D0009091AD0182238093AB019091AA01891779
:1008E000A9F08093AA018091A6019091A701A091FF
:1008F000A801B091A9010196A11DB11D8093A60187
:100900009093A701A093A801B093A9018091A4019D
:100910009091A501019709F529B18091A2019091CB
:10092000A30182238093A1019091A0018917A9F0CE
:100930008093A00180919C0190919D01A0919E01C6
:10094000B0919F010196A11DB11D80939C019093D0
:100950009D01A0939E01B0939F018091A40190916D
:10096000A501029709F523B18091A2019091A301FD
:1009700082238093A1019091A0018917A9F080930F
:10098000A00180919C0190919D01A0919E01B09148
:100990009F010196A11DB11D80939C0190939D0123
:1009A000A0939E01B0939F0180919A0190919B0129
:1009B000019709F529B180919801909199018223BD
:1009C00080939701909196018917A9F080939601E1
:1009D0008091920190919301A0919401B091950121
:1009E0000196A11DB11D8093920190939301A09354
:1009F0009401B093950180919A0190919B01029787
:100A000009F523B1809198019091990182238093F7
:100A10009701909196018917A9F080939601809192
:100A2000920190919301A0919401B091950101964A
:100A3000A11DB11D8093920190939301A093940105
:100A4000B09395018091900190919101019709F5E2
:100A500029B180918E0190918F01822380938D0125
:100A600090918C018917A9F080938C018091880165
:100A700090918901A0918A01B0918B010196A11DED
:100A8000B11D8093880190938901A0938A01B0934E
:100A90008B018091900190919101029709F054C0CF
:100AA00023B180918E0190918F01822380938D01DB
:100AB00090918C01891709F447C080938C01809133
:100AC000880190918901A0918A01B0918B010196D2
:100AD000A11DB11D8093880190938901A0938A0183
:100AE000B0938B010895E091B7012BB1F0E0EF5680
:100AF000FD4F8081082E000C990B822B8BB9E09161
:100B0000B7012AB1F0E0E256FD4F8081082E000CBB
:100B1000990B822B8AB9E091B70125B1F0E0E95831
:100B2000FD4F8081082E000C990B822B85B9E09136
:100B3000B70124B1F0E0EC57FD4F8081082E000C86
:100B4000990B822B84B917CD08950E94E2181F9249
:100B50000F920FB60F9211242F933F934F935F93F1
:100B60006F937F938F939F93AF93BF93EF93FF9375
:100B700086E493E00E941401FF91EF91BF91AF9141
:100B80009F918F917F916F915F914F913F912F91A5
:100B90000F900FBE0F901F9018951F920F920FB6D7
:100BA0000F9211242F938F939F93EF93FF93E091D4
:100BB0005603F09157038081E0915C03F0915D034F
:100BC00082FD12C0908180915F038F5F8F732091AF
:100BD0006003821751F0E0915F03F0E0EA5BFC4FA5
:100BE000958F80935F0301C08081FF91EF919F916A
:100BF0008F912F910F900FBE0F901F9018951F92FD
:100C00000F920FB60F9211242F933F934F935F9340
:100C10006F937F938F939F93AF93BF93EF93FF93C4
:100C20008091B900887F803609F49CC068F58832CD
:100C300009F45BC090F4803109F454C038F488237F
:100C400009F4F6C0883009F44DC0F6C0883109F4C3
:100C50004CC0803209F45DC0EFC0803409F468C034
:100C600048F4803309F455C0883309F0E5C0809317
:100C70001F03D8C0803509F44FC0883509F45DC022
:100C8000883409F0D9C0D6C0883909F4C7C0A8F49F
:100C9000883709F467C038F4883609F463C08037B0
:100CA00009F460C0C9C0883809F4B8C0803909F4B3
:100CB0005FC0803809F0C0C05BC0803B09F486C0CB
:100CC00038F4803A09F466C0883A09F47FC0B4C0A9
:100CD000803C09F4A7C0883C09F4A4C0883B09F40F
:100CE0008AC0AAC08091FC0210C090911E0380911E
:100CF0001D03981770F5E0911E0381E08E0F80931D
:100D00001E03F0E0E350FD4F80818093BB0085EC33
:100D100086C080931F038EC0E0911E0381E08E0F7A
:100D200080931E038091BB00F0E0E350FD4F808371
:100D300090911E0380911D036EC0E0911E0381E01F
:100D40008E0F80931E038091BB00F0E0E350FD4FB7
:100D500080838091200381116DC081E08093FB022C
:100D600084EA61C083E08093210310924602CFCFD2
:100D700080914602803208F051C0E091460281E045
:100D80008E0F809346028091BB00F0E0EA5DFD4F3C
:100D90008083BDCF85EC8093BC00109221038091AD
:100DA0004602803230F4E0914602F0E0EA5DFD4F09
:100DB00010826091460270E0E0912402F0912502D9
:100DC00086E292E009951092460236C084E0809354
:100DD00021031092230210922202E0912002F0914E
:100DE0002102099580912202811105C081E0809342
:100DF000220210920002E091230281E08E0F809384
:100E00002302F0E0E050FE4F80818093BB00909180
:100E1000230280912202981708F479CF85E8809305
:100E2000BC000AC085EC8093BC001092210304C072
:100E300010921F030E94A801FF91EF91BF91AF9103
:100E40009F918F917F916F915F914F913F912F91E2
:100E50000F900FBE0F901F901895FC0190819C3051
:100E600080F5818128E830E0281B310987FD339522
:100E7000220F331F220F331F621773077CF082810A
:100E800028E532E0281B310987FD3395220F331FF7
:100E9000220F331F621773070CF49B012250310994
:100EA000220F331F4FB7F894892F90E0FC01EE0F0B
:100EB000FF1F8E0F9F1FFC01E454FE4F32832183DE
:100EC0004FBF0895CF92DF92EF92FF92CF93DF93BF
:100ED000EC01603282E078070CF03DC077FD06C07F
:100EE000653B71052CF064EB70E002C060E070E0DF
:100EF000898128E830E06901C81AD10887FDD394B8
:100F0000CC0CDD1CCC0CDD1C0D2C000CEE08FF08FD
:100F10008A8128E532E0281B310987FD3395220FAD
:100F2000331F220F331FC901330FAA0BBB0B9C01C8
:100F3000AD012C193D094E095F09DB010E94B61471
:100F400024EB30E040E050E00E948C14C20ED31E2F
:100F5000E41EF51EB601CE01DF91CF91FF90EF9018
:100F6000DF90CF900C942D071F93CF93DF93EC016C
:100F7000162F88818C3008F04EC061E0812F0E94CE
:100F8000AD0B8881E82FF0E09F01220F331FE20FA5
:100F9000F31FE454FE4F1F739081907C192B108334
:100FA00019821A826CE00E94BC189CE0899FB001F3
:100FB000112440E050E09A01260F371FF901EE0F8F
:100FC000FF1F2E0F3F1FF901E454FE4F908196FD45
:100FD00016C04F5F5F4F4C30510569F781110FC04C
:100FE0001092800082E08093810010928500109220
:100FF0008400B19A80916F00826080936F00E881D5
:10100000F0E0CF01880F991FE80FF91FE454FE4F5D
:101010008081806480838881DF91CF911F910895C2
:10102000FC019091BB019C30A0F481E0890F80937A
:10103000BB019083892F90E0FC01EE0FFF1F8E0F04
:101040009F1FFC01E454FE4F88EB9BE09283818359
:1010500008958FEF808308951F920F920FB60F921D
:1010600011242F933F934F935F936F937F938F93AD
:101070009F93AF93BF93EF93FF938091BA0187FF44
:1010800005C010928500109284001BC02091BA0107
:10109000022E000C330B8091BB0190E0281739071A
:1010A00084F48091BA01082E000C990BFC01EE0F1C
:1010B000FF1F8E0F9F1FFC01E454FE4F808186FDB1
:1010C00015C08091BA018F5F8093BA012091BA0157
:1010D000022E000C330B8091BB0190E028173907DA
:1010E000C4F48091BA018C3064F113C08091BA01CC
:1010F000082E000C990BFC01EE0FFF1F8E0F9F1F97
:10110000FC01E454FE4F808160E08F730E947D0BF0
:10111000D8CF8091840090918500049680349C49BA
:1011200018F480E49CE905C08091840090918500CA
:10113000049690938900809388008FEF8093BA0182
:101140003BC020918400309185008091BA01082E27
:10115000000C990BFC01EE0FFF1F8E0F9F1FFC016F
:10116000E454FE4F81819281820F931F90938900F6
:10117000809388008091BA01082E000C990BFC0125
:10118000EE0FFF1F8E0F9F1FFC01E454FE4F808166
:1011900086FF12C08091BA01082E000C990BFC0149
:1011A000EE0FFF1F8E0F9F1FFC01E454FE4F808146
:1011B00061E08F730E947D0BFF91EF91BF91AF9122
:1011C0009F918F917F916F915F914F913F912F915F
:1011D0000F900FBE0F901F901895FC01838591E032
:1011E00090932203809344031092230310924503AB
:1011F00083EE93E00E94360281E00C94B30ACF9212
:10120000DF92EF92FF92CF93DF93EC0160E40E94B4
:10121000ED088B85909121039111FCCF91E0909383
:101220002103909320032FEF20931F0310921E039E
:1012300023E020931D039093FC029091FC02880F01
:10124000892B8093FC028091FB02813061F4109223
:10125000FB028091FC028093BB008091BC0083FD67
:10126000F8CF85EC01C085EE8093BC00809121030E
:101270008130E1F380911E03843018F480911E03C5
:1012800001C084E0ADEFB2E020EE31E0F9019E2F25
:10129000921B981718F49D919193F9CF10924802E0
:1012A0008093470283EE93E00E94EA01F82E83EEDA
:1012B00093E00E94EA01C12CD12CDF2C8C299D29BE
:1012C0006C01990FEE08FF0883EE93E00E94EA019B
:1012D00083EE93E00E94EA018881882341F066272B
:1012E0007727CB016C197D098E099F0902C0C701C0
:1012F000B601DF91CF91FF90EF90DF90CF900895EE
:101300001F920F920FB60F9211242F933F934F937A
:101310005F936F937F938F939F93AF93BF93EF935D
:10132000FF9380914E0290914F028093B200809182
:101330004A0290914B02A0914C02B0914D0201964D
:10134000A11DB11D80934A0290934B02A0934C02C1
:10135000B0934D0240914A0250914B0260914C0271
:1013600070914D028091540290915502A0915602C5
:10137000B0915702481759076A077B07B0F0809170
:101380004902811112C081E08093490210924A0201
:1013900010924B0210924C0210924D02E0915202B8
:1013A000F0915302099510924902FF91EF91BF917C
:1013B000AF919F918F917F916F915F914F913F91ED
:1013C0002F910F900FBE0F901F901895CF93DF9322
:1013D000CDB7DEB7E0970FB6F894DEBF0FBECDBF36
:1013E00098E1E6E0F1E0DE01599601900D929A95C0
:1013F000E1F798E1EEE1F1E0DE01119601900D9246
:101400009A95E1F781508C30E0F490E020915A02F7
:1014100030915B02880F991FE1E0F0E0EC0FFD1FB7
:10142000E80FF91F662329F0808D918D822B932B75
:1014300004C0808191818223932390935B028093E7
:101440005A02E0960FB6F894DEBF0FBECDBFDF9113
:10145000CF9108950C947E140C94761480E10E9430
:10146000E90B9093BD028093BC028FE00E94E90BD0
:101470009093BB028093BA028EE00E94E90B909396
:10148000B9028093B8028091B6029091B702209180
:10149000B0023091B102821B930B2091BC023091BB
:1014A000BD022817390710F461E001C060E08CE04C
:1014B0000E94E6098091B4029091B5022091B00299
:1014C0003091B102821B930B2091BA023091BB0282
:1014D0002817390710F461E001C060E089E00E943C
:1014E000E6098091B2029091B3022091B00230914E
:1014F000B102821B930B2091B8023091B9022817D8
:10150000390710F461E001C060E086E00C94E60960
:10151000CF92DF92EF92FF920F931F93CF93DF93BF
:101520006C017A018B01C0E0D0E0CE15DF0589F0B7
:10153000D8016D918D01D601ED91FC910190F08162
:10154000E02DC6010995892B11F47E0102C0219678
:10155000ECCFC701DF91CF911F910F91FF90EF90DA
:10156000DF90CF900895382F209145039091440348
:10157000213208F049C0809121038111FCCF42E063
:1015800040932103309320033FEF30931F031092C9
:101590001E0320931D03A4E2B3E04DEF52E0FA01D5
:1015A0003E2F341B321718F43D913193F9CF10922E
:1015B000FC022091FC02990F922B9093FC029091D7
:1015C000FB02913061F41092FB029091FC02909327
:1015D000BB009091BC0093FDF8CF95EC01C095EE57
:1015E0009093BC00909121039230E1F390911F03FE
:1015F0009F3F79F080911F03803241F080911F035B
:10160000803331F084E005C081E003C082E001C096
:1016100083E0109223031092450310922203089551
:10162000CF93DF93EC0180911E0490911F040097EB
:1016300019F06BE40E94ED08D0931F04C0931E04C0
:101640008CE599EEAEE5BCE389839A83AB83BC83DA
:1016500085E59AE2AFE0B6E38D839E83AF83B887DA
:1016600088E090E09A87898781E08093220380E375
:101670008093440310922303109245036DE483EE9C
:1016800093E00E9436026B857C85660F771F83EEA0
:1016900093E00E94360281E00E94B30A6AE4CE0120
:1016A000DF91CF910C94ED08833081F028F48130E4
:1016B00099F08230A1F008958730A9F08830B9F010
:1016C0008430D1F4809180008F7D03C080918000B0
:1016D0008F7780938000089584B58F7702C084B59A
:1016E0008F7D84BD08958091B0008F7703C0809175
:1016F000B0008F7D8093B00008951F93CF93DF9348
:10170000282F30E0F901E05DFE4F8491F901E45E9D
:10171000FE4FD491F901E85FFE4FC491CC23C9F08C
:10172000162F81110E94540BEC2FF0E0EE0FFF1FDB
:10173000E250FF4FA591B4918FB7F894111105C0F5
:101740009C91ED2FE095E92302C0EC91ED2BEC93F9
:101750008FBFDF91CF911F910895CF93DF9390E0DA
:10176000FC01E45EFE4F2491FC01E85FFE4F849192
:10177000882361F190E0880F991FFC01EC50FF4F26
:10178000C591D491FC01E250FF4FA591B491611134
:1017900009C09FB7F8948881209582238883EC91B3
:1017A0002E230BC0623061F49FB7F8943881822FEA
:1017B000809583238883EC912E2B2C939FBF06C0AA
:1017C0008FB7F894E8812E2B28838FBFDF91CF91BC
:1017D00008958E3008F08E508770806480937C006E
:1017E00080917A00806480937A0080917A0086FDEF
:1017F000FCCF809178002091790090E0922B0895A1
:101800002FB7F89460911A0470911B0480911C0406
:1018100090911D042FBF08951F920F920FB60F9243
:1018200011242F933F938F939F93AF93BF938091F6
:101830001A0490911B04A0911C04B0911D043091D6
:10184000190423E0230F2D3720F40196A11DB11DAB
:1018500005C026E8230F0296A11DB11D209319048F
:1018600080931A0490931B04A0931C04B0931D044E
:101870008091150490911604A0911704B09118045A
:101880000196A11DB11D8093150490931604A09399
:101890001704B0931804BF91AF919F918F913F911E
:1018A0002F910F900FBE0F901F901895CF92DF923F
:1018B000EF92FF920F931F93E82FF92F05C001506D
:1018C00011092109310961F1908196239417B9F327
:1018D00005C0015011092109310911F190819623A8
:1018E0009413F7CFC12CD12CE12CF12C0AC08FEF2F
:1018F000C81AD80AE80AF80A0C151D052E053F0576
:1019000079F080818623841791F36C2D7D2D8E2DA7
:101910009F2D1F910F91FF90EF90DF90CF90089532
:1019200060E070E080E090E01F910F91FF90EF90F9
:10193000DF90CF900895789484B5826084BD84B59B
:10194000816084BD85B5826085BD85B5816085BDBA
:1019500080916E00816080936E0010928100809172
:1019600081008260809381008091810081608093FA
:101970008100809180008160809380008091B1001F
:1019800084608093B1008091B00081608093B0004A
:1019900080917A00846080937A0080917A008260DE
:1019A00080937A0080917A00816080937A008091A0
:1019B0007A00806880937A001092C10010924802E9
:1019C00010924702109223031092450310922103B4
:1019D000C1E0C09320031092FB0261E082E10E940B
:1019E0007D0B61E083E10E947D0B8091B9008E7FC9
:1019F0008093B9008091B9008D7F8093B90088E40D
:101A00008093B80085E48093BC00E0915603F09188
:101A1000570382E08083E0915203F09153031082D8
:101A2000E0915403F09155038FEC808310925E0394
:101A3000E0915A03F0915B0386E08083E0915803C4
:101A4000F0915903808180618083E0915803F09187
:101A50005903808188608083E0915803F091590395
:101A6000808180688083E0915803F09159038081E0
:101A70008F7D808387E090E09093AF028093AE02E9
:101A80001092AD021092AC02C093AB028DE0809335
:101A900002018FEF80930001109290021092830256
:101AA00081E090E09093600280935F0282E090E09A
:101AB000909362028093610284E090E090936402CC
:101AC0008093630288E090E09093660280936502C1
:101AD00080E190E0909368028093670280E290E05A
:101AE00090936A028093690280E490E090936C0284
:101AF00080936B0280E890E090936E0280936D0279
:101B000080E091E09093700280936F0280E092E019
:101B1000909372028093710280E094E0909374023B
:101B20008093730280E098E0909376028093750230
:101B30008FE08093010180EF8093AA0280939D0241
:101B4000109284021092770210928E0210928102FB
:101B500020E22093910280EA80939E028093A80263
:101B600080E880939B021092850210927802109276
:101B70008602109279022093930290E690939F023E
:101B80009093A00290E4909392025091A10210923F
:101B90007A024091A20210927B0230E130939502CA
:101BA00050695093A10240694093A202809394022D
:101BB0001092890210927C0210928A0210927D0289
:101BC0003093970240E54093A3024093A402909380
:101BD000960210928B0210927E0210928C0210924A
:101BE0007F023093990230E33093A5023093A6022E
:101BF0002093980210928D021092800210928F0210
:101C00001092820290939C0290EC9093A702909382
:101C1000A90280939A028091AE029091AF02089738
:101C200020F510925E026091AE027091AF0280E0EA
:101C300090E00E941E159B01AC0160E070E080E026
:101C400090E40E9484150E94D4150E94EF147093B2
:101C5000AF026093AE028091AE029091AF0220EF8E
:101C6000822790958093AA0222C0C0935E02609161
:101C7000AE027091AF026850710980E090E00E945E
:101C80001E159B01AC0160E070E080E090E40E94D2
:101C900084150E94D4150E94EF147093AF026093D4
:101CA000AE028091AE029091AF028093900280913B
:101CB000C0029091C102892B09F081C081E090E0BF
:101CC0009093C1028093C00226E030E030935D0221
:101CD00020935C0210925B0210925A0210925902F9
:101CE0001092580240915402509155026091560250
:101CF00070915702452B462B472B89F09093590240
:101D00008093580280915202909153029093510215
:101D100080935002809170008E7F8093700080913C
:101D200070008E7F809370008091B0008C7F8093D4
:101D3000B0008091B100877F8093B1008091B600A0
:101D40008F7D8093B600809170008D7F80937000AE
:101D50008091B10084608093B1008091B1008C7F4C
:101D60008093B1008AEF90E090934F0280934E02EF
:101D700082E090E0A0E0B0E080935402909355029E
:101D8000A0935602B093570289E692E090935302D3
:101D90008093520210924A0210924B0210924C020F
:101DA00010924D021092490280914E0290914F0282
:101DB0008093B2008091700081608093700061E038
:101DC00082E00E94AD0B60E083E00E94AD0B61E019
:101DD00088E00E94AD0B68E070E082E194E00E9430
:101DE000B40761E089E00E94AD0B69E070E08FE02C
:101DF00094E00E94B40761E08AE00E94AD0B6AE0C3
:101E000070E08CE094E00E94B40761E08BE00E94F7
:101E1000AD0B6BE070E089E094E00E94B40760E0F5
:101E20008CE00E94AD0B8FEE93E00E94100B10929D
:101E3000EF038CEF93E00E94100B81E08093FC0392
:101E400060E08EE00E94AD0B60E08FE00E94AD0B81
:101E500060E080E10E94AD0B82E390E09093B102DC
:101E60008093B00280E090E00E942C0AC82F8093FB
:101E7000C30281E090E00E942C0A8093C2022C2FC2
:101E800030E0A901582B5093B7024093B60282E08C
:101E900090E00E942C0AC82F8093C30281E090E05A
:101EA0000E942C0A8093C2022C2F30E0F901F82BFB
:101EB000F093E102E093E00284E090E00E942C0ABB
:101EC000C82F8093C30281E090E00E942C0A809387
:101ED000C2022C2F30E0A901582B5093B502409339
:101EE000B40286E090E00E942C0AC82F8093C302BF
:101EF00081E090E00E942C0A8093C2022C2F30E0F7
:101F0000F901F82BF093DF02E093DE0288E090E025
:101F10000E942C0AC82F8093C30281E090E00E94A7
:101F20002C0A8093C2022C2F30E0A901582B509329
:101F3000B3024093B2028AE090E00E942C0AC82FBC
:101F40008093C30281E090E00E942C0A8093C20239
:101F50002C2F30E0F901F82BF093DD02E093DC0246
:101F60008CE090E00E942C0AC82F8093C3028DE081
:101F700090E00E942C0A282F8093C2028C2F90E0C0
:101F8000922BA0E0B0E08093EA029093EB02A09342
:101F9000EC02B093ED028EE090E00E942C0AC82F74
:101FA0008093C3028FE090E00E942C0A282F809338
:101FB000C2028C2F90E0922BA0E0B0E08093E4026C
:101FC0009093E502A093E602B093E702FF24F39416
:101FD000CC24C394D12C74E0472E512C612C712C4D
:101FE000EBE02E2EE1E03E2E0E94000C0091F70265
:101FF0001091F8022091F9023091FA02DC01CB0134
:10200000801B910BA20BB30B893B9B40A105B10533
:1020100010F0F092F6028091BE029091BF02892BDF
:1020200021F18091F502811122C0F092F502809198
:10203000F3029091F4020196877099279093F4022D
:102040008093F3020E94000C6093F7027093F802F1
:102050008093F9029093FA021092F6021092F20223
:102060001092F1021092F00202C01092F502ECE31D
:10207000F1E08491E8E2F1E0C491E4E1F1E0D4918F
:10208000DD23A1F081110E94540BED2FF0E0EE0F43
:10209000FF1FE651FF4FA591B4918C91C82391E0A9
:1020A00080E009F490E0092F182F02C000E010E052
:1020B000802F8170809304018091F3029091F4024B
:1020C0008230910509F4D7C030F4009761F0019790
:1020D00009F469C046C38330910509F49BC1049794
:1020E00009F467C23EC30E942E0A61E082E00E94AA
:1020F0007D0B83E290E00197F1F760E082E00E94BF
:102100007D0BEFE1F1E06491F1018491E82FF0E0C3
:10211000EE0FFF1FE651FF4F8591949100E117E20A
:1021200020E030E0462F0E94560C611571058105B4
:10213000910539F0DC01CB010196A11DB11DBF70E5
:1021400003C080E090E0DC018093C4029093C5025C
:10215000A093C602B093C7026CED75E08FE094E0E7
:102160000E942D076CED75E082E194E00E942D073E
:1021700067E370E08CE094E00E9462076AE570E03B
:1021800089E094E00E9462076AE48FEE93E00E9487
:10219000ED086AE48CEF93E00E94ED081092EF02E4
:1021A0001092EE02DEC28091F602882309F4D9C2B1
:1021B0000E942E0A8091EA029091EB02A091EC021B
:1021C000B091ED028459984FAF4FBF4F8034F6E085
:1021D0009F07A105B10560F0853328E09207A105AE
:1021E000B10520F084E398E0A0E0B0E0BC0102C0BB
:1021F00060E476E07093E9026093E8028091E40283
:102200009091E502A091E602B091E7028459984FBF
:10221000AF4FBF4F803436E09307A105B10560F0A2
:10222000853348E09407A105B10520F084E398E0E8
:10223000A0E0B0E0EC0102C0C0E4D6E0D093E3023D
:10224000C093E202012B31F08FE094E00E942D0751
:10225000BE0108C06CED75E08FE094E00E942D0790
:102260006CED75E082E194E00E942D07D092EF02C0
:10227000C092EE0276C28091F602882309F471C200
:102280008091F20281111DC0F092F2021092E102DF
:102290001092E0021092DF021092DE021092DD0234
:1022A0001092DC020E94000C6093D8027093D90255
:1022B0008093DA029093DB021092D7021092D6023A
:1022C00055C00E94000C0091D8021091D9022091B3
:1022D000DA023091DB02DC01CB01801B910BA20BF7
:1022E000B30B85369105A105B10508F43FC00E94E6
:1022F000000C6093D8027093D9028093DA02909315
:10230000DB020E942E0A2091E0023091E1028091CE
:10231000BC029091BD02820F931F9093E1028093C3
:10232000E0022091DE023091DF028091BA029091AA
:10233000BB02820F931F9093DF028093DE022091F5
:10234000DC023091DD028091B8029091B902820FD7
:10235000931F9093DD028093DC028091D6029091CE
:10236000D70201969093D7028093D6022091D6028D
:102370003091D7022431310509F049C08091E00243
:102380009091E102B9010E94C818462F6093E002C3
:102390007093E1028091DE029091DF02B9010E9408
:1023A000C8187093DF026093DE028091DC02909186
:1023B000DD02B9010E94C8187093DD026093DC024F
:1023C000642F82E090E00E942A0A6091E10283E09B
:1023D00090E00E942A0A6091DE0286E090E00E946E
:1023E0002A0A6091DF0287E090E00E942A0A609149
:1023F000DC028AE090E00E942A0A6091DD028BE014
:1024000090E00E942A0A1092F4021092F30282E0F5
:1024100090E0A3C18091F602882309F4A2C18091C3
:10242000F20281111DC0F092F2021092B7021092D6
:10243000B6021092B5021092B4021092B30210923A
:10244000B2020E94000C6093D8027093D90280936C
:10245000DA029093DB021092D7021092D60255C096
:102460000E94000C0091D8021091D9022091DA024A
:102470003091DB02DC01CB01801B910BA20BB30B73
:1024800085369105A105B10508F43FC00E94000CF6
:102490006093D8027093D9028093DA029093DB02A2
:1024A0000E942E0A2091B6023091B7028091BC02A0
:1024B0009091BD02820F931F9093B7028093B60252
:1024C0002091B4023091B5028091BA029091BB0282
:1024D000820F931F9093B5028093B4022091B202B1
:1024E0003091B3028091B8029091B902820F931F8C
:1024F0009093B3028093B2028091D6029091D7025A
:1025000001969093D7028093D6022091D602309103
:10251000D7022431310509F049C08091B60290916B
:10252000B702B9010E94C818462F6093B602709393
:10253000B7028091B4029091B502B9010E94C81807
:102540007093B5026093B4028091B2029091B3028D
:10255000B9010E94C8187093B3026093B202642F4D
:1025600080E090E00E942A0A6091B70281E090E04A
:102570000E942A0A6091B40284E090E00E942A0A34
:102580006091B50285E090E00E942A0A6091B20253
:1025900088E090E00E942A0A6091B30289E090E00E
:1025A0000E942A0A1092F4021092F30283E090E053
:1025B000D4C08091F602882309F4D3C08091F2023E
:1025C000811123C0F092F2026AE48FEE93E00E9440
:1025D000ED086AE48CEF93E00E94ED080E94000C85
:1025E0006093D8027093D9028093DA029093DB0251
:1025F0006CE677E08FE094E00E942D076CE677E0D0
:1026000082E194E00E942D07A6C00E94000C009178
:10261000D8021091D9022091DA023091DB02DC015C
:10262000CB01801B910BA20BB30B89389341A10501
:10263000B10508F490C06CED75E08FE094E00E9465
:102640002D076CED75E082E194E00E942D078FEE7E
:1026500093E00E94FF084B015C016093D2027093EB
:10266000D3028093D4029093D5028CEF93E00E9422
:10267000FF086093CE027093CF028093D0029093B4
:10268000D102681579058A059B05ECF41092E402E5
:102690001092E5021092E6021092E702A501940161
:1026A000261B370B480B590BCA01B901A301920134
:1026B0000E948C142093EA023093EB024093EC02C8
:1026C0005093ED0218C0681979098A099B09A30182
:1026D00092010E948C142093E4023093E50240930F
:1026E000E6025093E7021092EA021092EB02109277
:1026F000EC021092ED026091E4028EE090E00E9404
:102700002A0A8091E4029091E502A091E602B0913C
:10271000E702692F7A2F8B2F99278FE090E00E9494
:102720002A0A6091EA028CE090E00E942A0A8091D5
:10273000EA029091EB02A091EC02B091ED02692FB8
:102740007A2F8B2F99278DE090E00E942A0A109211
:10275000F4021092F30284E090E09093EF028093F1
:10276000EE020E94000C0091CA021091CB0220914F
:10277000CC023091CD02DC01CB01801B910BA20B6E
:10278000B30B853F9140A105B105E0F10E94000C1B
:102790006093CA027093CB028093CC029093CD02D7
:1027A000C0910301CF25C09303016C2F81E00E94EB
:1027B000E6096C2F8DE00E947D0BC091C802D0917C
:1027C000C902DE01AA0FBB1FAA5CBE4FE091EE0258
:1027D000F091EF02EE0FFF1FEA5AFE4F8D919C9190
:1027E000208131818223932361E0892B09F060E00D
:1027F00084E00E94E6092196CF70DD27D093C902BC
:10280000C093C8020E949E01EFCBE6E4F3E013827E
:10281000128288EE93E0A0E0B0E084839583A683E3
:10282000B78326E631E03183208325EC30E035871D
:10283000248724EC30E03787268720EC30E0318B8A
:10284000208B21EC30E0338B228B22EC30E0358B77
:10285000248B26EC30E0378B268B118E128E138E54
:10286000148EE3EEF3E01382128284839583A683B1
:10287000B78388E791E09183808382E194E00E94AE
:1028800010088FE094E00E9410088CE094E00E9411
:10289000100889E094E00E94100880910501ECEF97
:1028A000F3E0282F30E034872387108211821282D0
:1028B0001382148215821682178210861286118660
:1028C000EFEEF3E021E0280F30E0348723878E5FBE
:1028D0008093050110821182128213821482158264
:1028E000168217821086128611860895F999FECFF6
:1028F00092BD81BDF89A992780B50895262FF99940
:10290000FECF1FBA92BD81BD20BD0FB6F894FA9AD2
:10291000F99A0FBE01960895052E97FB1EF40094B8
:102920000E94A31457FD07D00E94BE1407FC03D0D9
:102930004EF40C94A31450954095309521953F4F3B
:102940004F4F5F4F089590958095709561957F4F9B
:102950008F4F9F4F08950E94E014A59F900DB49F44
:10296000900DA49F800D911D11240895B7FF0C9424
:10297000AB140E94AB14821B930B0895A1E21A2E94
:10298000AA1BBB1BFD010DC0AA1FBB1FEE1FFF1F13
:10299000A217B307E407F50720F0A21BB30BE40B63
:1029A000F50B661F771F881F991F1A9469F76095AA
:1029B0007095809590959B01AC01BD01CF01089564
:1029C000A29FB001B39FC001A39F700D811D112470
:1029D000911DB29F700D811D1124911D08950E94BB
:1029E000631588F09F5798F0B92F9927B751B0F029
:1029F000E1F0660F771F881F991F1AF0BA95C9F783
:102A000014C0B13091F00E947D15B1E008950C948E
:102A10007D15672F782F8827B85F39F0B93FCCF341
:102A2000869577956795B395D9F73EF490958095FF
:102A3000709561957F4F8F4F9F4F0895E89409C01F
:102A400097FB3EF490958095709561957F4F8F4FE1
:102A50009F4F9923A9F0F92F96E9BB279395F695F7
:102A6000879577956795B795F111F8CFFAF4BB0F75
:102A700011F460FF1BC06F5F7F4F8F4F9F4F16C0D9
:102A8000882311F096E911C0772321F09EE8872F63
:102A9000762F05C0662371F096E8862F70E060E01F
:102AA0002AF09A95660F771F881FDAF7880F969598
:102AB000879597F9089557FD9058440F551F59F081
:102AC0005F3F71F04795880F97FB991F61F09F3F1B
:102AD00079F087950895121613061406551FF2CF44
:102AE0004695F1DF08C0161617061806991FF1CF94
:102AF00086957105610508940895E894BB276627BB
:102B00007727CB0197F90895FA01EE0FFF1F309652
:102B100021053105A1F16115710561F48038BFE32C
:102B20009B0749F168949038810561F08038BFEFC8
:102B30009B0741F099234AF5FF3FE1053105210547
:102B400019F1E8940894E795D901AA2329F4AB2F49
:102B5000BE2FF85FD0F310C0FF5F70F4A695E0F7CA
:102B6000F73950F019F0FF3A38F49F779F930DD062
:102B70000F9007FC9058089546F00C94611660E0A1
:102B800070E080E89FE308954FE79F775F934F934E
:102B90003F932F930E94D5162F913F914F915F91B4
:102BA0000E9451170C9400160E946315E8F09E379E
:102BB000E8F09639B8F49E3848F4672F782F8827C4
:102BC000985FF9CF86957795679593959539D0F36A
:102BD000B62FB1706B0F711D811D20F4879577950D
:102BE000679593950C9438160C9453160C947E1597
:102BF00029F416F00C9432160C947D150C94611681
:102C00000E946315A8F39638A0F707F80F92E8948E
:102C10002BE33AEA48EB5FE70E9467170F920F92A7
:102C20000F924DB75EB70F920E941D17E8E6F0E0D5
:102C30000E9464164F915F91EF91FF91E595EE1F11
:102C4000FF1F49F0FE57E0684427EE0F441FFA9536
:102C5000E1F74195550B0E9497160F9007FE0C94D3
:102C60008B16089597F99F6780E870E060E00895FB
:102C7000882371F4772321F09850872B762F07C093
:102C8000662311F499270DC09051862B70E060E007
:102C90002AF09A95660F771F881FDAF7880F9695A6
:102CA000879597F908959F3F31F0915020F48795CB
:102CB00077956795B795880F911D9695879597F9A4
:102CC00008959FEF80EC0895DF93CF931F930F93A8
:102CD000FF92EF92DF927B018C01689406C0DA2E9E
:102CE000EF010E946417FE01E894A59125913591AA
:102CF00045915591A6F3EF010E94D617FE01970169
:102D0000A801DA9469F7DF90EF90FF900F911F917F
:102D1000CF91DF9108959B01AC0160E070E080E805
:102D20009FE30C942B180C9432160C9453160E94AB
:102D30006315D8F39923C9F3940F511DA3F3915050
:102D4000504094F059F0882332F0660F771F881FA7
:102D500091505040C1F79E3F51052CF7880F911DAF
:102D60009695879597F908955F3FACF0983E9CF053
:102D7000BB27869577956795B79508F4B1609395CD
:102D8000C1F7BB0F58F711F460FFE8CF6F5F7F4FBB
:102D90008F4F9F4FE3CF0C947E1516F00C94531673
:102DA0000C94611668940C9432160E946315A8F373
:102DB0009923C1F3AEF3DF93CF931F930F93FF9249
:102DC000C92FDD2788232AF02197660F771F881FD8
:102DD000DAF720E030E040E85FEB9FE3883920F04D
:102DE000803E38F021968F770E94BF17E0E9F0E02F
:102DF00004C00E94BF17EDEBF0E00E9464168B0147
:102E0000BE01EC01FB2E6F5771097595771F880B7A
:102E1000990B0E94201528E132E741E35FE30E940D
:102E20006417AF2D9801AE01FF900F911F91CF91C4
:102E3000DF910E94D6170C94AB18FA01DC01AA0F9F
:102E4000BB1F9B01AC01BF5728F42227332744271F
:102E5000507820C0B75190F4AB2F00244695379599
:102E60002795011CA395D2F3002071F0220F331F88
:102E7000441FB395DAF30ED00C94BE176130710580
:102E8000A0E88A07B94630F49B01AC016627772792
:102E900088279078309621F02083318342835383B2
:102EA00008950E9464170C94AB180E949D1838F086
:102EB0000E94A41820F0952311F00C9432160C9463
:102EC000611611240C947E150E945B1570F3959F7A
:102ED000C1F3950F50E0551F629FF001729FBB2711
:102EE000F00DB11D639FAA27F00DB11DAA1F649FAD
:102EF0006627B00DA11D661F829F2227B00DA11D60
:102F0000621F739FB00DA11D621F839FA00D611DE5
:102F1000221F749F3327A00D611D231F849F600D06
:102F2000211D822F762F6A2F11249F5750409AF02F
:102F3000F1F088234AF0EE0FFF1FBB1F661F771FBB
:102F4000881F91505040A9F79E3F510580F00C9486
:102F500032160C947E155F3FE4F3983ED4F38695C9
:102F600077956795B795F795E7959F5FC1F7FE2B26
:102F7000880F911D9695879597F908955058BB270E
:102F8000AA270E94D6170C94AB180E949D1838F0FF
:102F90000E94A41820F039F49F3F19F426F40C94F1
:102FA00061160EF4E095E7FB0C943216E92F0E94AF
:102FB0005B1558F3BA17620773078407950720F06B
:102FC00079F4A6F50C947D150EF4E0950B2EBA2F2E
:102FD000A02D0B01B90190010C01CA01A00111241F
:102FE000FF27591B99F0593F50F4503E68F11A16CB
:102FF000F040A22F232F342F4427585FF3CF46955C
:1030000037952795A795F0405395C9F77EF41F167D
:10301000BA0B620B730B840BBAF09150A1F0FF0F47
:10302000BB1F661F771F881FC2F70EC0BA0F621F33
:10303000731F841F48F4879577956795B795F79523
:103040009E3F08F0B0CF9395880F08F09927EE0FB8
:103050009795879508950E943F180C94AB180E948D
:10306000A41858F00E949D1840F029F45F3F29F001
:103070000C94321651110C947E150C9461160E941A
:103080005B1568F39923B1F3552391F3951B550B09
:10309000BB27AA2762177307840738F09F5F5F4F2B
:1030A000220F331F441FAA1FA9F335D00E2E3AF06A
:1030B000E0E832D091505040E695001CCAF72BD082
:1030C000FE2F29D0660F771F881FBB1F26173707D3
:1030D0004807AB07B0E809F0BB0B802DBF01FF2705
:1030E00093585F4F3AF09E3F510578F00C9432169A
:1030F0000C947E155F3FE4F3983ED4F38695779564
:103100006795B795F7959F5FC9F7880F911D9695BD
:10311000879597F90895E1E0660F771F881FBB1F19
:10312000621773078407BA0720F0621B730B840BC6
:10313000BA0BEE1F88F7E095089500240A9416163E
:10314000170618060906089500240A941216130695
:10315000140605060895092E0394000C11F4882323
:1031600052F0BB0F40F4BF2B11F460FF04C06F5F3F
:103170007F4F8F4F9F4F0895991B79E004C0991F8F
:10318000961708F0961B881F7A95C9F780950895C1
:10319000AA1BBB1B51E107C0AA1FBB1FA617B7077D
:1031A00010F0A61BB70B881F991F5A95A9F7809599
:1031B0009095BC01CD010895EE0FFF1F0590F4918D
:1031C000E02D099481E090E0F8940C94E718F894CD
:0231D000FFCF2F
:1031D200FFFF0D01011001000200040008001000B1
:1031E2002000400080000001000200040008FEFFF1
:1031F200FDFFFBFFF7FFEFFFDFFFBFFF7FFFFFFEDC
:10320200FFFDFFFBFFF701000200040008001000B1
:1032120020004000800000010002000400080010AD
:103222000020004000000000FF000F0F3333AAAA65
:10323200FFFF000000003501880ACD007C01FE007E
:10324200DC00F00000000000360206026602DA012D
:06325200FE01EA01DB01B0
:00000001FF
