:100000000C945D000C9485000C9485000C94850084
:100010000C9485000C9485000C9485000C9485004C
:100020000C9485000C9485000C9485000C9485003C
:100030000C9485000C9485000C9485000C9485002C
:100040000C9439020C9485000C94A9020C94830240
:100050000C9485000C9485000C9485000C9485000C
:100060000C9485000C9485000000000024002700FB
:100070002A0000000000250028002B0004040404CE
:100080000404040402020202020203030303030342
:10009000010204081020408001020408102001021F
:1000A00004081020000000080002010000030407FB
:1000B0000000000000000000450411241FBECFEF27
:1000C000D8E0DEBFCDBF11E0A0E0B1E0EEE6F9E0A0
:1000D00002C005900D92A832B107D9F721E0A8E23D
:1000E000B1E001C01D92AE3CB207E1F710E0CDE5F2
:1000F000D0E004C02197FE010E949B04CC35D107BB
:10010000C9F70E94DB020C94B5040C94000090E047
:10011000FC01EC55FF4F3491FC01E057FF4F249157
:10012000FC01E458FF4FE491EE2309F43BC0332374
:1001300039F1333091F038F43130A9F0323001F533
:1001400084B58F7D12C0373091F03830A1F0343053
:10015000B9F4809180008F7D03C0809180008F77FB
:10016000809380000DC084B58F7784BD09C08091D5
:10017000B0008F7703C08091B0008F7D8093B00076
:10018000F0E0EE0FFF1FEE58FF4FA591B4918FB72F
:10019000F894EC91611103C020952E2301C02E2B01
:1001A0002C938FBF0895CF93DF9390E0FC01E0572D
:1001B000FF4F2491FC01E458FF4F8491882361F1A3
:1001C00090E0880F991FFC01E859FF4FC591D49129
:1001D000FC01EE58FF4FA591B491611109C09FB782
:1001E000F8948881209582238883EC912E230BC07C
:1001F000623061F49FB7F8943881822F8095832311
:100200008883EC912E2B2C939FBF06C08FB7F89458
:10021000E8812E2B28838FBFDF91CF9108952FB7D0
:10022000F89460912D0170912E0180912F01909191
:1002300030012FBF0895CF92DF92EF92FF920F937C
:100240001F93CF93DF936C017A018B01C0E0D0E064
:10025000CE15DF0589F0D8016D918D01D601ED91A4
:10026000FC910190F081E02DC6010995892B11F4D4
:100270007E0102C02196ECCFC701DF91CF911F9183
:100280000F91FF90EF90DF90CF900895089580E058
:1002900090E00895FC01538D448D252F30E0842F8C
:1002A00090E0821B930B541710F0CF96089501979E
:1002B0000895FC01918D828D981761F0828DDF0188
:1002C000A80FB11D5D968C91928D9F5F9F73928F49
:1002D00090E008958FEF9FEF0895FC01918D828D3E
:1002E000981731F0828DE80FF11D858D90E008950B
:1002F0008FEF9FEF0895FC01918D228D892F90E063
:10030000805C9F4F821B91098F739927089581E329
:1003100091E00E947B0121E0892B09F420E0822FEB
:100320000895FC01848DDF01A80FB11DA35ABF4FB2
:100330002C91848D90E001968F739927848FA689E4
:10034000B7892C93A089B1898C9180648C93938D0B
:10035000848D981306C00288F389E02D80818F7DFB
:1003600080830895EF92FF920F931F93CF93DF93B3
:10037000EC0181E0888F9B8D8C8D981305C0E889F6
:10038000F989808185FD24C0F62E0B8D10E00F5F6A
:100390001F4F0F731127E02E8C8DE8120CC00FB683
:1003A00007FCFACFE889F989808185FFF5CFCE0176
:1003B0000E949101F1CF8B8DFE01E80FF11DE35AF0
:1003C000FF4FF0820B8FEA89FB898081806207C032
:1003D000EE89FF896083E889F98980818064808360
:1003E00081E090E0DF91CF911F910F91FF90EF900E
:1003F0000895CF93DF93EC01888D8823C9F0EA89B3
:10040000FB89808185FD05C0A889B9898C9186FD0D
:100410000FC00FB607FCF5CF808185FFF2CFA8890A
:10042000B9898C9185FFEDCFCE010E949101E7CF74
:10043000DF91CF91089580E090E0892B29F00E9410
:10044000870181110C9400000895009769F0FC0168
:1004500001900020E9F73197AF01481B590BBC010F
:1004600081E391E00C941B0180E090E008950E94EC
:10047000B0041F920F920FB60F9211242F933F9347
:100480008F939F93AF93BF9380912D0190912E01F5
:10049000A0912F01B091300130912C0123E0230F66
:1004A0002D3720F40196A11DB11D05C026E8230FAC
:1004B0000296A11DB11D20932C0180932D019093D4
:1004C0002E01A0932F01B0933001809128019091CB
:1004D0002901A0912A01B0912B010196A11DB11D06
:1004E0008093280190932901A0932A01B0932B01B6
:1004F000BF91AF919F918F913F912F910F900FBE20
:100500000F901F9018951F920F920FB60F92112403
:100510002F933F934F935F936F937F938F939F930B
:10052000AF93BF93EF93FF9381E391E00E9491011A
:10053000FF91EF91BF91AF919F918F917F916F91BB
:100540005F914F913F912F910F900FBE0F901F9091
:1005500018951F920F920FB60F9211242F938F931D
:100560009F93EF93FF93E0914101F09142018081CD
:10057000E0914701F091480182FD12C09081809185
:100580004A018F5F8F7320914B01821751F0E091E8
:100590004A01F0E0EF5CFE4F958F80934A0101C065
:1005A0008081FF91EF919F918F912F910F900FBEBE
:1005B0000F901F901895CF93DF93CDB7DEB7A39719
:1005C0000FB6F894DEBF0FBECDBF789484B58260BD
:1005D00084BD84B5816084BD85B5826085BD85B5E7
:1005E000816085BD80916E00816080936E00109265
:1005F00081008091810082608093810080918100E0
:100600008160809381008091800081608093800070
:100610008091B10084608093B1008091B0008160CE
:100620008093B00080917A00846080937A008091FA
:100630007A00826080937A0080917A008160809352
:100640007A0080917A00806880937A001092C100CD
:1006500061E087E00E94D30061E086E00E94D30061
:1006600061E085E00E94D30061E084E00E94D30055
:1006700060E082E00E94D30061E082E00E94870097
:1006800060E083E00E94D300E0914101F0914201DB
:1006900082E08083E0913D01F0913E011082E09183
:1006A0003F01F09140018FEC808310924901E0916D
:1006B0004501F091460186E08083E0914301F0918D
:1006C0004401808180618083E0914301F091440185
:1006D000808188608083E0914301F09144018081B2
:1006E00080688083E0914301F091440180818F7D97
:1006F000808380E4382E0E940F016B017C013092D0
:100700007C0080917A00806480937A0080917A00E6
:1007100086FDFCCFA091780080917900B0E0B82BE5
:1007200024E630E00E9494042FEF33E040E050E0F4
:100730000E94720429013A018AE191E00E94250297
:1007400019A2A30192018E010F5D1F4FCA01B901C9
:100750002AE030E040E050E00E947204605DF80161
:1007600062938F01211531054105510579F7CF01BC
:100770000E94250285E291E00E94250282E191E03B
:100780009BA38AA38C01F80120800E5F1F4F61E0BC
:10079000822D0E94870046015701D501C4018C19A2
:1007A0009D09AE09BF09481659066A067B0628F05E
:1007B0000E940F014B015C01F0CF61E0F8018081E4
:1007C0000E94870075016401D701C6018819990943
:1007D000AA09BB09481659066A067B0628F00E943A
:1007E0000F016B017C01F0CF60E0822D0E94870039
:1007F000F1E00A311F0739F603E010E0EAA1FBA19E
:10080000268061E0822D0E94870046015701D501B4
:10081000C4018C199D09AE09BF09481659066A061C
:100820007B0628F00E940F014B015C01F0CF75019F
:1008300064010115110531F061E0EAA1FBA1848199
:100840000E948700D701C60188199909AA09BB0926
:10085000481659066A067B0628F00E940F016B01B4
:100860007C01F0CF60E0822D0E94870001501109C9
:100870008AA19BA102979BA38AA30F3F9FEF190711
:1008800009F0BCCF0E941B0236CFE1E3F1E01382F6
:10089000128288EE93E0A0E0B0E084839583A68383
:1008A000B78384E091E09183808385EC90E0958725
:1008B000848784EC90E09787868780EC90E0918B2A
:1008C000808B81EC90E0938B828B82EC90E0958B17
:1008D000848B86EC90E0978B868B118E128E138E14
:1008E000148E0895A1E21A2EAA1BBB1BFD010DC098
:1008F000AA1FBB1FEE1FFF1FA217B307E407F507D0
:1009000020F0A21BB30BE40BF50B661F771F881FAB
:10091000991F1A9469F760957095809590959B0141
:10092000AC01BD01CF0108950E94A104B7FF089555
:10093000821B930B0895EE0FFF1F0590F491E02D9D
:100940000994A29FB001B39FC001A39F700D811DA8
:100950001124911DB29F700D811D1124911D0895C8
:0E09600081E090E0F8940C94B504F894FFCF79
:10096E0000000000B2011B014A01F9017B0159018F
:10097E006D010700060005000400496E746572766D
:08098E00616C3A20000A000030
:00000001FF
