:100000000C9462000C948A000C948A000C948A0070
:100010000C948A000C948A000C948A000C948A0038
:100020000C948A000C948A000C948A000C947C0333
:100030000C948A000C948A000C948A000C948A0018
:100040000C94DA020C948A000C944A030C94240356
:100050000C948A000C948A000C948A000C948A00F8
:100060000C948A000C948A000000000024002700F1
:100070002A0000000000250028002B0000000000DE
:1000800023002600290004040404040404040202DA
:100090000202020203030303030301020408102007
:1000A0004080010204081020010204081020000012
:1000B0000008000201000003040700000000000027
:1000C00000003D0411241FBECFEFD8E0DEBFCDBF3E
:1000D00011E0A0E0B1E0E4EEFEE002C005900D9278
:1000E000AE31B107D9F721E0AEE1B1E001C01D9218
:1000F000AF3FB207E1F710E0C2E6D0E004C02197BD
:10010000FE010E946507C136D107C9F70E949B0412
:100110000C9470070C940000CF92DF92EF92FF9244
:10012000DC01A03282E0B8070CF03EC0B7FD06C08B
:10013000A53BB1052CF0A4EBB0E002C0A0E0B0E01C
:100140008091FD0128E830E06901C81AD10887FDD7
:10015000D394CC0CDD1CCC0CDD1C0D2C000CEE085B
:10016000FF088091FE0128E532E0281B310987FD58
:100170003395220F331F220F331FA901330F660B54
:10018000770B9A01AB012C193D094E095F090E94BA
:10019000190724EB30E040E050E00E94EF06C20E69
:1001A000D31EE41EF51ED6019091FC019C3098F5FB
:1001B0008091FD0148E850E0481B510987FD5395A7
:1001C000440F551F440F551FA417B5078CF080919D
:1001D000FE0128E532E0281B310987FD3395220F07
:1001E000331F220F331FAD012A173B070CF4A9015F
:1001F00042505109440F551F2FB7F894892F90E0B2
:10020000FC01EE0FFF1F8E0F9F1FFC01E952FE4FF6
:10021000528341832FBFFF90EF90DF90CF900895DE
:10022000833081F028F4813099F08230A1F0089574
:100230008730A9F08830B9F08430D1F48091800003
:100240008F7D03C0809180008F7780938000089518
:1002500084B58F7702C084B58F7D84BD0895809169
:10026000B0008F7703C08091B0008F7D8093B00085
:100270000895CF93DF93282F30E0F901E255FF4F27
:100280008491F901E656FF4FD491F901EA57FF4FE7
:10029000C491CC2391F081110E941001EC2FF0E069
:1002A000EE0FFF1FE458FF4FA591B491EC91ED23A1
:1002B00081E090E021F480E002C080E090E0DF91F6
:1002C000CF9108951F93CF93DF93282F30E0F9014A
:1002D000E255FF4F8491F901E656FF4FD491F901A1
:1002E000EA57FF4FC491CC23C9F0162F81110E9409
:1002F0001001EC2FF0E0EE0FFF1FEE58FF4FA5911D
:10030000B4918FB7F894111105C09C91ED2FE09531
:10031000E92302C0EC91ED2BEC938FBFDF91CF91DD
:100320001F910895CF93DF9390E0FC01E656FF4FB5
:100330002491FC01EA57FF4F8491882361F190E0FA
:10034000880F991FFC01E859FF4FC591D491FC011A
:10035000EE58FF4FA591B491611109C09FB7F89471
:100360008881209582238883EC912E230BC06230F4
:1003700061F49FB7F8943881822F80958323888316
:10038000EC912E2B2C939FBF06C08FB7F894E88179
:100390002E2B28838FBFDF91CF910895CF92DF92CC
:1003A000EF92FF920F931F93CF93DF936C017A012B
:1003B0008B01C0E0D0E0CE15DF0589F0D8016D914A
:1003C0008D01D601ED91FC910190F081E02DC601E7
:1003D0000995892B11F47E0102C02196ECCFC7014B
:1003E000DF91CF911F910F91FF90EF90DF90CF9011
:1003F0000895089580E090E00895FC01538D448DA8
:10040000252F30E0842F90E0821B930B541710F0BF
:10041000CF96089501970895FC01918D828D9817CC
:1004200061F0828DDF01A80FB11D5D968C91928DD8
:100430009F5F9F73928F90E008958FEF9FEF0895D5
:10044000FC01918D828D981731F0828DE80FF11D9E
:10045000858D90E008958FEF9FEF0895FC01918DB9
:10046000228D892F90E0805C9F4F821B91098F73B2
:10047000992708958AE391E00E942E0221E0892BBA
:1004800009F420E0822F0895FC01848DDF01A80F7C
:10049000B11DA35ABF4F2C91848D90E001968F73AC
:1004A0009927848FA689B7892C93A089B1898C91CB
:1004B00080648C93938D848D981306C00288F38991
:1004C000E02D80818F7D80830895EF92FF920F93BE
:1004D0001F93CF93DF93EC0181E0888F9B8D8C8DF0
:1004E000981305C0E889F989808185FD24C0F62E1E
:1004F0000B8D10E00F5F1F4F0F731127E02E8C8DB7
:10050000E8120CC00FB607FCFACFE889F9898081A0
:1005100085FFF5CFCE010E944402F1CF8B8DFE0105
:10052000E80FF11DE35AFF4FF0820B8FEA89FB8938
:100530008081806207C0EE89FF896083E889F9893C
:1005400080818064808381E090E0DF91CF911F9172
:100550000F91FF90EF900895CF93DF93EC01888D7A
:100560008823C9F0EA89FB89808185FD05C0A889B7
:10057000B9898C9186FD0FC00FB607FCF5CF80813D
:1005800085FFF2CFA889B9898C9185FFEDCFCE0187
:100590000E944402E7CFDF91CF91089580E090E080
:1005A000892B29F00E943A0281110C9400000895D1
:1005B0000E946B071F920F920FB60F9211242F9378
:1005C0003F938F939F93AF93BF9380913601909108
:1005D0003701A0913801B09139013091350123E004
:1005E000230F2D3720F40196A11DB11D05C026E86B
:1005F000230F0296A11DB11D209335018093360172
:1006000090933701A0933801B09339018091310163
:1006100090913201A0913301B09134010196A11D56
:10062000B11D8093310190933201A0933301B093B7
:100630003401BF91AF919F918F913F912F910F9076
:100640000FBE0F901F9018951F920F920FB60F922A
:1006500011242F933F934F935F936F937F938F93C7
:100660009F93AF93BF93EF93FF938AE391E00E9430
:100670004402FF91EF91BF91AF919F918F917F9134
:100680006F915F914F913F912F910F900FBE0F90FF
:100690001F9018951F920F920FB60F9211242F934F
:1006A0008F939F93EF93FF93E0914A01F0914B0159
:1006B0008081E0915001F091510182FD12C0908142
:1006C000809153018F5F8F7320915401821751F0F5
:1006D000E0915301F0E0E65CFE4F958F809353016B
:1006E00001C08081FF91EF919F918F912F910F9089
:1006F0000FBE0F901F9018951F920F920FB60F927A
:1007000011242F933F934F935F936F937F938F9316
:100710009F93AF93BF93EF93FF9380911E0187FF49
:1007200005C010928500109284001BC020911E010C
:10073000022E000C330B8091FB0190E02817390743
:1007400084F480911E01082E000C990BFC01EE0F21
:10075000FF1F8E0F9F1FFC01E952FE4F808186FD17
:1007600015C080911E018F5F80931E0120911E0194
:10077000022E000C330B8091FB0190E02817390703
:10078000C4F480911E018C3064F113C080911E016D
:10079000082E000C990BFC01EE0FFF1F8E0F9F1F00
:1007A000FC01E952FE4F808160E08F730E9462017C
:1007B000D8CF8091840090918500049680349C4924
:1007C00018F480E49CE905C0809184009091850034
:1007D000049690938900809388008FEF80931E0188
:1007E0003BC0209184003091850080911E01082E2D
:1007F000000C990BFC01EE0FFF1F8E0F9F1FFC01D9
:10080000E952FE4F81819281820F931F909389005C
:100810008093880080911E01082E000C990BFC012A
:10082000EE0FFF1F8E0F9F1FFC01E952FE4F8081CC
:1008300086FF12C080911E01082E000C990BFC014E
:10084000EE0FFF1F8E0F9F1FFC01E952FE4F8081AC
:1008500061E08F730E946201FF91EF91BF91AF91B0
:100860009F918F917F916F915F914F913F912F91C8
:100870000F900FBE0F901F90189510923D0110928F
:100880003C0188EE93E0A0E0B0E080933E019093BD
:100890003F01A0934001B09341018DE091E090931E
:1008A0003B0180933A0185EC90E09093470180935F
:1008B000460184EC90E0909349018093480180ECDC
:1008C00090E090934B0180934A0181EC90E09093EB
:1008D0004D0180934C0182EC90E090934F01809306
:1008E0004E0186EC90E0909351018093500110925C
:1008F00053011092540110925501109256018091AB
:10090000FB018C30A0F491E0980F9093FB01809351
:10091000FC0190E0FC01EE0FFF1F8E0F9F1FFC01FA
:10092000E952FE4F88EB9BE09283818308958FEF1D
:100930008093FC010895CF93DF93CDB7DEB7A197E5
:100940000FB6F894DEBF0FBECDBF789484B5826039
:1009500084BD84B5816084BD85B5826085BD85B563
:10096000816085BD80916E00816080936E001092E1
:10097000810080918100826080938100809181005C
:1009800081608093810080918000816080938000ED
:100990008091B10084608093B1008091B00081604B
:1009A0008093B00080917A00846080937A00809177
:1009B0007A00826080937A0080917A0081608093CF
:1009C0007A0080917A00806880937A001092C1004A
:1009D00061E087E00E94920161E086E00E9492015E
:1009E00061E085E00E94920161E084E00E94920152
:1009F00060E082E00E94920160E083E00E94920148
:100A000061E082E00E946201E0914A01F0914B01B5
:100A100082E08083E0914601F09147011082E091ED
:100A20004801F09149018FEC808310925201E091CE
:100A30004E01F0914F0186E08083E0914C01F091EE
:100A40004D01808180618083E0914C01F0914D01E6
:100A5000808188608083E0914C01F0914D0180811C
:100A600080688083E0914C01F0914D0180818F7D01
:100A700080838091FC018C3008F051C061E089E0F6
:100A80000E9492018091FC01E82FF0E09F01220F6B
:100A9000331FE20FF31FE952FE4F9081907C996063
:100AA00090831092FD011092FE016CE00E945207AB
:100AB0009CE0899FB001112440E050E09A01260F8C
:100AC000371FF901EE0FFF1F2E0F3F1FF901E952EB
:100AD000FE4F908196FD16C04F5F5F4F4C30510521
:100AE00069F781110FC01092800082E0809381002D
:100AF0001092850010928400B19A80916F008260FC
:100B000080936F00E091FC01F0E0CF01880F991F06
:100B1000E80FF91FE952FE4F8081806480835AE01C
:100B2000C52ED12CE12CF12C812C912C54018394D5
:100B300044244A9473E0572E612C712C2224239470
:100B4000312C83E00E943901892B09F45DC082E0D9
:100B50000E943901892B09F04CC080922D0190929E
:100B60002E01A0922F01B092300182E00E94390143
:100B7000892B69F720912D0130912E0140912F0191
:100B800050913001DA01C9010196A11DB11D809378
:100B90002D0190932E01A0932F01B093300119A243
:100BA0008E010F5D1F4FCA01B901A70196010E9476
:100BB0002107605DF80162938F0121153105410520
:100BC000510589F7309761F001900020E9F73197DE
:100BD000AF01401B510BB8018AE391E00E94CE01A6
:100BE00042E050E06BE171E08AE391E00E94CE01C7
:100BF000BCCF60912D0170912E0180912F019091B9
:100C00003001A701960125C0F0E4F0937C008091AB
:100C10007A00806480937A0080917A0086FDFCCF10
:100C2000A091780080917900B0E0B82BAD010B2E37
:100C3000000C660B770B40932801509329016093B9
:100C40002A0170932B0124E630E00E945E07A30185
:100C500092010E94210720932C0160912C018AE3CC
:100C600091E00E9465028AE391E00E942E02892BA6
:100C700031F08AE391E00E940C02809327018FB744
:100C8000F89440913601509137016091380170918C
:100C900039018FBF50932601409325018091230194
:100CA000909124019A01281B390B8091270190E033
:100CB0002817390708F490C050932401409323016A
:100CC00000912101109122010115110521F481E00B
:100CD0008093000105C00330110511F4109200014A
:100CE00080911F0190912001209100012223E9F0C1
:100CF0000097E9F0043011054CF48130910531F48E
:100D0000000F111FF801ED5FFE4F2AC082309105E0
:100D100079F7F801EE0FFF1FEF5FFE4F60E0808173
:100D20000E9462010F5F1F4F34C0009771F4000FE3
:100D3000111FF801EF5FFE4F61E080810E946201A8
:100D40003092200120921F012CC0101611069CF435
:100D50008130910581F4000F111FF801E150FF4F20
:100D600061E080810E94620182E090E09093200126
:100D700080931F0116C082309105B9F6F801EE0F7D
:100D8000FF1FEF5FFE4F60E080810E946201015013
:100D90001109109322010093210110922001109259
:100DA0001F018091210190912201009719F480E0A8
:100DB00090E010C08130910519F48CE390E00AC0F6
:100DC0008230910519F488E790E004C0039721F47C
:100DD00084EB90E00E948C000E94CE02B2CE052EE1
:100DE00097FB1EF400940E94060757FD07D00E944F
:100DF000210707FC03D04EF40C940607509540954C
:100E0000309521953F4F4F4F5F4F089590958095B6
:100E1000709561957F4F8F4F9F4F08950E944307B4
:100E2000A59F900DB49F900DA49F800D911D11243E
:100E30000895B7FF0C940E070E940E07821B930BB8
:100E40000895A1E21A2EAA1BBB1BFD010DC0AA1F0B
:100E5000BB1FEE1FFF1FA217B307E407F50720F023
:100E6000A21BB30BE40BF50B661F771F881F991F9E
:100E70001A9469F760957095809590959B01AC01E7
:100E8000BD01CF010895A29FB001B39FC001A39FF0
:100E9000700D811D1124911DB29F700D811D1124B3
:100EA000911D0895991B79E004C0991F961708F0C9
:100EB000961B881F7A95C9F7809508950E9443076D
:100EC000B7FF0895821B930B0895EE0FFF1F059047
:100ED000F491E02D099481E090E0F8940C9470076F
:040EE000F894FFCFB4
:100EE400010700060005000400000000006502CEB2
:0E0EF40001FD01AC022E020C0220020D0A00CC
:00000001FF
